{
    "contractName": "Bridge",
    "abi": [
        {
            "inputs": [
                {
                    "internalType": "uint8",
                    "name": "chainID",
                    "type": "uint8"
                },
                {
                    "internalType": "address[]",
                    "name": "initialRelayers",
                    "type": "address[]"
                },
                {
                    "internalType": "uint256",
                    "name": "initialRelayerThreshold",
                    "type": "uint256"
                },
                {
                    "internalType": "uint256",
                    "name": "fee",
                    "type": "uint256"
                },
                {
                    "internalType": "uint256",
                    "name": "expiry",
                    "type": "uint256"
                }
            ],
            "stateMutability": "nonpayable",
            "type": "constructor"
        },
        {
            "anonymous": false,
            "inputs": [
                {
                    "indexed": true,
                    "internalType": "uint8",
                    "name": "destinationChainID",
                    "type": "uint8"
                },
                {
                    "indexed": true,
                    "internalType": "bytes32",
                    "name": "resourceID",
                    "type": "bytes32"
                },
                {
                    "indexed": true,
                    "internalType": "uint64",
                    "name": "depositNonce",
                    "type": "uint64"
                }
            ],
            "name": "Deposit",
            "type": "event"
        },
        {
            "anonymous": false,
            "inputs": [
                {
                    "indexed": false,
                    "internalType": "address",
                    "name": "account",
                    "type": "address"
                }
            ],
            "name": "Paused",
            "type": "event"
        },
        {
            "anonymous": false,
            "inputs": [
                {
                    "indexed": true,
                    "internalType": "uint8",
                    "name": "originChainID",
                    "type": "uint8"
                },
                {
                    "indexed": true,
                    "internalType": "uint64",
                    "name": "depositNonce",
                    "type": "uint64"
                },
                {
                    "indexed": true,
                    "internalType": "enum Bridge.ProposalStatus",
                    "name": "status",
                    "type": "uint8"
                },
                {
                    "indexed": false,
                    "internalType": "bytes32",
                    "name": "resourceID",
                    "type": "bytes32"
                },
                {
                    "indexed": false,
                    "internalType": "bytes32",
                    "name": "dataHash",
                    "type": "bytes32"
                }
            ],
            "name": "ProposalEvent",
            "type": "event"
        },
        {
            "anonymous": false,
            "inputs": [
                {
                    "indexed": true,
                    "internalType": "uint8",
                    "name": "originChainID",
                    "type": "uint8"
                },
                {
                    "indexed": true,
                    "internalType": "uint64",
                    "name": "depositNonce",
                    "type": "uint64"
                },
                {
                    "indexed": true,
                    "internalType": "enum Bridge.ProposalStatus",
                    "name": "status",
                    "type": "uint8"
                },
                {
                    "indexed": false,
                    "internalType": "bytes32",
                    "name": "resourceID",
                    "type": "bytes32"
                }
            ],
            "name": "ProposalVote",
            "type": "event"
        },
        {
            "anonymous": false,
            "inputs": [
                {
                    "indexed": true,
                    "internalType": "address",
                    "name": "relayer",
                    "type": "address"
                }
            ],
            "name": "RelayerAdded",
            "type": "event"
        },
        {
            "anonymous": false,
            "inputs": [
                {
                    "indexed": true,
                    "internalType": "address",
                    "name": "relayer",
                    "type": "address"
                }
            ],
            "name": "RelayerRemoved",
            "type": "event"
        },
        {
            "anonymous": false,
            "inputs": [
                {
                    "indexed": true,
                    "internalType": "uint256",
                    "name": "newThreshold",
                    "type": "uint256"
                }
            ],
            "name": "RelayerThresholdChanged",
            "type": "event"
        },
        {
            "anonymous": false,
            "inputs": [
                {
                    "indexed": true,
                    "internalType": "bytes32",
                    "name": "role",
                    "type": "bytes32"
                },
                {
                    "indexed": true,
                    "internalType": "bytes32",
                    "name": "previousAdminRole",
                    "type": "bytes32"
                },
                {
                    "indexed": true,
                    "internalType": "bytes32",
                    "name": "newAdminRole",
                    "type": "bytes32"
                }
            ],
            "name": "RoleAdminChanged",
            "type": "event"
        },
        {
            "anonymous": false,
            "inputs": [
                {
                    "indexed": true,
                    "internalType": "bytes32",
                    "name": "role",
                    "type": "bytes32"
                },
                {
                    "indexed": true,
                    "internalType": "address",
                    "name": "account",
                    "type": "address"
                },
                {
                    "indexed": true,
                    "internalType": "address",
                    "name": "sender",
                    "type": "address"
                }
            ],
            "name": "RoleGranted",
            "type": "event"
        },
        {
            "anonymous": false,
            "inputs": [
                {
                    "indexed": true,
                    "internalType": "bytes32",
                    "name": "role",
                    "type": "bytes32"
                },
                {
                    "indexed": true,
                    "internalType": "address",
                    "name": "account",
                    "type": "address"
                },
                {
                    "indexed": true,
                    "internalType": "address",
                    "name": "sender",
                    "type": "address"
                }
            ],
            "name": "RoleRevoked",
            "type": "event"
        },
        {
            "anonymous": false,
            "inputs": [
                {
                    "indexed": false,
                    "internalType": "address",
                    "name": "account",
                    "type": "address"
                }
            ],
            "name": "Unpaused",
            "type": "event"
        },
        {
            "inputs": [],
            "name": "DEFAULT_ADMIN_ROLE",
            "outputs": [
                {
                    "internalType": "bytes32",
                    "name": "",
                    "type": "bytes32"
                }
            ],
            "stateMutability": "view",
            "type": "function",
            "constant": true
        },
        {
            "inputs": [],
            "name": "RELAYER_ROLE",
            "outputs": [
                {
                    "internalType": "bytes32",
                    "name": "",
                    "type": "bytes32"
                }
            ],
            "stateMutability": "view",
            "type": "function",
            "constant": true
        },
        {
            "inputs": [],
            "name": "_chainID",
            "outputs": [
                {
                    "internalType": "uint8",
                    "name": "",
                    "type": "uint8"
                }
            ],
            "stateMutability": "view",
            "type": "function",
            "constant": true
        },
        {
            "inputs": [
                {
                    "internalType": "uint8",
                    "name": "",
                    "type": "uint8"
                }
            ],
            "name": "_depositCounts",
            "outputs": [
                {
                    "internalType": "uint64",
                    "name": "",
                    "type": "uint64"
                }
            ],
            "stateMutability": "view",
            "type": "function",
            "constant": true
        },
        {
            "inputs": [
                {
                    "internalType": "uint64",
                    "name": "",
                    "type": "uint64"
                },
                {
                    "internalType": "uint8",
                    "name": "",
                    "type": "uint8"
                }
            ],
            "name": "_depositRecords",
            "outputs": [
                {
                    "internalType": "bytes",
                    "name": "",
                    "type": "bytes"
                }
            ],
            "stateMutability": "view",
            "type": "function",
            "constant": true
        },
        {
            "inputs": [],
            "name": "_expiry",
            "outputs": [
                {
                    "internalType": "uint256",
                    "name": "",
                    "type": "uint256"
                }
            ],
            "stateMutability": "view",
            "type": "function",
            "constant": true
        },
        {
            "inputs": [],
            "name": "_fee",
            "outputs": [
                {
                    "internalType": "uint256",
                    "name": "",
                    "type": "uint256"
                }
            ],
            "stateMutability": "view",
            "type": "function",
            "constant": true
        },
        {
            "inputs": [
                {
                    "internalType": "uint72",
                    "name": "",
                    "type": "uint72"
                },
                {
                    "internalType": "bytes32",
                    "name": "",
                    "type": "bytes32"
                },
                {
                    "internalType": "address",
                    "name": "",
                    "type": "address"
                }
            ],
            "name": "_hasVotedOnProposal",
            "outputs": [
                {
                    "internalType": "bool",
                    "name": "",
                    "type": "bool"
                }
            ],
            "stateMutability": "view",
            "type": "function",
            "constant": true
        },
        {
            "inputs": [
                {
                    "internalType": "uint72",
                    "name": "",
                    "type": "uint72"
                },
                {
                    "internalType": "bytes32",
                    "name": "",
                    "type": "bytes32"
                }
            ],
            "name": "_proposals",
            "outputs": [
                {
                    "internalType": "bytes32",
                    "name": "_resourceID",
                    "type": "bytes32"
                },
                {
                    "internalType": "bytes32",
                    "name": "_dataHash",
                    "type": "bytes32"
                },
                {
                    "internalType": "enum Bridge.ProposalStatus",
                    "name": "_status",
                    "type": "uint8"
                },
                {
                    "internalType": "uint256",
                    "name": "_proposedBlock",
                    "type": "uint256"
                }
            ],
            "stateMutability": "view",
            "type": "function",
            "constant": true
        },
        {
            "inputs": [],
            "name": "_relayerThreshold",
            "outputs": [
                {
                    "internalType": "uint256",
                    "name": "",
                    "type": "uint256"
                }
            ],
            "stateMutability": "view",
            "type": "function",
            "constant": true
        },
        {
            "inputs": [
                {
                    "internalType": "bytes32",
                    "name": "",
                    "type": "bytes32"
                }
            ],
            "name": "_resourceIDToHandlerAddress",
            "outputs": [
                {
                    "internalType": "address",
                    "name": "",
                    "type": "address"
                }
            ],
            "stateMutability": "view",
            "type": "function",
            "constant": true
        },
        {
            "inputs": [],
            "name": "_totalProposals",
            "outputs": [
                {
                    "internalType": "uint256",
                    "name": "",
                    "type": "uint256"
                }
            ],
            "stateMutability": "view",
            "type": "function",
            "constant": true
        },
        {
            "inputs": [],
            "name": "_totalRelayers",
            "outputs": [
                {
                    "internalType": "uint256",
                    "name": "",
                    "type": "uint256"
                }
            ],
            "stateMutability": "view",
            "type": "function",
            "constant": true
        },
        {
            "inputs": [
                {
                    "internalType": "bytes32",
                    "name": "role",
                    "type": "bytes32"
                }
            ],
            "name": "getRoleAdmin",
            "outputs": [
                {
                    "internalType": "bytes32",
                    "name": "",
                    "type": "bytes32"
                }
            ],
            "stateMutability": "view",
            "type": "function",
            "constant": true
        },
        {
            "inputs": [
                {
                    "internalType": "bytes32",
                    "name": "role",
                    "type": "bytes32"
                },
                {
                    "internalType": "uint256",
                    "name": "index",
                    "type": "uint256"
                }
            ],
            "name": "getRoleMember",
            "outputs": [
                {
                    "internalType": "address",
                    "name": "",
                    "type": "address"
                }
            ],
            "stateMutability": "view",
            "type": "function",
            "constant": true
        },
        {
            "inputs": [
                {
                    "internalType": "bytes32",
                    "name": "role",
                    "type": "bytes32"
                }
            ],
            "name": "getRoleMemberCount",
            "outputs": [
                {
                    "internalType": "uint256",
                    "name": "",
                    "type": "uint256"
                }
            ],
            "stateMutability": "view",
            "type": "function",
            "constant": true
        },
        {
            "inputs": [
                {
                    "internalType": "bytes32",
                    "name": "role",
                    "type": "bytes32"
                },
                {
                    "internalType": "address",
                    "name": "account",
                    "type": "address"
                }
            ],
            "name": "grantRole",
            "outputs": [],
            "stateMutability": "nonpayable",
            "type": "function"
        },
        {
            "inputs": [
                {
                    "internalType": "bytes32",
                    "name": "role",
                    "type": "bytes32"
                },
                {
                    "internalType": "address",
                    "name": "account",
                    "type": "address"
                }
            ],
            "name": "hasRole",
            "outputs": [
                {
                    "internalType": "bool",
                    "name": "",
                    "type": "bool"
                }
            ],
            "stateMutability": "view",
            "type": "function",
            "constant": true
        },
        {
            "inputs": [],
            "name": "paused",
            "outputs": [
                {
                    "internalType": "bool",
                    "name": "",
                    "type": "bool"
                }
            ],
            "stateMutability": "view",
            "type": "function",
            "constant": true
        },
        {
            "inputs": [
                {
                    "internalType": "bytes32",
                    "name": "role",
                    "type": "bytes32"
                },
                {
                    "internalType": "address",
                    "name": "account",
                    "type": "address"
                }
            ],
            "name": "renounceRole",
            "outputs": [],
            "stateMutability": "nonpayable",
            "type": "function"
        },
        {
            "inputs": [
                {
                    "internalType": "bytes32",
                    "name": "role",
                    "type": "bytes32"
                },
                {
                    "internalType": "address",
                    "name": "account",
                    "type": "address"
                }
            ],
            "name": "revokeRole",
            "outputs": [],
            "stateMutability": "nonpayable",
            "type": "function"
        },
        {
            "inputs": [
                {
                    "internalType": "address",
                    "name": "relayer",
                    "type": "address"
                }
            ],
            "name": "isRelayer",
            "outputs": [
                {
                    "internalType": "bool",
                    "name": "",
                    "type": "bool"
                }
            ],
            "stateMutability": "view",
            "type": "function",
            "constant": true
        },
        {
            "inputs": [
                {
                    "internalType": "address",
                    "name": "newAdmin",
                    "type": "address"
                }
            ],
            "name": "renounceAdmin",
            "outputs": [],
            "stateMutability": "nonpayable",
            "type": "function"
        },
        {
            "inputs": [],
            "name": "adminPauseTransfers",
            "outputs": [],
            "stateMutability": "nonpayable",
            "type": "function"
        },
        {
            "inputs": [],
            "name": "adminUnpauseTransfers",
            "outputs": [],
            "stateMutability": "nonpayable",
            "type": "function"
        },
        {
            "inputs": [
                {
                    "internalType": "uint256",
                    "name": "newThreshold",
                    "type": "uint256"
                }
            ],
            "name": "adminChangeRelayerThreshold",
            "outputs": [],
            "stateMutability": "nonpayable",
            "type": "function"
        },
        {
            "inputs": [
                {
                    "internalType": "address",
                    "name": "relayerAddress",
                    "type": "address"
                }
            ],
            "name": "adminAddRelayer",
            "outputs": [],
            "stateMutability": "nonpayable",
            "type": "function"
        },
        {
            "inputs": [
                {
                    "internalType": "address",
                    "name": "relayerAddress",
                    "type": "address"
                }
            ],
            "name": "adminRemoveRelayer",
            "outputs": [],
            "stateMutability": "nonpayable",
            "type": "function"
        },
        {
            "inputs": [
                {
                    "internalType": "address",
                    "name": "handlerAddress",
                    "type": "address"
                },
                {
                    "internalType": "bytes32",
                    "name": "resourceID",
                    "type": "bytes32"
                },
                {
                    "internalType": "address",
                    "name": "tokenAddress",
                    "type": "address"
                }
            ],
            "name": "adminSetResource",
            "outputs": [],
            "stateMutability": "nonpayable",
            "type": "function"
        },
        {
            "inputs": [
                {
                    "internalType": "address",
                    "name": "handlerAddress",
                    "type": "address"
                },
                {
                    "internalType": "bytes32",
                    "name": "resourceID",
                    "type": "bytes32"
                },
                {
                    "internalType": "address",
                    "name": "contractAddress",
                    "type": "address"
                },
                {
                    "internalType": "bytes4",
                    "name": "depositFunctionSig",
                    "type": "bytes4"
                },
                {
                    "internalType": "bytes4",
                    "name": "executeFunctionSig",
                    "type": "bytes4"
                }
            ],
            "name": "adminSetGenericResource",
            "outputs": [],
            "stateMutability": "nonpayable",
            "type": "function"
        },
        {
            "inputs": [
                {
                    "internalType": "address",
                    "name": "handlerAddress",
                    "type": "address"
                },
                {
                    "internalType": "address",
                    "name": "tokenAddress",
                    "type": "address"
                }
            ],
            "name": "adminSetBurnable",
            "outputs": [],
            "stateMutability": "nonpayable",
            "type": "function"
        },
        {
            "inputs": [
                {
                    "internalType": "address",
                    "name": "handlerAddress",
                    "type": "address"
                },
                {
                    "internalType": "address",
                    "name": "tokenAddress",
                    "type": "address"
                },
                {
                    "internalType": "uint8",
                    "name": "srcDecimals",
                    "type": "uint8"
                },
                {
                    "internalType": "uint8",
                    "name": "destDecimals",
                    "type": "uint8"
                }
            ],
            "name": "adminSetDecimals",
            "outputs": [],
            "stateMutability": "nonpayable",
            "type": "function"
        },
        {
            "inputs": [
                {
                    "internalType": "uint8",
                    "name": "chainId",
                    "type": "uint8"
                },
                {
                    "internalType": "uint64",
                    "name": "depositNonce",
                    "type": "uint64"
                }
            ],
            "name": "adminSetDepositNonce",
            "outputs": [],
            "stateMutability": "nonpayable",
            "type": "function"
        },
        {
            "inputs": [
                {
                    "internalType": "uint8",
                    "name": "originChainID",
                    "type": "uint8"
                },
                {
                    "internalType": "uint64",
                    "name": "depositNonce",
                    "type": "uint64"
                },
                {
                    "internalType": "bytes32",
                    "name": "dataHash",
                    "type": "bytes32"
                }
            ],
            "name": "getProposal",
            "outputs": [
                {
                    "components": [
                        {
                            "internalType": "bytes32",
                            "name": "_resourceID",
                            "type": "bytes32"
                        },
                        {
                            "internalType": "bytes32",
                            "name": "_dataHash",
                            "type": "bytes32"
                        },
                        {
                            "internalType": "address[]",
                            "name": "_yesVotes",
                            "type": "address[]"
                        },
                        {
                            "internalType": "address[]",
                            "name": "_noVotes",
                            "type": "address[]"
                        },
                        {
                            "internalType": "enum Bridge.ProposalStatus",
                            "name": "_status",
                            "type": "uint8"
                        },
                        {
                            "internalType": "uint256",
                            "name": "_proposedBlock",
                            "type": "uint256"
                        }
                    ],
                    "internalType": "struct Bridge.Proposal",
                    "name": "",
                    "type": "tuple"
                }
            ],
            "stateMutability": "view",
            "type": "function",
            "constant": true
        },
        {
            "inputs": [
                {
                    "internalType": "uint256",
                    "name": "newFee",
                    "type": "uint256"
                }
            ],
            "name": "adminChangeFee",
            "outputs": [],
            "stateMutability": "nonpayable",
            "type": "function"
        },
        {
            "inputs": [
                {
                    "internalType": "address",
                    "name": "handlerAddress",
                    "type": "address"
                },
                {
                    "internalType": "address",
                    "name": "tokenAddress",
                    "type": "address"
                },
                {
                    "internalType": "address",
                    "name": "recipient",
                    "type": "address"
                },
                {
                    "internalType": "uint256",
                    "name": "amountOrTokenID",
                    "type": "uint256"
                }
            ],
            "name": "adminWithdraw",
            "outputs": [],
            "stateMutability": "nonpayable",
            "type": "function"
        },
        {
            "inputs": [
                {
                    "internalType": "uint8",
                    "name": "destinationChainID",
                    "type": "uint8"
                },
                {
                    "internalType": "bytes32",
                    "name": "resourceID",
                    "type": "bytes32"
                },
                {
                    "internalType": "bytes",
                    "name": "data",
                    "type": "bytes"
                }
            ],
            "name": "deposit",
            "outputs": [],
            "stateMutability": "payable",
            "type": "function",
            "payable": true
        },
        {
            "inputs": [
                {
                    "internalType": "uint8",
                    "name": "chainID",
                    "type": "uint8"
                },
                {
                    "internalType": "uint64",
                    "name": "depositNonce",
                    "type": "uint64"
                },
                {
                    "internalType": "bytes32",
                    "name": "resourceID",
                    "type": "bytes32"
                },
                {
                    "internalType": "bytes32",
                    "name": "dataHash",
                    "type": "bytes32"
                }
            ],
            "name": "voteProposal",
            "outputs": [],
            "stateMutability": "nonpayable",
            "type": "function"
        },
        {
            "inputs": [
                {
                    "internalType": "uint8",
                    "name": "chainID",
                    "type": "uint8"
                },
                {
                    "internalType": "uint64",
                    "name": "depositNonce",
                    "type": "uint64"
                },
                {
                    "internalType": "bytes32",
                    "name": "dataHash",
                    "type": "bytes32"
                }
            ],
            "name": "cancelProposal",
            "outputs": [],
            "stateMutability": "nonpayable",
            "type": "function"
        },
        {
            "inputs": [
                {
                    "internalType": "uint8",
                    "name": "chainID",
                    "type": "uint8"
                },
                {
                    "internalType": "uint64",
                    "name": "depositNonce",
                    "type": "uint64"
                },
                {
                    "internalType": "bytes",
                    "name": "data",
                    "type": "bytes"
                },
                {
                    "internalType": "bytes32",
                    "name": "resourceID",
                    "type": "bytes32"
                }
            ],
            "name": "executeProposal",
            "outputs": [],
            "stateMutability": "nonpayable",
            "type": "function"
        },
        {
            "inputs": [
                {
                    "internalType": "address payable[]",
                    "name": "addrs",
                    "type": "address[]"
                },
                {
                    "internalType": "uint256[]",
                    "name": "amounts",
                    "type": "uint256[]"
                }
            ],
            "name": "transferFunds",
            "outputs": [],
            "stateMutability": "nonpayable",
            "type": "function"
        }
    ],
    "bytecode": "0x60806040523480156200001157600080fd5b5060405162004fbd38038062004fbd83398181016040528101906200003791906200051d565b60008060006101000a81548160ff02191690831515021790555084600260006101000a81548160ff021916908360ff160217905550826003819055508160068190555080600781905550620000966000801b336200015060201b60201c565b620000cb7fe2b7fb3b832174769106daebcfd6d1970523240dda11281102db9363b83b0dc46000801b6200016660201b60201c565b60008451905060005b818110156200014357620001237fe2b7fb3b832174769106daebcfd6d1970523240dda11281102db9363b83b0dc48783815181106200010f57fe5b6020026020010151620001ca60201b60201c565b6004600081548092919060010191905055508080600101915050620000d4565b5050505050505062000743565b6200016282826200025960201b60201c565b5050565b806001600084815260200190815260200160002060020154837fbd79b86ffe0ab8e8776151514217cd7cacd52c909f66475c3af44e129f0b00ff60405160405180910390a48060016000848152602001908152602001600020600201819055505050565b620002016001600084815260200190815260200160002060020154620001f5620002fd60201b60201c565b6200030560201b60201c565b62000243576040517f08c379a00000000000000000000000000000000000000000000000000000000081526004016200023a9062000620565b60405180910390fd5b6200025582826200025960201b60201c565b5050565b6200028881600160008581526020019081526020016000206000016200033e60201b620025951790919060201c565b15620002f9576200029e620002fd60201b60201c565b73ffffffffffffffffffffffffffffffffffffffff168173ffffffffffffffffffffffffffffffffffffffff16837f2f8788117e7eff1d82e926ec794901d17c78024a50270940304540a733656f0d60405160405180910390a45b5050565b600033905090565b60006200033682600160008681526020019081526020016000206000016200037660201b620025c51790919060201c565b905092915050565b60006200036e836000018373ffffffffffffffffffffffffffffffffffffffff1660001b620003ae60201b60201c565b905092915050565b6000620003a6836000018373ffffffffffffffffffffffffffffffffffffffff1660001b6200042860201b60201c565b905092915050565b6000620003c283836200042860201b60201c565b6200041d57826000018290806001815401808255809150506001900390600052602060002001600090919091909150558260000180549050836001016000848152602001908152602001600020819055506001905062000422565b600090505b92915050565b600080836001016000848152602001908152602001600020541415905092915050565b6000815190506200045c81620006f5565b92915050565b600082601f8301126200047457600080fd5b81516200048b620004858262000670565b62000642565b91508181835260208401935060208101905083856020840282011115620004b157600080fd5b60005b83811015620004e55781620004ca88826200044b565b845260208401935060208301925050600181019050620004b4565b5050505092915050565b60008151905062000500816200070f565b92915050565b600081519050620005178162000729565b92915050565b600080600080600060a086880312156200053657600080fd5b6000620005468882890162000506565b955050602086015167ffffffffffffffff8111156200056457600080fd5b620005728882890162000462565b94505060406200058588828901620004ef565b93505060606200059888828901620004ef565b9250506080620005ab88828901620004ef565b9150509295509295909350565b6000620005c7602f8362000699565b91507f416363657373436f6e74726f6c3a2073656e646572206d75737420626520616e60008301527f2061646d696e20746f206772616e7400000000000000000000000000000000006020830152604082019050919050565b600060208201905081810360008301526200063b81620005b8565b9050919050565b6000604051905081810181811067ffffffffffffffff821117156200066657600080fd5b8060405250919050565b600067ffffffffffffffff8211156200068857600080fd5b602082029050602081019050919050565b600082825260208201905092915050565b6000620006b782620006be565b9050919050565b600073ffffffffffffffffffffffffffffffffffffffff82169050919050565b6000819050919050565b600060ff82169050919050565b6200070081620006aa565b81146200070c57600080fd5b50565b6200071a81620006de565b81146200072657600080fd5b50565b6200073481620006e8565b81146200074057600080fd5b50565b61486a80620007536000396000f3fe6080604052600436106102465760003560e01c80638c0c263111610139578063beab7131116100b6578063cdb0f73a1161007a578063cdb0f73a146108b6578063d547741f146108df578063d7a9cd7914610908578063e8437ee714610933578063edc20c3c1461095c578063ffaac0eb1461098557610246565b8063beab7131146107cf578063c5b37c22146107fa578063c5ec897014610825578063ca15c87314610850578063cb10f2151461088d57610246565b80639d5773e0116100fd5780639d5773e0146106ea5780639d82dd6314610715578063a217fddf1461073e578063a9cf69fa14610769578063b56bcaf1146107a657610246565b80638c0c2631146105f35780639010d07c1461061c57806391c404ac1461065957806391d1485414610682578063926d7d7f146106bf57610246565b80634e056005116101c7578063780cf0041161018b578063780cf0041461050e5780637febe63f14610537578063802aabe81461057457806380ae1c281461059f57806384db809f146105b657610246565b80634e05600514610414578063505987191461043d578063541d55481461047d5780635c975abb146104ba5780635e1fab0f146104e557610246565b806336568abe1161020e57806336568abe1461031f5780633ee7094a146103485780634454b20d146103855780634603ae38146103ae5780634b0b919d146103d757610246565b806305e2ca171461024b57806317f03ce5146102675780631ff013f114610290578063248a9ca3146102b95780632f2ff15d146102f6575b600080fd5b61026560048036038101906102609190613427565b61099c565b005b34801561027357600080fd5b5061028e600480360381019061028991906134cf565b610bf9565b005b34801561029c57600080fd5b506102b760048036038101906102b2919061351e565b610da6565b005b3480156102c557600080fd5b506102e060048036038101906102db919061326d565b611555565b6040516102ed9190614032565b60405180910390f35b34801561030257600080fd5b5061031d60048036038101906103189190613296565b611575565b005b34801561032b57600080fd5b5061034660048036038101906103419190613296565b6115e9565b005b34801561035457600080fd5b5061036f600480360381019061036a9190613337565b61166c565b60405161037c91906141b7565b60405180910390f35b34801561039157600080fd5b506103ac60048036038101906103a79190613581565b611729565b005b3480156103ba57600080fd5b506103d560048036038101906103d091906131f8565b6119ff565b005b3480156103e357600080fd5b506103fe60048036038101906103f991906133fe565b611af0565b60405161040b9190614518565b60405180910390f35b34801561042057600080fd5b5061043b6004803603810190610436919061330e565b611b17565b005b34801561044957600080fd5b50610464600480360381019061045f9190613373565b611b56565b60405161047494939291906140e4565b60405180910390f35b34801561048957600080fd5b506104a4600480360381019061049f9190612fde565b611ba0565b6040516104b19190614017565b60405180910390f35b3480156104c657600080fd5b506104cf611bd3565b6040516104dc9190614017565b60405180910390f35b3480156104f157600080fd5b5061050c60048036038101906105079190612fde565b611be9565b005b34801561051a57600080fd5b506105356004803603810190610530919061306c565b611c0e565b005b34801561054357600080fd5b5061055e600480360381019061055991906133af565b611c91565b60405161056b9190614017565b60405180910390f35b34801561058057600080fd5b50610589611ccd565b60405161059691906144fd565b60405180910390f35b3480156105ab57600080fd5b506105b4611cd3565b005b3480156105c257600080fd5b506105dd60048036038101906105d8919061326d565b611ce5565b6040516105ea9190613f73565b60405180910390f35b3480156105ff57600080fd5b5061061a60048036038101906106159190613030565b611d18565b005b34801561062857600080fd5b50610643600480360381019061063e91906132d2565b611d95565b6040516106509190613f73565b60405180910390f35b34801561066557600080fd5b50610680600480360381019061067b919061330e565b611dc7565b005b34801561068e57600080fd5b506106a960048036038101906106a49190613296565b611e1e565b6040516106b69190614017565b60405180910390f35b3480156106cb57600080fd5b506106d4611e50565b6040516106e19190614032565b60405180910390f35b3480156106f657600080fd5b506106ff611e74565b60405161070c91906144fd565b60405180910390f35b34801561072157600080fd5b5061073c60048036038101906107379190612fde565b611e7a565b005b34801561074a57600080fd5b50610753611f6e565b6040516107609190614032565b60405180910390f35b34801561077557600080fd5b50610790600480360381019061078b91906134cf565b611f75565b60405161079d91906144db565b60405180910390f35b3480156107b257600080fd5b506107cd60048036038101906107c891906130cf565b612156565b005b3480156107db57600080fd5b506107e46121d9565b6040516107f19190614533565b60405180910390f35b34801561080657600080fd5b5061080f6121ec565b60405161081c91906144fd565b60405180910390f35b34801561083157600080fd5b5061083a6121f2565b60405161084791906144fd565b60405180910390f35b34801561085c57600080fd5b506108776004803603810190610872919061326d565b6121f8565b60405161088491906144fd565b60405180910390f35b34801561089957600080fd5b506108b460048036038101906108af9190613132565b61221f565b005b3480156108c257600080fd5b506108dd60048036038101906108d89190612fde565b6122f1565b005b3480156108eb57600080fd5b5061090660048036038101906109019190613296565b6123e5565b005b34801561091457600080fd5b5061091d612459565b60405161092a91906144fd565b60405180910390f35b34801561093f57600080fd5b5061095a60048036038101906109559190613181565b61245f565b005b34801561096857600080fd5b50610983600480360381019061097e9190613493565b612537565b005b34801561099157600080fd5b5061099a612583565b005b6109a46125f5565b60065434146109e8576040517f08c379a00000000000000000000000000000000000000000000000000000000081526004016109df906142fb565b60405180910390fd5b60006009600085815260200190815260200160002060009054906101000a900473ffffffffffffffffffffffffffffffffffffffff169050600073ffffffffffffffffffffffffffffffffffffffff168173ffffffffffffffffffffffffffffffffffffffff161415610a90576040517f08c379a0000000000000000000000000000000000000000000000000000000008152600401610a879061435b565b60405180910390fd5b6000600860008760ff1660ff168152602001908152602001600020600081819054906101000a900467ffffffffffffffff1660010191906101000a81548167ffffffffffffffff021916908367ffffffffffffffff160217905590508383600a60008467ffffffffffffffff1667ffffffffffffffff16815260200190815260200160002060008960ff1660ff1681526020019081526020016000209190610b39929190612caf565b5060008290508073ffffffffffffffffffffffffffffffffffffffff166338995da9878985338a8a6040518763ffffffff1660e01b8152600401610b829695949392919061415b565b600060405180830381600087803b158015610b9c57600080fd5b505af1158015610bb0573d6000803e3d6000fd5b505050508167ffffffffffffffff16868860ff167fdbb69440df8433824a026ef190652f29929eb64b4d1d5d2a69be8afe3e6eaed860405160405180910390a450505050505050565b610c01612645565b60008360ff1660088467ffffffffffffffff1668ffffffffffffffffff16901b1790506000600b60008368ffffffffffffffffff1668ffffffffffffffffff16815260200190815260200160002060008481526020019081526020016000209050600480811115610c6e57fe5b8160040160009054906101000a900460ff166004811115610c8b57fe5b1415610ccc576040517f08c379a0000000000000000000000000000000000000000000000000000000008152600401610cc39061433b565b60405180910390fd5b600754610cdd4383600501546126c4565b11610d1d576040517f08c379a0000000000000000000000000000000000000000000000000000000008152600401610d149061439b565b60405180910390fd5b60048160040160006101000a81548160ff02191690836004811115610d3e57fe5b0217905550600480811115610d4f57fe5b8467ffffffffffffffff168660ff167f803c5a12f6bde629cea32e63d4b92d1b560816a6fb72e939d3c89e1cab65041784600001548560010154604051610d979291906140bb565b60405180910390a45050505050565b610dae61270e565b610db66125f5565b60008460ff1660088567ffffffffffffffff1668ffffffffffffffffff16901b1790506000600b60008368ffffffffffffffffff1668ffffffffffffffffff16815260200190815260200160002060008481526020019081526020016000209050600073ffffffffffffffffffffffffffffffffffffffff166009600086815260200190815260200160002060009054906101000a900473ffffffffffffffffffffffffffffffffffffffff1673ffffffffffffffffffffffffffffffffffffffff161415610eba576040517f08c379a0000000000000000000000000000000000000000000000000000000008152600401610eb19061449b565b60405180910390fd5b60018160040160009054906101000a900460ff166004811115610ed957fe5b1115610f1a576040517f08c379a0000000000000000000000000000000000000000000000000000000008152600401610f11906143fb565b60405180910390fd5b600c60008368ffffffffffffffffff1668ffffffffffffffffff168152602001908152602001600020600084815260200190815260200160002060003373ffffffffffffffffffffffffffffffffffffffff1673ffffffffffffffffffffffffffffffffffffffff16815260200190815260200160002060009054906101000a900460ff1615610fdf576040517f08c379a0000000000000000000000000000000000000000000000000000000008152600401610fd69061429b565b60405180910390fd5b60008160040160009054906101000a900460ff166004811115610ffe57fe5b141561124c57600560008154600101919050819055506040518060c00160405280858152602001848152602001600167ffffffffffffffff8111801561104357600080fd5b506040519080825280602002602001820160405280156110725781602001602082028036833780820191505090505b508152602001600067ffffffffffffffff8111801561109057600080fd5b506040519080825280602002602001820160405280156110bf5781602001602082028036833780820191505090505b508152602001600160048111156110d257fe5b815260200143815250600b60008468ffffffffffffffffff1668ffffffffffffffffff168152602001908152602001600020600085815260200190815260200160002060008201518160000155602082015181600101556040820151816002019080519060200190611145929190612d2f565b506060820151816003019080519060200190611162929190612d2f565b5060808201518160040160006101000a81548160ff0219169083600481111561118757fe5b021790555060a0820151816005015590505033816002016000815481106111aa57fe5b9060005260206000200160006101000a81548173ffffffffffffffffffffffffffffffffffffffff021916908373ffffffffffffffffffffffffffffffffffffffff160217905550600160048111156111ff57fe5b8567ffffffffffffffff168760ff167f803c5a12f6bde629cea32e63d4b92d1b560816a6fb72e939d3c89e1cab650417878760405161123f9291906140bb565b60405180910390a461138f565b60075461125d4383600501546126c4565b11156112e25760048160040160006101000a81548160ff0219169083600481111561128457fe5b021790555060048081111561129557fe5b8567ffffffffffffffff168760ff167f803c5a12f6bde629cea32e63d4b92d1b560816a6fb72e939d3c89e1cab65041787876040516112d59291906140bb565b60405180910390a461138e565b80600101548314611328576040517f08c379a000000000000000000000000000000000000000000000000000000000815260040161131f9061447b565b60405180910390fd5b80600201339080600181540180825580915050600190039060005260206000200160009091909190916101000a81548173ffffffffffffffffffffffffffffffffffffffff021916908373ffffffffffffffffffffffffffffffffffffffff1602179055505b5b60048081111561139b57fe5b8160040160009054906101000a900460ff1660048111156113b857fe5b1461154d576001600c60008468ffffffffffffffffff1668ffffffffffffffffff168152602001908152602001600020600085815260200190815260200160002060003373ffffffffffffffffffffffffffffffffffffffff1673ffffffffffffffffffffffffffffffffffffffff16815260200190815260200160002060006101000a81548160ff0219169083151502179055508060040160009054906101000a900460ff16600481111561146a57fe5b8567ffffffffffffffff168760ff167f25f8daaa4635a7729927ba3f5b3d59cc3320aca7c32c9db4e7ca7b9574343640876040516114a89190614032565b60405180910390a460016003541115806114cb5750600354816002018054905010155b1561154c5760028160040160006101000a81548160ff021916908360048111156114f157fe5b02179055506002600481111561150357fe5b8567ffffffffffffffff168760ff167f803c5a12f6bde629cea32e63d4b92d1b560816a6fb72e939d3c89e1cab65041787876040516115439291906140bb565b60405180910390a45b5b505050505050565b600060016000838152602001908152602001600020600201549050919050565b61159c6001600084815260200190815260200160002060020154611597612779565b611e1e565b6115db576040517f08c379a00000000000000000000000000000000000000000000000000000000081526004016115d29061427b565b60405180910390fd5b6115e58282612781565b5050565b6115f1612779565b73ffffffffffffffffffffffffffffffffffffffff168173ffffffffffffffffffffffffffffffffffffffff161461165e576040517f08c379a0000000000000000000000000000000000000000000000000000000008152600401611655906144bb565b60405180910390fd5b6116688282612815565b5050565b600a602052816000526040600020602052806000526040600020600091509150508054600181600116156101000203166002900480601f0160208091040260200160405190810160405280929190818152602001828054600181600116156101000203166002900480156117215780601f106116f657610100808354040283529160200191611721565b820191906000526020600020905b81548152906001019060200180831161170457829003601f168201915b505050505081565b61173161270e565b6117396125f5565b60006009600083815260200190815260200160002060009054906101000a900473ffffffffffffffffffffffffffffffffffffffff16905060008660ff1660088767ffffffffffffffff1668ffffffffffffffffff16901b17905060008286866040516020016117ab93929190613f49565b6040516020818303038152906040528051906020012090506000600b60008468ffffffffffffffffff1668ffffffffffffffffff168152602001908152602001600020600083815260200190815260200160002090506002600481111561180e57fe5b8160040160009054906101000a900460ff16600481111561182b57fe5b1461186b576040517f08c379a0000000000000000000000000000000000000000000000000000000008152600401611862906141fb565b60405180910390fd5b806001015482146118b1576040517f08c379a00000000000000000000000000000000000000000000000000000000081526004016118a89061431b565b60405180910390fd5b60038160040160006101000a81548160ff021916908360048111156118d257fe5b02179055506000600960008360000154815260200190815260200160002060009054906101000a900473ffffffffffffffffffffffffffffffffffffffff1690508073ffffffffffffffffffffffffffffffffffffffff1663e248cff283600001548a8a6040518463ffffffff1660e01b815260040161195493929190614129565b600060405180830381600087803b15801561196e57600080fd5b505af1158015611982573d6000803e3d6000fd5b505050508160040160009054906101000a900460ff1660048111156119a357fe5b8967ffffffffffffffff168b60ff167f803c5a12f6bde629cea32e63d4b92d1b560816a6fb72e939d3c89e1cab650417856000015486600101546040516119eb9291906140bb565b60405180910390a450505050505050505050565b611a076128a9565b818190508484905014611a4f576040517f08c379a0000000000000000000000000000000000000000000000000000000008152600401611a469061425b565b60405180910390fd5b600084849050905060005b81811015611ae857858582818110611a6e57fe5b9050602002016020810190611a839190613007565b73ffffffffffffffffffffffffffffffffffffffff166108fc858584818110611aa857fe5b905060200201359081150290604051600060405180830381858888f19350505050158015611ada573d6000803e3d6000fd5b508080600101915050611a5a565b505050505050565b60086020528060005260406000206000915054906101000a900467ffffffffffffffff1681565b611b1f6128a9565b80600381905550807fa20d6b84cd798a24038be305eff8a45ca82ef54a2aa2082005d8e14c0a4746c860405160405180910390a250565b600b602052816000526040600020602052806000526040600020600091509150508060000154908060010154908060040160009054906101000a900460ff16908060050154905084565b6000611bcc7fe2b7fb3b832174769106daebcfd6d1970523240dda11281102db9363b83b0dc483611e1e565b9050919050565b60008060009054906101000a900460ff16905090565b611bf16128a9565b611bfe6000801b82611575565b611c0b6000801b336115e9565b50565b611c166128a9565b60008490508073ffffffffffffffffffffffffffffffffffffffff1663d9caed128585856040518463ffffffff1660e01b8152600401611c5893929190613fa9565b600060405180830381600087803b158015611c7257600080fd5b505af1158015611c86573d6000803e3d6000fd5b505050505050505050565b600c602052826000526040600020602052816000526040600020602052806000526040600020600092509250509054906101000a900460ff1681565b60045481565b611cdb6128a9565b611ce36128f7565b565b60096020528060005260406000206000915054906101000a900473ffffffffffffffffffffffffffffffffffffffff1681565b611d206128a9565b60008290508073ffffffffffffffffffffffffffffffffffffffff166307b7ed99836040518263ffffffff1660e01b8152600401611d5e9190613f73565b600060405180830381600087803b158015611d7857600080fd5b505af1158015611d8c573d6000803e3d6000fd5b50505050505050565b6000611dbf826001600086815260200190815260200160002060000161295290919063ffffffff16565b905092915050565b611dcf6128a9565b806006541415611e14576040517f08c379a0000000000000000000000000000000000000000000000000000000008152600401611e0b9061445b565b60405180910390fd5b8060068190555050565b6000611e4882600160008681526020019081526020016000206000016125c590919063ffffffff16565b905092915050565b7fe2b7fb3b832174769106daebcfd6d1970523240dda11281102db9363b83b0dc481565b60055481565b611e826128a9565b611eac7fe2b7fb3b832174769106daebcfd6d1970523240dda11281102db9363b83b0dc482611e1e565b611eeb576040517f08c379a0000000000000000000000000000000000000000000000000000000008152600401611ee2906142db565b60405180910390fd5b611f157fe2b7fb3b832174769106daebcfd6d1970523240dda11281102db9363b83b0dc4826123e5565b8073ffffffffffffffffffffffffffffffffffffffff167f10e1f7ce9fd7d1b90a66d13a2ab3cb8dd7f29f3f8d520b143b063ccfbab6906b60405160405180910390a26004600081548092919060019003919050555050565b6000801b81565b611f7d612db9565b60008460ff1660088567ffffffffffffffff1668ffffffffffffffffff16901b179050600b60008268ffffffffffffffffff1668ffffffffffffffffff16815260200190815260200160002060008481526020019081526020016000206040518060c001604052908160008201548152602001600182015481526020016002820180548060200260200160405190810160405280929190818152602001828054801561207e57602002820191906000526020600020905b8160009054906101000a900473ffffffffffffffffffffffffffffffffffffffff1673ffffffffffffffffffffffffffffffffffffffff1681526020019060010190808311612034575b505050505081526020016003820180548060200260200160405190810160405280929190818152602001828054801561210c57602002820191906000526020600020905b8160009054906101000a900473ffffffffffffffffffffffffffffffffffffffff1673ffffffffffffffffffffffffffffffffffffffff16815260200190600101908083116120c2575b505050505081526020016004820160009054906101000a900460ff16600481111561213357fe5b600481111561213e57fe5b81526020016005820154815250509150509392505050565b61215e6128a9565b60008490508073ffffffffffffffffffffffffffffffffffffffff1663f47127448585856040518463ffffffff1660e01b81526004016121a093929190613fe0565b600060405180830381600087803b1580156121ba57600080fd5b505af11580156121ce573d6000803e3d6000fd5b505050505050505050565b600260009054906101000a900460ff1681565b60065481565b60075481565b60006122186001600084815260200190815260200160002060000161296c565b9050919050565b6122276128a9565b826009600084815260200190815260200160002060006101000a81548173ffffffffffffffffffffffffffffffffffffffff021916908373ffffffffffffffffffffffffffffffffffffffff16021790555060008390508073ffffffffffffffffffffffffffffffffffffffff1663b8fa373684846040518363ffffffff1660e01b81526004016122b992919061404d565b600060405180830381600087803b1580156122d357600080fd5b505af11580156122e7573d6000803e3d6000fd5b5050505050505050565b6122f96128a9565b6123237fe2b7fb3b832174769106daebcfd6d1970523240dda11281102db9363b83b0dc482611e1e565b15612363576040517f08c379a000000000000000000000000000000000000000000000000000000000815260040161235a906143db565b60405180910390fd5b61238d7fe2b7fb3b832174769106daebcfd6d1970523240dda11281102db9363b83b0dc482611575565b8073ffffffffffffffffffffffffffffffffffffffff167f03580ee9f53a62b7cb409a2cb56f9be87747dd15017afc5cef6eef321e4fb2c560405160405180910390a260046000815480929190600101919050555050565b61240c6001600084815260200190815260200160002060020154612407612779565b611e1e565b61244b576040517f08c379a00000000000000000000000000000000000000000000000000000000081526004016124429061437b565b60405180910390fd5b6124558282612815565b5050565b60035481565b6124676128a9565b846009600086815260200190815260200160002060006101000a81548173ffffffffffffffffffffffffffffffffffffffff021916908373ffffffffffffffffffffffffffffffffffffffff16021790555060008590508073ffffffffffffffffffffffffffffffffffffffff1663bba8185a868686866040518563ffffffff1660e01b81526004016124fd9493929190614076565b600060405180830381600087803b15801561251757600080fd5b505af115801561252b573d6000803e3d6000fd5b50505050505050505050565b61253f6128a9565b80600860008460ff1660ff16815260200190815260200160002060006101000a81548167ffffffffffffffff021916908367ffffffffffffffff1602179055505050565b61258b6128a9565b612593612981565b565b60006125bd836000018373ffffffffffffffffffffffffffffffffffffffff1660001b6129dc565b905092915050565b60006125ed836000018373ffffffffffffffffffffffffffffffffffffffff1660001b612a4c565b905092915050565b60008054906101000a900460ff1615612643576040517f08c379a000000000000000000000000000000000000000000000000000000000815260040161263a906143bb565b60405180910390fd5b565b6126526000801b33611e1e565b8061268357506126827fe2b7fb3b832174769106daebcfd6d1970523240dda11281102db9363b83b0dc433611e1e565b5b6126c2576040517f08c379a00000000000000000000000000000000000000000000000000000000081526004016126b99061423b565b60405180910390fd5b565b600061270683836040518060400160405280601e81526020017f536166654d6174683a207375627472616374696f6e206f766572666c6f770000815250612a6f565b905092915050565b6127387fe2b7fb3b832174769106daebcfd6d1970523240dda11281102db9363b83b0dc433611e1e565b612777576040517f08c379a000000000000000000000000000000000000000000000000000000000815260040161276e9061441b565b60405180910390fd5b565b600033905090565b6127a9816001600085815260200190815260200160002060000161259590919063ffffffff16565b15612811576127b6612779565b73ffffffffffffffffffffffffffffffffffffffff168173ffffffffffffffffffffffffffffffffffffffff16837f2f8788117e7eff1d82e926ec794901d17c78024a50270940304540a733656f0d60405160405180910390a45b5050565b61283d8160016000858152602001908152602001600020600001612aca90919063ffffffff16565b156128a55761284a612779565b73ffffffffffffffffffffffffffffffffffffffff168173ffffffffffffffffffffffffffffffffffffffff16837ff6391f5c32d9c69d2a47ea670b442974b53935d1edc7fd64eb21e047a839171b60405160405180910390a45b5050565b6128b66000801b33611e1e565b6128f5576040517f08c379a00000000000000000000000000000000000000000000000000000000081526004016128ec9061443b565b60405180910390fd5b565b6128ff6125f5565b60016000806101000a81548160ff0219169083151502179055507f62e78cea01bee320cd4e420270b5ea74000d11b0c9f74754ebdbfc544b05a258336040516129489190613f8e565b60405180910390a1565b60006129618360000183612afa565b60001c905092915050565b600061297a82600001612b67565b9050919050565b612989612b78565b60008060006101000a81548160ff0219169083151502179055507f5db9ee0a495bf2e6ff9c91a7834c1ba4fdd244a5e8aa4e537bd38aeae4b073aa336040516129d29190613f8e565b60405180910390a1565b60006129e88383612a4c565b612a41578260000182908060018154018082558091505060019003906000526020600020016000909190919091505582600001805490508360010160008481526020019081526020016000208190555060019050612a46565b600090505b92915050565b600080836001016000848152602001908152602001600020541415905092915050565b6000838311158290612ab7576040517f08c379a0000000000000000000000000000000000000000000000000000000008152600401612aae91906141d9565b60405180910390fd5b5060008385039050809150509392505050565b6000612af2836000018373ffffffffffffffffffffffffffffffffffffffff1660001b612bc7565b905092915050565b600081836000018054905011612b45576040517f08c379a0000000000000000000000000000000000000000000000000000000008152600401612b3c9061421b565b60405180910390fd5b826000018281548110612b5457fe5b9060005260206000200154905092915050565b600081600001805490509050919050565b60008054906101000a900460ff16612bc5576040517f08c379a0000000000000000000000000000000000000000000000000000000008152600401612bbc906142bb565b60405180910390fd5b565b60008083600101600084815260200190815260200160002054905060008114612ca35760006001820390506000600186600001805490500390506000866000018281548110612c1257fe5b9060005260206000200154905080876000018481548110612c2f57fe5b9060005260206000200181905550600183018760010160008381526020019081526020016000208190555086600001805480612c6757fe5b60019003818190600052602060002001600090559055866001016000878152602001908152602001600020600090556001945050505050612ca9565b60009150505b92915050565b828054600181600116156101000203166002900490600052602060002090601f016020900481019282601f10612cf057803560ff1916838001178555612d1e565b82800160010185558215612d1e579182015b82811115612d1d578235825591602001919060010190612d02565b5b509050612d2b9190612e00565b5090565b828054828255906000526020600020908101928215612da8579160200282015b82811115612da75782518260006101000a81548173ffffffffffffffffffffffffffffffffffffffff021916908373ffffffffffffffffffffffffffffffffffffffff16021790555091602001919060010190612d4f565b5b509050612db59190612e1d565b5090565b6040518060c001604052806000801916815260200160008019168152602001606081526020016060815260200160006004811115612df357fe5b8152602001600081525090565b5b80821115612e19576000816000905550600101612e01565b5090565b5b80821115612e5457600081816101000a81549073ffffffffffffffffffffffffffffffffffffffff021916905550600101612e1e565b5090565b600081359050612e678161477c565b92915050565b600081359050612e7c81614793565b92915050565b60008083601f840112612e9457600080fd5b8235905067ffffffffffffffff811115612ead57600080fd5b602083019150836020820283011115612ec557600080fd5b9250929050565b60008083601f840112612ede57600080fd5b8235905067ffffffffffffffff811115612ef757600080fd5b602083019150836020820283011115612f0f57600080fd5b9250929050565b600081359050612f25816147aa565b92915050565b600081359050612f3a816147c1565b92915050565b60008083601f840112612f5257600080fd5b8235905067ffffffffffffffff811115612f6b57600080fd5b602083019150836001820283011115612f8357600080fd5b9250929050565b600081359050612f99816147d8565b92915050565b600081359050612fae816147ef565b92915050565b600081359050612fc381614806565b92915050565b600081359050612fd88161481d565b92915050565b600060208284031215612ff057600080fd5b6000612ffe84828501612e58565b91505092915050565b60006020828403121561301957600080fd5b600061302784828501612e6d565b91505092915050565b6000806040838503121561304357600080fd5b600061305185828601612e58565b925050602061306285828601612e58565b9150509250929050565b6000806000806080858703121561308257600080fd5b600061309087828801612e58565b94505060206130a187828801612e58565b93505060406130b287828801612e58565b92505060606130c387828801612f8a565b91505092959194509250565b600080600080608085870312156130e557600080fd5b60006130f387828801612e58565b945050602061310487828801612e58565b935050604061311587828801612fc9565b925050606061312687828801612fc9565b91505092959194509250565b60008060006060848603121561314757600080fd5b600061315586828701612e58565b935050602061316686828701612f16565b925050604061317786828701612e58565b9150509250925092565b600080600080600060a0868803121561319957600080fd5b60006131a788828901612e58565b95505060206131b888828901612f16565b94505060406131c988828901612e58565b93505060606131da88828901612f2b565b92505060806131eb88828901612f2b565b9150509295509295909350565b6000806000806040858703121561320e57600080fd5b600085013567ffffffffffffffff81111561322857600080fd5b61323487828801612e82565b9450945050602085013567ffffffffffffffff81111561325357600080fd5b61325f87828801612ecc565b925092505092959194509250565b60006020828403121561327f57600080fd5b600061328d84828501612f16565b91505092915050565b600080604083850312156132a957600080fd5b60006132b785828601612f16565b92505060206132c885828601612e58565b9150509250929050565b600080604083850312156132e557600080fd5b60006132f385828601612f16565b925050602061330485828601612f8a565b9150509250929050565b60006020828403121561332057600080fd5b600061332e84828501612f8a565b91505092915050565b6000806040838503121561334a57600080fd5b600061335885828601612f9f565b925050602061336985828601612fc9565b9150509250929050565b6000806040838503121561338657600080fd5b600061339485828601612fb4565b92505060206133a585828601612f16565b9150509250929050565b6000806000606084860312156133c457600080fd5b60006133d286828701612fb4565b93505060206133e386828701612f16565b92505060406133f486828701612e58565b9150509250925092565b60006020828403121561341057600080fd5b600061341e84828501612fc9565b91505092915050565b6000806000806060858703121561343d57600080fd5b600061344b87828801612fc9565b945050602061345c87828801612f16565b935050604085013567ffffffffffffffff81111561347957600080fd5b61348587828801612f40565b925092505092959194509250565b600080604083850312156134a657600080fd5b60006134b485828601612fc9565b92505060206134c585828601612f9f565b9150509250929050565b6000806000606084860312156134e457600080fd5b60006134f286828701612fc9565b935050602061350386828701612f9f565b925050604061351486828701612f16565b9150509250925092565b6000806000806080858703121561353457600080fd5b600061354287828801612fc9565b945050602061355387828801612f9f565b935050604061356487828801612f16565b925050606061357587828801612f16565b91505092959194509250565b60008060008060006080868803121561359957600080fd5b60006135a788828901612fc9565b95505060206135b888828901612f9f565b945050604086013567ffffffffffffffff8111156135d557600080fd5b6135e188828901612f40565b935093505060606135f488828901612f16565b9150509295509295909350565b600061360d8383613628565b60208301905092915050565b613622816146a3565b82525050565b613631816145ca565b82525050565b613640816145ca565b82525050565b613657613652826145ca565b61472d565b82525050565b60006136688261455e565b613672818561458c565b935061367d8361454e565b8060005b838110156136ae5781516136958882613601565b97506136a08361457f565b925050600181019050613681565b5085935050505092915050565b6136c4816145ee565b82525050565b6136d3816145fa565b82525050565b6136e2816145fa565b82525050565b6136f181614604565b82525050565b6000613703838561459d565b93506137108385846146eb565b61371983614751565b840190509392505050565b600061373083856145ae565b935061373d8385846146eb565b82840190509392505050565b600061375482614569565b61375e818561459d565b935061376e8185602086016146fa565b61377781614751565b840191505092915050565b61378b816146b5565b82525050565b61379a816146b5565b82525050565b60006137ab82614574565b6137b581856145b9565b93506137c58185602086016146fa565b6137ce81614751565b840191505092915050565b60006137e6601c836145b9565b91507f70726f706f73616c20616c7265616479207472616e73666572726564000000006000830152602082019050919050565b60006138266022836145b9565b91507f456e756d657261626c655365743a20696e646578206f7574206f6620626f756e60008301527f64730000000000000000000000000000000000000000000000000000000000006020830152604082019050919050565b600061388c601e836145b9565b91507f73656e646572206973206e6f742072656c61796572206f722061646d696e00006000830152602082019050919050565b60006138cc6026836145b9565b91507f6c656e677468206f66206164647265737320616e6420616d6f756e747320646960008301527f736d6174636800000000000000000000000000000000000000000000000000006020830152604082019050919050565b6000613932602f836145b9565b91507f416363657373436f6e74726f6c3a2073656e646572206d75737420626520616e60008301527f2061646d696e20746f206772616e7400000000000000000000000000000000006020830152604082019050919050565b60006139986015836145b9565b91507f72656c6179657220616c726561647920766f74656400000000000000000000006000830152602082019050919050565b60006139d86014836145b9565b91507f5061757361626c653a206e6f74207061757365640000000000000000000000006000830152602082019050919050565b6000613a18601f836145b9565b91507f6164647220646f65736e277420686176652072656c6179657220726f6c6521006000830152602082019050919050565b6000613a586016836145b9565b91507f496e636f72726563742066656520737570706c696564000000000000000000006000830152602082019050919050565b6000613a98601b836145b9565b91507f6461746120646f65736e2774206d6174636820646174616861736800000000006000830152602082019050919050565b6000613ad8601a836145b9565b91507f50726f706f73616c20616c72656164792063616e63656c6c65640000000000006000830152602082019050919050565b6000613b186020836145b9565b91507f7265736f757263654944206e6f74206d617070656420746f2068616e646c65726000830152602082019050919050565b6000613b586030836145b9565b91507f416363657373436f6e74726f6c3a2073656e646572206d75737420626520616e60008301527f2061646d696e20746f207265766f6b65000000000000000000000000000000006020830152604082019050919050565b6000613bbe6020836145b9565b91507f50726f706f73616c206e6f7420617420657870697279207468726573686f6c646000830152602082019050919050565b6000613bfe6010836145b9565b91507f5061757361626c653a20706175736564000000000000000000000000000000006000830152602082019050919050565b6000613c3e601e836145b9565b91507f6164647220616c7265616479206861732072656c6179657220726f6c652100006000830152602082019050919050565b6000613c7e602a836145b9565b91507f70726f706f73616c20616c7265616479207061737365642f657865637574656460008301527f2f63616e63656c6c6564000000000000000000000000000000000000000000006020830152604082019050919050565b6000613ce46020836145b9565b91507f73656e64657220646f65736e277420686176652072656c6179657220726f6c656000830152602082019050919050565b6000613d24601e836145b9565b91507f73656e64657220646f65736e277420686176652061646d696e20726f6c6500006000830152602082019050919050565b6000613d64601f836145b9565b91507f43757272656e742066656520697320657175616c20746f206e657720666565006000830152602082019050919050565b6000613da46011836145b9565b91507f6461746168617368206d69736d617463680000000000000000000000000000006000830152602082019050919050565b6000613de46019836145b9565b91507f6e6f2068616e646c657220666f72207265736f757263654944000000000000006000830152602082019050919050565b6000613e24602f836145b9565b91507f416363657373436f6e74726f6c3a2063616e206f6e6c792072656e6f756e636560008301527f20726f6c657320666f722073656c6600000000000000000000000000000000006020830152604082019050919050565b600060c083016000830151613e9560008601826136ca565b506020830151613ea860208601826136ca565b5060408301518482036040860152613ec0828261365d565b91505060608301518482036060860152613eda828261365d565b9150506080830151613eef6080860182613782565b5060a0830151613f0260a0860182613f0d565b508091505092915050565b613f1681614663565b82525050565b613f2581614663565b82525050565b613f348161466d565b82525050565b613f4381614696565b82525050565b6000613f558286613646565b601482019150613f66828486613724565b9150819050949350505050565b6000602082019050613f886000830184613637565b92915050565b6000602082019050613fa36000830184613619565b92915050565b6000606082019050613fbe6000830186613637565b613fcb6020830185613637565b613fd86040830184613f1c565b949350505050565b6000606082019050613ff56000830186613637565b6140026020830185613f3a565b61400f6040830184613f3a565b949350505050565b600060208201905061402c60008301846136bb565b92915050565b600060208201905061404760008301846136d9565b92915050565b600060408201905061406260008301856136d9565b61406f6020830184613637565b9392505050565b600060808201905061408b60008301876136d9565b6140986020830186613637565b6140a560408301856136e8565b6140b260608301846136e8565b95945050505050565b60006040820190506140d060008301856136d9565b6140dd60208301846136d9565b9392505050565b60006080820190506140f960008301876136d9565b61410660208301866136d9565b6141136040830185613791565b6141206060830184613f1c565b95945050505050565b600060408201905061413e60008301866136d9565b81810360208301526141518184866136f7565b9050949350505050565b600060a08201905061417060008301896136d9565b61417d6020830188613f3a565b61418a6040830187613f2b565b6141976060830186613619565b81810360808301526141aa8184866136f7565b9050979650505050505050565b600060208201905081810360008301526141d18184613749565b905092915050565b600060208201905081810360008301526141f381846137a0565b905092915050565b60006020820190508181036000830152614214816137d9565b9050919050565b6000602082019050818103600083015261423481613819565b9050919050565b600060208201905081810360008301526142548161387f565b9050919050565b60006020820190508181036000830152614274816138bf565b9050919050565b6000602082019050818103600083015261429481613925565b9050919050565b600060208201905081810360008301526142b48161398b565b9050919050565b600060208201905081810360008301526142d4816139cb565b9050919050565b600060208201905081810360008301526142f481613a0b565b9050919050565b6000602082019050818103600083015261431481613a4b565b9050919050565b6000602082019050818103600083015261433481613a8b565b9050919050565b6000602082019050818103600083015261435481613acb565b9050919050565b6000602082019050818103600083015261437481613b0b565b9050919050565b6000602082019050818103600083015261439481613b4b565b9050919050565b600060208201905081810360008301526143b481613bb1565b9050919050565b600060208201905081810360008301526143d481613bf1565b9050919050565b600060208201905081810360008301526143f481613c31565b9050919050565b6000602082019050818103600083015261441481613c71565b9050919050565b6000602082019050818103600083015261443481613cd7565b9050919050565b6000602082019050818103600083015261445481613d17565b9050919050565b6000602082019050818103600083015261447481613d57565b9050919050565b6000602082019050818103600083015261449481613d97565b9050919050565b600060208201905081810360008301526144b481613dd7565b9050919050565b600060208201905081810360008301526144d481613e17565b9050919050565b600060208201905081810360008301526144f58184613e7d565b905092915050565b60006020820190506145126000830184613f1c565b92915050565b600060208201905061452d6000830184613f2b565b92915050565b60006020820190506145486000830184613f3a565b92915050565b6000819050602082019050919050565b600081519050919050565b600081519050919050565b600081519050919050565b6000602082019050919050565b600082825260208201905092915050565b600082825260208201905092915050565b600081905092915050565b600082825260208201905092915050565b60006145d582614643565b9050919050565b60006145e782614643565b9050919050565b60008115159050919050565b6000819050919050565b60007fffffffff0000000000000000000000000000000000000000000000000000000082169050919050565b600081905061463e8261476f565b919050565b600073ffffffffffffffffffffffffffffffffffffffff82169050919050565b6000819050919050565b600067ffffffffffffffff82169050919050565b600068ffffffffffffffffff82169050919050565b600060ff82169050919050565b60006146ae826146c7565b9050919050565b60006146c082614630565b9050919050565b60006146d2826146d9565b9050919050565b60006146e482614643565b9050919050565b82818337600083830152505050565b60005b838110156147185780820151818401526020810190506146fd565b83811115614727576000848401525b50505050565b60006147388261473f565b9050919050565b600061474a82614762565b9050919050565b6000601f19601f8301169050919050565b60008160601b9050919050565b6005811061477957fe5b50565b614785816145ca565b811461479057600080fd5b50565b61479c816145dc565b81146147a757600080fd5b50565b6147b3816145fa565b81146147be57600080fd5b50565b6147ca81614604565b81146147d557600080fd5b50565b6147e181614663565b81146147ec57600080fd5b50565b6147f88161466d565b811461480357600080fd5b50565b61480f81614681565b811461481a57600080fd5b50565b61482681614696565b811461483157600080fd5b5056fea26469706673582212203256a0a953193bee29c2ede2ad70d537ceb5a796ca33f52dafcf3ad69270749464736f6c63430007000033",
    "immutableReferences": {},
    "source": "pragma solidity 0.7.0;\npragma experimental ABIEncoderV2;\n\nimport \"@openzeppelin/contracts/access/AccessControl.sol\";\nimport \"./utils/Pausable.sol\";\nimport \"./utils/SafeMath.sol\";\nimport \"./interfaces/IDepositExecute.sol\";\nimport \"./interfaces/IBridge.sol\";\nimport \"./interfaces/IERCHandler.sol\";\nimport \"./interfaces/IGenericHandler.sol\";\n\n/**\n    @title Facilitates deposits, creation and votiing of deposit proposals, and deposit executions.\n    @author ChainSafe Systems.\n */\ncontract Bridge is Pausable, AccessControl, SafeMath {\n\n    uint8   public _chainID;\n    uint256 public _relayerThreshold;\n    uint256 public _totalRelayers;\n    uint256 public _totalProposals;\n    uint256 public _fee;\n    uint256 public _expiry;\n\n    enum Vote {No, Yes}\n\n    enum ProposalStatus {Inactive, Active, Passed, Executed, Cancelled}\n\n    struct Proposal {\n        bytes32 _resourceID;\n        bytes32 _dataHash;\n        address[] _yesVotes;\n        address[] _noVotes;\n        ProposalStatus _status;\n        uint256 _proposedBlock;\n    }\n\n    // destinationChainID => number of deposits\n    mapping(uint8 => uint64) public _depositCounts;\n    // resourceID => handler address\n    mapping(bytes32 => address) public _resourceIDToHandlerAddress;\n    // depositNonce => destinationChainID => bytes\n    mapping(uint64 => mapping(uint8 => bytes)) public _depositRecords;\n    // destinationChainID + depositNonce => dataHash => Proposal\n    mapping(uint72 => mapping(bytes32 => Proposal)) public _proposals;\n    // destinationChainID + depositNonce => dataHash => relayerAddress => bool\n    mapping(uint72 => mapping(bytes32 => mapping(address => bool))) public _hasVotedOnProposal;\n\n    event RelayerThresholdChanged(uint indexed newThreshold);\n    event RelayerAdded(address indexed relayer);\n    event RelayerRemoved(address indexed relayer);\n    event Deposit(\n        uint8   indexed destinationChainID,\n        bytes32 indexed resourceID,\n        uint64  indexed depositNonce\n    );\n    event ProposalEvent(\n        uint8           indexed originChainID,\n        uint64          indexed depositNonce,\n        ProposalStatus  indexed status,\n        bytes32 resourceID,\n        bytes32 dataHash\n    );\n\n    event ProposalVote(\n        uint8   indexed originChainID,\n        uint64  indexed depositNonce,\n        ProposalStatus indexed status,\n        bytes32 resourceID\n    );\n\n    bytes32 public constant RELAYER_ROLE = keccak256(\"RELAYER_ROLE\");\n\n    modifier onlyAdmin() {\n        _onlyAdmin();\n        _;\n    }\n\n    modifier onlyAdminOrRelayer() {\n        _onlyAdminOrRelayer();\n        _;\n    }\n\n    modifier onlyRelayers() {\n        _onlyRelayers();\n        _;\n    }\n\n    function _onlyAdminOrRelayer() private {\n        require(hasRole(DEFAULT_ADMIN_ROLE, msg.sender) || hasRole(RELAYER_ROLE, msg.sender),\n            \"sender is not relayer or admin\");\n    }\n\n    function _onlyAdmin() private {\n        require(hasRole(DEFAULT_ADMIN_ROLE, msg.sender), \"sender doesn't have admin role\");\n    }\n\n    function _onlyRelayers() private {\n        require(hasRole(RELAYER_ROLE, msg.sender), \"sender doesn't have relayer role\");\n    }\n\n    /**\n        @notice Initializes Bridge, creates and grants {msg.sender} the admin role,\n        creates and grants {initialRelayers} the relayer role.\n        @param chainID ID of chain the Bridge contract exists on.\n        @param initialRelayers Addresses that should be initially granted the relayer role.\n        @param initialRelayerThreshold Number of votes needed for a deposit proposal to be considered passed.\n     */\n    constructor (uint8 chainID, address[] memory initialRelayers, uint initialRelayerThreshold, uint256 fee, uint256 expiry) public {\n        _chainID = chainID;\n        _relayerThreshold = initialRelayerThreshold;\n        _fee = fee;\n        _expiry = expiry;\n\n        _setupRole(DEFAULT_ADMIN_ROLE, msg.sender);\n        _setRoleAdmin(RELAYER_ROLE, DEFAULT_ADMIN_ROLE);\n\n        uint initialRelayerCount = initialRelayers.length;\n        for (uint i; i < initialRelayerCount; i++) {\n            grantRole(RELAYER_ROLE, initialRelayers[i]);\n            _totalRelayers++;\n        }\n    }\n\n    /**\n        @notice Returns true if {relayer} has the relayer role.\n        @param relayer Address to check.\n     */\n    function isRelayer(address relayer) external view returns (bool) {\n        return hasRole(RELAYER_ROLE, relayer);\n    }\n\n    /**\n        @notice Removes admin role from {msg.sender} and grants it to {newAdmin}.\n        @notice Only callable by an address that currently has the admin role.\n        @param newAdmin Address that admin role will be granted to.\n     */\n    function renounceAdmin(address newAdmin) external onlyAdmin {\n        grantRole(DEFAULT_ADMIN_ROLE, newAdmin);\n        renounceRole(DEFAULT_ADMIN_ROLE, msg.sender);\n    }\n\n    /**\n        @notice Pauses deposits, proposal creation and voting, and deposit executions.\n        @notice Only callable by an address that currently has the admin role.\n     */\n    function adminPauseTransfers() external onlyAdmin {\n        _pause();\n    }\n\n    /**\n        @notice Unpauses deposits, proposal creation and voting, and deposit executions.\n        @notice Only callable by an address that currently has the admin role.\n     */\n    function adminUnpauseTransfers() external onlyAdmin {\n        _unpause();\n    }\n\n    /**\n        @notice Modifies the number of votes required for a proposal to be considered passed.\n        @notice Only callable by an address that currently has the admin role.\n        @param newThreshold Value {_relayerThreshold} will be changed to.\n        @notice Emits {RelayerThresholdChanged} event.\n     */\n    function adminChangeRelayerThreshold(uint newThreshold) external onlyAdmin {\n        _relayerThreshold = newThreshold;\n        emit RelayerThresholdChanged(newThreshold);\n    }\n\n    /**\n        @notice Grants {relayerAddress} the relayer role and increases {_totalRelayer} count.\n        @notice Only callable by an address that currently has the admin role.\n        @param relayerAddress Address of relayer to be added.\n        @notice Emits {RelayerAdded} event.\n     */\n    function adminAddRelayer(address relayerAddress) external onlyAdmin {\n        require(!hasRole(RELAYER_ROLE, relayerAddress), \"addr already has relayer role!\");\n        grantRole(RELAYER_ROLE, relayerAddress);\n        emit RelayerAdded(relayerAddress);\n        _totalRelayers++;\n    }\n\n    /**\n        @notice Removes relayer role for {relayerAddress} and decreases {_totalRelayer} count.\n        @notice Only callable by an address that currently has the admin role.\n        @param relayerAddress Address of relayer to be removed.\n        @notice Emits {RelayerRemoved} event.\n     */\n    function adminRemoveRelayer(address relayerAddress) external onlyAdmin {\n        require(hasRole(RELAYER_ROLE, relayerAddress), \"addr doesn't have relayer role!\");\n        revokeRole(RELAYER_ROLE, relayerAddress);\n        emit RelayerRemoved(relayerAddress);\n        _totalRelayers--;\n    }\n\n    /**\n        @notice Sets a new resource for handler contracts that use the IERCHandler interface,\n        and maps the {handlerAddress} to {resourceID} in {_resourceIDToHandlerAddress}.\n        @notice Only callable by an address that currently has the admin role.\n        @param handlerAddress Address of handler resource will be set for.\n        @param resourceID ResourceID to be used when making deposits.\n        @param tokenAddress Address of contract to be called when a deposit is made and a deposited is executed.\n     */\n    function adminSetResource(address handlerAddress, bytes32 resourceID, address tokenAddress) external onlyAdmin {\n        _resourceIDToHandlerAddress[resourceID] = handlerAddress;\n        IERCHandler handler = IERCHandler(handlerAddress);\n        handler.setResource(resourceID, tokenAddress);\n    }\n\n    /**\n        @notice Sets a new resource for handler contracts that use the IGenericHandler interface,\n        and maps the {handlerAddress} to {resourceID} in {_resourceIDToHandlerAddress}.\n        @notice Only callable by an address that currently has the admin role.\n        @param handlerAddress Address of handler resource will be set for.\n        @param resourceID ResourceID to be used when making deposits.\n        @param contractAddress Address of contract to be called when a deposit is made and a deposited is executed.\n     */\n    function adminSetGenericResource(\n        address handlerAddress,\n        bytes32 resourceID,\n        address contractAddress,\n        bytes4 depositFunctionSig,\n        bytes4 executeFunctionSig\n    ) external onlyAdmin {\n        _resourceIDToHandlerAddress[resourceID] = handlerAddress;\n        IGenericHandler handler = IGenericHandler(handlerAddress);\n        handler.setResource(resourceID, contractAddress, depositFunctionSig, executeFunctionSig);\n    }\n\n    /**\n        @notice Sets a resource as burnable for handler contracts that use the IERCHandler interface.\n        @notice Only callable by an address that currently has the admin role.\n        @param handlerAddress Address of handler resource will be set for.\n        @param tokenAddress Address of contract to be called when a deposit is made and a deposited is executed.\n     */\n    function adminSetBurnable(address handlerAddress, address tokenAddress) external onlyAdmin {\n        IERCHandler handler = IERCHandler(handlerAddress);\n        handler.setBurnable(tokenAddress);\n    }\n\n    /**\n        @notice Sets a resource as burnable for handler contracts that use the IERCHandler interface.\n        @notice Only callable by an address that currently has the admin role.\n        @param handlerAddress Address of handler resource will be set for.\n        @param tokenAddress Address of contract to be called when a deposit is made and a deposited is executed.\n     */\n    function adminSetDecimals(address handlerAddress, address tokenAddress, uint8 srcDecimals, uint8 destDecimals) external onlyAdmin {\n        IERCHandler handler = IERCHandler(handlerAddress);\n        handler.setDecimals(tokenAddress, srcDecimals, destDecimals);\n    }\n\n    /**\n        @notice Sets a initial deposit nonce for dest chan, this is used to migrate to a new bridge contract.\n        @param chainId Dest chain id.\n        @param depositNonce Initial deposit nonce.\n     */\n    function adminSetDepositNonce(uint8 chainId, uint64 depositNonce) external onlyAdmin {\n        _depositCounts[chainId] = depositNonce;\n    }\n\n    /**\n        @notice Returns a proposal.\n        @param originChainID Chain ID deposit originated from.\n        @param depositNonce ID of proposal generated by proposal's origin Bridge contract.\n        @param dataHash Hash of data to be provided when deposit proposal is executed.\n        @return Proposal which consists of:\n        - _dataHash Hash of data to be provided when deposit proposal is executed.\n        - _yesVotes Number of votes in favor of proposal.\n        - _noVotes Number of votes against proposal.\n        - _status Current status of proposal.\n     */\n    function getProposal(uint8 originChainID, uint64 depositNonce, bytes32 dataHash) external view returns (Proposal memory) {\n        uint72 nonceAndID = (uint72(depositNonce) << 8) | uint72(originChainID);\n        return _proposals[nonceAndID][dataHash];\n    }\n\n    /**\n        @notice Changes deposit fee.\n        @notice Only callable by admin.\n        @param newFee Value {_fee} will be updated to.\n     */\n    function adminChangeFee(uint newFee) external onlyAdmin {\n        require(_fee != newFee, \"Current fee is equal to new fee\");\n        _fee = newFee;\n    }\n\n    /**\n        @notice Used to manually withdraw funds from ERC safes.\n        @param handlerAddress Address of handler to withdraw from.\n        @param tokenAddress Address of token to withdraw.\n        @param recipient Address to withdraw tokens to.\n        @param amountOrTokenID Either the amount of ERC20 tokens or the ERC721 token ID to withdraw.\n     */\n    function adminWithdraw(\n        address handlerAddress,\n        address tokenAddress,\n        address recipient,\n        uint256 amountOrTokenID\n    ) external onlyAdmin {\n        IERCHandler handler = IERCHandler(handlerAddress);\n        handler.withdraw(tokenAddress, recipient, amountOrTokenID);\n    }\n\n    /**\n        @notice Initiates a transfer using a specified handler contract.\n        @notice Only callable when Bridge is not paused.\n        @param destinationChainID ID of chain deposit will be bridged to.\n        @param resourceID ResourceID used to find address of handler to be used for deposit.\n        @param data Additional data to be passed to specified handler.\n        @notice Emits {Deposit} event.\n     */\n    function deposit(uint8 destinationChainID, bytes32 resourceID, bytes calldata data) external payable whenNotPaused {\n        require(msg.value == _fee, \"Incorrect fee supplied\");\n\n        address handler = _resourceIDToHandlerAddress[resourceID];\n        require(handler != address(0), \"resourceID not mapped to handler\");\n\n        uint64 depositNonce = ++_depositCounts[destinationChainID];\n        _depositRecords[depositNonce][destinationChainID] = data;\n\n        IDepositExecute depositHandler = IDepositExecute(handler);\n        depositHandler.deposit(resourceID, destinationChainID, depositNonce, msg.sender, data);\n\n        emit Deposit(destinationChainID, resourceID, depositNonce);\n    }\n\n    /**\n        @notice When called, {msg.sender} will be marked as voting in favor of proposal.\n        @notice Only callable by relayers when Bridge is not paused.\n        @param chainID ID of chain deposit originated from.\n        @param depositNonce ID of deposited generated by origin Bridge contract.\n        @param dataHash Hash of data provided when deposit was made.\n        @notice Proposal must not have already been passed or executed.\n        @notice {msg.sender} must not have already voted on proposal.\n        @notice Emits {ProposalEvent} event with status indicating the proposal status.\n        @notice Emits {ProposalVote} event.\n     */\n    function voteProposal(uint8 chainID, uint64 depositNonce, bytes32 resourceID, bytes32 dataHash) external onlyRelayers whenNotPaused {\n\n        uint72 nonceAndID = (uint72(depositNonce) << 8) | uint72(chainID);\n        Proposal storage proposal = _proposals[nonceAndID][dataHash];\n\n        require(_resourceIDToHandlerAddress[resourceID] != address(0), \"no handler for resourceID\");\n        require(uint(proposal._status) <= 1, \"proposal already passed/executed/cancelled\");\n        require(!_hasVotedOnProposal[nonceAndID][dataHash][msg.sender], \"relayer already voted\");\n\n        if (uint(proposal._status) == 0) {\n            ++_totalProposals;\n            _proposals[nonceAndID][dataHash] = Proposal({\n                _resourceID : resourceID,\n                _dataHash : dataHash,\n                _yesVotes : new address[](1),\n                _noVotes : new address[](0),\n                _status : ProposalStatus.Active,\n                _proposedBlock : block.number\n                });\n\n            proposal._yesVotes[0] = msg.sender;\n            emit ProposalEvent(chainID, depositNonce, ProposalStatus.Active, resourceID, dataHash);\n        } else {\n            if (sub(block.number, proposal._proposedBlock) > _expiry) {\n                // if the number of blocks that has passed since this proposal was\n                // submitted exceeds the expiry threshold set, cancel the proposal\n                proposal._status = ProposalStatus.Cancelled;\n                emit ProposalEvent(chainID, depositNonce, ProposalStatus.Cancelled, resourceID, dataHash);\n            } else {\n                require(dataHash == proposal._dataHash, \"datahash mismatch\");\n                proposal._yesVotes.push(msg.sender);\n            }\n\n        }\n        if (proposal._status != ProposalStatus.Cancelled) {\n            _hasVotedOnProposal[nonceAndID][dataHash][msg.sender] = true;\n            emit ProposalVote(chainID, depositNonce, proposal._status, resourceID);\n\n            // If _depositThreshold is set to 1, then auto finalize\n            // or if _relayerThreshold has been exceeded\n            if (_relayerThreshold <= 1 || proposal._yesVotes.length >= _relayerThreshold) {\n                proposal._status = ProposalStatus.Passed;\n\n                emit ProposalEvent(chainID, depositNonce, ProposalStatus.Passed, resourceID, dataHash);\n            }\n        }\n\n    }\n\n    /**\n        @notice Executes a deposit proposal that is considered passed using a specified handler contract.\n        @notice Only callable by relayers when Bridge is not paused.\n        @param chainID ID of chain deposit originated from.\n        @param depositNonce ID of deposited generated by origin Bridge contract.\n        @param dataHash Hash of data originally provided when deposit was made.\n        @notice Proposal must be past expiry threshold.\n        @notice Emits {ProposalEvent} event with status {Cancelled}.\n     */\n    function cancelProposal(uint8 chainID, uint64 depositNonce, bytes32 dataHash) public onlyAdminOrRelayer {\n        uint72 nonceAndID = (uint72(depositNonce) << 8) | uint72(chainID);\n        Proposal storage proposal = _proposals[nonceAndID][dataHash];\n\n        require(proposal._status != ProposalStatus.Cancelled, \"Proposal already cancelled\");\n        require(sub(block.number, proposal._proposedBlock) > _expiry, \"Proposal not at expiry threshold\");\n\n        proposal._status = ProposalStatus.Cancelled;\n        emit ProposalEvent(chainID, depositNonce, ProposalStatus.Cancelled, proposal._resourceID, proposal._dataHash);\n\n    }\n\n    /**\n        @notice Executes a deposit proposal that is considered passed using a specified handler contract.\n        @notice Only callable by relayers when Bridge is not paused.\n        @param chainID ID of chain deposit originated from.\n        @param resourceID ResourceID to be used when making deposits.\n        @param depositNonce ID of deposited generated by origin Bridge contract.\n        @param data Data originally provided when deposit was made.\n        @notice Proposal must have Passed status.\n        @notice Hash of {data} must equal proposal's {dataHash}.\n        @notice Emits {ProposalEvent} event with status {Executed}.\n     */\n    function executeProposal(uint8 chainID, uint64 depositNonce, bytes calldata data, bytes32 resourceID) external onlyRelayers whenNotPaused {\n        address handler = _resourceIDToHandlerAddress[resourceID];\n        uint72 nonceAndID = (uint72(depositNonce) << 8) | uint72(chainID);\n        bytes32 dataHash = keccak256(abi.encodePacked(handler, data));\n        Proposal storage proposal = _proposals[nonceAndID][dataHash];\n\n        require(proposal._status == ProposalStatus.Passed, \"proposal already transferred\");\n        require(dataHash == proposal._dataHash, \"data doesn't match datahash\");\n\n        proposal._status = ProposalStatus.Executed;\n\n        IDepositExecute depositHandler = IDepositExecute(_resourceIDToHandlerAddress[proposal._resourceID]);\n        depositHandler.executeProposal(proposal._resourceID, data);\n\n        emit ProposalEvent(chainID, depositNonce, proposal._status, proposal._resourceID, proposal._dataHash);\n    }\n\n    /**\n        @notice Transfers eth in the contract to the specified addresses. The parameters addrs and amounts are mapped 1-1.\n        This means that the address at index 0 for addrs will receive the amount (in WEI) from amounts at index 0.\n        @param addrs Array of addresses to transfer {amounts} to.\n        @param amounts Array of amonuts to transfer to {addrs}.\n     */\n    function transferFunds(address payable[] calldata addrs, uint[] calldata amounts) external onlyAdmin {\n        require(addrs.length == amounts.length, \"length of address and amounts dismatch\");\n        uint addrCount = addrs.length;\n        for (uint i = 0; i < addrCount; i++) {\n            addrs[i].transfer(amounts[i]);\n        }\n    }\n\n}\n",
    "sourcePath": "/root/dev-spaces/me/chainbridge-solidity/contracts/Bridge.sol",
    "compiler": {
        "name": "solc",
        "version": "0.7.0+commit.9e61f92b.Emscripten.clang"
    },
    "schemaVersion": "3.4.8",
    "updatedAt": "2022-07-27T05:41:53.394Z",
    "networkType": "ethereum",
    "devdoc": {
        "author": "ChainSafe Systems.",
        "kind": "dev",
        "methods": {
            "adminAddRelayer(address)": {
                "params": {
                    "relayerAddress": "Address of relayer to be added."
                }
            },
            "adminChangeFee(uint256)": {
                "params": {
                    "newFee": "Value {_fee} will be updated to."
                }
            },
            "adminChangeRelayerThreshold(uint256)": {
                "params": {
                    "newThreshold": "Value {_relayerThreshold} will be changed to."
                }
            },
            "adminRemoveRelayer(address)": {
                "params": {
                    "relayerAddress": "Address of relayer to be removed."
                }
            },
            "adminSetBurnable(address,address)": {
                "params": {
                    "handlerAddress": "Address of handler resource will be set for.",
                    "tokenAddress": "Address of contract to be called when a deposit is made and a deposited is executed."
                }
            },
            "adminSetDecimals(address,address,uint8,uint8)": {
                "params": {
                    "handlerAddress": "Address of handler resource will be set for.",
                    "tokenAddress": "Address of contract to be called when a deposit is made and a deposited is executed."
                }
            },
            "adminSetDepositNonce(uint8,uint64)": {
                "params": {
                    "chainId": "Dest chain id.",
                    "depositNonce": "Initial deposit nonce."
                }
            },
            "adminSetGenericResource(address,bytes32,address,bytes4,bytes4)": {
                "params": {
                    "contractAddress": "Address of contract to be called when a deposit is made and a deposited is executed.",
                    "handlerAddress": "Address of handler resource will be set for.",
                    "resourceID": "ResourceID to be used when making deposits."
                }
            },
            "adminSetResource(address,bytes32,address)": {
                "params": {
                    "handlerAddress": "Address of handler resource will be set for.",
                    "resourceID": "ResourceID to be used when making deposits.",
                    "tokenAddress": "Address of contract to be called when a deposit is made and a deposited is executed."
                }
            },
            "adminWithdraw(address,address,address,uint256)": {
                "params": {
                    "amountOrTokenID": "Either the amount of ERC20 tokens or the ERC721 token ID to withdraw.",
                    "handlerAddress": "Address of handler to withdraw from.",
                    "recipient": "Address to withdraw tokens to.",
                    "tokenAddress": "Address of token to withdraw."
                }
            },
            "cancelProposal(uint8,uint64,bytes32)": {
                "params": {
                    "chainID": "ID of chain deposit originated from.",
                    "dataHash": "Hash of data originally provided when deposit was made.",
                    "depositNonce": "ID of deposited generated by origin Bridge contract."
                }
            },
            "constructor": {
                "params": {
                    "chainID": "ID of chain the Bridge contract exists on.",
                    "initialRelayerThreshold": "Number of votes needed for a deposit proposal to be considered passed.",
                    "initialRelayers": "Addresses that should be initially granted the relayer role."
                }
            },
            "deposit(uint8,bytes32,bytes)": {
                "params": {
                    "data": "Additional data to be passed to specified handler.",
                    "destinationChainID": "ID of chain deposit will be bridged to.",
                    "resourceID": "ResourceID used to find address of handler to be used for deposit."
                }
            },
            "executeProposal(uint8,uint64,bytes,bytes32)": {
                "params": {
                    "chainID": "ID of chain deposit originated from.",
                    "data": "Data originally provided when deposit was made.",
                    "depositNonce": "ID of deposited generated by origin Bridge contract.",
                    "resourceID": "ResourceID to be used when making deposits."
                }
            },
            "getProposal(uint8,uint64,bytes32)": {
                "params": {
                    "dataHash": "Hash of data to be provided when deposit proposal is executed.",
                    "depositNonce": "ID of proposal generated by proposal's origin Bridge contract.",
                    "originChainID": "Chain ID deposit originated from."
                },
                "returns": {
                    "_0": "Proposal which consists of: - _dataHash Hash of data to be provided when deposit proposal is executed. - _yesVotes Number of votes in favor of proposal. - _noVotes Number of votes against proposal. - _status Current status of proposal."
                }
            },
            "getRoleAdmin(bytes32)": {
                "details": "Returns the admin role that controls `role`. See {grantRole} and {revokeRole}. To change a role's admin, use {_setRoleAdmin}."
            },
            "getRoleMember(bytes32,uint256)": {
                "details": "Returns one of the accounts that have `role`. `index` must be a value between 0 and {getRoleMemberCount}, non-inclusive. Role bearers are not sorted in any particular way, and their ordering may change at any point. WARNING: When using {getRoleMember} and {getRoleMemberCount}, make sure you perform all queries on the same block. See the following https://forum.openzeppelin.com/t/iterating-over-elements-on-enumerableset-in-openzeppelin-contracts/2296[forum post] for more information."
            },
            "getRoleMemberCount(bytes32)": {
                "details": "Returns the number of accounts that have `role`. Can be used together with {getRoleMember} to enumerate all bearers of a role."
            },
            "grantRole(bytes32,address)": {
                "details": "Grants `role` to `account`. If `account` had not been already granted `role`, emits a {RoleGranted} event. Requirements: - the caller must have ``role``'s admin role."
            },
            "hasRole(bytes32,address)": {
                "details": "Returns `true` if `account` has been granted `role`."
            },
            "isRelayer(address)": {
                "params": {
                    "relayer": "Address to check."
                }
            },
            "paused()": {
                "details": "Returns true if the contract is paused, and false otherwise."
            },
            "renounceAdmin(address)": {
                "params": {
                    "newAdmin": "Address that admin role will be granted to."
                }
            },
            "renounceRole(bytes32,address)": {
                "details": "Revokes `role` from the calling account. Roles are often managed via {grantRole} and {revokeRole}: this function's purpose is to provide a mechanism for accounts to lose their privileges if they are compromised (such as when a trusted device is misplaced). If the calling account had been granted `role`, emits a {RoleRevoked} event. Requirements: - the caller must be `account`."
            },
            "revokeRole(bytes32,address)": {
                "details": "Revokes `role` from `account`. If `account` had been granted `role`, emits a {RoleRevoked} event. Requirements: - the caller must have ``role``'s admin role."
            },
            "transferFunds(address[],uint256[])": {
                "params": {
                    "addrs": "Array of addresses to transfer {amounts} to.",
                    "amounts": "Array of amonuts to transfer to {addrs}."
                }
            },
            "voteProposal(uint8,uint64,bytes32,bytes32)": {
                "params": {
                    "chainID": "ID of chain deposit originated from.",
                    "dataHash": "Hash of data provided when deposit was made.",
                    "depositNonce": "ID of deposited generated by origin Bridge contract."
                }
            }
        },
        "title": "Facilitates deposits, creation and votiing of deposit proposals, and deposit executions.",
        "version": 1
    },
    "userdoc": {
        "kind": "user",
        "methods": {
            "adminAddRelayer(address)": {
                "notice": "Grants {relayerAddress} the relayer role and increases {_totalRelayer} count.Only callable by an address that currently has the admin role.Emits {RelayerAdded} event."
            },
            "adminChangeFee(uint256)": {
                "notice": "Changes deposit fee.Only callable by admin."
            },
            "adminChangeRelayerThreshold(uint256)": {
                "notice": "Modifies the number of votes required for a proposal to be considered passed.Only callable by an address that currently has the admin role.Emits {RelayerThresholdChanged} event."
            },
            "adminPauseTransfers()": {
                "notice": "Pauses deposits, proposal creation and voting, and deposit executions.Only callable by an address that currently has the admin role."
            },
            "adminRemoveRelayer(address)": {
                "notice": "Removes relayer role for {relayerAddress} and decreases {_totalRelayer} count.Only callable by an address that currently has the admin role.Emits {RelayerRemoved} event."
            },
            "adminSetBurnable(address,address)": {
                "notice": "Sets a resource as burnable for handler contracts that use the IERCHandler interface.Only callable by an address that currently has the admin role."
            },
            "adminSetDecimals(address,address,uint8,uint8)": {
                "notice": "Sets a resource as burnable for handler contracts that use the IERCHandler interface.Only callable by an address that currently has the admin role."
            },
            "adminSetDepositNonce(uint8,uint64)": {
                "notice": "Sets a initial deposit nonce for dest chan, this is used to migrate to a new bridge contract."
            },
            "adminSetGenericResource(address,bytes32,address,bytes4,bytes4)": {
                "notice": "Sets a new resource for handler contracts that use the IGenericHandler interface, and maps the {handlerAddress} to {resourceID} in {_resourceIDToHandlerAddress}.Only callable by an address that currently has the admin role."
            },
            "adminSetResource(address,bytes32,address)": {
                "notice": "Sets a new resource for handler contracts that use the IERCHandler interface, and maps the {handlerAddress} to {resourceID} in {_resourceIDToHandlerAddress}.Only callable by an address that currently has the admin role."
            },
            "adminUnpauseTransfers()": {
                "notice": "Unpauses deposits, proposal creation and voting, and deposit executions.Only callable by an address that currently has the admin role."
            },
            "adminWithdraw(address,address,address,uint256)": {
                "notice": "Used to manually withdraw funds from ERC safes."
            },
            "cancelProposal(uint8,uint64,bytes32)": {
                "notice": "Executes a deposit proposal that is considered passed using a specified handler contract.Only callable by relayers when Bridge is not paused.Proposal must be past expiry threshold.Emits {ProposalEvent} event with status {Cancelled}."
            },
            "constructor": {
                "notice": "Initializes Bridge, creates and grants {msg.sender} the admin role, creates and grants {initialRelayers} the relayer role."
            },
            "deposit(uint8,bytes32,bytes)": {
                "notice": "Initiates a transfer using a specified handler contract.Only callable when Bridge is not paused.Emits {Deposit} event."
            },
            "executeProposal(uint8,uint64,bytes,bytes32)": {
                "notice": "Executes a deposit proposal that is considered passed using a specified handler contract.Only callable by relayers when Bridge is not paused.Proposal must have Passed status.Hash of {data} must equal proposal's {dataHash}.Emits {ProposalEvent} event with status {Executed}."
            },
            "getProposal(uint8,uint64,bytes32)": {
                "notice": "Returns a proposal."
            },
            "isRelayer(address)": {
                "notice": "Returns true if {relayer} has the relayer role."
            },
            "renounceAdmin(address)": {
                "notice": "Removes admin role from {msg.sender} and grants it to {newAdmin}.Only callable by an address that currently has the admin role."
            },
            "transferFunds(address[],uint256[])": {
                "notice": "Transfers eth in the contract to the specified addresses. The parameters addrs and amounts are mapped 1-1. This means that the address at index 0 for addrs will receive the amount (in WEI) from amounts at index 0."
            },
            "voteProposal(uint8,uint64,bytes32,bytes32)": {
                "notice": "When called, {msg.sender} will be marked as voting in favor of proposal.Only callable by relayers when Bridge is not paused.Proposal must not have already been passed or executed.{msg.sender} must not have already voted on proposal.Emits {ProposalEvent} event with status indicating the proposal status.Emits {ProposalVote} event."
            }
        },
        "version": 1
    }
}