{
  "contractName": "Bridge",
  "abi": [
    {
      "inputs": [
        {
          "internalType": "uint8",
          "name": "chainID",
          "type": "uint8"
        },
        {
          "internalType": "address[]",
          "name": "initialRelayers",
          "type": "address[]"
        },
        {
          "internalType": "uint256",
          "name": "initialRelayerThreshold",
          "type": "uint256"
        },
        {
          "internalType": "uint256",
          "name": "fee",
          "type": "uint256"
        },
        {
          "internalType": "uint256",
          "name": "expiry",
          "type": "uint256"
        }
      ],
      "stateMutability": "nonpayable",
      "type": "constructor"
    },
    {
      "anonymous": false,
      "inputs": [
        {
          "indexed": true,
          "internalType": "uint8",
          "name": "destinationChainID",
          "type": "uint8"
        },
        {
          "indexed": true,
          "internalType": "bytes32",
          "name": "resourceID",
          "type": "bytes32"
        },
        {
          "indexed": true,
          "internalType": "uint64",
          "name": "depositNonce",
          "type": "uint64"
        }
      ],
      "name": "Deposit",
      "type": "event"
    },
    {
      "anonymous": false,
      "inputs": [
        {
          "indexed": false,
          "internalType": "address",
          "name": "account",
          "type": "address"
        }
      ],
      "name": "Paused",
      "type": "event"
    },
    {
      "anonymous": false,
      "inputs": [
        {
          "indexed": true,
          "internalType": "uint8",
          "name": "originChainID",
          "type": "uint8"
        },
        {
          "indexed": true,
          "internalType": "uint64",
          "name": "depositNonce",
          "type": "uint64"
        },
        {
          "indexed": true,
          "internalType": "enum Bridge.ProposalStatus",
          "name": "status",
          "type": "uint8"
        },
        {
          "indexed": false,
          "internalType": "bytes32",
          "name": "resourceID",
          "type": "bytes32"
        },
        {
          "indexed": false,
          "internalType": "bytes32",
          "name": "dataHash",
          "type": "bytes32"
        }
      ],
      "name": "ProposalEvent",
      "type": "event"
    },
    {
      "anonymous": false,
      "inputs": [
        {
          "indexed": true,
          "internalType": "uint256",
          "name": "newThreshold",
          "type": "uint256"
        }
      ],
      "name": "RelayerThresholdChanged",
      "type": "event"
    },
    {
      "anonymous": false,
      "inputs": [
        {
          "indexed": true,
          "internalType": "bytes32",
          "name": "role",
          "type": "bytes32"
        },
        {
          "indexed": true,
          "internalType": "bytes32",
          "name": "previousAdminRole",
          "type": "bytes32"
        },
        {
          "indexed": true,
          "internalType": "bytes32",
          "name": "newAdminRole",
          "type": "bytes32"
        }
      ],
      "name": "RoleAdminChanged",
      "type": "event"
    },
    {
      "anonymous": false,
      "inputs": [
        {
          "indexed": true,
          "internalType": "bytes32",
          "name": "role",
          "type": "bytes32"
        },
        {
          "indexed": true,
          "internalType": "address",
          "name": "account",
          "type": "address"
        },
        {
          "indexed": true,
          "internalType": "address",
          "name": "sender",
          "type": "address"
        }
      ],
      "name": "RoleGranted",
      "type": "event"
    },
    {
      "anonymous": false,
      "inputs": [
        {
          "indexed": true,
          "internalType": "bytes32",
          "name": "role",
          "type": "bytes32"
        },
        {
          "indexed": true,
          "internalType": "address",
          "name": "account",
          "type": "address"
        },
        {
          "indexed": true,
          "internalType": "address",
          "name": "sender",
          "type": "address"
        }
      ],
      "name": "RoleRevoked",
      "type": "event"
    },
    {
      "anonymous": false,
      "inputs": [
        {
          "indexed": false,
          "internalType": "address",
          "name": "account",
          "type": "address"
        }
      ],
      "name": "Unpaused",
      "type": "event"
    },
    {
      "inputs": [],
      "name": "DEFAULT_ADMIN_ROLE",
      "outputs": [
        {
          "internalType": "bytes32",
          "name": "",
          "type": "bytes32"
        }
      ],
      "stateMutability": "view",
      "type": "function"
    },
    {
      "inputs": [],
      "name": "EXECUTOR_ROLE",
      "outputs": [
        {
          "internalType": "bytes32",
          "name": "",
          "type": "bytes32"
        }
      ],
      "stateMutability": "view",
      "type": "function"
    },
    {
      "inputs": [],
      "name": "RELAYER_ROLE",
      "outputs": [
        {
          "internalType": "bytes32",
          "name": "",
          "type": "bytes32"
        }
      ],
      "stateMutability": "view",
      "type": "function"
    },
    {
      "inputs": [],
      "name": "_chainID",
      "outputs": [
        {
          "internalType": "uint8",
          "name": "",
          "type": "uint8"
        }
      ],
      "stateMutability": "view",
      "type": "function"
    },
    {
      "inputs": [
        {
          "internalType": "uint8",
          "name": "",
          "type": "uint8"
        }
      ],
      "name": "_depositCounts",
      "outputs": [
        {
          "internalType": "uint64",
          "name": "",
          "type": "uint64"
        }
      ],
      "stateMutability": "view",
      "type": "function"
    },
    {
      "inputs": [
        {
          "internalType": "uint64",
          "name": "",
          "type": "uint64"
        },
        {
          "internalType": "uint8",
          "name": "",
          "type": "uint8"
        }
      ],
      "name": "_depositRecords",
      "outputs": [
        {
          "internalType": "bytes",
          "name": "",
          "type": "bytes"
        }
      ],
      "stateMutability": "view",
      "type": "function"
    },
    {
      "inputs": [],
      "name": "_expiry",
      "outputs": [
        {
          "internalType": "uint256",
          "name": "",
          "type": "uint256"
        }
      ],
      "stateMutability": "view",
      "type": "function"
    },
    {
      "inputs": [],
      "name": "_fee",
      "outputs": [
        {
          "internalType": "uint256",
          "name": "",
          "type": "uint256"
        }
      ],
      "stateMutability": "view",
      "type": "function"
    },
    {
      "inputs": [
        {
          "internalType": "uint72",
          "name": "",
          "type": "uint72"
        },
        {
          "internalType": "bytes32",
          "name": "",
          "type": "bytes32"
        },
        {
          "internalType": "address",
          "name": "",
          "type": "address"
        }
      ],
      "name": "_hasVotedOnProposal",
      "outputs": [
        {
          "internalType": "bool",
          "name": "",
          "type": "bool"
        }
      ],
      "stateMutability": "view",
      "type": "function"
    },
    {
      "inputs": [
        {
          "internalType": "uint72",
          "name": "",
          "type": "uint72"
        },
        {
          "internalType": "bytes32",
          "name": "",
          "type": "bytes32"
        }
      ],
      "name": "_proposals",
      "outputs": [
        {
          "internalType": "bytes32",
          "name": "_resourceID",
          "type": "bytes32"
        },
        {
          "internalType": "bytes32",
          "name": "_dataHash",
          "type": "bytes32"
        },
        {
          "internalType": "enum Bridge.ProposalStatus",
          "name": "_status",
          "type": "uint8"
        },
        {
          "internalType": "uint256",
          "name": "_proposedBlock",
          "type": "uint256"
        }
      ],
      "stateMutability": "view",
      "type": "function"
    },
    {
      "inputs": [],
      "name": "_relayerThreshold",
      "outputs": [
        {
          "internalType": "uint256",
          "name": "",
          "type": "uint256"
        }
      ],
      "stateMutability": "view",
      "type": "function"
    },
    {
      "inputs": [
        {
          "internalType": "bytes32",
          "name": "",
          "type": "bytes32"
        }
      ],
      "name": "_resourceIDToHandlerAddress",
      "outputs": [
        {
          "internalType": "address",
          "name": "",
          "type": "address"
        }
      ],
      "stateMutability": "view",
      "type": "function"
    },
    {
      "inputs": [],
      "name": "_totalProposals",
      "outputs": [
        {
          "internalType": "uint256",
          "name": "",
          "type": "uint256"
        }
      ],
      "stateMutability": "view",
      "type": "function"
    },
    {
      "inputs": [
        {
          "internalType": "bytes32",
          "name": "role",
          "type": "bytes32"
        }
      ],
      "name": "getRoleAdmin",
      "outputs": [
        {
          "internalType": "bytes32",
          "name": "",
          "type": "bytes32"
        }
      ],
      "stateMutability": "view",
      "type": "function"
    },
    {
      "inputs": [
        {
          "internalType": "bytes32",
          "name": "role",
          "type": "bytes32"
        },
        {
          "internalType": "uint256",
          "name": "index",
          "type": "uint256"
        }
      ],
      "name": "getRoleMember",
      "outputs": [
        {
          "internalType": "address",
          "name": "",
          "type": "address"
        }
      ],
      "stateMutability": "view",
      "type": "function"
    },
    {
      "inputs": [
        {
          "internalType": "bytes32",
          "name": "role",
          "type": "bytes32"
        }
      ],
      "name": "getRoleMemberCount",
      "outputs": [
        {
          "internalType": "uint256",
          "name": "",
          "type": "uint256"
        }
      ],
      "stateMutability": "view",
      "type": "function"
    },
    {
      "inputs": [
        {
          "internalType": "bytes32",
          "name": "role",
          "type": "bytes32"
        },
        {
          "internalType": "address",
          "name": "account",
          "type": "address"
        }
      ],
      "name": "grantRole",
      "outputs": [],
      "stateMutability": "nonpayable",
      "type": "function"
    },
    {
      "inputs": [
        {
          "internalType": "bytes32",
          "name": "role",
          "type": "bytes32"
        },
        {
          "internalType": "address",
          "name": "account",
          "type": "address"
        }
      ],
      "name": "hasRole",
      "outputs": [
        {
          "internalType": "bool",
          "name": "",
          "type": "bool"
        }
      ],
      "stateMutability": "view",
      "type": "function"
    },
    {
      "inputs": [],
      "name": "paused",
      "outputs": [
        {
          "internalType": "bool",
          "name": "",
          "type": "bool"
        }
      ],
      "stateMutability": "view",
      "type": "function"
    },
    {
      "inputs": [
        {
          "internalType": "bytes32",
          "name": "role",
          "type": "bytes32"
        },
        {
          "internalType": "address",
          "name": "account",
          "type": "address"
        }
      ],
      "name": "renounceRole",
      "outputs": [],
      "stateMutability": "nonpayable",
      "type": "function"
    },
    {
      "inputs": [
        {
          "internalType": "bytes32",
          "name": "role",
          "type": "bytes32"
        },
        {
          "internalType": "address",
          "name": "account",
          "type": "address"
        }
      ],
      "name": "revokeRole",
      "outputs": [],
      "stateMutability": "nonpayable",
      "type": "function"
    },
    {
      "inputs": [
        {
          "internalType": "bytes4",
          "name": "interfaceId",
          "type": "bytes4"
        }
      ],
      "name": "supportsInterface",
      "outputs": [
        {
          "internalType": "bool",
          "name": "",
          "type": "bool"
        }
      ],
      "stateMutability": "view",
      "type": "function"
    },
    {
      "inputs": [
        {
          "internalType": "address",
          "name": "relayer",
          "type": "address"
        }
      ],
      "name": "isRelayer",
      "outputs": [
        {
          "internalType": "bool",
          "name": "",
          "type": "bool"
        }
      ],
      "stateMutability": "view",
      "type": "function"
    },
    {
      "inputs": [
        {
          "internalType": "address",
          "name": "newAdmin",
          "type": "address"
        }
      ],
      "name": "renounceAdmin",
      "outputs": [],
      "stateMutability": "nonpayable",
      "type": "function"
    },
    {
      "inputs": [],
      "name": "adminPauseTransfers",
      "outputs": [],
      "stateMutability": "nonpayable",
      "type": "function"
    },
    {
      "inputs": [],
      "name": "adminUnpauseTransfers",
      "outputs": [],
      "stateMutability": "nonpayable",
      "type": "function"
    },
    {
      "inputs": [
        {
          "internalType": "uint256",
          "name": "newThreshold",
          "type": "uint256"
        }
      ],
      "name": "adminChangeRelayerThreshold",
      "outputs": [],
      "stateMutability": "nonpayable",
      "type": "function"
    },
    {
      "inputs": [
        {
          "internalType": "address",
          "name": "relayerAddress",
          "type": "address"
        }
      ],
      "name": "adminAddRelayer",
      "outputs": [],
      "stateMutability": "nonpayable",
      "type": "function"
    },
    {
      "inputs": [
        {
          "internalType": "address",
          "name": "relayerAddress",
          "type": "address"
        }
      ],
      "name": "adminRemoveRelayer",
      "outputs": [],
      "stateMutability": "nonpayable",
      "type": "function"
    },
    {
      "inputs": [
        {
          "internalType": "address",
          "name": "executorAddress",
          "type": "address"
        }
      ],
      "name": "relayerAddExecutor",
      "outputs": [],
      "stateMutability": "nonpayable",
      "type": "function"
    },
    {
      "inputs": [
        {
          "internalType": "address",
          "name": "executorAddress",
          "type": "address"
        }
      ],
      "name": "relayerRemoveExecutor",
      "outputs": [],
      "stateMutability": "nonpayable",
      "type": "function"
    },
    {
      "inputs": [
        {
          "internalType": "address",
          "name": "handlerAddress",
          "type": "address"
        },
        {
          "internalType": "bytes32",
          "name": "resourceID",
          "type": "bytes32"
        },
        {
          "internalType": "address",
          "name": "tokenAddress",
          "type": "address"
        }
      ],
      "name": "adminSetResource",
      "outputs": [],
      "stateMutability": "nonpayable",
      "type": "function"
    },
    {
      "inputs": [
        {
          "internalType": "address",
          "name": "handlerAddress",
          "type": "address"
        },
        {
          "internalType": "bytes32",
          "name": "resourceID",
          "type": "bytes32"
        },
        {
          "internalType": "address",
          "name": "contractAddress",
          "type": "address"
        },
        {
          "internalType": "bytes4",
          "name": "depositFunctionSig",
          "type": "bytes4"
        },
        {
          "internalType": "bytes4",
          "name": "executeFunctionSig",
          "type": "bytes4"
        }
      ],
      "name": "adminSetGenericResource",
      "outputs": [],
      "stateMutability": "nonpayable",
      "type": "function"
    },
    {
      "inputs": [
        {
          "internalType": "address",
          "name": "handlerAddress",
          "type": "address"
        },
        {
          "internalType": "address",
          "name": "tokenAddress",
          "type": "address"
        }
      ],
      "name": "adminSetBurnable",
      "outputs": [],
      "stateMutability": "nonpayable",
      "type": "function"
    },
    {
      "inputs": [
        {
          "internalType": "uint8",
          "name": "originChainID",
          "type": "uint8"
        },
        {
          "internalType": "uint64",
          "name": "depositNonce",
          "type": "uint64"
        },
        {
          "internalType": "bytes32",
          "name": "dataHash",
          "type": "bytes32"
        }
      ],
      "name": "getProposal",
      "outputs": [
        {
          "components": [
            {
              "internalType": "bytes32",
              "name": "_resourceID",
              "type": "bytes32"
            },
            {
              "internalType": "bytes32",
              "name": "_dataHash",
              "type": "bytes32"
            },
            {
              "internalType": "address[]",
              "name": "_yesVotes",
              "type": "address[]"
            },
            {
              "internalType": "address[]",
              "name": "_noVotes",
              "type": "address[]"
            },
            {
              "internalType": "enum Bridge.ProposalStatus",
              "name": "_status",
              "type": "uint8"
            },
            {
              "internalType": "uint256",
              "name": "_proposedBlock",
              "type": "uint256"
            }
          ],
          "internalType": "struct Bridge.Proposal",
          "name": "",
          "type": "tuple"
        }
      ],
      "stateMutability": "view",
      "type": "function"
    },
    {
      "inputs": [
        {
          "internalType": "uint256",
          "name": "newFee",
          "type": "uint256"
        }
      ],
      "name": "adminChangeFee",
      "outputs": [],
      "stateMutability": "nonpayable",
      "type": "function"
    },
    {
      "inputs": [
        {
          "internalType": "uint256",
          "name": "newExpiry",
          "type": "uint256"
        }
      ],
      "name": "adminExpiry",
      "outputs": [],
      "stateMutability": "nonpayable",
      "type": "function"
    },
    {
      "inputs": [
        {
          "internalType": "address",
          "name": "handlerAddress",
          "type": "address"
        },
        {
          "internalType": "address",
          "name": "tokenAddress",
          "type": "address"
        },
        {
          "internalType": "address",
          "name": "recipient",
          "type": "address"
        },
        {
          "internalType": "uint256",
          "name": "amountOrTokenID",
          "type": "uint256"
        }
      ],
      "name": "adminWithdraw",
      "outputs": [],
      "stateMutability": "nonpayable",
      "type": "function"
    },
    {
      "inputs": [
        {
          "internalType": "uint8",
          "name": "destinationChainID",
          "type": "uint8"
        },
        {
          "internalType": "bytes32",
          "name": "resourceID",
          "type": "bytes32"
        },
        {
          "internalType": "bytes",
          "name": "data",
          "type": "bytes"
        }
      ],
      "name": "deposit",
      "outputs": [],
      "stateMutability": "payable",
      "type": "function"
    },
    {
      "inputs": [
        {
          "internalType": "uint8",
          "name": "chainID",
          "type": "uint8"
        },
        {
          "internalType": "uint64",
          "name": "depositNonce",
          "type": "uint64"
        },
        {
          "internalType": "bytes32",
          "name": "resourceID",
          "type": "bytes32"
        },
        {
          "internalType": "bytes",
          "name": "data",
          "type": "bytes"
        }
      ],
      "name": "voteProposal",
      "outputs": [],
      "stateMutability": "nonpayable",
      "type": "function"
    },
    {
      "inputs": [
        {
          "internalType": "uint8",
          "name": "chainID",
          "type": "uint8"
        },
        {
          "internalType": "uint64",
          "name": "depositNonce",
          "type": "uint64"
        },
        {
          "internalType": "bytes32",
          "name": "dataHash",
          "type": "bytes32"
        }
      ],
      "name": "cancelProposal",
      "outputs": [],
      "stateMutability": "nonpayable",
      "type": "function"
    },
    {
      "inputs": [
        {
          "internalType": "uint8",
          "name": "chainID",
          "type": "uint8"
        },
        {
          "internalType": "uint64",
          "name": "depositNonce",
          "type": "uint64"
        },
        {
          "internalType": "bytes",
          "name": "data",
          "type": "bytes"
        },
        {
          "internalType": "bytes32",
          "name": "resourceID",
          "type": "bytes32"
        }
      ],
      "name": "executeProposal",
      "outputs": [],
      "stateMutability": "nonpayable",
      "type": "function"
    },
    {
      "inputs": [
        {
          "internalType": "address payable[]",
          "name": "addrs",
          "type": "address[]"
        },
        {
          "internalType": "uint256[]",
          "name": "amounts",
          "type": "uint256[]"
        }
      ],
      "name": "transferFunds",
      "outputs": [],
      "stateMutability": "nonpayable",
      "type": "function"
    }
  ],
  "bytecode": "0x60806040523480156200001157600080fd5b506040516200693b3803806200693b833981810160405281019062000037919062000ada565b60008060006101000a81548160ff02191690831515021790555084600360006101000a81548160ff021916908360ff160217905550826004819055508160068190555080600781905550620000966000801b33620001d360201b60201c565b620000cb7fe2b7fb3b832174769106daebcfd6d1970523240dda11281102db9363b83b0dc46000801b620001e960201b60201c565b620000fd7fd8aa0f3194971a2a116679f7c2090f6939c8d4e01a2a8d7e41d55e5351469e6333620001d360201b60201c565b6200014f7fd8aa0f3194971a2a116679f7c2090f6939c8d4e01a2a8d7e41d55e5351469e637fe2b7fb3b832174769106daebcfd6d1970523240dda11281102db9363b83b0dc4620001e960201b60201c565b60008451905060005b81811015620001c657620001b07fe2b7fb3b832174769106daebcfd6d1970523240dda11281102db9363b83b0dc48783815181106200019c576200019b62000b81565b5b60200260200101516200024d60201b60201c565b8080620001bd9062000bdf565b91505062000158565b5050505050505062000f23565b620001e582826200028660201b60201c565b5050565b6000620001fc83620002c460201b60201c565b90508160016000858152602001908152602001600020600101819055508181847fbd79b86ffe0ab8e8776151514217cd7cacd52c909f66475c3af44e129f0b00ff60405160405180910390a4505050565b6200025e82620002c460201b60201c565b6200026f81620002e460201b60201c565b6200028183836200028660201b60201c565b505050565b6200029882826200030860201b60201c565b620002bf8160026000858152602001908152602001600020620003f960201b90919060201c565b505050565b600060016000838152602001908152602001600020600101549050919050565b6200030581620002f96200043160201b60201c565b6200043960201b60201c565b50565b6200031a8282620004db60201b60201c565b620003f557600180600084815260200190815260200160002060000160008373ffffffffffffffffffffffffffffffffffffffff1673ffffffffffffffffffffffffffffffffffffffff16815260200190815260200160002060006101000a81548160ff0219169083151502179055506200039a6200043160201b60201c565b73ffffffffffffffffffffffffffffffffffffffff168173ffffffffffffffffffffffffffffffffffffffff16837f2f8788117e7eff1d82e926ec794901d17c78024a50270940304540a733656f0d60405160405180910390a45b5050565b600062000429836000018373ffffffffffffffffffffffffffffffffffffffff1660001b6200054660201b60201c565b905092915050565b600033905090565b6200044b8282620004db60201b60201c565b620004d7576200046181620005c060201b60201c565b620004778360001c6020620005f560201b60201c565b6040516020016200048a92919062000d45565b6040516020818303038152906040526040517f08c379a0000000000000000000000000000000000000000000000000000000008152600401620004ce919062000dd9565b60405180910390fd5b5050565b60006001600084815260200190815260200160002060000160008373ffffffffffffffffffffffffffffffffffffffff1673ffffffffffffffffffffffffffffffffffffffff16815260200190815260200160002060009054906101000a900460ff16905092915050565b60006200055a83836200085060201b60201c565b620005b5578260000182908060018154018082558091505060019003906000526020600020016000909190919091505582600001805490508360010160008481526020019081526020016000208190555060019050620005ba565b600090505b92915050565b6060620005ee8273ffffffffffffffffffffffffffffffffffffffff16601460ff16620005f560201b60201c565b9050919050565b6060600060028360026200060a919062000dfd565b62000616919062000e48565b67ffffffffffffffff811115620006325762000631620008db565b5b6040519080825280601f01601f191660200182016040528015620006655781602001600182028036833780820191505090505b5090507f300000000000000000000000000000000000000000000000000000000000000081600081518110620006a0576200069f62000b81565b5b60200101907effffffffffffffffffffffffffffffffffffffffffffffffffffffffffffff1916908160001a9053507f78000000000000000000000000000000000000000000000000000000000000008160018151811062000707576200070662000b81565b5b60200101907effffffffffffffffffffffffffffffffffffffffffffffffffffffffffffff1916908160001a9053506000600184600262000749919062000dfd565b62000755919062000e48565b90505b6001811115620007ff577f3031323334353637383961626364656600000000000000000000000000000000600f8616601081106200079b576200079a62000b81565b5b1a60f81b828281518110620007b557620007b462000b81565b5b60200101907effffffffffffffffffffffffffffffffffffffffffffffffffffffffffffff1916908160001a905350600485901c945080620007f79062000e83565b905062000758565b506000841462000846576040517f08c379a00000000000000000000000000000000000000000000000000000000081526004016200083d9062000f01565b60405180910390fd5b8091505092915050565b600080836001016000848152602001908152602001600020541415905092915050565b6000604051905090565b600080fd5b600080fd5b600060ff82169050919050565b6200089f8162000887565b8114620008ab57600080fd5b50565b600081519050620008bf8162000894565b92915050565b600080fd5b6000601f19601f8301169050919050565b7f4e487b7100000000000000000000000000000000000000000000000000000000600052604160045260246000fd5b6200091582620008ca565b810181811067ffffffffffffffff82111715620009375762000936620008db565b5b80604052505050565b60006200094c62000873565b90506200095a82826200090a565b919050565b600067ffffffffffffffff8211156200097d576200097c620008db565b5b602082029050602081019050919050565b600080fd5b600073ffffffffffffffffffffffffffffffffffffffff82169050919050565b6000620009c08262000993565b9050919050565b620009d281620009b3565b8114620009de57600080fd5b50565b600081519050620009f281620009c7565b92915050565b600062000a0f62000a09846200095f565b62000940565b9050808382526020820190506020840283018581111562000a355762000a346200098e565b5b835b8181101562000a62578062000a4d8882620009e1565b84526020840193505060208101905062000a37565b5050509392505050565b600082601f83011262000a845762000a83620008c5565b5b815162000a96848260208601620009f8565b91505092915050565b6000819050919050565b62000ab48162000a9f565b811462000ac057600080fd5b50565b60008151905062000ad48162000aa9565b92915050565b600080600080600060a0868803121562000af95762000af86200087d565b5b600062000b0988828901620008ae565b955050602086015167ffffffffffffffff81111562000b2d5762000b2c62000882565b5b62000b3b8882890162000a6c565b945050604062000b4e8882890162000ac3565b935050606062000b618882890162000ac3565b925050608062000b748882890162000ac3565b9150509295509295909350565b7f4e487b7100000000000000000000000000000000000000000000000000000000600052603260045260246000fd5b7f4e487b7100000000000000000000000000000000000000000000000000000000600052601160045260246000fd5b600062000bec8262000a9f565b91507fffffffffffffffffffffffffffffffffffffffffffffffffffffffffffffffff820362000c215762000c2062000bb0565b5b600182019050919050565b600081905092915050565b7f416363657373436f6e74726f6c3a206163636f756e7420000000000000000000600082015250565b600062000c6f60178362000c2c565b915062000c7c8262000c37565b601782019050919050565b600081519050919050565b60005b8381101562000cb257808201518184015260208101905062000c95565b60008484015250505050565b600062000ccb8262000c87565b62000cd7818562000c2c565b935062000ce981856020860162000c92565b80840191505092915050565b7f206973206d697373696e6720726f6c6520000000000000000000000000000000600082015250565b600062000d2d60118362000c2c565b915062000d3a8262000cf5565b601182019050919050565b600062000d528262000c60565b915062000d60828562000cbe565b915062000d6d8262000d1e565b915062000d7b828462000cbe565b91508190509392505050565b600082825260208201905092915050565b600062000da58262000c87565b62000db1818562000d87565b935062000dc381856020860162000c92565b62000dce81620008ca565b840191505092915050565b6000602082019050818103600083015262000df5818462000d98565b905092915050565b600062000e0a8262000a9f565b915062000e178362000a9f565b925082820262000e278162000a9f565b9150828204841483151762000e415762000e4062000bb0565b5b5092915050565b600062000e558262000a9f565b915062000e628362000a9f565b925082820190508082111562000e7d5762000e7c62000bb0565b5b92915050565b600062000e908262000a9f565b91506000820362000ea65762000ea562000bb0565b5b600182039050919050565b7f537472696e67733a20686578206c656e67746820696e73756666696369656e74600082015250565b600062000ee960208362000d87565b915062000ef68262000eb1565b602082019050919050565b6000602082019050818103600083015262000f1c8162000eda565b9050919050565b615a088062000f336000396000f3fe60806040526004361061025c5760003560e01c806384db809f11610144578063beab7131116100b6578063cb10f2151161007a578063cb10f21514610932578063cdb0f73a1461095b578063d547741f14610984578063d7a9cd79146109ad578063e8437ee7146109d8578063ffaac0eb14610a015761025c565b8063beab71311461084b578063c0331b3e14610876578063c5b37c221461089f578063c5ec8970146108ca578063ca15c873146108f55761025c565b8063926d7d7f11610108578063926d7d7f1461073b5780639d5773e0146107665780639d82dd6314610791578063a217fddf146107ba578063a9cf69fa146107e5578063ba5c523c146108225761025c565b806384db809f146106325780638c0c26311461066f5780639010d07c1461069857806391c404ac146106d557806391d14854146106fe5761025c565b80634454b20d116101dd578063541d5548116101a1578063541d5548146105245780635c975abb146105615780635e1fab0f1461058c578063780cf004146105b55780637febe63f146105de57806380ae1c281461061b5761025c565b80634454b20d1461042c5780634603ae38146104555780634b0b919d1461047e5780634e056005146104bb57806350598719146104e45761025c565b8063248a9ca311610224578063248a9ca3146103375780632f2ff15d1461037457806336568abe1461039d5780633ee7094a146103c65780633f47585e146104035761025c565b806301ffc9a71461026157806305e2ca171461029e57806307bd0265146102ba5780631149af51146102e557806317f03ce51461030e575b600080fd5b34801561026d57600080fd5b5061028860048036038101906102839190613892565b610a18565b60405161029591906138da565b60405180910390f35b6102b860048036038101906102b391906139c9565b610a92565b005b3480156102c657600080fd5b506102cf610cf4565b6040516102dc9190613a4c565b60405180910390f35b3480156102f157600080fd5b5061030c60048036038101906103079190613ac5565b610d18565b005b34801561031a57600080fd5b5061033560048036038101906103309190613b32565b610e17565b005b34801561034357600080fd5b5061035e60048036038101906103599190613b85565b611056565b60405161036b9190613a4c565b60405180910390f35b34801561038057600080fd5b5061039b60048036038101906103969190613bb2565b611076565b005b3480156103a957600080fd5b506103c460048036038101906103bf9190613bb2565b611097565b005b3480156103d257600080fd5b506103ed60048036038101906103e89190613bf2565b61111a565b6040516103fa9190613cc2565b60405180910390f35b34801561040f57600080fd5b5061042a60048036038101906104259190613d1a565b6111c7565b005b34801561043857600080fd5b50610453600480360381019061044e9190613d47565b61121d565b005b34801561046157600080fd5b5061047c60048036038101906104779190613e7b565b611537565b005b34801561048a57600080fd5b506104a560048036038101906104a09190613efc565b611680565b6040516104b29190613f38565b60405180910390f35b3480156104c757600080fd5b506104e260048036038101906104dd9190613d1a565b6116a7565b005b3480156104f057600080fd5b5061050b60048036038101906105069190613f94565b61172a565b60405161051b949392919061405a565b60405180910390f35b34801561053057600080fd5b5061054b60048036038101906105469190613ac5565b611774565b60405161055891906138da565b60405180910390f35b34801561056d57600080fd5b506105766117a7565b60405161058391906138da565b60405180910390f35b34801561059857600080fd5b506105b360048036038101906105ae9190613ac5565b6117bd565b005b3480156105c157600080fd5b506105dc60048036038101906105d7919061409f565b611826565b005b3480156105ea57600080fd5b5061060560048036038101906106009190614106565b6118ed565b60405161061291906138da565b60405180910390f35b34801561062757600080fd5b50610630611929565b005b34801561063e57600080fd5b5061065960048036038101906106549190613b85565b61197f565b6040516106669190614168565b60405180910390f35b34801561067b57600080fd5b5061069660048036038101906106919190614183565b6119b2565b005b3480156106a457600080fd5b506106bf60048036038101906106ba91906141c3565b611a73565b6040516106cc9190614168565b60405180910390f35b3480156106e157600080fd5b506106fc60048036038101906106f79190613d1a565b611aa2565b005b34801561070a57600080fd5b5061072560048036038101906107209190613bb2565b611b3c565b60405161073291906138da565b60405180910390f35b34801561074757600080fd5b50610750611ba7565b60405161075d9190613a4c565b60405180910390f35b34801561077257600080fd5b5061077b611bcb565b6040516107889190614203565b60405180910390f35b34801561079d57600080fd5b506107b860048036038101906107b39190613ac5565b611bd1565b005b3480156107c657600080fd5b506107cf611cb3565b6040516107dc9190613a4c565b60405180910390f35b3480156107f157600080fd5b5061080c60048036038101906108079190613b32565b611cba565b6040516108199190614399565b60405180910390f35b34801561082e57600080fd5b5061084960048036038101906108449190613ac5565b611ea9565b005b34801561085757600080fd5b50610860611fa9565b60405161086d91906143ca565b60405180910390f35b34801561088257600080fd5b5061089d600480360381019061089891906143e5565b611fbc565b005b3480156108ab57600080fd5b506108b46128dc565b6040516108c19190614203565b60405180910390f35b3480156108d657600080fd5b506108df6128e2565b6040516108ec9190614203565b60405180910390f35b34801561090157600080fd5b5061091c60048036038101906109179190613b85565b6128e8565b6040516109299190614203565b60405180910390f35b34801561093e57600080fd5b506109596004803603810190610954919061446d565b61290c565b005b34801561096757600080fd5b50610982600480360381019061097d9190613ac5565b612a22565b005b34801561099057600080fd5b506109ab60048036038101906109a69190613bb2565b612b05565b005b3480156109b957600080fd5b506109c2612b26565b6040516109cf9190614203565b60405180910390f35b3480156109e457600080fd5b506109ff60048036038101906109fa91906144c0565b612b2c565b005b348015610a0d57600080fd5b50610a16612c48565b005b60007f5a05180f000000000000000000000000000000000000000000000000000000007bffffffffffffffffffffffffffffffffffffffffffffffffffffffff1916827bffffffffffffffffffffffffffffffffffffffffffffffffffffffff19161480610a8b5750610a8a82612c9e565b5b9050919050565b610a9a612d18565b6006543414610ade576040517f08c379a0000000000000000000000000000000000000000000000000000000008152600401610ad590614598565b60405180910390fd5b60006009600085815260200190815260200160002060009054906101000a900473ffffffffffffffffffffffffffffffffffffffff169050600073ffffffffffffffffffffffffffffffffffffffff168173ffffffffffffffffffffffffffffffffffffffff1603610b85576040517f08c379a0000000000000000000000000000000000000000000000000000000008152600401610b7c90614604565b60405180910390fd5b6000600860008760ff1660ff168152602001908152602001600020600081819054906101000a900467ffffffffffffffff16610bc090614653565b91906101000a81548167ffffffffffffffff021916908367ffffffffffffffff160217905590508383600a60008467ffffffffffffffff1667ffffffffffffffff16815260200190815260200160002060008960ff1660ff1681526020019081526020016000209182610c349291906148c9565b5060008290508073ffffffffffffffffffffffffffffffffffffffff166338995da9878985338a8a6040518763ffffffff1660e01b8152600401610c7d969594939291906149d5565b600060405180830381600087803b158015610c9757600080fd5b505af1158015610cab573d6000803e3d6000fd5b505050508167ffffffffffffffff16868860ff167fdbb69440df8433824a026ef190652f29929eb64b4d1d5d2a69be8afe3e6eaed860405160405180910390a450505050505050565b7fd8aa0f3194971a2a116679f7c2090f6939c8d4e01a2a8d7e41d55e5351469e6381565b610d427fe2b7fb3b832174769106daebcfd6d1970523240dda11281102db9363b83b0dc433611b3c565b610d81576040517f08c379a0000000000000000000000000000000000000000000000000000000008152600401610d7890614a7d565b60405180910390fd5b610dab7fd8aa0f3194971a2a116679f7c2090f6939c8d4e01a2a8d7e41d55e5351469e6382611b3c565b610dea576040517f08c379a0000000000000000000000000000000000000000000000000000000008152600401610de190614ae9565b60405180910390fd5b610e147fd8aa0f3194971a2a116679f7c2090f6939c8d4e01a2a8d7e41d55e5351469e6382612b05565b50565b610e246000801b33611b3c565b80610e555750610e547fe2b7fb3b832174769106daebcfd6d1970523240dda11281102db9363b83b0dc433611b3c565b5b610e94576040517f08c379a0000000000000000000000000000000000000000000000000000000008152600401610e8b90614b55565b60405180910390fd5b60008360ff1660088467ffffffffffffffff1668ffffffffffffffffff16901b1790506000600b60008368ffffffffffffffffff1668ffffffffffffffffff16815260200190815260200160002060008481526020019081526020016000209050600480811115610f0857610f07613fd4565b5b8160040160009054906101000a900460ff166004811115610f2c57610f2b613fd4565b5b03610f6c576040517f08c379a0000000000000000000000000000000000000000000000000000000008152600401610f6390614bc1565b60405180910390fd5b600754816005015443610f7f9190614be1565b11610fbf576040517f08c379a0000000000000000000000000000000000000000000000000000000008152600401610fb690614c61565b60405180910390fd5b60048160040160006101000a81548160ff02191690836004811115610fe757610fe6613fd4565b5b0217905550600480811115610fff57610ffe613fd4565b5b8467ffffffffffffffff168660ff167f803c5a12f6bde629cea32e63d4b92d1b560816a6fb72e939d3c89e1cab65041784600001548560010154604051611047929190614c81565b60405180910390a45050505050565b600060016000838152602001908152602001600020600101549050919050565b61107f82611056565b61108881612d62565b6110928383612d76565b505050565b61109f612daa565b73ffffffffffffffffffffffffffffffffffffffff168173ffffffffffffffffffffffffffffffffffffffff161461110c576040517f08c379a000000000000000000000000000000000000000000000000000000000815260040161110390614d1c565b60405180910390fd5b6111168282612db2565b5050565b600a602052816000526040600020602052806000526040600020600091509150508054611146906146ec565b80601f0160208091040260200160405190810160405280929190818152602001828054611172906146ec565b80156111bf5780601f10611194576101008083540402835291602001916111bf565b820191906000526020600020905b8154815290600101906020018083116111a257829003601f168201915b505050505081565b6111d46000801b33611b3c565b611213576040517f08c379a000000000000000000000000000000000000000000000000000000000815260040161120a90614d88565b60405180910390fd5b8060078190555050565b6112477fe2b7fb3b832174769106daebcfd6d1970523240dda11281102db9363b83b0dc433611b3c565b8061127857506112777fd8aa0f3194971a2a116679f7c2090f6939c8d4e01a2a8d7e41d55e5351469e6333611b3c565b5b8061128c575061128b6000801b33611b3c565b5b6112cb576040517f08c379a00000000000000000000000000000000000000000000000000000000081526004016112c290614e1a565b60405180910390fd5b6112d3612d18565b60006009600083815260200190815260200160002060009054906101000a900473ffffffffffffffffffffffffffffffffffffffff16905060008660ff1660088767ffffffffffffffff1668ffffffffffffffffff16901b179050600082868660405160200161134593929190614eb2565b6040516020818303038152906040528051906020012090506000600b60008468ffffffffffffffffff1668ffffffffffffffffff16815260200190815260200160002060008381526020019081526020016000209050848160000154146113e1576040517f08c379a00000000000000000000000000000000000000000000000000000000081526004016113d890614f28565b60405180910390fd5b600260048111156113f5576113f4613fd4565b5b8160040160009054906101000a900460ff16600481111561141957611418613fd4565b5b14611459576040517f08c379a000000000000000000000000000000000000000000000000000000000815260040161145090614fba565b60405180910390fd5b611464878787612de6565b6114a3576040517f08c379a000000000000000000000000000000000000000000000000000000000815260040161149a90615026565b60405180910390fd5b60038160040160006101000a81548160ff021916908360048111156114cb576114ca613fd4565b5b0217905550600360048111156114e4576114e3613fd4565b5b8867ffffffffffffffff168a60ff167f803c5a12f6bde629cea32e63d4b92d1b560816a6fb72e939d3c89e1cab6504178886604051611524929190614c81565b60405180910390a4505050505050505050565b6115446000801b33611b3c565b611583576040517f08c379a000000000000000000000000000000000000000000000000000000000815260040161157a90614d88565b60405180910390fd5b8181905084849050146115cb576040517f08c379a00000000000000000000000000000000000000000000000000000000081526004016115c2906150b8565b60405180910390fd5b600084849050905060005b81811015611678578585828181106115f1576115f06150d8565b5b90506020020160208101906116069190615145565b73ffffffffffffffffffffffffffffffffffffffff166108fc858584818110611632576116316150d8565b5b905060200201359081150290604051600060405180830381858888f19350505050158015611664573d6000803e3d6000fd5b50808061167090615172565b9150506115d6565b505050505050565b60086020528060005260406000206000915054906101000a900467ffffffffffffffff1681565b6116b46000801b33611b3c565b6116f3576040517f08c379a00000000000000000000000000000000000000000000000000000000081526004016116ea90614d88565b60405180910390fd5b80600481905550807fa20d6b84cd798a24038be305eff8a45ca82ef54a2aa2082005d8e14c0a4746c860405160405180910390a250565b600b602052816000526040600020602052806000526040600020600091509150508060000154908060010154908060040160009054906101000a900460ff16908060050154905084565b60006117a07fe2b7fb3b832174769106daebcfd6d1970523240dda11281102db9363b83b0dc483611b3c565b9050919050565b60008060009054906101000a900460ff16905090565b6117ca6000801b33611b3c565b611809576040517f08c379a000000000000000000000000000000000000000000000000000000000815260040161180090614d88565b60405180910390fd5b6118166000801b82611076565b6118236000801b33611097565b50565b6118336000801b33611b3c565b611872576040517f08c379a000000000000000000000000000000000000000000000000000000000815260040161186990614d88565b60405180910390fd5b60008490508073ffffffffffffffffffffffffffffffffffffffff1663d9caed128585856040518463ffffffff1660e01b81526004016118b4939291906151ba565b600060405180830381600087803b1580156118ce57600080fd5b505af11580156118e2573d6000803e3d6000fd5b505050505050505050565b600c602052826000526040600020602052816000526040600020602052806000526040600020600092509250509054906101000a900460ff1681565b6119366000801b33611b3c565b611975576040517f08c379a000000000000000000000000000000000000000000000000000000000815260040161196c90614d88565b60405180910390fd5b61197d612ea2565b565b60096020528060005260406000206000915054906101000a900473ffffffffffffffffffffffffffffffffffffffff1681565b6119bf6000801b33611b3c565b6119fe576040517f08c379a00000000000000000000000000000000000000000000000000000000081526004016119f590614d88565b60405180910390fd5b60008290508073ffffffffffffffffffffffffffffffffffffffff166307b7ed99836040518263ffffffff1660e01b8152600401611a3c9190614168565b600060405180830381600087803b158015611a5657600080fd5b505af1158015611a6a573d6000803e3d6000fd5b50505050505050565b6000611a9a8260026000868152602001908152602001600020612f0490919063ffffffff16565b905092915050565b611aaf6000801b33611b3c565b611aee576040517f08c379a0000000000000000000000000000000000000000000000000000000008152600401611ae590614d88565b60405180910390fd5b8060065403611b32576040517f08c379a0000000000000000000000000000000000000000000000000000000008152600401611b299061523d565b60405180910390fd5b8060068190555050565b60006001600084815260200190815260200160002060000160008373ffffffffffffffffffffffffffffffffffffffff1673ffffffffffffffffffffffffffffffffffffffff16815260200190815260200160002060009054906101000a900460ff16905092915050565b7fe2b7fb3b832174769106daebcfd6d1970523240dda11281102db9363b83b0dc481565b60055481565b611bde6000801b33611b3c565b611c1d576040517f08c379a0000000000000000000000000000000000000000000000000000000008152600401611c1490614d88565b60405180910390fd5b611c477fe2b7fb3b832174769106daebcfd6d1970523240dda11281102db9363b83b0dc482611b3c565b611c86576040517f08c379a0000000000000000000000000000000000000000000000000000000008152600401611c7d906152a9565b60405180910390fd5b611cb07fe2b7fb3b832174769106daebcfd6d1970523240dda11281102db9363b83b0dc482612b05565b50565b6000801b81565b611cc261373b565b60008460ff1660088567ffffffffffffffff1668ffffffffffffffffff16901b179050600b60008268ffffffffffffffffff1668ffffffffffffffffff16815260200190815260200160002060008481526020019081526020016000206040518060c0016040529081600082015481526020016001820154815260200160028201805480602002602001604051908101604052809291908181526020018280548015611dc357602002820191906000526020600020905b8160009054906101000a900473ffffffffffffffffffffffffffffffffffffffff1673ffffffffffffffffffffffffffffffffffffffff1681526020019060010190808311611d79575b5050505050815260200160038201805480602002602001604051908101604052809291908181526020018280548015611e5157602002820191906000526020600020905b8160009054906101000a900473ffffffffffffffffffffffffffffffffffffffff1673ffffffffffffffffffffffffffffffffffffffff1681526020019060010190808311611e07575b505050505081526020016004820160009054906101000a900460ff166004811115611e7f57611e7e613fd4565b5b6004811115611e9157611e90613fd4565b5b81526020016005820154815250509150509392505050565b611ed37fe2b7fb3b832174769106daebcfd6d1970523240dda11281102db9363b83b0dc433611b3c565b611f12576040517f08c379a0000000000000000000000000000000000000000000000000000000008152600401611f0990614a7d565b60405180910390fd5b611f3c7fd8aa0f3194971a2a116679f7c2090f6939c8d4e01a2a8d7e41d55e5351469e6382611b3c565b15611f7c576040517f08c379a0000000000000000000000000000000000000000000000000000000008152600401611f7390615315565b60405180910390fd5b611fa67fd8aa0f3194971a2a116679f7c2090f6939c8d4e01a2a8d7e41d55e5351469e6382611076565b50565b600360009054906101000a900460ff1681565b611fe67fe2b7fb3b832174769106daebcfd6d1970523240dda11281102db9363b83b0dc433611b3c565b612025576040517f08c379a000000000000000000000000000000000000000000000000000000000815260040161201c90614a7d565b60405180910390fd5b61202d612d18565b60006009600085815260200190815260200160002060009054906101000a900473ffffffffffffffffffffffffffffffffffffffff169050600081848460405160200161207c93929190614eb2565b60405160208183030381529060405280519060200120905060008760ff1660088867ffffffffffffffff1668ffffffffffffffffff16901b1790506000600b60008368ffffffffffffffffff1668ffffffffffffffffff16815260200190815260200160002060008481526020019081526020016000209050600073ffffffffffffffffffffffffffffffffffffffff166009600089815260200190815260200160002060009054906101000a900473ffffffffffffffffffffffffffffffffffffffff1673ffffffffffffffffffffffffffffffffffffffff1603612197576040517f08c379a000000000000000000000000000000000000000000000000000000000815260040161218e90615381565b60405180910390fd5b60018160040160009054906101000a900460ff1660048111156121bd576121bc613fd4565b5b11156121fe576040517f08c379a00000000000000000000000000000000000000000000000000000000081526004016121f590615413565b60405180910390fd5b600c60008368ffffffffffffffffff1668ffffffffffffffffff168152602001908152602001600020600084815260200190815260200160002060003373ffffffffffffffffffffffffffffffffffffffff1673ffffffffffffffffffffffffffffffffffffffff16815260200190815260200160002060009054906101000a900460ff16156122c3576040517f08c379a00000000000000000000000000000000000000000000000000000000081526004016122ba9061547f565b60405180910390fd5b60008160040160009054906101000a900460ff1660048111156122e9576122e8613fd4565b5b0361255c576005600081546122fd90615172565b919050819055506040518060c00160405280888152602001848152602001600167ffffffffffffffff8111156123365761233561468e565b5b6040519080825280602002602001820160405280156123645781602001602082028036833780820191505090505b508152602001600067ffffffffffffffff8111156123855761238461468e565b5b6040519080825280602002602001820160405280156123b35781602001602082028036833780820191505090505b508152602001600160048111156123cd576123cc613fd4565b5b815260200143815250600b60008468ffffffffffffffffff1668ffffffffffffffffff168152602001908152602001600020600085815260200190815260200160002060008201518160000155602082015181600101556040820151816002019080519060200190612440929190613789565b50606082015181600301908051906020019061245d929190613789565b5060808201518160040160006101000a81548160ff0219169083600481111561248957612488613fd4565b5b021790555060a0820151816005015590505033816002016000815481106124b3576124b26150d8565b5b9060005260206000200160006101000a81548173ffffffffffffffffffffffffffffffffffffffff021916908373ffffffffffffffffffffffffffffffffffffffff1602179055506001600481111561250f5761250e613fd4565b5b8867ffffffffffffffff168a60ff167f803c5a12f6bde629cea32e63d4b92d1b560816a6fb72e939d3c89e1cab6504178a8760405161254f929190614c81565b60405180910390a46126af565b60075481600501544361256f9190614be1565b11156126025760048160040160006101000a81548160ff0219169083600481111561259d5761259c613fd4565b5b02179055506004808111156125b5576125b4613fd4565b5b8867ffffffffffffffff168a60ff167f803c5a12f6bde629cea32e63d4b92d1b560816a6fb72e939d3c89e1cab6504178a876040516125f5929190614c81565b60405180910390a46126ae565b86816000015414612648576040517f08c379a000000000000000000000000000000000000000000000000000000000815260040161263f90615511565b60405180910390fd5b80600201339080600181540180825580915050600190039060005260206000200160009091909190916101000a81548173ffffffffffffffffffffffffffffffffffffffff021916908373ffffffffffffffffffffffffffffffffffffffff1602179055505b5b6004808111156126c2576126c1613fd4565b5b8160040160009054906101000a900460ff1660048111156126e6576126e5613fd4565b5b146128d0576001600c60008468ffffffffffffffffff1668ffffffffffffffffff168152602001908152602001600020600085815260200190815260200160002060003373ffffffffffffffffffffffffffffffffffffffff1673ffffffffffffffffffffffffffffffffffffffff16815260200190815260200160002060006101000a81548160ff02191690831515021790555060016004541115806127965750600454816002018054905010155b156128cf576127a6868689612de6565b1561283d5760038160040160006101000a81548160ff021916908360048111156127d3576127d2613fd4565b5b0217905550600360048111156127ec576127eb613fd4565b5b8867ffffffffffffffff168a60ff167f803c5a12f6bde629cea32e63d4b92d1b560816a6fb72e939d3c89e1cab6504178a8760405161282c929190614c81565b60405180910390a4505050506128d5565b60028160040160006101000a81548160ff0219169083600481111561286557612864613fd4565b5b02179055506002600481111561287e5761287d613fd4565b5b8867ffffffffffffffff168a60ff167f803c5a12f6bde629cea32e63d4b92d1b560816a6fb72e939d3c89e1cab6504178a876040516128be929190614c81565b60405180910390a4505050506128d5565b5b505050505b5050505050565b60065481565b60075481565b600061290560026000848152602001908152602001600020612f1e565b9050919050565b6129196000801b33611b3c565b612958576040517f08c379a000000000000000000000000000000000000000000000000000000000815260040161294f90614d88565b60405180910390fd5b826009600084815260200190815260200160002060006101000a81548173ffffffffffffffffffffffffffffffffffffffff021916908373ffffffffffffffffffffffffffffffffffffffff16021790555060008390508073ffffffffffffffffffffffffffffffffffffffff1663b8fa373684846040518363ffffffff1660e01b81526004016129ea929190615531565b600060405180830381600087803b158015612a0457600080fd5b505af1158015612a18573d6000803e3d6000fd5b5050505050505050565b612a2f6000801b33611b3c565b612a6e576040517f08c379a0000000000000000000000000000000000000000000000000000000008152600401612a6590614d88565b60405180910390fd5b612a987fe2b7fb3b832174769106daebcfd6d1970523240dda11281102db9363b83b0dc482611b3c565b15612ad8576040517f08c379a0000000000000000000000000000000000000000000000000000000008152600401612acf906155a6565b60405180910390fd5b612b027fe2b7fb3b832174769106daebcfd6d1970523240dda11281102db9363b83b0dc482611076565b50565b612b0e82611056565b612b1781612d62565b612b218383612db2565b505050565b60045481565b612b396000801b33611b3c565b612b78576040517f08c379a0000000000000000000000000000000000000000000000000000000008152600401612b6f90614d88565b60405180910390fd5b846009600086815260200190815260200160002060006101000a81548173ffffffffffffffffffffffffffffffffffffffff021916908373ffffffffffffffffffffffffffffffffffffffff16021790555060008590508073ffffffffffffffffffffffffffffffffffffffff1663bba8185a868686866040518563ffffffff1660e01b8152600401612c0e94939291906155d5565b600060405180830381600087803b158015612c2857600080fd5b505af1158015612c3c573d6000803e3d6000fd5b50505050505050505050565b612c556000801b33611b3c565b612c94576040517f08c379a0000000000000000000000000000000000000000000000000000000008152600401612c8b90614d88565b60405180910390fd5b612c9c612f33565b565b60007f7965db0b000000000000000000000000000000000000000000000000000000007bffffffffffffffffffffffffffffffffffffffffffffffffffffffff1916827bffffffffffffffffffffffffffffffffffffffffffffffffffffffff19161480612d115750612d1082612f95565b5b9050919050565b612d206117a7565b15612d60576040517f08c379a0000000000000000000000000000000000000000000000000000000008152600401612d5790615666565b60405180910390fd5b565b612d7381612d6e612daa565b612fff565b50565b612d808282613084565b612da5816002600085815260200190815260200160002061316490919063ffffffff16565b505050565b600033905090565b612dbc8282613194565b612de1816002600085815260200190815260200160002061327690919063ffffffff16565b505050565b6000806009600084815260200190815260200160002060009054906101000a900473ffffffffffffffffffffffffffffffffffffffff1690508073ffffffffffffffffffffffffffffffffffffffff1663e248cff28487876040518463ffffffff1660e01b8152600401612e5c93929190615686565b600060405180830381600087803b158015612e7657600080fd5b505af1925050508015612e87575060015b612e95576000915050612e9b565b60019150505b9392505050565b612eaa612d18565b60016000806101000a81548160ff0219169083151502179055507f62e78cea01bee320cd4e420270b5ea74000d11b0c9f74754ebdbfc544b05a258612eed612daa565b604051612efa9190614168565b60405180910390a1565b6000612f1383600001836132a6565b60001c905092915050565b6000612f2c826000016132d1565b9050919050565b612f3b6132e2565b60008060006101000a81548160ff0219169083151502179055507f5db9ee0a495bf2e6ff9c91a7834c1ba4fdd244a5e8aa4e537bd38aeae4b073aa612f7e612daa565b604051612f8b9190614168565b60405180910390a1565b60007f01ffc9a7000000000000000000000000000000000000000000000000000000007bffffffffffffffffffffffffffffffffffffffffffffffffffffffff1916827bffffffffffffffffffffffffffffffffffffffffffffffffffffffff1916149050919050565b6130098282611b3c565b613080576130168161332b565b6130248360001c6020613358565b604051602001613035929190615797565b6040516020818303038152906040526040517f08c379a0000000000000000000000000000000000000000000000000000000008152600401613077919061580a565b60405180910390fd5b5050565b61308e8282611b3c565b61316057600180600084815260200190815260200160002060000160008373ffffffffffffffffffffffffffffffffffffffff1673ffffffffffffffffffffffffffffffffffffffff16815260200190815260200160002060006101000a81548160ff021916908315150217905550613105612daa565b73ffffffffffffffffffffffffffffffffffffffff168173ffffffffffffffffffffffffffffffffffffffff16837f2f8788117e7eff1d82e926ec794901d17c78024a50270940304540a733656f0d60405160405180910390a45b5050565b600061318c836000018373ffffffffffffffffffffffffffffffffffffffff1660001b613594565b905092915050565b61319e8282611b3c565b156132725760006001600084815260200190815260200160002060000160008373ffffffffffffffffffffffffffffffffffffffff1673ffffffffffffffffffffffffffffffffffffffff16815260200190815260200160002060006101000a81548160ff021916908315150217905550613217612daa565b73ffffffffffffffffffffffffffffffffffffffff168173ffffffffffffffffffffffffffffffffffffffff16837ff6391f5c32d9c69d2a47ea670b442974b53935d1edc7fd64eb21e047a839171b60405160405180910390a45b5050565b600061329e836000018373ffffffffffffffffffffffffffffffffffffffff1660001b613604565b905092915050565b60008260000182815481106132be576132bd6150d8565b5b9060005260206000200154905092915050565b600081600001805490509050919050565b6132ea6117a7565b613329576040517f08c379a000000000000000000000000000000000000000000000000000000000815260040161332090615878565b60405180910390fd5b565b60606133518273ffffffffffffffffffffffffffffffffffffffff16601460ff16613358565b9050919050565b60606000600283600261336b9190615898565b61337591906158da565b67ffffffffffffffff81111561338e5761338d61468e565b5b6040519080825280601f01601f1916602001820160405280156133c05781602001600182028036833780820191505090505b5090507f3000000000000000000000000000000000000000000000000000000000000000816000815181106133f8576133f76150d8565b5b60200101907effffffffffffffffffffffffffffffffffffffffffffffffffffffffffffff1916908160001a9053507f78000000000000000000000000000000000000000000000000000000000000008160018151811061345c5761345b6150d8565b5b60200101907effffffffffffffffffffffffffffffffffffffffffffffffffffffffffffff1916908160001a9053506000600184600261349c9190615898565b6134a691906158da565b90505b6001811115613546577f3031323334353637383961626364656600000000000000000000000000000000600f8616601081106134e8576134e76150d8565b5b1a60f81b8282815181106134ff576134fe6150d8565b5b60200101907effffffffffffffffffffffffffffffffffffffffffffffffffffffffffffff1916908160001a905350600485901c94508061353f9061590e565b90506134a9565b506000841461358a576040517f08c379a000000000000000000000000000000000000000000000000000000000815260040161358190615983565b60405180910390fd5b8091505092915050565b60006135a08383613718565b6135f95782600001829080600181540180825580915050600190039060005260206000200160009091909190915055826000018054905083600101600084815260200190815260200160002081905550600190506135fe565b600090505b92915050565b6000808360010160008481526020019081526020016000205490506000811461370c5760006001826136369190614be1565b905060006001866000018054905061364e9190614be1565b90508181146136bd57600086600001828154811061366f5761366e6150d8565b5b9060005260206000200154905080876000018481548110613693576136926150d8565b5b90600052602060002001819055508387600101600083815260200190815260200160002081905550505b856000018054806136d1576136d06159a3565b5b600190038181906000526020600020016000905590558560010160008681526020019081526020016000206000905560019350505050613712565b60009150505b92915050565b600080836001016000848152602001908152602001600020541415905092915050565b6040518060c00160405280600080191681526020016000801916815260200160608152602001606081526020016000600481111561377c5761377b613fd4565b5b8152602001600081525090565b828054828255906000526020600020908101928215613802579160200282015b828111156138015782518260006101000a81548173ffffffffffffffffffffffffffffffffffffffff021916908373ffffffffffffffffffffffffffffffffffffffff160217905550916020019190600101906137a9565b5b50905061380f9190613813565b5090565b5b8082111561382c576000816000905550600101613814565b5090565b600080fd5b600080fd5b60007fffffffff0000000000000000000000000000000000000000000000000000000082169050919050565b61386f8161383a565b811461387a57600080fd5b50565b60008135905061388c81613866565b92915050565b6000602082840312156138a8576138a7613830565b5b60006138b68482850161387d565b91505092915050565b60008115159050919050565b6138d4816138bf565b82525050565b60006020820190506138ef60008301846138cb565b92915050565b600060ff82169050919050565b61390b816138f5565b811461391657600080fd5b50565b60008135905061392881613902565b92915050565b6000819050919050565b6139418161392e565b811461394c57600080fd5b50565b60008135905061395e81613938565b92915050565b600080fd5b600080fd5b600080fd5b60008083601f84011261398957613988613964565b5b8235905067ffffffffffffffff8111156139a6576139a5613969565b5b6020830191508360018202830111156139c2576139c161396e565b5b9250929050565b600080600080606085870312156139e3576139e2613830565b5b60006139f187828801613919565b9450506020613a028782880161394f565b935050604085013567ffffffffffffffff811115613a2357613a22613835565b5b613a2f87828801613973565b925092505092959194509250565b613a468161392e565b82525050565b6000602082019050613a616000830184613a3d565b92915050565b600073ffffffffffffffffffffffffffffffffffffffff82169050919050565b6000613a9282613a67565b9050919050565b613aa281613a87565b8114613aad57600080fd5b50565b600081359050613abf81613a99565b92915050565b600060208284031215613adb57613ada613830565b5b6000613ae984828501613ab0565b91505092915050565b600067ffffffffffffffff82169050919050565b613b0f81613af2565b8114613b1a57600080fd5b50565b600081359050613b2c81613b06565b92915050565b600080600060608486031215613b4b57613b4a613830565b5b6000613b5986828701613919565b9350506020613b6a86828701613b1d565b9250506040613b7b8682870161394f565b9150509250925092565b600060208284031215613b9b57613b9a613830565b5b6000613ba98482850161394f565b91505092915050565b60008060408385031215613bc957613bc8613830565b5b6000613bd78582860161394f565b9250506020613be885828601613ab0565b9150509250929050565b60008060408385031215613c0957613c08613830565b5b6000613c1785828601613b1d565b9250506020613c2885828601613919565b9150509250929050565b600081519050919050565b600082825260208201905092915050565b60005b83811015613c6c578082015181840152602081019050613c51565b60008484015250505050565b6000601f19601f8301169050919050565b6000613c9482613c32565b613c9e8185613c3d565b9350613cae818560208601613c4e565b613cb781613c78565b840191505092915050565b60006020820190508181036000830152613cdc8184613c89565b905092915050565b6000819050919050565b613cf781613ce4565b8114613d0257600080fd5b50565b600081359050613d1481613cee565b92915050565b600060208284031215613d3057613d2f613830565b5b6000613d3e84828501613d05565b91505092915050565b600080600080600060808688031215613d6357613d62613830565b5b6000613d7188828901613919565b9550506020613d8288828901613b1d565b945050604086013567ffffffffffffffff811115613da357613da2613835565b5b613daf88828901613973565b93509350506060613dc28882890161394f565b9150509295509295909350565b60008083601f840112613de557613de4613964565b5b8235905067ffffffffffffffff811115613e0257613e01613969565b5b602083019150836020820283011115613e1e57613e1d61396e565b5b9250929050565b60008083601f840112613e3b57613e3a613964565b5b8235905067ffffffffffffffff811115613e5857613e57613969565b5b602083019150836020820283011115613e7457613e7361396e565b5b9250929050565b60008060008060408587031215613e9557613e94613830565b5b600085013567ffffffffffffffff811115613eb357613eb2613835565b5b613ebf87828801613dcf565b9450945050602085013567ffffffffffffffff811115613ee257613ee1613835565b5b613eee87828801613e25565b925092505092959194509250565b600060208284031215613f1257613f11613830565b5b6000613f2084828501613919565b91505092915050565b613f3281613af2565b82525050565b6000602082019050613f4d6000830184613f29565b92915050565b600068ffffffffffffffffff82169050919050565b613f7181613f53565b8114613f7c57600080fd5b50565b600081359050613f8e81613f68565b92915050565b60008060408385031215613fab57613faa613830565b5b6000613fb985828601613f7f565b9250506020613fca8582860161394f565b9150509250929050565b7f4e487b7100000000000000000000000000000000000000000000000000000000600052602160045260246000fd5b6005811061401457614013613fd4565b5b50565b600081905061402582614003565b919050565b600061403582614017565b9050919050565b6140458161402a565b82525050565b61405481613ce4565b82525050565b600060808201905061406f6000830187613a3d565b61407c6020830186613a3d565b614089604083018561403c565b614096606083018461404b565b95945050505050565b600080600080608085870312156140b9576140b8613830565b5b60006140c787828801613ab0565b94505060206140d887828801613ab0565b93505060406140e987828801613ab0565b92505060606140fa87828801613d05565b91505092959194509250565b60008060006060848603121561411f5761411e613830565b5b600061412d86828701613f7f565b935050602061413e8682870161394f565b925050604061414f86828701613ab0565b9150509250925092565b61416281613a87565b82525050565b600060208201905061417d6000830184614159565b92915050565b6000806040838503121561419a57614199613830565b5b60006141a885828601613ab0565b92505060206141b985828601613ab0565b9150509250929050565b600080604083850312156141da576141d9613830565b5b60006141e88582860161394f565b92505060206141f985828601613d05565b9150509250929050565b6000602082019050614218600083018461404b565b92915050565b6142278161392e565b82525050565b600081519050919050565b600082825260208201905092915050565b6000819050602082019050919050565b61426281613a87565b82525050565b60006142748383614259565b60208301905092915050565b6000602082019050919050565b60006142988261422d565b6142a28185614238565b93506142ad83614249565b8060005b838110156142de5781516142c58882614268565b97506142d083614280565b9250506001810190506142b1565b5085935050505092915050565b6142f48161402a565b82525050565b61430381613ce4565b82525050565b600060c083016000830151614321600086018261421e565b506020830151614334602086018261421e565b506040830151848203604086015261434c828261428d565b91505060608301518482036060860152614366828261428d565b915050608083015161437b60808601826142eb565b5060a083015161438e60a08601826142fa565b508091505092915050565b600060208201905081810360008301526143b38184614309565b905092915050565b6143c4816138f5565b82525050565b60006020820190506143df60008301846143bb565b92915050565b60008060008060006080868803121561440157614400613830565b5b600061440f88828901613919565b955050602061442088828901613b1d565b94505060406144318882890161394f565b935050606086013567ffffffffffffffff81111561445257614451613835565b5b61445e88828901613973565b92509250509295509295909350565b60008060006060848603121561448657614485613830565b5b600061449486828701613ab0565b93505060206144a58682870161394f565b92505060406144b686828701613ab0565b9150509250925092565b600080600080600060a086880312156144dc576144db613830565b5b60006144ea88828901613ab0565b95505060206144fb8882890161394f565b945050604061450c88828901613ab0565b935050606061451d8882890161387d565b925050608061452e8882890161387d565b9150509295509295909350565b600082825260208201905092915050565b7f496e636f72726563742066656520737570706c69656400000000000000000000600082015250565b600061458260168361453b565b915061458d8261454c565b602082019050919050565b600060208201905081810360008301526145b181614575565b9050919050565b7f7265736f757263654944206e6f74206d617070656420746f2068616e646c6572600082015250565b60006145ee60208361453b565b91506145f9826145b8565b602082019050919050565b6000602082019050818103600083015261461d816145e1565b9050919050565b7f4e487b7100000000000000000000000000000000000000000000000000000000600052601160045260246000fd5b600061465e82613af2565b915067ffffffffffffffff820361467857614677614624565b5b600182019050919050565b600082905092915050565b7f4e487b7100000000000000000000000000000000000000000000000000000000600052604160045260246000fd5b7f4e487b7100000000000000000000000000000000000000000000000000000000600052602260045260246000fd5b6000600282049050600182168061470457607f821691505b602082108103614717576147166146bd565b5b50919050565b60008190508160005260206000209050919050565b60006020601f8301049050919050565b600082821b905092915050565b60006008830261477f7fffffffffffffffffffffffffffffffffffffffffffffffffffffffffffffffff82614742565b6147898683614742565b95508019841693508086168417925050509392505050565b6000819050919050565b60006147c66147c16147bc84613ce4565b6147a1565b613ce4565b9050919050565b6000819050919050565b6147e0836147ab565b6147f46147ec826147cd565b84845461474f565b825550505050565b600090565b6148096147fc565b6148148184846147d7565b505050565b5b818110156148385761482d600082614801565b60018101905061481a565b5050565b601f82111561487d5761484e8161471d565b61485784614732565b81016020851015614866578190505b61487a61487285614732565b830182614819565b50505b505050565b600082821c905092915050565b60006148a060001984600802614882565b1980831691505092915050565b60006148b9838361488f565b9150826002028217905092915050565b6148d38383614683565b67ffffffffffffffff8111156148ec576148eb61468e565b5b6148f682546146ec565b61490182828561483c565b6000601f831160018114614930576000841561491e578287013590505b61492885826148ad565b865550614990565b601f19841661493e8661471d565b60005b8281101561496657848901358255600182019150602085019450602081019050614941565b86831015614983578489013561497f601f89168261488f565b8355505b6001600288020188555050505b50505050505050565b82818337600083830152505050565b60006149b48385613c3d565b93506149c1838584614999565b6149ca83613c78565b840190509392505050565b600060a0820190506149ea6000830189613a3d565b6149f760208301886143bb565b614a046040830187613f29565b614a116060830186614159565b8181036080830152614a248184866149a8565b9050979650505050505050565b7f73656e64657220646f65736e277420686176652072656c6179657220726f6c65600082015250565b6000614a6760208361453b565b9150614a7282614a31565b602082019050919050565b60006020820190508181036000830152614a9681614a5a565b9050919050565b7f6164647220646f65736e27742068617665206578656375746f7220726f6c6521600082015250565b6000614ad360208361453b565b9150614ade82614a9d565b602082019050919050565b60006020820190508181036000830152614b0281614ac6565b9050919050565b7f73656e646572206973206e6f742072656c61796572206f722061646d696e0000600082015250565b6000614b3f601e8361453b565b9150614b4a82614b09565b602082019050919050565b60006020820190508181036000830152614b6e81614b32565b9050919050565b7f50726f706f73616c20616c72656164792063616e63656c6c6564000000000000600082015250565b6000614bab601a8361453b565b9150614bb682614b75565b602082019050919050565b60006020820190508181036000830152614bda81614b9e565b9050919050565b6000614bec82613ce4565b9150614bf783613ce4565b9250828203905081811115614c0f57614c0e614624565b5b92915050565b7f50726f706f73616c206e6f7420617420657870697279207468726573686f6c64600082015250565b6000614c4b60208361453b565b9150614c5682614c15565b602082019050919050565b60006020820190508181036000830152614c7a81614c3e565b9050919050565b6000604082019050614c966000830185613a3d565b614ca36020830184613a3d565b9392505050565b7f416363657373436f6e74726f6c3a2063616e206f6e6c792072656e6f756e636560008201527f20726f6c657320666f722073656c660000000000000000000000000000000000602082015250565b6000614d06602f8361453b565b9150614d1182614caa565b604082019050919050565b60006020820190508181036000830152614d3581614cf9565b9050919050565b7f73656e64657220646f65736e277420686176652061646d696e20726f6c650000600082015250565b6000614d72601e8361453b565b9150614d7d82614d3c565b602082019050919050565b60006020820190508181036000830152614da181614d65565b9050919050565b7f73656e64657220646f65736e27742068617665206578656375746f7220726f6c60008201527f6500000000000000000000000000000000000000000000000000000000000000602082015250565b6000614e0460218361453b565b9150614e0f82614da8565b604082019050919050565b60006020820190508181036000830152614e3381614df7565b9050919050565b60008160601b9050919050565b6000614e5282614e3a565b9050919050565b6000614e6482614e47565b9050919050565b614e7c614e7782613a87565b614e59565b82525050565b600081905092915050565b6000614e998385614e82565b9350614ea6838584614999565b82840190509392505050565b6000614ebe8286614e6b565b601482019150614ecf828486614e8d565b9150819050949350505050565b7f77726f6e67207265736f75726365206964000000000000000000000000000000600082015250565b6000614f1260118361453b565b9150614f1d82614edc565b602082019050919050565b60006020820190508181036000830152614f4181614f05565b9050919050565b7f70726f706f73616c20616c7265616479207472616e736665727265642f6e6f7460008201527f2066696e616c697a656420796574000000000000000000000000000000000000602082015250565b6000614fa4602e8361453b565b9150614faf82614f48565b604082019050919050565b60006020820190508181036000830152614fd381614f97565b9050919050565b7f457865637574696f6e206e6f74207375636365737366756c0000000000000000600082015250565b600061501060188361453b565b915061501b82614fda565b602082019050919050565b6000602082019050818103600083015261503f81615003565b9050919050565b7f6c656e677468206f66206164647265737320616e6420616d6f756e747320646960008201527f736d617463680000000000000000000000000000000000000000000000000000602082015250565b60006150a260268361453b565b91506150ad82615046565b604082019050919050565b600060208201905081810360008301526150d181615095565b9050919050565b7f4e487b7100000000000000000000000000000000000000000000000000000000600052603260045260246000fd5b600061511282613a67565b9050919050565b61512281615107565b811461512d57600080fd5b50565b60008135905061513f81615119565b92915050565b60006020828403121561515b5761515a613830565b5b600061516984828501615130565b91505092915050565b600061517d82613ce4565b91507fffffffffffffffffffffffffffffffffffffffffffffffffffffffffffffffff82036151af576151ae614624565b5b600182019050919050565b60006060820190506151cf6000830186614159565b6151dc6020830185614159565b6151e9604083018461404b565b949350505050565b7f43757272656e742066656520697320657175616c20746f206e65772066656500600082015250565b6000615227601f8361453b565b9150615232826151f1565b602082019050919050565b600060208201905081810360008301526152568161521a565b9050919050565b7f6164647220646f65736e277420686176652072656c6179657220726f6c652100600082015250565b6000615293601f8361453b565b915061529e8261525d565b602082019050919050565b600060208201905081810360008301526152c281615286565b9050919050565b7f6164647220616c726561647920686173206578656375746f7220726f6c652100600082015250565b60006152ff601f8361453b565b915061530a826152c9565b602082019050919050565b6000602082019050818103600083015261532e816152f2565b9050919050565b7f6e6f2068616e646c657220666f72207265736f75726365494400000000000000600082015250565b600061536b60198361453b565b915061537682615335565b602082019050919050565b6000602082019050818103600083015261539a8161535e565b9050919050565b7f70726f706f73616c20616c7265616479207061737365642f657865637574656460008201527f2f63616e63656c6c656400000000000000000000000000000000000000000000602082015250565b60006153fd602a8361453b565b9150615408826153a1565b604082019050919050565b6000602082019050818103600083015261542c816153f0565b9050919050565b7f72656c6179657220616c726561647920766f7465640000000000000000000000600082015250565b600061546960158361453b565b915061547482615433565b602082019050919050565b600060208201905081810360008301526154988161545c565b9050919050565b7f4368656174696e67205269736b3b2052656c6179657220766f7465207769746860008201527f2077726f6e67207265736f757263654944000000000000000000000000000000602082015250565b60006154fb60318361453b565b91506155068261549f565b604082019050919050565b6000602082019050818103600083015261552a816154ee565b9050919050565b60006040820190506155466000830185613a3d565b6155536020830184614159565b9392505050565b7f6164647220616c7265616479206861732072656c6179657220726f6c65210000600082015250565b6000615590601e8361453b565b915061559b8261555a565b602082019050919050565b600060208201905081810360008301526155bf81615583565b9050919050565b6155cf8161383a565b82525050565b60006080820190506155ea6000830187613a3d565b6155f76020830186614159565b61560460408301856155c6565b61561160608301846155c6565b95945050505050565b7f5061757361626c653a2070617573656400000000000000000000000000000000600082015250565b600061565060108361453b565b915061565b8261561a565b602082019050919050565b6000602082019050818103600083015261567f81615643565b9050919050565b600060408201905061569b6000830186613a3d565b81810360208301526156ae8184866149a8565b9050949350505050565b600081905092915050565b7f416363657373436f6e74726f6c3a206163636f756e7420000000000000000000600082015250565b60006156f96017836156b8565b9150615704826156c3565b601782019050919050565b600081519050919050565b60006157258261570f565b61572f81856156b8565b935061573f818560208601613c4e565b80840191505092915050565b7f206973206d697373696e6720726f6c6520000000000000000000000000000000600082015250565b60006157816011836156b8565b915061578c8261574b565b601182019050919050565b60006157a2826156ec565b91506157ae828561571a565b91506157b982615774565b91506157c5828461571a565b91508190509392505050565b60006157dc8261570f565b6157e6818561453b565b93506157f6818560208601613c4e565b6157ff81613c78565b840191505092915050565b6000602082019050818103600083015261582481846157d1565b905092915050565b7f5061757361626c653a206e6f7420706175736564000000000000000000000000600082015250565b600061586260148361453b565b915061586d8261582c565b602082019050919050565b6000602082019050818103600083015261589181615855565b9050919050565b60006158a382613ce4565b91506158ae83613ce4565b92508282026158bc81613ce4565b915082820484148315176158d3576158d2614624565b5b5092915050565b60006158e582613ce4565b91506158f083613ce4565b925082820190508082111561590857615907614624565b5b92915050565b600061591982613ce4565b91506000820361592c5761592b614624565b5b600182039050919050565b7f537472696e67733a20686578206c656e67746820696e73756666696369656e74600082015250565b600061596d60208361453b565b915061597882615937565b602082019050919050565b6000602082019050818103600083015261599c81615960565b9050919050565b7f4e487b7100000000000000000000000000000000000000000000000000000000600052603160045260246000fdfea2646970667358221220277a058575bd9cd5e6aa8dfe99c6904102cb263f3594b2b8c9beb40b0a65b7eb64736f6c63430008130033",
  "immutableReferences": {},
  "source": "// SPDX-License-Identifier: MIT\r\npragma solidity 0.8.19;\r\n\r\nimport \"./openzeppelin/AccessControlEnumerable.sol\";\r\nimport \"./openzeppelin/Pausable.sol\";\r\nimport \"./interfaces/IDepositExecute.sol\";\r\nimport \"./interfaces/IBridge.sol\";\r\nimport \"./interfaces/IERCHandler.sol\";\r\nimport \"./interfaces/IGenericHandler.sol\";\r\n\r\n/**\r\n    @title Facilitates deposits, creation and votiing of deposit proposals, and deposit executions.\r\n    @author ChainSafe Systems.\r\n */\r\ncontract Bridge is Pausable, AccessControlEnumerable {\r\n\r\n    uint8   public _chainID;\r\n    uint256 public _relayerThreshold;\r\n\r\n    uint256 public _totalProposals;\r\n    uint256 public _fee;\r\n    uint256 public _expiry;\r\n\r\n    enum Vote {No, Yes}\r\n\r\n    enum ProposalStatus {Inactive, Active, Passed, Executed, Cancelled}\r\n\r\n    struct Proposal {\r\n        bytes32 _resourceID;\r\n        bytes32 _dataHash;\r\n        address[] _yesVotes;\r\n        address[] _noVotes;\r\n        ProposalStatus _status;\r\n        uint256 _proposedBlock;\r\n    }\r\n\r\n    // destinationChainID => number of deposits\r\n    mapping(uint8 => uint64) public _depositCounts;\r\n    // resourceID => handler address\r\n    mapping(bytes32 => address) public _resourceIDToHandlerAddress;\r\n    // depositNonce => destinationChainID => bytes\r\n    mapping(uint64 => mapping(uint8 => bytes)) public _depositRecords;\r\n    // destinationChainID + depositNonce => dataHash => Proposal\r\n    mapping(uint72 => mapping(bytes32 => Proposal)) public _proposals;\r\n    // destinationChainID + depositNonce => dataHash => relayerAddress => bool\r\n    mapping(uint72 => mapping(bytes32 => mapping(address => bool))) public _hasVotedOnProposal;\r\n\r\n    event RelayerThresholdChanged(uint indexed newThreshold);\r\n    event Deposit(\r\n        uint8   indexed destinationChainID,\r\n        bytes32 indexed resourceID,\r\n        uint64  indexed depositNonce\r\n    );\r\n    event ProposalEvent(\r\n        uint8           indexed originChainID,\r\n        uint64          indexed depositNonce,\r\n        ProposalStatus  indexed status,\r\n        bytes32 resourceID,\r\n        bytes32 dataHash\r\n    );\r\n\r\n    bytes32 public constant RELAYER_ROLE = keccak256(\"RELAYER_ROLE\");\r\n    bytes32 public constant EXECUTOR_ROLE = keccak256(\"EXECUTOR_ROLE\");\r\n\r\n    modifier onlyAdmin() {\r\n        require(hasRole(DEFAULT_ADMIN_ROLE, msg.sender), \"sender doesn't have admin role\");\r\n        _;\r\n    }\r\n\r\n    modifier onlyAdminOrRelayer() {\r\n        require(hasRole(DEFAULT_ADMIN_ROLE, msg.sender) || hasRole(RELAYER_ROLE, msg.sender),\r\n            \"sender is not relayer or admin\");\r\n        _;\r\n    }\r\n\r\n    modifier onlyRelayers() {\r\n        require(hasRole(RELAYER_ROLE, msg.sender), \"sender doesn't have relayer role\");\r\n        _;\r\n    }\r\n\r\n    modifier onlyExecutorOrAbove() {\r\n        require(hasRole(RELAYER_ROLE, msg.sender) || hasRole(EXECUTOR_ROLE, msg.sender) || hasRole(DEFAULT_ADMIN_ROLE, msg.sender), \"sender doesn't have executor role\");\r\n        _;\r\n    }\r\n\r\n    /**\r\n        @notice Initializes Bridge, creates and grants {msg.sender} the admin role,\r\n        creates and grants {initialRelayers} the relayer role.\r\n        @param chainID ID of chain the Bridge contract exists on.\r\n        @param initialRelayers Addresses that should be initially granted the relayer role.\r\n        @param initialRelayerThreshold Number of votes needed for a deposit proposal to be considered passed.\r\n     */\r\n    constructor (uint8 chainID, address[] memory initialRelayers, uint initialRelayerThreshold, uint256 fee, uint256 expiry) {\r\n        _chainID = chainID;\r\n        _relayerThreshold = initialRelayerThreshold;\r\n        _fee = fee;\r\n        _expiry = expiry;\r\n\r\n        _setupRole(DEFAULT_ADMIN_ROLE, msg.sender);\r\n        _setRoleAdmin(RELAYER_ROLE, DEFAULT_ADMIN_ROLE);\r\n\r\n        // Relayer can add or remove External Executor\r\n        _setupRole(EXECUTOR_ROLE, msg.sender);\r\n        _setRoleAdmin(EXECUTOR_ROLE, RELAYER_ROLE);\r\n\r\n        uint initialRelayerCount = initialRelayers.length;\r\n        for (uint i; i < initialRelayerCount; i++) {\r\n            grantRole(RELAYER_ROLE, initialRelayers[i]);\r\n        }\r\n\r\n    }\r\n\r\n    /**\r\n        @notice Returns true if {relayer} has the relayer role.\r\n        @param relayer Address to check.\r\n     */\r\n    function isRelayer(address relayer) external view returns (bool) {\r\n        return hasRole(RELAYER_ROLE, relayer);\r\n    }\r\n\r\n    /**\r\n        @notice Removes admin role from {msg.sender} and grants it to {newAdmin}.\r\n        @notice Only callable by an address that currently has the admin role.\r\n        @param newAdmin Address that admin role will be granted to.\r\n     */\r\n    function renounceAdmin(address newAdmin) external onlyAdmin {\r\n        grantRole(DEFAULT_ADMIN_ROLE, newAdmin);\r\n        renounceRole(DEFAULT_ADMIN_ROLE, msg.sender);\r\n    }\r\n\r\n    /**\r\n        @notice Pauses deposits, proposal creation and voting, and deposit executions.\r\n        @notice Only callable by an address that currently has the admin role.\r\n     */\r\n    function adminPauseTransfers() external onlyAdmin {\r\n        _pause();\r\n    }\r\n\r\n    /**\r\n        @notice Unpauses deposits, proposal creation and voting, and deposit executions.\r\n        @notice Only callable by an address that currently has the admin role.\r\n     */\r\n    function adminUnpauseTransfers() external onlyAdmin {\r\n        _unpause();\r\n    }\r\n\r\n    /**\r\n        @notice Modifies the number of votes required for a proposal to be considered passed.\r\n        @notice Only callable by an address that currently has the admin role.\r\n        @param newThreshold Value {_relayerThreshold} will be changed to.\r\n        @notice Emits {RelayerThresholdChanged} event.\r\n     */\r\n    function adminChangeRelayerThreshold(uint newThreshold) external onlyAdmin {\r\n        _relayerThreshold = newThreshold;\r\n        emit RelayerThresholdChanged(newThreshold);\r\n    }\r\n\r\n    /**\r\n        @notice Grants {relayerAddress} the relayer role.\r\n        @notice Only callable by an address that currently has the admin role.\r\n        @param relayerAddress Address of relayer to be added.\r\n     */\r\n    function adminAddRelayer(address relayerAddress) external onlyAdmin {\r\n        require(!hasRole(RELAYER_ROLE, relayerAddress), \"addr already has relayer role!\");\r\n        grantRole(RELAYER_ROLE, relayerAddress);\r\n    }\r\n\r\n    /**\r\n        @notice Removes relayer role for {relayerAddress}.\r\n        @notice Only callable by an address that currently has the admin role.\r\n        @param relayerAddress Address of relayer to be removed.\r\n     */\r\n    function adminRemoveRelayer(address relayerAddress) external onlyAdmin {\r\n        require(hasRole(RELAYER_ROLE, relayerAddress), \"addr doesn't have relayer role!\");\r\n        revokeRole(RELAYER_ROLE, relayerAddress);\r\n    }\r\n\r\n        /**\r\n        @notice Grants {executorAddress} the executor role.\r\n        @notice Only callable by an address that currently has the relayer role.\r\n        @param executorAddress Address of executor to be added.\r\n     */\r\n    function relayerAddExecutor(address executorAddress) external onlyRelayers {\r\n        require(!hasRole(EXECUTOR_ROLE, executorAddress), \"addr already has executor role!\");\r\n        grantRole(EXECUTOR_ROLE, executorAddress);\r\n    }\r\n\r\n    /**\r\n        @notice Removes relayer role for {executorAddress}.\r\n        @notice Only callable by an address that currently has the relayer role.\r\n        @param executorAddress Address of executor to be removed.\r\n     */\r\n    function relayerRemoveExecutor(address executorAddress) external onlyRelayers {\r\n        require(hasRole(EXECUTOR_ROLE, executorAddress), \"addr doesn't have executor role!\");\r\n        revokeRole(EXECUTOR_ROLE, executorAddress);\r\n    }\r\n\r\n    /**\r\n        @notice Sets a new resource for handler contracts that use the IERCHandler interface,\r\n        and maps the {handlerAddress} to {resourceID} in {_resourceIDToHandlerAddress}.\r\n        @notice Only callable by an address that currently has the admin role.\r\n        @param handlerAddress Address of handler resource will be set for.\r\n        @param resourceID ResourceID to be used when making deposits.\r\n        @param tokenAddress Address of contract to be called when a deposit is made and a deposited is executed.\r\n     */\r\n    function adminSetResource(address handlerAddress, bytes32 resourceID, address tokenAddress) external onlyAdmin {\r\n        _resourceIDToHandlerAddress[resourceID] = handlerAddress;\r\n        IERCHandler handler = IERCHandler(handlerAddress);\r\n        handler.setResource(resourceID, tokenAddress);\r\n    }\r\n\r\n    /**\r\n        @notice Sets a new resource for handler contracts that use the IGenericHandler interface,\r\n        and maps the {handlerAddress} to {resourceID} in {_resourceIDToHandlerAddress}.\r\n        @notice Only callable by an address that currently has the admin role.\r\n        @param handlerAddress Address of handler resource will be set for.\r\n        @param resourceID ResourceID to be used when making deposits.\r\n        @param contractAddress Address of contract to be called when a deposit is made and a deposited is executed.\r\n     */\r\n    function adminSetGenericResource(\r\n        address handlerAddress,\r\n        bytes32 resourceID,\r\n        address contractAddress,\r\n        bytes4 depositFunctionSig,\r\n        bytes4 executeFunctionSig\r\n    ) external onlyAdmin {\r\n        _resourceIDToHandlerAddress[resourceID] = handlerAddress;\r\n        IGenericHandler handler = IGenericHandler(handlerAddress);\r\n        handler.setResource(resourceID, contractAddress, depositFunctionSig, executeFunctionSig);\r\n    }\r\n\r\n    /**\r\n        @notice Sets a resource as burnable for handler contracts that use the IERCHandler interface.\r\n        @notice Only callable by an address that currently has the admin role.\r\n        @param handlerAddress Address of handler resource will be set for.\r\n        @param tokenAddress Address of contract to be called when a deposit is made and a deposited is executed.\r\n     */\r\n    function adminSetBurnable(address handlerAddress, address tokenAddress) external onlyAdmin {\r\n        IERCHandler handler = IERCHandler(handlerAddress);\r\n        handler.setBurnable(tokenAddress);\r\n    }\r\n\r\n    /**\r\n        @notice Returns a proposal.\r\n        @param originChainID Chain ID deposit originated from.\r\n        @param depositNonce ID of proposal generated by proposal's origin Bridge contract.\r\n        @param dataHash Hash of data to be provided when deposit proposal is executed.\r\n        @return Proposal which consists of:\r\n        - _dataHash Hash of data to be provided when deposit proposal is executed.\r\n        - _yesVotes Number of votes in favor of proposal.\r\n        - _noVotes Number of votes against proposal.\r\n        - _status Current status of proposal.\r\n     */\r\n    function getProposal(uint8 originChainID, uint64 depositNonce, bytes32 dataHash) external view returns (Proposal memory) {\r\n        uint72 nonceAndID = (uint72(depositNonce) << 8) | uint72(originChainID);\r\n        return _proposals[nonceAndID][dataHash];\r\n    }\r\n\r\n    /**\r\n        @notice Changes deposit fee.\r\n        @notice Only callable by admin.\r\n        @param newFee Value {_fee} will be updated to.\r\n     */\r\n    function adminChangeFee(uint newFee) external onlyAdmin {\r\n        require(_fee != newFee, \"Current fee is equal to new fee\");\r\n        _fee = newFee;\r\n    }\r\n\r\n    /**\r\n        @notice Changes xpiry.\r\n        @notice Only callable by admin.\r\n        @param newExpiry Value {_expiry} will be updated to.\r\n     */\r\n    function adminExpiry(uint newExpiry) external onlyAdmin {\r\n        _expiry = newExpiry;\r\n    }\r\n\r\n    /**\r\n        @notice Used to manually withdraw funds from ERC safes.\r\n        @param handlerAddress Address of handler to withdraw from.\r\n        @param tokenAddress Address of token to withdraw.\r\n        @param recipient Address to withdraw tokens to.\r\n        @param amountOrTokenID Either the amount of ERC20 tokens or the ERC721 token ID to withdraw.\r\n     */\r\n    function adminWithdraw(\r\n        address handlerAddress,\r\n        address tokenAddress,\r\n        address recipient,\r\n        uint256 amountOrTokenID\r\n    ) external onlyAdmin {\r\n        IERCHandler handler = IERCHandler(handlerAddress);\r\n        handler.withdraw(tokenAddress, recipient, amountOrTokenID);\r\n    }\r\n\r\n    /**\r\n        @notice Initiates a transfer using a specified handler contract.\r\n        @notice Only callable when Bridge is not paused.\r\n        @param destinationChainID ID of chain deposit will be bridged to.\r\n        @param resourceID ResourceID used to find address of handler to be used for deposit.\r\n        @param data Additional data to be passed to specified handler.\r\n        @notice Emits {Deposit} event.\r\n     */\r\n    function deposit(uint8 destinationChainID, bytes32 resourceID, bytes calldata data) external payable whenNotPaused {\r\n        require(msg.value == _fee, \"Incorrect fee supplied\");\r\n\r\n        address handler = _resourceIDToHandlerAddress[resourceID];\r\n        require(handler != address(0), \"resourceID not mapped to handler\");\r\n\r\n        uint64 depositNonce = ++_depositCounts[destinationChainID];\r\n        _depositRecords[depositNonce][destinationChainID] = data;\r\n\r\n        IDepositExecute depositHandler = IDepositExecute(handler);\r\n        depositHandler.deposit(resourceID, destinationChainID, depositNonce, msg.sender, data);\r\n\r\n        emit Deposit(destinationChainID, resourceID, depositNonce);\r\n    }\r\n\r\n    /**\r\n        @notice When called, {msg.sender} will be marked as voting in favor of proposal.\r\n        @notice Only callable by relayers when Bridge is not paused.\r\n        @param chainID ID of chain deposit originated from.\r\n        @param depositNonce ID of deposited generated by origin Bridge contract.\r\n        @param data Data provided when deposit was made.\r\n        @notice Proposal must not have already been passed or executed.\r\n        @notice {msg.sender} must not have already voted on proposal.\r\n        @notice Emits {ProposalEvent} event with status indicating the proposal status.\r\n     */\r\n    function voteProposal(uint8 chainID, uint64 depositNonce, bytes32 resourceID, bytes calldata data) external onlyRelayers whenNotPaused {\r\n        address handler = _resourceIDToHandlerAddress[resourceID];\r\n        bytes32 dataHash = keccak256(abi.encodePacked(handler, data));\r\n        uint72 nonceAndID = (uint72(depositNonce) << 8) | uint72(chainID);\r\n        Proposal storage proposal = _proposals[nonceAndID][dataHash];\r\n\r\n        require(_resourceIDToHandlerAddress[resourceID] != address(0), \"no handler for resourceID\");\r\n        require(uint(proposal._status) <= 1, \"proposal already passed/executed/cancelled\");\r\n        require(!_hasVotedOnProposal[nonceAndID][dataHash][msg.sender], \"relayer already voted\");\r\n\r\n        if (uint(proposal._status) == 0) {\r\n            ++_totalProposals;\r\n            _proposals[nonceAndID][dataHash] = Proposal({\r\n                _resourceID : resourceID,\r\n                _dataHash : dataHash,\r\n                _yesVotes : new address[](1),\r\n                _noVotes : new address[](0),\r\n                _status : ProposalStatus.Active,\r\n                _proposedBlock : block.number\r\n                });\r\n\r\n            proposal._yesVotes[0] = msg.sender;\r\n            emit ProposalEvent(chainID, depositNonce, ProposalStatus.Active, resourceID, dataHash);\r\n        } else {\r\n            if ((block.number - proposal._proposedBlock) > _expiry) {\r\n                // if the number of blocks that has passed since this proposal was\r\n                // submitted exceeds the expiry threshold set, cancel the proposal\r\n                proposal._status = ProposalStatus.Cancelled;\r\n                emit ProposalEvent(chainID, depositNonce, ProposalStatus.Cancelled, resourceID, dataHash);\r\n            } else {\r\n                // // dataHash is never manually provided, so no need to check anymore\r\n                // require(dataHash == proposal._dataHash, \"datahash mismatch\");\r\n                // I think there is a risk, we should not vote without checking resourceID\r\n                // Otherwise, Relayer can initialize a proposal with right data but wrong resourceID and lure other relayers to vote \r\n                require(proposal._resourceID == resourceID, \"Cheating Risk; Relayer vote with wrong resourceID\");\r\n                proposal._yesVotes.push(msg.sender);\r\n            }\r\n\r\n        }\r\n        if (proposal._status != ProposalStatus.Cancelled) {\r\n            _hasVotedOnProposal[nonceAndID][dataHash][msg.sender] = true;\r\n\r\n            // If _depositThreshold is set to 1, then auto finalize\r\n            // or if _relayerThreshold has been exceeded\r\n            if (_relayerThreshold <= 1 || proposal._yesVotes.length >= _relayerThreshold) {\r\n                if (_executeProposal(data, resourceID)) {\r\n                    proposal._status = ProposalStatus.Executed;\r\n                    emit ProposalEvent(chainID, depositNonce, ProposalStatus.Executed, resourceID, dataHash);\r\n                    return;\r\n                } else {\r\n                    // If we can not execute due to any ERC20 Handler issue, then just make the proposal passed\r\n                    proposal._status = ProposalStatus.Passed;\r\n                    emit ProposalEvent(chainID, depositNonce, ProposalStatus.Passed, resourceID, dataHash);\r\n                    return;\r\n                }\r\n            }\r\n        }\r\n\r\n    }\r\n\r\n    /**\r\n        @notice Executes a deposit proposal that is considered passed using a specified handler contract.\r\n        @notice Only callable by relayers when Bridge is not paused.\r\n        @param chainID ID of chain deposit originated from.\r\n        @param depositNonce ID of deposited generated by origin Bridge contract.\r\n        @param dataHash Hash of data originally provided when deposit was made.\r\n        @notice Proposal must be past expiry threshold.\r\n        @notice Emits {ProposalEvent} event with status {Cancelled}.\r\n     */\r\n    function cancelProposal(uint8 chainID, uint64 depositNonce, bytes32 dataHash) public onlyAdminOrRelayer {\r\n        uint72 nonceAndID = (uint72(depositNonce) << 8) | uint72(chainID);\r\n        Proposal storage proposal = _proposals[nonceAndID][dataHash];\r\n\r\n        require(proposal._status != ProposalStatus.Cancelled, \"Proposal already cancelled\");\r\n        require((block.number - proposal._proposedBlock) > _expiry, \"Proposal not at expiry threshold\");\r\n\r\n        proposal._status = ProposalStatus.Cancelled;\r\n        emit ProposalEvent(chainID, depositNonce, ProposalStatus.Cancelled, proposal._resourceID, proposal._dataHash);\r\n\r\n    }\r\n\r\n    /**\r\n        @notice Executes a deposit proposal that is considered passed using a specified handler contract.\r\n        @notice callable by Executor or above when Bridge is not paused.\r\n        @param chainID ID of chain deposit originated from.\r\n        @param resourceID ResourceID to be used when making deposits.\r\n        @param depositNonce ID of deposited generated by origin Bridge contract.\r\n        @param data Data originally provided when deposit was made.\r\n        @notice Proposal must have Passed status.\r\n        @notice Hash of {data} must equal proposal's {dataHash}.\r\n        @notice Emits {ProposalEvent} event with status {Executed}.\r\n     */\r\n    function executeProposal(uint8 chainID, uint64 depositNonce, bytes calldata data, bytes32 resourceID) external onlyExecutorOrAbove whenNotPaused {\r\n        address handler = _resourceIDToHandlerAddress[resourceID];\r\n        uint72 nonceAndID = (uint72(depositNonce) << 8) | uint72(chainID);\r\n        bytes32 dataHash = keccak256(abi.encodePacked(handler, data));\r\n        Proposal storage proposal = _proposals[nonceAndID][dataHash];\r\n        // We must check this. So if executor cheating and outrun a wrong resource id proposal \r\n        require(proposal._resourceID == resourceID, \"wrong resource id\");\r\n        require(proposal._status == ProposalStatus.Passed, \"proposal already transferred/not finalized yet\");\r\n        \r\n        require(_executeProposal(data, resourceID), \"Execution not successful\");\r\n        proposal._status = ProposalStatus.Executed;\r\n        emit ProposalEvent(chainID, depositNonce, ProposalStatus.Executed, resourceID, dataHash);\r\n    }\r\n\r\n     /**\r\n        @notice Executes a deposit proposal that is considered passed using a specified handler contract.\r\n        @notice This method itself does not change the status of proposal or emit event!\r\n        @notice Internal method not callable by public.\r\n        @param resourceID ResourceID to be used when making deposits.\r\n        @param data Data originally provided when deposit was made.\r\n        @return bool The result of handler execution:\r\n        @notice This method does not check if proposal is Passed status!\r\n        @notice Hash of {data} must equal proposal's {dataHash}.\r\n     */\r\n    function _executeProposal(bytes calldata data, bytes32 resourceID) internal returns (bool) {\r\n        IDepositExecute depositHandler = IDepositExecute(_resourceIDToHandlerAddress[resourceID]);\r\n        try depositHandler.executeProposal(resourceID, data) {\r\n            return true;\r\n        } catch {\r\n            return false;\r\n        }\r\n    }\r\n\r\n    /**\r\n        @notice Transfers eth in the contract to the specified addresses. The parameters addrs and amounts are mapped 1-1.\r\n        This means that the address at index 0 for addrs will receive the amount (in WEI) from amounts at index 0.\r\n        @param addrs Array of addresses to transfer {amounts} to.\r\n        @param amounts Array of amonuts to transfer to {addrs}.\r\n     */\r\n    function transferFunds(address payable[] calldata addrs, uint[] calldata amounts) external onlyAdmin {\r\n        require(addrs.length == amounts.length, \"length of address and amounts dismatch\");\r\n        uint addrCount = addrs.length;\r\n        for (uint i = 0; i < addrCount; i++) {\r\n            addrs[i].transfer(amounts[i]);\r\n        }\r\n    }\r\n\r\n}\r\n",
  "sourcePath": "/mnt/d/SourceTree/CAN_bridge_sol/contracts/Bridge.sol",
  "compiler": {
    "name": "solc",
    "version": "0.8.19+commit.7dd6d404.Emscripten.clang"
  },
  "schemaVersion": "3.4.16",
  "updatedAt": "2024-07-27T11:44:01.132Z",
  "devdoc": {
    "author": "ChainSafe Systems.",
    "events": {
      "Paused(address)": {
        "details": "Emitted when the pause is triggered by `account`."
      },
      "RoleAdminChanged(bytes32,bytes32,bytes32)": {
        "details": "Emitted when `newAdminRole` is set as ``role``'s admin role, replacing `previousAdminRole` `DEFAULT_ADMIN_ROLE` is the starting admin for all roles, despite {RoleAdminChanged} not being emitted signaling this. _Available since v3.1._"
      },
      "RoleGranted(bytes32,address,address)": {
        "details": "Emitted when `account` is granted `role`. `sender` is the account that originated the contract call, an admin role bearer except when using {AccessControl-_setupRole}."
      },
      "RoleRevoked(bytes32,address,address)": {
        "details": "Emitted when `account` is revoked `role`. `sender` is the account that originated the contract call:   - if using `revokeRole`, it is the admin role bearer   - if using `renounceRole`, it is the role bearer (i.e. `account`)"
      },
      "Unpaused(address)": {
        "details": "Emitted when the pause is lifted by `account`."
      }
    },
    "kind": "dev",
    "methods": {
      "adminAddRelayer(address)": {
        "params": {
          "relayerAddress": "Address of relayer to be added."
        }
      },
      "adminChangeFee(uint256)": {
        "params": {
          "newFee": "Value {_fee} will be updated to."
        }
      },
      "adminChangeRelayerThreshold(uint256)": {
        "params": {
          "newThreshold": "Value {_relayerThreshold} will be changed to."
        }
      },
      "adminExpiry(uint256)": {
        "params": {
          "newExpiry": "Value {_expiry} will be updated to."
        }
      },
      "adminRemoveRelayer(address)": {
        "params": {
          "relayerAddress": "Address of relayer to be removed."
        }
      },
      "adminSetBurnable(address,address)": {
        "params": {
          "handlerAddress": "Address of handler resource will be set for.",
          "tokenAddress": "Address of contract to be called when a deposit is made and a deposited is executed."
        }
      },
      "adminSetGenericResource(address,bytes32,address,bytes4,bytes4)": {
        "params": {
          "contractAddress": "Address of contract to be called when a deposit is made and a deposited is executed.",
          "handlerAddress": "Address of handler resource will be set for.",
          "resourceID": "ResourceID to be used when making deposits."
        }
      },
      "adminSetResource(address,bytes32,address)": {
        "params": {
          "handlerAddress": "Address of handler resource will be set for.",
          "resourceID": "ResourceID to be used when making deposits.",
          "tokenAddress": "Address of contract to be called when a deposit is made and a deposited is executed."
        }
      },
      "adminWithdraw(address,address,address,uint256)": {
        "params": {
          "amountOrTokenID": "Either the amount of ERC20 tokens or the ERC721 token ID to withdraw.",
          "handlerAddress": "Address of handler to withdraw from.",
          "recipient": "Address to withdraw tokens to.",
          "tokenAddress": "Address of token to withdraw."
        }
      },
      "cancelProposal(uint8,uint64,bytes32)": {
        "params": {
          "chainID": "ID of chain deposit originated from.",
          "dataHash": "Hash of data originally provided when deposit was made.",
          "depositNonce": "ID of deposited generated by origin Bridge contract."
        }
      },
      "constructor": {
        "params": {
          "chainID": "ID of chain the Bridge contract exists on.",
          "initialRelayerThreshold": "Number of votes needed for a deposit proposal to be considered passed.",
          "initialRelayers": "Addresses that should be initially granted the relayer role."
        }
      },
      "deposit(uint8,bytes32,bytes)": {
        "params": {
          "data": "Additional data to be passed to specified handler.",
          "destinationChainID": "ID of chain deposit will be bridged to.",
          "resourceID": "ResourceID used to find address of handler to be used for deposit."
        }
      },
      "executeProposal(uint8,uint64,bytes,bytes32)": {
        "params": {
          "chainID": "ID of chain deposit originated from.",
          "data": "Data originally provided when deposit was made.",
          "depositNonce": "ID of deposited generated by origin Bridge contract.",
          "resourceID": "ResourceID to be used when making deposits."
        }
      },
      "getProposal(uint8,uint64,bytes32)": {
        "params": {
          "dataHash": "Hash of data to be provided when deposit proposal is executed.",
          "depositNonce": "ID of proposal generated by proposal's origin Bridge contract.",
          "originChainID": "Chain ID deposit originated from."
        },
        "returns": {
          "_0": "Proposal which consists of: - _dataHash Hash of data to be provided when deposit proposal is executed. - _yesVotes Number of votes in favor of proposal. - _noVotes Number of votes against proposal. - _status Current status of proposal."
        }
      },
      "getRoleAdmin(bytes32)": {
        "details": "Returns the admin role that controls `role`. See {grantRole} and {revokeRole}. To change a role's admin, use {_setRoleAdmin}."
      },
      "getRoleMember(bytes32,uint256)": {
        "details": "Returns one of the accounts that have `role`. `index` must be a value between 0 and {getRoleMemberCount}, non-inclusive. Role bearers are not sorted in any particular way, and their ordering may change at any point. WARNING: When using {getRoleMember} and {getRoleMemberCount}, make sure you perform all queries on the same block. See the following https://forum.openzeppelin.com/t/iterating-over-elements-on-enumerableset-in-openzeppelin-contracts/2296[forum post] for more information."
      },
      "getRoleMemberCount(bytes32)": {
        "details": "Returns the number of accounts that have `role`. Can be used together with {getRoleMember} to enumerate all bearers of a role."
      },
      "grantRole(bytes32,address)": {
        "details": "Grants `role` to `account`. If `account` had not been already granted `role`, emits a {RoleGranted} event. Requirements: - the caller must have ``role``'s admin role. May emit a {RoleGranted} event."
      },
      "hasRole(bytes32,address)": {
        "details": "Returns `true` if `account` has been granted `role`."
      },
      "isRelayer(address)": {
        "params": {
          "relayer": "Address to check."
        }
      },
      "paused()": {
        "details": "Returns true if the contract is paused, and false otherwise."
      },
      "relayerAddExecutor(address)": {
        "params": {
          "executorAddress": "Address of executor to be added."
        }
      },
      "relayerRemoveExecutor(address)": {
        "params": {
          "executorAddress": "Address of executor to be removed."
        }
      },
      "renounceAdmin(address)": {
        "params": {
          "newAdmin": "Address that admin role will be granted to."
        }
      },
      "renounceRole(bytes32,address)": {
        "details": "Revokes `role` from the calling account. Roles are often managed via {grantRole} and {revokeRole}: this function's purpose is to provide a mechanism for accounts to lose their privileges if they are compromised (such as when a trusted device is misplaced). If the calling account had been revoked `role`, emits a {RoleRevoked} event. Requirements: - the caller must be `account`. May emit a {RoleRevoked} event."
      },
      "revokeRole(bytes32,address)": {
        "details": "Revokes `role` from `account`. If `account` had been granted `role`, emits a {RoleRevoked} event. Requirements: - the caller must have ``role``'s admin role. May emit a {RoleRevoked} event."
      },
      "supportsInterface(bytes4)": {
        "details": "See {IERC165-supportsInterface}."
      },
      "transferFunds(address[],uint256[])": {
        "params": {
          "addrs": "Array of addresses to transfer {amounts} to.",
          "amounts": "Array of amonuts to transfer to {addrs}."
        }
      },
      "voteProposal(uint8,uint64,bytes32,bytes)": {
        "params": {
          "chainID": "ID of chain deposit originated from.",
          "data": "Data provided when deposit was made.",
          "depositNonce": "ID of deposited generated by origin Bridge contract."
        }
      }
    },
    "title": "Facilitates deposits, creation and votiing of deposit proposals, and deposit executions.",
    "version": 1
  },
  "userdoc": {
    "kind": "user",
    "methods": {
      "adminAddRelayer(address)": {
        "notice": "Grants {relayerAddress} the relayer role.Only callable by an address that currently has the admin role."
      },
      "adminChangeFee(uint256)": {
        "notice": "Changes deposit fee.Only callable by admin."
      },
      "adminChangeRelayerThreshold(uint256)": {
        "notice": "Modifies the number of votes required for a proposal to be considered passed.Only callable by an address that currently has the admin role.Emits {RelayerThresholdChanged} event."
      },
      "adminExpiry(uint256)": {
        "notice": "Changes xpiry.Only callable by admin."
      },
      "adminPauseTransfers()": {
        "notice": "Pauses deposits, proposal creation and voting, and deposit executions.Only callable by an address that currently has the admin role."
      },
      "adminRemoveRelayer(address)": {
        "notice": "Removes relayer role for {relayerAddress}.Only callable by an address that currently has the admin role."
      },
      "adminSetBurnable(address,address)": {
        "notice": "Sets a resource as burnable for handler contracts that use the IERCHandler interface.Only callable by an address that currently has the admin role."
      },
      "adminSetGenericResource(address,bytes32,address,bytes4,bytes4)": {
        "notice": "Sets a new resource for handler contracts that use the IGenericHandler interface, and maps the {handlerAddress} to {resourceID} in {_resourceIDToHandlerAddress}.Only callable by an address that currently has the admin role."
      },
      "adminSetResource(address,bytes32,address)": {
        "notice": "Sets a new resource for handler contracts that use the IERCHandler interface, and maps the {handlerAddress} to {resourceID} in {_resourceIDToHandlerAddress}.Only callable by an address that currently has the admin role."
      },
      "adminUnpauseTransfers()": {
        "notice": "Unpauses deposits, proposal creation and voting, and deposit executions.Only callable by an address that currently has the admin role."
      },
      "adminWithdraw(address,address,address,uint256)": {
        "notice": "Used to manually withdraw funds from ERC safes."
      },
      "cancelProposal(uint8,uint64,bytes32)": {
        "notice": "Executes a deposit proposal that is considered passed using a specified handler contract.Only callable by relayers when Bridge is not paused.Proposal must be past expiry threshold.Emits {ProposalEvent} event with status {Cancelled}."
      },
      "constructor": {
        "notice": "Initializes Bridge, creates and grants {msg.sender} the admin role, creates and grants {initialRelayers} the relayer role."
      },
      "deposit(uint8,bytes32,bytes)": {
        "notice": "Initiates a transfer using a specified handler contract.Only callable when Bridge is not paused.Emits {Deposit} event."
      },
      "executeProposal(uint8,uint64,bytes,bytes32)": {
        "notice": "Executes a deposit proposal that is considered passed using a specified handler contract.callable by Executor or above when Bridge is not paused.Proposal must have Passed status.Hash of {data} must equal proposal's {dataHash}.Emits {ProposalEvent} event with status {Executed}."
      },
      "getProposal(uint8,uint64,bytes32)": {
        "notice": "Returns a proposal."
      },
      "isRelayer(address)": {
        "notice": "Returns true if {relayer} has the relayer role."
      },
      "relayerAddExecutor(address)": {
        "notice": "Grants {executorAddress} the executor role.Only callable by an address that currently has the relayer role."
      },
      "relayerRemoveExecutor(address)": {
        "notice": "Removes relayer role for {executorAddress}.Only callable by an address that currently has the relayer role."
      },
      "renounceAdmin(address)": {
        "notice": "Removes admin role from {msg.sender} and grants it to {newAdmin}.Only callable by an address that currently has the admin role."
      },
      "transferFunds(address[],uint256[])": {
        "notice": "Transfers eth in the contract to the specified addresses. The parameters addrs and amounts are mapped 1-1. This means that the address at index 0 for addrs will receive the amount (in WEI) from amounts at index 0."
      },
      "voteProposal(uint8,uint64,bytes32,bytes)": {
        "notice": "When called, {msg.sender} will be marked as voting in favor of proposal.Only callable by relayers when Bridge is not paused.Proposal must not have already been passed or executed.{msg.sender} must not have already voted on proposal.Emits {ProposalEvent} event with status indicating the proposal status."
      }
    },
    "version": 1
  }
}