{
  "contractName": "ERC20Handler",
  "abi": [
    {
      "inputs": [
        {
          "internalType": "address",
          "name": "bridgeAddress",
          "type": "address"
        },
        {
          "internalType": "bytes32[]",
          "name": "initialResourceIDs",
          "type": "bytes32[]"
        },
        {
          "internalType": "address[]",
          "name": "initialContractAddresses",
          "type": "address[]"
        },
        {
          "internalType": "address[]",
          "name": "burnableContractAddresses",
          "type": "address[]"
        }
      ],
      "stateMutability": "nonpayable",
      "type": "constructor"
    },
    {
      "inputs": [],
      "name": "_bridgeAddress",
      "outputs": [
        {
          "internalType": "address",
          "name": "",
          "type": "address"
        }
      ],
      "stateMutability": "view",
      "type": "function"
    },
    {
      "inputs": [
        {
          "internalType": "address",
          "name": "",
          "type": "address"
        }
      ],
      "name": "_burnList",
      "outputs": [
        {
          "internalType": "bool",
          "name": "",
          "type": "bool"
        }
      ],
      "stateMutability": "view",
      "type": "function"
    },
    {
      "inputs": [
        {
          "internalType": "address",
          "name": "",
          "type": "address"
        }
      ],
      "name": "_contractWhitelist",
      "outputs": [
        {
          "internalType": "bool",
          "name": "",
          "type": "bool"
        }
      ],
      "stateMutability": "view",
      "type": "function"
    },
    {
      "inputs": [
        {
          "internalType": "uint8",
          "name": "",
          "type": "uint8"
        },
        {
          "internalType": "uint64",
          "name": "",
          "type": "uint64"
        }
      ],
      "name": "_depositRecords",
      "outputs": [
        {
          "internalType": "address",
          "name": "_tokenAddress",
          "type": "address"
        },
        {
          "internalType": "uint8",
          "name": "_lenDestinationRecipientAddress",
          "type": "uint8"
        },
        {
          "internalType": "uint8",
          "name": "_destinationChainID",
          "type": "uint8"
        },
        {
          "internalType": "bytes32",
          "name": "_resourceID",
          "type": "bytes32"
        },
        {
          "internalType": "bytes",
          "name": "_destinationRecipientAddress",
          "type": "bytes"
        },
        {
          "internalType": "address",
          "name": "_depositer",
          "type": "address"
        },
        {
          "internalType": "uint256",
          "name": "_amount",
          "type": "uint256"
        }
      ],
      "stateMutability": "view",
      "type": "function"
    },
    {
      "inputs": [
        {
          "internalType": "bytes32",
          "name": "",
          "type": "bytes32"
        }
      ],
      "name": "_resourceIDToTokenContractAddress",
      "outputs": [
        {
          "internalType": "address",
          "name": "",
          "type": "address"
        }
      ],
      "stateMutability": "view",
      "type": "function"
    },
    {
      "inputs": [
        {
          "internalType": "address",
          "name": "",
          "type": "address"
        }
      ],
      "name": "_tokenContractAddressToResourceID",
      "outputs": [
        {
          "internalType": "bytes32",
          "name": "",
          "type": "bytes32"
        }
      ],
      "stateMutability": "view",
      "type": "function"
    },
    {
      "inputs": [
        {
          "internalType": "address",
          "name": "tokenAddress",
          "type": "address"
        },
        {
          "internalType": "address",
          "name": "owner",
          "type": "address"
        },
        {
          "internalType": "uint256",
          "name": "amount",
          "type": "uint256"
        }
      ],
      "name": "fundERC20",
      "outputs": [],
      "stateMutability": "nonpayable",
      "type": "function"
    },
    {
      "inputs": [
        {
          "internalType": "address",
          "name": "contractAddress",
          "type": "address"
        }
      ],
      "name": "setBurnable",
      "outputs": [],
      "stateMutability": "nonpayable",
      "type": "function"
    },
    {
      "inputs": [
        {
          "internalType": "bytes32",
          "name": "resourceID",
          "type": "bytes32"
        },
        {
          "internalType": "address",
          "name": "contractAddress",
          "type": "address"
        }
      ],
      "name": "setResource",
      "outputs": [],
      "stateMutability": "nonpayable",
      "type": "function"
    },
    {
      "inputs": [
        {
          "internalType": "uint64",
          "name": "depositNonce",
          "type": "uint64"
        },
        {
          "internalType": "uint8",
          "name": "destId",
          "type": "uint8"
        }
      ],
      "name": "getDepositRecord",
      "outputs": [
        {
          "components": [
            {
              "internalType": "address",
              "name": "_tokenAddress",
              "type": "address"
            },
            {
              "internalType": "uint8",
              "name": "_lenDestinationRecipientAddress",
              "type": "uint8"
            },
            {
              "internalType": "uint8",
              "name": "_destinationChainID",
              "type": "uint8"
            },
            {
              "internalType": "bytes32",
              "name": "_resourceID",
              "type": "bytes32"
            },
            {
              "internalType": "bytes",
              "name": "_destinationRecipientAddress",
              "type": "bytes"
            },
            {
              "internalType": "address",
              "name": "_depositer",
              "type": "address"
            },
            {
              "internalType": "uint256",
              "name": "_amount",
              "type": "uint256"
            }
          ],
          "internalType": "struct ERC20Handler.DepositRecord",
          "name": "",
          "type": "tuple"
        }
      ],
      "stateMutability": "view",
      "type": "function"
    },
    {
      "inputs": [
        {
          "internalType": "bytes32",
          "name": "resourceID",
          "type": "bytes32"
        },
        {
          "internalType": "uint8",
          "name": "destinationChainID",
          "type": "uint8"
        },
        {
          "internalType": "uint64",
          "name": "depositNonce",
          "type": "uint64"
        },
        {
          "internalType": "address",
          "name": "depositer",
          "type": "address"
        },
        {
          "internalType": "bytes",
          "name": "data",
          "type": "bytes"
        }
      ],
      "name": "deposit",
      "outputs": [],
      "stateMutability": "nonpayable",
      "type": "function"
    },
    {
      "inputs": [
        {
          "internalType": "bytes32",
          "name": "resourceID",
          "type": "bytes32"
        },
        {
          "internalType": "bytes",
          "name": "data",
          "type": "bytes"
        }
      ],
      "name": "executeProposal",
      "outputs": [],
      "stateMutability": "nonpayable",
      "type": "function"
    },
    {
      "inputs": [
        {
          "internalType": "address",
          "name": "tokenAddress",
          "type": "address"
        },
        {
          "internalType": "address",
          "name": "recipient",
          "type": "address"
        },
        {
          "internalType": "uint256",
          "name": "amount",
          "type": "uint256"
        }
      ],
      "name": "withdraw",
      "outputs": [],
      "stateMutability": "nonpayable",
      "type": "function"
    }
  ],
  "bytecode": "0x60806040523480156200001157600080fd5b506040516200289238038062002892833981810160405281019062000037919062000671565b81518351146200007e576040517f08c379a00000000000000000000000000000000000000000000000000000000081526004016200007590620007c7565b60405180910390fd5b836000806101000a81548173ffffffffffffffffffffffffffffffffffffffff021916908373ffffffffffffffffffffffffffffffffffffffff16021790555060008351905060005b8181101562000132576200011c858281518110620000ea57620000e9620007e9565b5b6020026020010151858381518110620001085762000107620007e9565b5b60200260200101516200019660201b60201c565b8080620001299062000851565b915050620000c7565b5060008251905060005b818110156200018957620001738482815181106200015f576200015e620007e9565b5b60200260200101516200028860201b60201c565b8080620001809062000851565b9150506200013c565b5050505050505062000936565b806001600084815260200190815260200160002060006101000a81548173ffffffffffffffffffffffffffffffffffffffff021916908373ffffffffffffffffffffffffffffffffffffffff16021790555081600260008373ffffffffffffffffffffffffffffffffffffffff1673ffffffffffffffffffffffffffffffffffffffff168152602001908152602001600020819055506001600360008373ffffffffffffffffffffffffffffffffffffffff1673ffffffffffffffffffffffffffffffffffffffff16815260200190815260200160002060006101000a81548160ff0219169083151502179055505050565b600360008273ffffffffffffffffffffffffffffffffffffffff1673ffffffffffffffffffffffffffffffffffffffff16815260200190815260200160002060009054906101000a900460ff1662000317576040517f08c379a00000000000000000000000000000000000000000000000000000000081526004016200030e9062000914565b60405180910390fd5b6001600460008373ffffffffffffffffffffffffffffffffffffffff1673ffffffffffffffffffffffffffffffffffffffff16815260200190815260200160002060006101000a81548160ff02191690831515021790555050565b6000604051905090565b600080fd5b600080fd5b600073ffffffffffffffffffffffffffffffffffffffff82169050919050565b6000620003b38262000386565b9050919050565b620003c581620003a6565b8114620003d157600080fd5b50565b600081519050620003e581620003ba565b92915050565b600080fd5b6000601f19601f8301169050919050565b7f4e487b7100000000000000000000000000000000000000000000000000000000600052604160045260246000fd5b6200043b82620003f0565b810181811067ffffffffffffffff821117156200045d576200045c62000401565b5b80604052505050565b60006200047262000372565b905062000480828262000430565b919050565b600067ffffffffffffffff821115620004a357620004a262000401565b5b602082029050602081019050919050565b600080fd5b6000819050919050565b620004ce81620004b9565b8114620004da57600080fd5b50565b600081519050620004ee81620004c3565b92915050565b60006200050b620005058462000485565b62000466565b90508083825260208201905060208402830185811115620005315762000530620004b4565b5b835b818110156200055e5780620005498882620004dd565b84526020840193505060208101905062000533565b5050509392505050565b600082601f83011262000580576200057f620003eb565b5b815162000592848260208601620004f4565b91505092915050565b600067ffffffffffffffff821115620005b957620005b862000401565b5b602082029050602081019050919050565b6000620005e1620005db846200059b565b62000466565b90508083825260208201905060208402830185811115620006075762000606620004b4565b5b835b818110156200063457806200061f8882620003d4565b84526020840193505060208101905062000609565b5050509392505050565b600082601f830112620006565762000655620003eb565b5b815162000668848260208601620005ca565b91505092915050565b600080600080608085870312156200068e576200068d6200037c565b5b60006200069e87828801620003d4565b945050602085015167ffffffffffffffff811115620006c257620006c162000381565b5b620006d08782880162000568565b935050604085015167ffffffffffffffff811115620006f457620006f362000381565b5b62000702878288016200063e565b925050606085015167ffffffffffffffff81111562000726576200072562000381565b5b62000734878288016200063e565b91505092959194509250565b600082825260208201905092915050565b7f696e697469616c5265736f7572636549447320616e6420696e697469616c436f60008201527f6e7472616374416464726573736573206c656e206d69736d6174636800000000602082015250565b6000620007af603c8362000740565b9150620007bc8262000751565b604082019050919050565b60006020820190508181036000830152620007e281620007a0565b9050919050565b7f4e487b7100000000000000000000000000000000000000000000000000000000600052603260045260246000fd5b7f4e487b7100000000000000000000000000000000000000000000000000000000600052601160045260246000fd5b6000819050919050565b60006200085e8262000847565b91507fffffffffffffffffffffffffffffffffffffffffffffffffffffffffffffffff820362000893576200089262000818565b5b600182019050919050565b7f70726f766964656420636f6e7472616374206973206e6f742077686974656c6960008201527f7374656400000000000000000000000000000000000000000000000000000000602082015250565b6000620008fc60248362000740565b915062000909826200089e565b604082019050919050565b600060208201905081810360008301526200092f81620008ed565b9050919050565b611f4c80620009466000396000f3fe608060405234801561001057600080fd5b50600436106100cf5760003560e01c80637f79bea81161008c578063ba484c0911610066578063ba484c0914610228578063c8ba6c8714610258578063d9caed1214610288578063e248cff2146102a4576100cf565b80637f79bea8146101c057806395601f09146101f0578063b8fa37361461020c576100cf565b806307b7ed99146100d45780630a6d55d8146100f0578063318c136e1461012057806338995da91461013e5780634402027f1461015a5780636a70d08114610190575b600080fd5b6100ee60048036038101906100e991906111e1565b6102c0565b005b61010a60048036038101906101059190611244565b6102d4565b6040516101179190611280565b60405180910390f35b610128610307565b6040516101359190611280565b60405180910390f35b61015860048036038101906101539190611379565b61032b565b005b610174600480360381019061016f9190611413565b610637565b604051610187979695949392919061151a565b60405180910390f35b6101aa60048036038101906101a591906111e1565b610768565b6040516101b791906115ab565b60405180910390f35b6101da60048036038101906101d591906111e1565b610788565b6040516101e791906115ab565b60405180910390f35b61020a600480360381019061020591906115f2565b6107a8565b005b61022660048036038101906102219190611645565b6107bf565b005b610242600480360381019061023d9190611685565b6107d5565b60405161024f91906117e7565b60405180910390f35b610272600480360381019061026d91906111e1565b6109ba565b60405161027f9190611809565b60405180910390f35b6102a2600480360381019061029d91906115f2565b6109d2565b005b6102be60048036038101906102b99190611824565b6109ea565b005b6102c8610b5e565b6102d181610bee565b50565b60016020528060005260406000206000915054906101000a900473ffffffffffffffffffffffffffffffffffffffff1681565b60008054906101000a900473ffffffffffffffffffffffffffffffffffffffff1681565b610333610b5e565b606060008060c4359150604051925060e435905080830160200160405260e4360360e484376000600160008b815260200190815260200160002060009054906101000a900473ffffffffffffffffffffffffffffffffffffffff169050600360008273ffffffffffffffffffffffffffffffffffffffff1673ffffffffffffffffffffffffffffffffffffffff16815260200190815260200160002060009054906101000a900460ff1661041c576040517f08c379a000000000000000000000000000000000000000000000000000000000815260040161041390611907565b60405180910390fd5b600460008273ffffffffffffffffffffffffffffffffffffffff1673ffffffffffffffffffffffffffffffffffffffff16815260200190815260200160002060009054906101000a900460ff161561047e57610479818885610cd5565b61048b565b61048a81883086610d4d565b5b6040518060e001604052808273ffffffffffffffffffffffffffffffffffffffff1681526020018360ff1681526020018a60ff1681526020018b81526020018581526020018873ffffffffffffffffffffffffffffffffffffffff16815260200184815250600560008b60ff1660ff16815260200190815260200160002060008a67ffffffffffffffff1667ffffffffffffffff16815260200190815260200160002060008201518160000160006101000a81548173ffffffffffffffffffffffffffffffffffffffff021916908373ffffffffffffffffffffffffffffffffffffffff16021790555060208201518160000160146101000a81548160ff021916908360ff16021790555060408201518160000160156101000a81548160ff021916908360ff1602179055506060820151816001015560808201518160020190816105d69190611b62565b5060a08201518160030160006101000a81548173ffffffffffffffffffffffffffffffffffffffff021916908373ffffffffffffffffffffffffffffffffffffffff16021790555060c0820151816004015590505050505050505050505050565b6005602052816000526040600020602052806000526040600020600091509150508060000160009054906101000a900473ffffffffffffffffffffffffffffffffffffffff16908060000160149054906101000a900460ff16908060000160159054906101000a900460ff16908060010154908060020180546106b990611985565b80601f01602080910402602001604051908101604052809291908181526020018280546106e590611985565b80156107325780601f1061070757610100808354040283529160200191610732565b820191906000526020600020905b81548152906001019060200180831161071557829003601f168201915b5050505050908060030160009054906101000a900473ffffffffffffffffffffffffffffffffffffffff16908060040154905087565b60046020528060005260406000206000915054906101000a900460ff1681565b60036020528060005260406000206000915054906101000a900460ff1681565b60008390506107b981843085610d65565b50505050565b6107c7610b5e565b6107d18282610dee565b5050565b6107dd611107565b600560008360ff1660ff16815260200190815260200160002060008467ffffffffffffffff1667ffffffffffffffff1681526020019081526020016000206040518060e00160405290816000820160009054906101000a900473ffffffffffffffffffffffffffffffffffffffff1673ffffffffffffffffffffffffffffffffffffffff1673ffffffffffffffffffffffffffffffffffffffff1681526020016000820160149054906101000a900460ff1660ff1660ff1681526020016000820160159054906101000a900460ff1660ff1660ff168152602001600182015481526020016002820180546108d090611985565b80601f01602080910402602001604051908101604052809291908181526020018280546108fc90611985565b80156109495780601f1061091e57610100808354040283529160200191610949565b820191906000526020600020905b81548152906001019060200180831161092c57829003601f168201915b505050505081526020016003820160009054906101000a900473ffffffffffffffffffffffffffffffffffffffff1673ffffffffffffffffffffffffffffffffffffffff1673ffffffffffffffffffffffffffffffffffffffff168152602001600482015481525050905092915050565b60026020528060005260406000206000915090505481565b6109da610b5e565b6109e5838383610ee0565b505050565b6109f2610b5e565b60006060606435915060405190506084358082016020016040526084360360848337506000806001600088815260200190815260200160002060009054906101000a900473ffffffffffffffffffffffffffffffffffffffff16905060208301519150600360008273ffffffffffffffffffffffffffffffffffffffff1673ffffffffffffffffffffffffffffffffffffffff16815260200190815260200160002060009054906101000a900460ff16610ae1576040517f08c379a0000000000000000000000000000000000000000000000000000000008152600401610ad890611907565b60405180910390fd5b600460008273ffffffffffffffffffffffffffffffffffffffff1673ffffffffffffffffffffffffffffffffffffffff16815260200190815260200160002060009054906101000a900460ff1615610b4657610b41818360601c86610ef6565b610b55565b610b54818360601c86610ee0565b5b50505050505050565b60008054906101000a900473ffffffffffffffffffffffffffffffffffffffff1673ffffffffffffffffffffffffffffffffffffffff163373ffffffffffffffffffffffffffffffffffffffff1614610bec576040517f08c379a0000000000000000000000000000000000000000000000000000000008152600401610be390611c80565b60405180910390fd5b565b600360008273ffffffffffffffffffffffffffffffffffffffff1673ffffffffffffffffffffffffffffffffffffffff16815260200190815260200160002060009054906101000a900460ff16610c7a576040517f08c379a0000000000000000000000000000000000000000000000000000000008152600401610c7190611d12565b60405180910390fd5b6001600460008373ffffffffffffffffffffffffffffffffffffffff1673ffffffffffffffffffffffffffffffffffffffff16815260200190815260200160002060006101000a81548160ff02191690831515021790555050565b60008390508073ffffffffffffffffffffffffffffffffffffffff166379cc679084846040518363ffffffff1660e01b8152600401610d15929190611d32565b600060405180830381600087803b158015610d2f57600080fd5b505af1158015610d43573d6000803e3d6000fd5b5050505050505050565b6000849050610d5e81858585610d65565b5050505050565b610de8846323b872dd60e01b858585604051602401610d8693929190611d5b565b604051602081830303815290604052907bffffffffffffffffffffffffffffffffffffffffffffffffffffffff19166020820180517bffffffffffffffffffffffffffffffffffffffffffffffffffffffff8381831617835250505050610f6e565b50505050565b806001600084815260200190815260200160002060006101000a81548173ffffffffffffffffffffffffffffffffffffffff021916908373ffffffffffffffffffffffffffffffffffffffff16021790555081600260008373ffffffffffffffffffffffffffffffffffffffff1673ffffffffffffffffffffffffffffffffffffffff168152602001908152602001600020819055506001600360008373ffffffffffffffffffffffffffffffffffffffff1673ffffffffffffffffffffffffffffffffffffffff16815260200190815260200160002060006101000a81548160ff0219169083151502179055505050565b6000839050610ef0818484611081565b50505050565b60008390508073ffffffffffffffffffffffffffffffffffffffff166340c10f1984846040518363ffffffff1660e01b8152600401610f36929190611d32565b600060405180830381600087803b158015610f5057600080fd5b505af1158015610f64573d6000803e3d6000fd5b5050505050505050565b6000808373ffffffffffffffffffffffffffffffffffffffff1683604051610f969190611dce565b6000604051808303816000865af19150503d8060008114610fd3576040519150601f19603f3d011682016040523d82523d6000602084013e610fd8565b606091505b50915091508161101d576040517f08c379a000000000000000000000000000000000000000000000000000000000815260040161101490611e31565b60405180910390fd5b60008151111561107b578080602001905181019061103b9190611e7d565b61107a576040517f08c379a000000000000000000000000000000000000000000000000000000000815260040161107190611ef6565b60405180910390fd5b5b50505050565b6111028363a9059cbb60e01b84846040516024016110a0929190611d32565b604051602081830303815290604052907bffffffffffffffffffffffffffffffffffffffffffffffffffffffff19166020820180517bffffffffffffffffffffffffffffffffffffffffffffffffffffffff8381831617835250505050610f6e565b505050565b6040518060e00160405280600073ffffffffffffffffffffffffffffffffffffffff168152602001600060ff168152602001600060ff1681526020016000801916815260200160608152602001600073ffffffffffffffffffffffffffffffffffffffff168152602001600081525090565b600080fd5b600080fd5b600073ffffffffffffffffffffffffffffffffffffffff82169050919050565b60006111ae82611183565b9050919050565b6111be816111a3565b81146111c957600080fd5b50565b6000813590506111db816111b5565b92915050565b6000602082840312156111f7576111f6611179565b5b6000611205848285016111cc565b91505092915050565b6000819050919050565b6112218161120e565b811461122c57600080fd5b50565b60008135905061123e81611218565b92915050565b60006020828403121561125a57611259611179565b5b60006112688482850161122f565b91505092915050565b61127a816111a3565b82525050565b60006020820190506112956000830184611271565b92915050565b600060ff82169050919050565b6112b18161129b565b81146112bc57600080fd5b50565b6000813590506112ce816112a8565b92915050565b600067ffffffffffffffff82169050919050565b6112f1816112d4565b81146112fc57600080fd5b50565b60008135905061130e816112e8565b92915050565b600080fd5b600080fd5b600080fd5b60008083601f84011261133957611338611314565b5b8235905067ffffffffffffffff81111561135657611355611319565b5b6020830191508360018202830111156113725761137161131e565b5b9250929050565b60008060008060008060a0878903121561139657611395611179565b5b60006113a489828a0161122f565b96505060206113b589828a016112bf565b95505060406113c689828a016112ff565b94505060606113d789828a016111cc565b935050608087013567ffffffffffffffff8111156113f8576113f761117e565b5b61140489828a01611323565b92509250509295509295509295565b6000806040838503121561142a57611429611179565b5b6000611438858286016112bf565b9250506020611449858286016112ff565b9150509250929050565b61145c8161129b565b82525050565b61146b8161120e565b82525050565b600081519050919050565b600082825260208201905092915050565b60005b838110156114ab578082015181840152602081019050611490565b60008484015250505050565b6000601f19601f8301169050919050565b60006114d382611471565b6114dd818561147c565b93506114ed81856020860161148d565b6114f6816114b7565b840191505092915050565b6000819050919050565b61151481611501565b82525050565b600060e08201905061152f600083018a611271565b61153c6020830189611453565b6115496040830188611453565b6115566060830187611462565b818103608083015261156881866114c8565b905061157760a0830185611271565b61158460c083018461150b565b98975050505050505050565b60008115159050919050565b6115a581611590565b82525050565b60006020820190506115c0600083018461159c565b92915050565b6115cf81611501565b81146115da57600080fd5b50565b6000813590506115ec816115c6565b92915050565b60008060006060848603121561160b5761160a611179565b5b6000611619868287016111cc565b935050602061162a868287016111cc565b925050604061163b868287016115dd565b9150509250925092565b6000806040838503121561165c5761165b611179565b5b600061166a8582860161122f565b925050602061167b858286016111cc565b9150509250929050565b6000806040838503121561169c5761169b611179565b5b60006116aa858286016112ff565b92505060206116bb858286016112bf565b9150509250929050565b6116ce816111a3565b82525050565b6116dd8161129b565b82525050565b6116ec8161120e565b82525050565b600082825260208201905092915050565b600061170e82611471565b61171881856116f2565b935061172881856020860161148d565b611731816114b7565b840191505092915050565b61174581611501565b82525050565b600060e08301600083015161176360008601826116c5565b50602083015161177660208601826116d4565b50604083015161178960408601826116d4565b50606083015161179c60608601826116e3565b50608083015184820360808601526117b48282611703565b91505060a08301516117c960a08601826116c5565b5060c08301516117dc60c086018261173c565b508091505092915050565b60006020820190508181036000830152611801818461174b565b905092915050565b600060208201905061181e6000830184611462565b92915050565b60008060006040848603121561183d5761183c611179565b5b600061184b8682870161122f565b935050602084013567ffffffffffffffff81111561186c5761186b61117e565b5b61187886828701611323565b92509250509250925092565b600082825260208201905092915050565b7f70726f766964656420746f6b656e41646472657373206973206e6f742077686960008201527f74656c6973746564000000000000000000000000000000000000000000000000602082015250565b60006118f1602883611884565b91506118fc82611895565b604082019050919050565b60006020820190508181036000830152611920816118e4565b9050919050565b7f4e487b7100000000000000000000000000000000000000000000000000000000600052604160045260246000fd5b7f4e487b7100000000000000000000000000000000000000000000000000000000600052602260045260246000fd5b6000600282049050600182168061199d57607f821691505b6020821081036119b0576119af611956565b5b50919050565b60008190508160005260206000209050919050565b60006020601f8301049050919050565b600082821b905092915050565b600060088302611a187fffffffffffffffffffffffffffffffffffffffffffffffffffffffffffffffff826119db565b611a2286836119db565b95508019841693508086168417925050509392505050565b6000819050919050565b6000611a5f611a5a611a5584611501565b611a3a565b611501565b9050919050565b6000819050919050565b611a7983611a44565b611a8d611a8582611a66565b8484546119e8565b825550505050565b600090565b611aa2611a95565b611aad818484611a70565b505050565b5b81811015611ad157611ac6600082611a9a565b600181019050611ab3565b5050565b601f821115611b1657611ae7816119b6565b611af0846119cb565b81016020851015611aff578190505b611b13611b0b856119cb565b830182611ab2565b50505b505050565b600082821c905092915050565b6000611b3960001984600802611b1b565b1980831691505092915050565b6000611b528383611b28565b9150826002028217905092915050565b611b6b82611471565b67ffffffffffffffff811115611b8457611b83611927565b5b611b8e8254611985565b611b99828285611ad5565b600060209050601f831160018114611bcc5760008415611bba578287015190505b611bc48582611b46565b865550611c2c565b601f198416611bda866119b6565b60005b82811015611c0257848901518255600182019150602085019450602081019050611bdd565b86831015611c1f5784890151611c1b601f891682611b28565b8355505b6001600288020188555050505b505050505050565b7f73656e646572206d7573742062652062726964676520636f6e74726163740000600082015250565b6000611c6a601e83611884565b9150611c7582611c34565b602082019050919050565b60006020820190508181036000830152611c9981611c5d565b9050919050565b7f70726f766964656420636f6e7472616374206973206e6f742077686974656c6960008201527f7374656400000000000000000000000000000000000000000000000000000000602082015250565b6000611cfc602483611884565b9150611d0782611ca0565b604082019050919050565b60006020820190508181036000830152611d2b81611cef565b9050919050565b6000604082019050611d476000830185611271565b611d54602083018461150b565b9392505050565b6000606082019050611d706000830186611271565b611d7d6020830185611271565b611d8a604083018461150b565b949350505050565b600081905092915050565b6000611da882611471565b611db28185611d92565b9350611dc281856020860161148d565b80840191505092915050565b6000611dda8284611d9d565b915081905092915050565b7f45524332303a2063616c6c206661696c65640000000000000000000000000000600082015250565b6000611e1b601283611884565b9150611e2682611de5565b602082019050919050565b60006020820190508181036000830152611e4a81611e0e565b9050919050565b611e5a81611590565b8114611e6557600080fd5b50565b600081519050611e7781611e51565b92915050565b600060208284031215611e9357611e92611179565b5b6000611ea184828501611e68565b91505092915050565b7f45524332303a206f7065726174696f6e20646964206e6f742073756363656564600082015250565b6000611ee0602083611884565b9150611eeb82611eaa565b602082019050919050565b60006020820190508181036000830152611f0f81611ed3565b905091905056fea2646970667358221220e8ffb108e81be5cb36176636b7a45f0ac9f4c0c3fa690bd75fe25d7bca773e6464736f6c63430008130033",
  "immutableReferences": {},
  "source": "// SPDX-License-Identifier: MIT\r\npragma solidity 0.8.19;\r\n\r\nimport \"../interfaces/IDepositExecute.sol\";\r\nimport \"./HandlerHelpers.sol\";\r\nimport \"../ERC20Safe.sol\";\r\n\r\n/**\r\n    @title Handles ERC20 deposits and deposit executions.\r\n    @author ChainSafe Systems.\r\n    @notice This contract is intended to be used with the Bridge contract.\r\n */\r\ncontract ERC20Handler is IDepositExecute, HandlerHelpers, ERC20Safe {\r\n\r\n    struct DepositRecord {\r\n        address _tokenAddress;\r\n        uint8    _lenDestinationRecipientAddress;\r\n        uint8   _destinationChainID;\r\n        bytes32 _resourceID;\r\n        bytes   _destinationRecipientAddress;\r\n        address _depositer;\r\n        uint    _amount;\r\n    }\r\n\r\n    // depositNonce => Deposit Record\r\n    mapping (uint8 => mapping(uint64 => DepositRecord)) public _depositRecords;\r\n\r\n    /**\r\n        @param bridgeAddress Contract address of previously deployed Bridge.\r\n        @param initialResourceIDs Resource IDs are used to identify a specific contract address.\r\n        These are the Resource IDs this contract will initially support.\r\n        @param initialContractAddresses These are the addresses the {initialResourceIDs} will point to, and are the contracts that will be\r\n        called to perform various deposit calls.\r\n        @param burnableContractAddresses These addresses will be set as burnable and when {deposit} is called, the deposited token will be burned.\r\n        When {executeProposal} is called, new tokens will be minted.\r\n\r\n        @dev {initialResourceIDs} and {initialContractAddresses} must have the same length (one resourceID for every address).\r\n        Also, these arrays must be ordered in the way that {initialResourceIDs}[0] is the intended resourceID for {initialContractAddresses}[0].\r\n     */\r\n    constructor(\r\n        address          bridgeAddress,\r\n        bytes32[] memory initialResourceIDs,\r\n        address[] memory initialContractAddresses,\r\n        address[] memory burnableContractAddresses\r\n    ) {\r\n        require(initialResourceIDs.length == initialContractAddresses.length,\r\n            \"initialResourceIDs and initialContractAddresses len mismatch\");\r\n\r\n        _bridgeAddress = bridgeAddress;\r\n\r\n        uint256 initialCount = initialResourceIDs.length;\r\n        for (uint256 i = 0; i < initialCount; i++) {\r\n            _setResource(initialResourceIDs[i], initialContractAddresses[i]);\r\n        }\r\n\r\n        uint256 burnableCount = burnableContractAddresses.length;\r\n        for (uint256 i = 0; i < burnableCount; i++) {\r\n            _setBurnable(burnableContractAddresses[i]);\r\n        }\r\n    }\r\n\r\n    /**\r\n        @param depositNonce This ID will have been generated by the Bridge contract.\r\n        @param destId ID of chain deposit will be bridged to.\r\n        @return DepositRecord which consists of:\r\n        - _tokenAddress Address used when {deposit} was executed.\r\n        - _destinationChainID ChainID deposited tokens are intended to end up on.\r\n        - _resourceID ResourceID used when {deposit} was executed.\r\n        - _lenDestinationRecipientAddress Used to parse recipient's address from {_destinationRecipientAddress}\r\n        - _destinationRecipientAddress Address tokens are intended to be deposited to on desitnation chain.\r\n        - _depositer Address that initially called {deposit} in the Bridge contract.\r\n        - _amount Amount of tokens that were deposited.\r\n    */\r\n    function getDepositRecord(uint64 depositNonce, uint8 destId) external view returns (DepositRecord memory) {\r\n        return _depositRecords[destId][depositNonce];\r\n    }\r\n\r\n    /**\r\n        @notice A deposit is initiatied by making a deposit in the Bridge contract.\r\n        @param destinationChainID Chain ID of chain tokens are expected to be bridged to.\r\n        @param depositNonce This value is generated as an ID by the Bridge contract.\r\n        @param depositer Address of account making the deposit in the Bridge contract.\r\n        @param data Consists of: {resourceID}, {amount}, {lenRecipientAddress}, and {recipientAddress}\r\n        all padded to 32 bytes.\r\n        @notice Data passed into the function should be constructed as follows:\r\n        amount                      uint256     bytes   0 - 32\r\n        recipientAddress length     uint256     bytes  32 - 64\r\n        recipientAddress            bytes       bytes  64 - END\r\n        @dev Depending if the corresponding {tokenAddress} for the parsed {resourceID} is\r\n        marked true in {_burnList}, deposited tokens will be burned, if not, they will be locked.\r\n     */\r\n    function deposit(\r\n        bytes32 resourceID,\r\n        uint8   destinationChainID,\r\n        uint64  depositNonce,\r\n        address depositer,\r\n        bytes   calldata data\r\n    ) external override onlyBridge {\r\n        bytes   memory recipientAddress;\r\n        uint256        amount;\r\n        uint256        lenRecipientAddress;\r\n\r\n        assembly {\r\n\r\n            amount := calldataload(0xC4)\r\n\r\n            recipientAddress := mload(0x40)\r\n            lenRecipientAddress := calldataload(0xE4)\r\n            mstore(0x40, add(0x20, add(recipientAddress, lenRecipientAddress)))\r\n\r\n            calldatacopy(\r\n                recipientAddress, // copy to destinationRecipientAddress\r\n                0xE4, // copy from calldata @ 0x104\r\n                sub(calldatasize(), 0xE4) // copy size (calldatasize - 0x104)\r\n            )\r\n        }\r\n\r\n        address tokenAddress = _resourceIDToTokenContractAddress[resourceID];\r\n        require(_contractWhitelist[tokenAddress], \"provided tokenAddress is not whitelisted\");\r\n\r\n        if (_burnList[tokenAddress]) {\r\n            burnERC20(tokenAddress, depositer, amount);\r\n        } else {\r\n            lockERC20(tokenAddress, depositer, address(this), amount);\r\n        }\r\n\r\n        _depositRecords[destinationChainID][depositNonce] = DepositRecord(\r\n            tokenAddress,\r\n            uint8(lenRecipientAddress),\r\n            destinationChainID,\r\n            resourceID,\r\n            recipientAddress,\r\n            depositer,\r\n            amount\r\n        );\r\n    }\r\n\r\n    /**\r\n        @notice Proposal execution should be initiated when a proposal is finalized in the Bridge contract.\r\n        by a relayer on the deposit's destination chain.\r\n        @param data Consists of {resourceID}, {amount}, {lenDestinationRecipientAddress},\r\n        and {destinationRecipientAddress} all padded to 32 bytes.\r\n        @notice Data passed into the function should be constructed as follows:\r\n        amount                                 uint256     bytes  0 - 32\r\n        destinationRecipientAddress length     uint256     bytes  32 - 64\r\n        destinationRecipientAddress            bytes       bytes  64 - END\r\n     */\r\n    function executeProposal(bytes32 resourceID, bytes calldata data) external override onlyBridge {\r\n        uint256       amount;\r\n        bytes  memory destinationRecipientAddress;\r\n\r\n        assembly {\r\n            amount := calldataload(0x64)\r\n\r\n            destinationRecipientAddress := mload(0x40)\r\n            let lenDestinationRecipientAddress := calldataload(0x84)\r\n            mstore(0x40, add(0x20, add(destinationRecipientAddress, lenDestinationRecipientAddress)))\r\n\r\n            // in the calldata the destinationRecipientAddress is stored at 0xC4 after accounting for the function signature and length declaration\r\n            calldatacopy(\r\n                destinationRecipientAddress, // copy to destinationRecipientAddress\r\n                0x84, // copy from calldata @ 0x84\r\n                sub(calldatasize(), 0x84) // copy size to the end of calldata\r\n            )\r\n        }\r\n\r\n        bytes20 recipientAddress;\r\n        address tokenAddress = _resourceIDToTokenContractAddress[resourceID];\r\n\r\n        assembly {\r\n            recipientAddress := mload(add(destinationRecipientAddress, 0x20))\r\n        }\r\n\r\n        require(_contractWhitelist[tokenAddress], \"provided tokenAddress is not whitelisted\");\r\n\r\n        if (_burnList[tokenAddress]) {\r\n            mintERC20(tokenAddress, address(recipientAddress), amount);\r\n        } else {\r\n            releaseERC20(tokenAddress, address(recipientAddress), amount);\r\n        }\r\n    }\r\n\r\n    /**\r\n        @notice Used to manually release ERC20 tokens from ERC20Safe.\r\n        @param tokenAddress Address of token contract to release.\r\n        @param recipient Address to release tokens to.\r\n        @param amount The amount of ERC20 tokens to release.\r\n     */\r\n    function withdraw(address tokenAddress, address recipient, uint amount) external override onlyBridge {\r\n        releaseERC20(tokenAddress, recipient, amount);\r\n    }\r\n}\r\n",
  "sourcePath": "/mnt/d/SourceTree/CAN_bridge_sol/contracts/handlers/ERC20Handler.sol",
  "compiler": {
    "name": "solc",
    "version": "0.8.19+commit.7dd6d404.Emscripten.clang"
  },
  "schemaVersion": "3.4.16",
  "updatedAt": "2024-05-15T07:58:14.380Z",
  "devdoc": {
    "author": "ChainSafe Systems.",
    "kind": "dev",
    "methods": {
      "constructor": {
        "details": "{initialResourceIDs} and {initialContractAddresses} must have the same length (one resourceID for every address). Also, these arrays must be ordered in the way that {initialResourceIDs}[0] is the intended resourceID for {initialContractAddresses}[0].",
        "params": {
          "bridgeAddress": "Contract address of previously deployed Bridge.",
          "burnableContractAddresses": "These addresses will be set as burnable and when {deposit} is called, the deposited token will be burned. When {executeProposal} is called, new tokens will be minted.",
          "initialContractAddresses": "These are the addresses the {initialResourceIDs} will point to, and are the contracts that will be called to perform various deposit calls.",
          "initialResourceIDs": "Resource IDs are used to identify a specific contract address. These are the Resource IDs this contract will initially support."
        }
      },
      "deposit(bytes32,uint8,uint64,address,bytes)": {
        "details": "Depending if the corresponding {tokenAddress} for the parsed {resourceID} is marked true in {_burnList}, deposited tokens will be burned, if not, they will be locked.",
        "params": {
          "data": "Consists of: {resourceID}, {amount}, {lenRecipientAddress}, and {recipientAddress} all padded to 32 bytes.",
          "depositNonce": "This value is generated as an ID by the Bridge contract.",
          "depositer": "Address of account making the deposit in the Bridge contract.",
          "destinationChainID": "Chain ID of chain tokens are expected to be bridged to."
        }
      },
      "executeProposal(bytes32,bytes)": {
        "params": {
          "data": "Consists of {resourceID}, {amount}, {lenDestinationRecipientAddress}, and {destinationRecipientAddress} all padded to 32 bytes."
        }
      },
      "fundERC20(address,address,uint256)": {
        "params": {
          "amount": "Amount of tokens to transfer.",
          "owner": "Address of current token owner.",
          "tokenAddress": "Address of ERC20 to transfer."
        }
      },
      "getDepositRecord(uint64,uint8)": {
        "params": {
          "depositNonce": "This ID will have been generated by the Bridge contract.",
          "destId": "ID of chain deposit will be bridged to."
        },
        "returns": {
          "_0": "DepositRecord which consists of: - _tokenAddress Address used when {deposit} was executed. - _destinationChainID ChainID deposited tokens are intended to end up on. - _resourceID ResourceID used when {deposit} was executed. - _lenDestinationRecipientAddress Used to parse recipient's address from {_destinationRecipientAddress} - _destinationRecipientAddress Address tokens are intended to be deposited to on desitnation chain. - _depositer Address that initially called {deposit} in the Bridge contract. - _amount Amount of tokens that were deposited."
        }
      },
      "setBurnable(address)": {
        "params": {
          "contractAddress": "Address of contract to be used when making or executing deposits."
        }
      },
      "setResource(bytes32,address)": {
        "params": {
          "contractAddress": "Address of contract to be called when a deposit is made and a deposited is executed.",
          "resourceID": "ResourceID to be used when making deposits."
        }
      },
      "withdraw(address,address,uint256)": {
        "params": {
          "amount": "The amount of ERC20 tokens to release.",
          "recipient": "Address to release tokens to.",
          "tokenAddress": "Address of token contract to release."
        }
      }
    },
    "title": "Handles ERC20 deposits and deposit executions.",
    "version": 1
  },
  "userdoc": {
    "kind": "user",
    "methods": {
      "deposit(bytes32,uint8,uint64,address,bytes)": {
        "notice": "A deposit is initiatied by making a deposit in the Bridge contract.Data passed into the function should be constructed as follows: amount                      uint256     bytes   0 - 32 recipientAddress length     uint256     bytes  32 - 64 recipientAddress            bytes       bytes  64 - END"
      },
      "executeProposal(bytes32,bytes)": {
        "notice": "Proposal execution should be initiated when a proposal is finalized in the Bridge contract. by a relayer on the deposit's destination chain.Data passed into the function should be constructed as follows: amount                                 uint256     bytes  0 - 32 destinationRecipientAddress length     uint256     bytes  32 - 64 destinationRecipientAddress            bytes       bytes  64 - END"
      },
      "fundERC20(address,address,uint256)": {
        "notice": "Used to transfer tokens into the safe to fund proposals."
      },
      "setBurnable(address)": {
        "notice": "First verifies {contractAddress} is whitelisted, then sets {_burnList}[{contractAddress}] to true."
      },
      "setResource(bytes32,address)": {
        "notice": "First verifies {_resourceIDToContractAddress}[{resourceID}] and {_contractAddressToResourceID}[{contractAddress}] are not already set, then sets {_resourceIDToContractAddress} with {contractAddress}, {_contractAddressToResourceID} with {resourceID}, and {_contractWhitelist} to true for {contractAddress}."
      },
      "withdraw(address,address,uint256)": {
        "notice": "Used to manually release ERC20 tokens from ERC20Safe."
      }
    },
    "notice": "This contract is intended to be used with the Bridge contract.",
    "version": 1
  }
}