{
  "contractName": "ERC721Handler",
  "abi": [
    {
      "inputs": [
        {
          "internalType": "address",
          "name": "bridgeAddress",
          "type": "address"
        },
        {
          "internalType": "bytes32[]",
          "name": "initialResourceIDs",
          "type": "bytes32[]"
        },
        {
          "internalType": "address[]",
          "name": "initialContractAddresses",
          "type": "address[]"
        },
        {
          "internalType": "address[]",
          "name": "burnableContractAddresses",
          "type": "address[]"
        }
      ],
      "stateMutability": "nonpayable",
      "type": "constructor"
    },
    {
      "inputs": [],
      "name": "_bridgeAddress",
      "outputs": [
        {
          "internalType": "address",
          "name": "",
          "type": "address"
        }
      ],
      "stateMutability": "view",
      "type": "function"
    },
    {
      "inputs": [
        {
          "internalType": "address",
          "name": "",
          "type": "address"
        }
      ],
      "name": "_burnList",
      "outputs": [
        {
          "internalType": "bool",
          "name": "",
          "type": "bool"
        }
      ],
      "stateMutability": "view",
      "type": "function"
    },
    {
      "inputs": [
        {
          "internalType": "address",
          "name": "",
          "type": "address"
        }
      ],
      "name": "_contractWhitelist",
      "outputs": [
        {
          "internalType": "bool",
          "name": "",
          "type": "bool"
        }
      ],
      "stateMutability": "view",
      "type": "function"
    },
    {
      "inputs": [
        {
          "internalType": "uint8",
          "name": "",
          "type": "uint8"
        },
        {
          "internalType": "uint64",
          "name": "",
          "type": "uint64"
        }
      ],
      "name": "_depositRecords",
      "outputs": [
        {
          "internalType": "address",
          "name": "_tokenAddress",
          "type": "address"
        },
        {
          "internalType": "uint8",
          "name": "_lenDestinationRecipientAddress",
          "type": "uint8"
        },
        {
          "internalType": "uint8",
          "name": "_destinationChainID",
          "type": "uint8"
        },
        {
          "internalType": "bytes32",
          "name": "_resourceID",
          "type": "bytes32"
        },
        {
          "internalType": "bytes",
          "name": "_destinationRecipientAddress",
          "type": "bytes"
        },
        {
          "internalType": "address",
          "name": "_depositer",
          "type": "address"
        },
        {
          "internalType": "uint256",
          "name": "_tokenID",
          "type": "uint256"
        },
        {
          "internalType": "bytes",
          "name": "_metaData",
          "type": "bytes"
        }
      ],
      "stateMutability": "view",
      "type": "function"
    },
    {
      "inputs": [
        {
          "internalType": "bytes32",
          "name": "",
          "type": "bytes32"
        }
      ],
      "name": "_resourceIDToTokenContractAddress",
      "outputs": [
        {
          "internalType": "address",
          "name": "",
          "type": "address"
        }
      ],
      "stateMutability": "view",
      "type": "function"
    },
    {
      "inputs": [
        {
          "internalType": "address",
          "name": "",
          "type": "address"
        }
      ],
      "name": "_tokenContractAddressToResourceID",
      "outputs": [
        {
          "internalType": "bytes32",
          "name": "",
          "type": "bytes32"
        }
      ],
      "stateMutability": "view",
      "type": "function"
    },
    {
      "inputs": [
        {
          "internalType": "address",
          "name": "tokenAddress",
          "type": "address"
        },
        {
          "internalType": "address",
          "name": "owner",
          "type": "address"
        },
        {
          "internalType": "uint256",
          "name": "tokenID",
          "type": "uint256"
        }
      ],
      "name": "fundERC721",
      "outputs": [],
      "stateMutability": "nonpayable",
      "type": "function"
    },
    {
      "inputs": [
        {
          "internalType": "address",
          "name": "contractAddress",
          "type": "address"
        }
      ],
      "name": "setBurnable",
      "outputs": [],
      "stateMutability": "nonpayable",
      "type": "function"
    },
    {
      "inputs": [
        {
          "internalType": "bytes32",
          "name": "resourceID",
          "type": "bytes32"
        },
        {
          "internalType": "address",
          "name": "contractAddress",
          "type": "address"
        }
      ],
      "name": "setResource",
      "outputs": [],
      "stateMutability": "nonpayable",
      "type": "function"
    },
    {
      "inputs": [
        {
          "internalType": "uint64",
          "name": "depositNonce",
          "type": "uint64"
        },
        {
          "internalType": "uint8",
          "name": "destId",
          "type": "uint8"
        }
      ],
      "name": "getDepositRecord",
      "outputs": [
        {
          "components": [
            {
              "internalType": "address",
              "name": "_tokenAddress",
              "type": "address"
            },
            {
              "internalType": "uint8",
              "name": "_lenDestinationRecipientAddress",
              "type": "uint8"
            },
            {
              "internalType": "uint8",
              "name": "_destinationChainID",
              "type": "uint8"
            },
            {
              "internalType": "bytes32",
              "name": "_resourceID",
              "type": "bytes32"
            },
            {
              "internalType": "bytes",
              "name": "_destinationRecipientAddress",
              "type": "bytes"
            },
            {
              "internalType": "address",
              "name": "_depositer",
              "type": "address"
            },
            {
              "internalType": "uint256",
              "name": "_tokenID",
              "type": "uint256"
            },
            {
              "internalType": "bytes",
              "name": "_metaData",
              "type": "bytes"
            }
          ],
          "internalType": "struct ERC721Handler.DepositRecord",
          "name": "",
          "type": "tuple"
        }
      ],
      "stateMutability": "view",
      "type": "function"
    },
    {
      "inputs": [
        {
          "internalType": "bytes32",
          "name": "resourceID",
          "type": "bytes32"
        },
        {
          "internalType": "uint8",
          "name": "destinationChainID",
          "type": "uint8"
        },
        {
          "internalType": "uint64",
          "name": "depositNonce",
          "type": "uint64"
        },
        {
          "internalType": "address",
          "name": "depositer",
          "type": "address"
        },
        {
          "internalType": "bytes",
          "name": "data",
          "type": "bytes"
        }
      ],
      "name": "deposit",
      "outputs": [],
      "stateMutability": "nonpayable",
      "type": "function"
    },
    {
      "inputs": [
        {
          "internalType": "bytes32",
          "name": "resourceID",
          "type": "bytes32"
        },
        {
          "internalType": "bytes",
          "name": "data",
          "type": "bytes"
        }
      ],
      "name": "executeProposal",
      "outputs": [],
      "stateMutability": "nonpayable",
      "type": "function"
    },
    {
      "inputs": [
        {
          "internalType": "address",
          "name": "tokenAddress",
          "type": "address"
        },
        {
          "internalType": "address",
          "name": "recipient",
          "type": "address"
        },
        {
          "internalType": "uint256",
          "name": "tokenID",
          "type": "uint256"
        }
      ],
      "name": "withdraw",
      "outputs": [],
      "stateMutability": "nonpayable",
      "type": "function"
    }
  ],
  "bytecode": "0x60806040523480156200001157600080fd5b5060405162002bab38038062002bab833981810160405281019062000037919062000665565b81518351146200007e576040517f08c379a00000000000000000000000000000000000000000000000000000000081526004016200007590620007bb565b60405180910390fd5b836000806101000a81548173ffffffffffffffffffffffffffffffffffffffff021916908373ffffffffffffffffffffffffffffffffffffffff16021790555060005b83518110156200012d5762000117848281518110620000e557620000e4620007dd565b5b6020026020010151848381518110620001035762000102620007dd565b5b60200260200101516200018a60201b60201c565b8080620001249062000845565b915050620000c1565b5060005b81518110156200017f5762000169828281518110620001555762000154620007dd565b5b60200260200101516200027c60201b60201c565b8080620001769062000845565b91505062000131565b50505050506200092a565b806001600084815260200190815260200160002060006101000a81548173ffffffffffffffffffffffffffffffffffffffff021916908373ffffffffffffffffffffffffffffffffffffffff16021790555081600260008373ffffffffffffffffffffffffffffffffffffffff1673ffffffffffffffffffffffffffffffffffffffff168152602001908152602001600020819055506001600360008373ffffffffffffffffffffffffffffffffffffffff1673ffffffffffffffffffffffffffffffffffffffff16815260200190815260200160002060006101000a81548160ff0219169083151502179055505050565b600360008273ffffffffffffffffffffffffffffffffffffffff1673ffffffffffffffffffffffffffffffffffffffff16815260200190815260200160002060009054906101000a900460ff166200030b576040517f08c379a0000000000000000000000000000000000000000000000000000000008152600401620003029062000908565b60405180910390fd5b6001600460008373ffffffffffffffffffffffffffffffffffffffff1673ffffffffffffffffffffffffffffffffffffffff16815260200190815260200160002060006101000a81548160ff02191690831515021790555050565b6000604051905090565b600080fd5b600080fd5b600073ffffffffffffffffffffffffffffffffffffffff82169050919050565b6000620003a7826200037a565b9050919050565b620003b9816200039a565b8114620003c557600080fd5b50565b600081519050620003d981620003ae565b92915050565b600080fd5b6000601f19601f8301169050919050565b7f4e487b7100000000000000000000000000000000000000000000000000000000600052604160045260246000fd5b6200042f82620003e4565b810181811067ffffffffffffffff82111715620004515762000450620003f5565b5b80604052505050565b60006200046662000366565b905062000474828262000424565b919050565b600067ffffffffffffffff821115620004975762000496620003f5565b5b602082029050602081019050919050565b600080fd5b6000819050919050565b620004c281620004ad565b8114620004ce57600080fd5b50565b600081519050620004e281620004b7565b92915050565b6000620004ff620004f98462000479565b6200045a565b90508083825260208201905060208402830185811115620005255762000524620004a8565b5b835b818110156200055257806200053d8882620004d1565b84526020840193505060208101905062000527565b5050509392505050565b600082601f830112620005745762000573620003df565b5b815162000586848260208601620004e8565b91505092915050565b600067ffffffffffffffff821115620005ad57620005ac620003f5565b5b602082029050602081019050919050565b6000620005d5620005cf846200058f565b6200045a565b90508083825260208201905060208402830185811115620005fb57620005fa620004a8565b5b835b81811015620006285780620006138882620003c8565b845260208401935050602081019050620005fd565b5050509392505050565b600082601f8301126200064a5762000649620003df565b5b81516200065c848260208601620005be565b91505092915050565b6000806000806080858703121562000682576200068162000370565b5b60006200069287828801620003c8565b945050602085015167ffffffffffffffff811115620006b657620006b562000375565b5b620006c4878288016200055c565b935050604085015167ffffffffffffffff811115620006e857620006e762000375565b5b620006f68782880162000632565b925050606085015167ffffffffffffffff8111156200071a576200071962000375565b5b620007288782880162000632565b91505092959194509250565b600082825260208201905092915050565b7f696e697469616c5265736f7572636549447320616e6420696e697469616c436f60008201527f6e7472616374416464726573736573206c656e206d69736d6174636800000000602082015250565b6000620007a3603c8362000734565b9150620007b08262000745565b604082019050919050565b60006020820190508181036000830152620007d68162000794565b9050919050565b7f4e487b7100000000000000000000000000000000000000000000000000000000600052603260045260246000fd5b7f4e487b7100000000000000000000000000000000000000000000000000000000600052601160045260246000fd5b6000819050919050565b600062000852826200083b565b91507fffffffffffffffffffffffffffffffffffffffffffffffffffffffffffffffff82036200088757620008866200080c565b5b600182019050919050565b7f70726f766964656420636f6e7472616374206973206e6f742077686974656c6960008201527f7374656400000000000000000000000000000000000000000000000000000000602082015250565b6000620008f060248362000734565b9150620008fd8262000892565b604082019050919050565b600060208201905081810360008301526200092381620008e1565b9050919050565b612271806200093a6000396000f3fe608060405234801561001057600080fd5b50600436106100cf5760003560e01c8063735429801161008c578063ba484c0911610066578063ba484c0914610229578063c8ba6c8714610259578063d9caed1214610289578063e248cff2146102a5576100cf565b806373542980146101c15780637f79bea8146101dd578063b8fa37361461020d576100cf565b806307b7ed99146100d45780630a6d55d8146100f0578063318c136e1461012057806338995da91461013e5780634402027f1461015a5780636a70d08114610191575b600080fd5b6100ee60048036038101906100e99190611454565b6102c1565b005b61010a600480360381019061010591906114b7565b6102d5565b60405161011791906114f3565b60405180910390f35b610128610308565b60405161013591906114f3565b60405180910390f35b610158600480360381019061015391906115ec565b61032c565b005b610174600480360381019061016f9190611686565b610713565b60405161018898979695949392919061178d565b60405180910390f35b6101ab60048036038101906101a69190611454565b6108d2565b6040516101b89190611834565b60405180910390f35b6101db60048036038101906101d6919061187b565b6108f2565b005b6101f760048036038101906101f29190611454565b61096c565b6040516102049190611834565b60405180910390f35b610227600480360381019061022291906118ce565b61098c565b005b610243600480360381019061023e919061190e565b6109a2565b6040516102509190611a8b565b60405180910390f35b610273600480360381019061026e9190611454565b610c1a565b6040516102809190611aad565b60405180910390f35b6102a3600480360381019061029e919061187b565b610c32565b005b6102bf60048036038101906102ba9190611ac8565b610c4b565b005b6102c9610de8565b6102d281610e78565b50565b60016020528060005260406000206000915054906101000a900473ffffffffffffffffffffffffffffffffffffffff1681565b60008054906101000a900473ffffffffffffffffffffffffffffffffffffffff1681565b610334610de8565b60008060608060c435925060e4359350604051915083820160200160405260e4360360e483376000600160008c815260200190815260200160002060009054906101000a900473ffffffffffffffffffffffffffffffffffffffff169050600360008273ffffffffffffffffffffffffffffffffffffffff1673ffffffffffffffffffffffffffffffffffffffff16815260200190815260200160002060009054906101000a900460ff1661041e576040517f08c379a000000000000000000000000000000000000000000000000000000000815260040161041590611bab565b60405180910390fd5b61044e635b5e139f60e01b8273ffffffffffffffffffffffffffffffffffffffff16610f5f90919063ffffffff16565b156104db5760008190508073ffffffffffffffffffffffffffffffffffffffff1663c87b56dd866040518263ffffffff1660e01b81526004016104919190611bcb565b600060405180830381865afa1580156104ae573d6000803e3d6000fd5b505050506040513d6000823e3d601f19601f820116820180604052508101906104d79190611d07565b9250505b600460008273ffffffffffffffffffffffffffffffffffffffff1673ffffffffffffffffffffffffffffffffffffffff16815260200190815260200160002060009054906101000a900460ff161561053c576105378185610f84565b610549565b61054881893087610ff9565b5b6040518061010001604052808273ffffffffffffffffffffffffffffffffffffffff1681526020018660ff1681526020018b60ff1681526020018c81526020018481526020018973ffffffffffffffffffffffffffffffffffffffff16815260200185815260200183815250600560008c60ff1660ff16815260200190815260200160002060008b67ffffffffffffffff1667ffffffffffffffff16815260200190815260200160002060008201518160000160006101000a81548173ffffffffffffffffffffffffffffffffffffffff021916908373ffffffffffffffffffffffffffffffffffffffff16021790555060208201518160000160146101000a81548160ff021916908360ff16021790555060408201518160000160156101000a81548160ff021916908360ff16021790555060608201518160010155608082015181600201908161069b9190611f5c565b5060a08201518160030160006101000a81548173ffffffffffffffffffffffffffffffffffffffff021916908373ffffffffffffffffffffffffffffffffffffffff16021790555060c0820151816004015560e08201518160050190816107029190611f5c565b509050505050505050505050505050565b6005602052816000526040600020602052806000526040600020600091509150508060000160009054906101000a900473ffffffffffffffffffffffffffffffffffffffff16908060000160149054906101000a900460ff16908060000160159054906101000a900460ff169080600101549080600201805461079590611d7f565b80601f01602080910402602001604051908101604052809291908181526020018280546107c190611d7f565b801561080e5780601f106107e35761010080835404028352916020019161080e565b820191906000526020600020905b8154815290600101906020018083116107f157829003601f168201915b5050505050908060030160009054906101000a900473ffffffffffffffffffffffffffffffffffffffff169080600401549080600501805461084f90611d7f565b80601f016020809104026020016040519081016040528092919081815260200182805461087b90611d7f565b80156108c85780601f1061089d576101008083540402835291602001916108c8565b820191906000526020600020905b8154815290600101906020018083116108ab57829003601f168201915b5050505050905088565b60046020528060005260406000206000915054906101000a900460ff1681565b60008390508073ffffffffffffffffffffffffffffffffffffffff166323b872dd8430856040518463ffffffff1660e01b81526004016109349392919061202e565b600060405180830381600087803b15801561094e57600080fd5b505af1158015610962573d6000803e3d6000fd5b5050505050505050565b60036020528060005260406000206000915054906101000a900460ff1681565b610994610de8565b61099e8282611074565b5050565b6109aa611368565b600560008360ff1660ff16815260200190815260200160002060008467ffffffffffffffff1667ffffffffffffffff168152602001908152602001600020604051806101000160405290816000820160009054906101000a900473ffffffffffffffffffffffffffffffffffffffff1673ffffffffffffffffffffffffffffffffffffffff1673ffffffffffffffffffffffffffffffffffffffff1681526020016000820160149054906101000a900460ff1660ff1660ff1681526020016000820160159054906101000a900460ff1660ff1660ff16815260200160018201548152602001600282018054610a9e90611d7f565b80601f0160208091040260200160405190810160405280929190818152602001828054610aca90611d7f565b8015610b175780601f10610aec57610100808354040283529160200191610b17565b820191906000526020600020905b815481529060010190602001808311610afa57829003601f168201915b505050505081526020016003820160009054906101000a900473ffffffffffffffffffffffffffffffffffffffff1673ffffffffffffffffffffffffffffffffffffffff1673ffffffffffffffffffffffffffffffffffffffff16815260200160048201548152602001600582018054610b9090611d7f565b80601f0160208091040260200160405190810160405280929190818152602001828054610bbc90611d7f565b8015610c095780601f10610bde57610100808354040283529160200191610c09565b820191906000526020600020905b815481529060010190602001808311610bec57829003601f168201915b505050505081525050905092915050565b60026020528060005260406000206000915090505481565b610c3a610de8565b610c4683308484611166565b505050565b610c53610de8565b6000606080606435925060405191506084358060a401358184016040016040528060200160840136036084853760405192508083016040016040528160a40180360381853750505060006020830151905060006001600089815260200190815260200160002060009054906101000a900473ffffffffffffffffffffffffffffffffffffffff169050600360008273ffffffffffffffffffffffffffffffffffffffff1673ffffffffffffffffffffffffffffffffffffffff16815260200190815260200160002060009054906101000a900460ff16610d68576040517f08c379a0000000000000000000000000000000000000000000000000000000008152600401610d5f90611bab565b60405180910390fd5b600460008273ffffffffffffffffffffffffffffffffffffffff1673ffffffffffffffffffffffffffffffffffffffff16815260200190815260200160002060009054906101000a900460ff1615610dce57610dc9818360601c87866111e1565b610dde565b610ddd81308460601c88611166565b5b5050505050505050565b60008054906101000a900473ffffffffffffffffffffffffffffffffffffffff1673ffffffffffffffffffffffffffffffffffffffff163373ffffffffffffffffffffffffffffffffffffffff1614610e76576040517f08c379a0000000000000000000000000000000000000000000000000000000008152600401610e6d906120b1565b60405180910390fd5b565b600360008273ffffffffffffffffffffffffffffffffffffffff1673ffffffffffffffffffffffffffffffffffffffff16815260200190815260200160002060009054906101000a900460ff16610f04576040517f08c379a0000000000000000000000000000000000000000000000000000000008152600401610efb90612143565b60405180910390fd5b6001600460008373ffffffffffffffffffffffffffffffffffffffff1673ffffffffffffffffffffffffffffffffffffffff16815260200190815260200160002060006101000a81548160ff02191690831515021790555050565b6000610f6a8361125c565b8015610f7c5750610f7b83836112a9565b5b905092915050565b60008290508073ffffffffffffffffffffffffffffffffffffffff166342966c68836040518263ffffffff1660e01b8152600401610fc29190611bcb565b600060405180830381600087803b158015610fdc57600080fd5b505af1158015610ff0573d6000803e3d6000fd5b50505050505050565b60008490508073ffffffffffffffffffffffffffffffffffffffff166323b872dd8585856040518463ffffffff1660e01b815260040161103b9392919061202e565b600060405180830381600087803b15801561105557600080fd5b505af1158015611069573d6000803e3d6000fd5b505050505050505050565b806001600084815260200190815260200160002060006101000a81548173ffffffffffffffffffffffffffffffffffffffff021916908373ffffffffffffffffffffffffffffffffffffffff16021790555081600260008373ffffffffffffffffffffffffffffffffffffffff1673ffffffffffffffffffffffffffffffffffffffff168152602001908152602001600020819055506001600360008373ffffffffffffffffffffffffffffffffffffffff1673ffffffffffffffffffffffffffffffffffffffff16815260200190815260200160002060006101000a81548160ff0219169083151502179055505050565b60008490508073ffffffffffffffffffffffffffffffffffffffff166323b872dd8585856040518463ffffffff1660e01b81526004016111a89392919061202e565b600060405180830381600087803b1580156111c257600080fd5b505af11580156111d6573d6000803e3d6000fd5b505050505050505050565b60008490508073ffffffffffffffffffffffffffffffffffffffff1663d3fc98648585856040518463ffffffff1660e01b8152600401611223939291906121a7565b600060405180830381600087803b15801561123d57600080fd5b505af1158015611251573d6000803e3d6000fd5b505050505050505050565b6000611288827f01ffc9a7000000000000000000000000000000000000000000000000000000006112a9565b80156112a257506112a08263ffffffff60e01b6112a9565b155b9050919050565b6000806301ffc9a760e01b836040516024016112c59190612220565b604051602081830303815290604052907bffffffffffffffffffffffffffffffffffffffffffffffffffffffff19166020820180517bffffffffffffffffffffffffffffffffffffffffffffffffffffffff838183161783525050505090506000806000602060008551602087018a617530fa92503d91506000519050828015611350575060208210155b801561135c5750600081115b94505050505092915050565b604051806101000160405280600073ffffffffffffffffffffffffffffffffffffffff168152602001600060ff168152602001600060ff1681526020016000801916815260200160608152602001600073ffffffffffffffffffffffffffffffffffffffff16815260200160008152602001606081525090565b6000604051905090565b600080fd5b600080fd5b600073ffffffffffffffffffffffffffffffffffffffff82169050919050565b6000611421826113f6565b9050919050565b61143181611416565b811461143c57600080fd5b50565b60008135905061144e81611428565b92915050565b60006020828403121561146a576114696113ec565b5b60006114788482850161143f565b91505092915050565b6000819050919050565b61149481611481565b811461149f57600080fd5b50565b6000813590506114b18161148b565b92915050565b6000602082840312156114cd576114cc6113ec565b5b60006114db848285016114a2565b91505092915050565b6114ed81611416565b82525050565b600060208201905061150860008301846114e4565b92915050565b600060ff82169050919050565b6115248161150e565b811461152f57600080fd5b50565b6000813590506115418161151b565b92915050565b600067ffffffffffffffff82169050919050565b61156481611547565b811461156f57600080fd5b50565b6000813590506115818161155b565b92915050565b600080fd5b600080fd5b600080fd5b60008083601f8401126115ac576115ab611587565b5b8235905067ffffffffffffffff8111156115c9576115c861158c565b5b6020830191508360018202830111156115e5576115e4611591565b5b9250929050565b60008060008060008060a08789031215611609576116086113ec565b5b600061161789828a016114a2565b965050602061162889828a01611532565b955050604061163989828a01611572565b945050606061164a89828a0161143f565b935050608087013567ffffffffffffffff81111561166b5761166a6113f1565b5b61167789828a01611596565b92509250509295509295509295565b6000806040838503121561169d5761169c6113ec565b5b60006116ab85828601611532565b92505060206116bc85828601611572565b9150509250929050565b6116cf8161150e565b82525050565b6116de81611481565b82525050565b600081519050919050565b600082825260208201905092915050565b60005b8381101561171e578082015181840152602081019050611703565b60008484015250505050565b6000601f19601f8301169050919050565b6000611746826116e4565b61175081856116ef565b9350611760818560208601611700565b6117698161172a565b840191505092915050565b6000819050919050565b61178781611774565b82525050565b6000610100820190506117a3600083018b6114e4565b6117b0602083018a6116c6565b6117bd60408301896116c6565b6117ca60608301886116d5565b81810360808301526117dc818761173b565b90506117eb60a08301866114e4565b6117f860c083018561177e565b81810360e083015261180a818461173b565b90509998505050505050505050565b60008115159050919050565b61182e81611819565b82525050565b60006020820190506118496000830184611825565b92915050565b61185881611774565b811461186357600080fd5b50565b6000813590506118758161184f565b92915050565b600080600060608486031215611894576118936113ec565b5b60006118a28682870161143f565b93505060206118b38682870161143f565b92505060406118c486828701611866565b9150509250925092565b600080604083850312156118e5576118e46113ec565b5b60006118f3858286016114a2565b92505060206119048582860161143f565b9150509250929050565b60008060408385031215611925576119246113ec565b5b600061193385828601611572565b925050602061194485828601611532565b9150509250929050565b61195781611416565b82525050565b6119668161150e565b82525050565b61197581611481565b82525050565b600082825260208201905092915050565b6000611997826116e4565b6119a1818561197b565b93506119b1818560208601611700565b6119ba8161172a565b840191505092915050565b6119ce81611774565b82525050565b6000610100830160008301516119ed600086018261194e565b506020830151611a00602086018261195d565b506040830151611a13604086018261195d565b506060830151611a26606086018261196c565b5060808301518482036080860152611a3e828261198c565b91505060a0830151611a5360a086018261194e565b5060c0830151611a6660c08601826119c5565b5060e083015184820360e0860152611a7e828261198c565b9150508091505092915050565b60006020820190508181036000830152611aa581846119d4565b905092915050565b6000602082019050611ac260008301846116d5565b92915050565b600080600060408486031215611ae157611ae06113ec565b5b6000611aef868287016114a2565b935050602084013567ffffffffffffffff811115611b1057611b0f6113f1565b5b611b1c86828701611596565b92509250509250925092565b600082825260208201905092915050565b7f70726f766964656420746f6b656e41646472657373206973206e6f742077686960008201527f74656c6973746564000000000000000000000000000000000000000000000000602082015250565b6000611b95602883611b28565b9150611ba082611b39565b604082019050919050565b60006020820190508181036000830152611bc481611b88565b9050919050565b6000602082019050611be0600083018461177e565b92915050565b600080fd5b7f4e487b7100000000000000000000000000000000000000000000000000000000600052604160045260246000fd5b611c238261172a565b810181811067ffffffffffffffff82111715611c4257611c41611beb565b5b80604052505050565b6000611c556113e2565b9050611c618282611c1a565b919050565b600067ffffffffffffffff821115611c8157611c80611beb565b5b611c8a8261172a565b9050602081019050919050565b6000611caa611ca584611c66565b611c4b565b905082815260208101848484011115611cc657611cc5611be6565b5b611cd1848285611700565b509392505050565b600082601f830112611cee57611ced611587565b5b8151611cfe848260208601611c97565b91505092915050565b600060208284031215611d1d57611d1c6113ec565b5b600082015167ffffffffffffffff811115611d3b57611d3a6113f1565b5b611d4784828501611cd9565b91505092915050565b7f4e487b7100000000000000000000000000000000000000000000000000000000600052602260045260246000fd5b60006002820490506001821680611d9757607f821691505b602082108103611daa57611da9611d50565b5b50919050565b60008190508160005260206000209050919050565b60006020601f8301049050919050565b600082821b905092915050565b600060088302611e127fffffffffffffffffffffffffffffffffffffffffffffffffffffffffffffffff82611dd5565b611e1c8683611dd5565b95508019841693508086168417925050509392505050565b6000819050919050565b6000611e59611e54611e4f84611774565b611e34565b611774565b9050919050565b6000819050919050565b611e7383611e3e565b611e87611e7f82611e60565b848454611de2565b825550505050565b600090565b611e9c611e8f565b611ea7818484611e6a565b505050565b5b81811015611ecb57611ec0600082611e94565b600181019050611ead565b5050565b601f821115611f1057611ee181611db0565b611eea84611dc5565b81016020851015611ef9578190505b611f0d611f0585611dc5565b830182611eac565b50505b505050565b600082821c905092915050565b6000611f3360001984600802611f15565b1980831691505092915050565b6000611f4c8383611f22565b9150826002028217905092915050565b611f65826116e4565b67ffffffffffffffff811115611f7e57611f7d611beb565b5b611f888254611d7f565b611f93828285611ecf565b600060209050601f831160018114611fc65760008415611fb4578287015190505b611fbe8582611f40565b865550612026565b601f198416611fd486611db0565b60005b82811015611ffc57848901518255600182019150602085019450602081019050611fd7565b868310156120195784890151612015601f891682611f22565b8355505b6001600288020188555050505b505050505050565b600060608201905061204360008301866114e4565b61205060208301856114e4565b61205d604083018461177e565b949350505050565b7f73656e646572206d7573742062652062726964676520636f6e74726163740000600082015250565b600061209b601e83611b28565b91506120a682612065565b602082019050919050565b600060208201905081810360008301526120ca8161208e565b9050919050565b7f70726f766964656420636f6e7472616374206973206e6f742077686974656c6960008201527f7374656400000000000000000000000000000000000000000000000000000000602082015250565b600061212d602483611b28565b9150612138826120d1565b604082019050919050565b6000602082019050818103600083015261215c81612120565b9050919050565b600081519050919050565b600061217982612163565b6121838185611b28565b9350612193818560208601611700565b61219c8161172a565b840191505092915050565b60006060820190506121bc60008301866114e4565b6121c9602083018561177e565b81810360408301526121db818461216e565b9050949350505050565b60007fffffffff0000000000000000000000000000000000000000000000000000000082169050919050565b61221a816121e5565b82525050565b60006020820190506122356000830184612211565b9291505056fea26469706673582212209059d0933470bbe2f5ea754528425a0ff3d80b0360692cc511548a3f4c7398ed64736f6c63430008130033",
  "immutableReferences": {},
  "source": "// SPDX-License-Identifier: MIT\r\npragma solidity 0.8.19;\r\n\r\nimport \"../interfaces/IDepositExecute.sol\";\r\nimport \"./HandlerHelpers.sol\";\r\nimport \"../ERC721Safe.sol\";\r\nimport \"../ERC721MinterBurnerPauser.sol\";\r\nimport \"../openzeppelin/ERC165Checker.sol\";\r\nimport \"../openzeppelin/IERC721Metadata.sol\";\r\n\r\n\r\n/**\r\n    @title Handles ERC721 deposits and deposit executions.\r\n    @author ChainSafe Systems.\r\n    @notice This contract is intended to be used with the Bridge contract.\r\n */\r\ncontract ERC721Handler is IDepositExecute, HandlerHelpers, ERC721Safe {\r\n    using ERC165Checker for address;\r\n\r\n    bytes4 private constant _INTERFACE_ERC721_METADATA = 0x5b5e139f;\r\n\r\n    struct DepositRecord {\r\n        address _tokenAddress;\r\n        uint8    _lenDestinationRecipientAddress;\r\n        uint8   _destinationChainID;\r\n        bytes32 _resourceID;\r\n        bytes   _destinationRecipientAddress;\r\n        address _depositer;\r\n        uint    _tokenID;\r\n        bytes   _metaData;\r\n    }\r\n\r\n    // DepositNonce => Deposit Record\r\n    mapping (uint8 => mapping (uint64 => DepositRecord)) public _depositRecords;\r\n\r\n    /**\r\n        @param bridgeAddress Contract address of previously deployed Bridge.\r\n        @param initialResourceIDs Resource IDs are used to identify a specific contract address.\r\n        These are the Resource IDs this contract will initially support.\r\n        @param initialContractAddresses These are the addresses the {initialResourceIDs} will point to, and are the contracts that will be\r\n        called to perform various deposit calls.\r\n        @param burnableContractAddresses These addresses will be set as burnable and when {deposit} is called, the deposited token will be burned.\r\n        When {executeProposal} is called, new tokens will be minted.\r\n\r\n        @dev {initialResourceIDs} and {initialContractAddresses} must have the same length (one resourceID for every address).\r\n        Also, these arrays must be ordered in the way that {initialResourceIDs}[0] is the intended resourceID for {initialContractAddresses}[0].\r\n     */\r\n    constructor(\r\n        address bridgeAddress,\r\n        bytes32[] memory initialResourceIDs,\r\n        address[] memory initialContractAddresses,\r\n        address[] memory burnableContractAddresses\r\n    ) {\r\n        require(initialResourceIDs.length == initialContractAddresses.length,\r\n            \"initialResourceIDs and initialContractAddresses len mismatch\");\r\n\r\n        _bridgeAddress = bridgeAddress;\r\n\r\n        for (uint256 i = 0; i < initialResourceIDs.length; i++) {\r\n            _setResource(initialResourceIDs[i], initialContractAddresses[i]);\r\n        }\r\n\r\n        for (uint256 i = 0; i < burnableContractAddresses.length; i++) {\r\n            _setBurnable(burnableContractAddresses[i]);\r\n        }\r\n    }\r\n\r\n    /**\r\n        @param depositNonce This ID will have been generated by the Bridge contract.\r\n        @param destId ID of chain deposit will be bridged to.\r\n        @return DepositRecord which consists of:\r\n        - _tokenAddress Address used when {deposit} was executed.\r\n        - _destinationChainID ChainID deposited tokens are intended to end up on.\r\n        - _resourceID ResourceID used when {deposit} was executed.\r\n        - _lenDestinationRecipientAddress Used to parse recipient's address from {_destinationRecipientAddress}\r\n        - _destinationRecipientAddress Address tokens are intended to be deposited to on desitnation chain.\r\n        - _depositer Address that initially called {deposit} in the Bridge contract.\r\n        - _tokenID ID of ERC721.\r\n        - _metaData Optional ERC721 metadata.\r\n    */\r\n    function getDepositRecord(uint64 depositNonce, uint8 destId) external view returns (DepositRecord memory) {\r\n        return _depositRecords[destId][depositNonce];\r\n    }\r\n\r\n    /**\r\n        @notice A deposit is initiatied by making a deposit in the Bridge contract.\r\n        @param destinationChainID Chain ID of chain token is expected to be bridged to.\r\n        @param depositNonce This value is generated as an ID by the Bridge contract.\r\n        @param depositer Address of account making the deposit in the Bridge contract.\r\n        @param data Consists of: {resourceID}, {tokenID}, {lenDestinationRecipientAddress},\r\n        and {destinationRecipientAddress} all padded to 32 bytes.\r\n        @notice Data passed into the function should be constructed as follows:\r\n        tokenID                                     uint256    bytes    0  - 32\r\n        destinationRecipientAddress     length      uint256    bytes    32 - 64\r\n        destinationRecipientAddress                   bytes    bytes    64 - (64 + len(destinationRecipientAddress))\r\n        @notice If the corresponding {tokenAddress} for the parsed {resourceID} supports {_INTERFACE_ERC721_METADATA},\r\n        then {metaData} will be set according to the {tokenURI} method in the token contract.\r\n        @dev Depending if the corresponding {tokenAddress} for the parsed {resourceID} is\r\n        marked true in {_burnList}, deposited tokens will be burned, if not, they will be locked.\r\n     */\r\n    function deposit(bytes32    resourceID,\r\n                    uint8       destinationChainID,\r\n                    uint64      depositNonce,\r\n                    address     depositer,\r\n                    bytes       calldata data\r\n                    ) external override onlyBridge {\r\n        uint         lenDestinationRecipientAddress;\r\n        uint         tokenID;\r\n        bytes memory destinationRecipientAddress;\r\n        bytes memory metaData;\r\n\r\n        assembly {\r\n\r\n            // Load tokenID from data + 32\r\n            tokenID := calldataload(0xC4)\r\n\r\n            // Load length of recipient address from data + 96\r\n            lenDestinationRecipientAddress := calldataload(0xE4)\r\n            // Load free mem pointer for recipient\r\n            destinationRecipientAddress := mload(0x40)\r\n            // Store recipient address\r\n            mstore(0x40, add(0x20, add(destinationRecipientAddress, lenDestinationRecipientAddress)))\r\n\r\n            // func sig (4) + destinationChainId (padded to 32) + depositNonce (32) + depositor (32) +\r\n            // bytes lenght (32) + resourceId (32) + tokenId (32) + length (32) = 0xE4\r\n\r\n            calldatacopy(\r\n                destinationRecipientAddress,    // copy to destinationRecipientAddress\r\n                0xE4,                           // copy from calldata after destinationRecipientAddress length declaration @0xE4\r\n                sub(calldatasize(), 0xE4)       // copy size (calldatasize - (0xE4 + 0x20))\r\n            )\r\n        }\r\n\r\n        address tokenAddress = _resourceIDToTokenContractAddress[resourceID];\r\n        require(_contractWhitelist[tokenAddress], \"provided tokenAddress is not whitelisted\");\r\n\r\n        // Check if the contract supports metadata, fetch it if it does\r\n        if (tokenAddress.supportsInterface(_INTERFACE_ERC721_METADATA)) {\r\n            IERC721Metadata erc721 = IERC721Metadata(tokenAddress);\r\n            metaData = bytes(erc721.tokenURI(tokenID));\r\n        }\r\n\r\n        if (_burnList[tokenAddress]) {\r\n            burnERC721(tokenAddress, tokenID);\r\n        } else {\r\n            lockERC721(tokenAddress, depositer, address(this), tokenID);\r\n        }\r\n\r\n        _depositRecords[destinationChainID][depositNonce] = DepositRecord(\r\n            tokenAddress,\r\n            uint8(lenDestinationRecipientAddress),\r\n            uint8(destinationChainID),\r\n            resourceID,\r\n            destinationRecipientAddress,\r\n            depositer,\r\n            tokenID,\r\n            metaData\r\n        );\r\n    }\r\n\r\n    /**\r\n        @notice Proposal execution should be initiated when a proposal is finalized in the Bridge contract.\r\n        by a relayer on the deposit's destination chain.\r\n        @param data Consists of {tokenID}, {resourceID}, {lenDestinationRecipientAddress},\r\n        {destinationRecipientAddress}, {lenMeta}, and {metaData} all padded to 32 bytes.\r\n        @notice Data passed into the function should be constructed as follows:\r\n        tokenID                                     uint256    bytes    0  - 32\r\n        destinationRecipientAddress     length      uint256    bytes    32 - 64\r\n        destinationRecipientAddress                   bytes    bytes    64 - (64 + len(destinationRecipientAddress))\r\n        metadata                        length      uint256    bytes    (64 + len(destinationRecipientAddress)) - (64 + len(destinationRecipientAddress) + 32)\r\n        metadata                                      bytes    bytes    (64 + len(destinationRecipientAddress) + 32) - END\r\n     */\r\n    function executeProposal(bytes32 resourceID, bytes calldata data) external override onlyBridge {\r\n        uint256         tokenID;\r\n        bytes  memory   destinationRecipientAddress;\r\n        bytes  memory   metaData;\r\n\r\n        assembly {\r\n            tokenID    := calldataload(0x64)\r\n\r\n\r\n            // set up destinationRecipientAddress\r\n            destinationRecipientAddress        := mload(0x40)              // load free memory pointer\r\n            let lenDestinationRecipientAddress := calldataload(0x84)\r\n\r\n            // set up metaData\r\n            // 0xA4 is a combination of 0x24 (position of {data} in calldata) and\r\n            // 0x80 is the relative position of the {metadata} length in {data}\r\n            let lenMeta := calldataload(add(0xA4, lenDestinationRecipientAddress))\r\n\r\n            mstore(0x40, add(0x40, add(destinationRecipientAddress, lenDestinationRecipientAddress))) // shift free memory pointer\r\n\r\n            calldatacopy(\r\n                destinationRecipientAddress,                             // copy to destinationRecipientAddress\r\n                0x84,                                                    // copy from calldata after destinationRecipientAddress length declaration @0x84\r\n                sub(calldatasize(), add(0x84, add(0x20, lenMeta)))       // copy size (calldatasize - (0xC4 + the space metaData takes up))\r\n            )\r\n\r\n            // metadata has variable length\r\n            // load free memory pointer to store metadata\r\n            metaData := mload(0x40)\r\n\r\n            // incrementing free memory pointer\r\n            mstore(0x40, add(0x40, add(metaData, lenMeta)))\r\n\r\n            // metadata is located at (0x84 + 0x20 + lenDestinationRecipientAddress) in calldata\r\n            let metaDataLoc := add(0xA4, lenDestinationRecipientAddress)\r\n\r\n            // in the calldata, metadata is stored @0x124 after accounting for function signature and the depositNonce\r\n            calldatacopy(\r\n                metaData,                           // copy to metaData\r\n                metaDataLoc,                       // copy from calldata after metaData length declaration\r\n                sub(calldatasize(), metaDataLoc)   // copy size (calldatasize - metaDataLoc)\r\n            )\r\n        }\r\n\r\n        bytes20 recipientAddress;\r\n\r\n        assembly {\r\n            recipientAddress := mload(add(destinationRecipientAddress, 0x20))\r\n        }\r\n\r\n        address tokenAddress = _resourceIDToTokenContractAddress[resourceID];\r\n        require(_contractWhitelist[address(tokenAddress)], \"provided tokenAddress is not whitelisted\");\r\n\r\n        if (_burnList[tokenAddress]) {\r\n            mintERC721(tokenAddress, address(recipientAddress), tokenID, metaData);\r\n        } else {\r\n            releaseERC721(tokenAddress, address(this), address(recipientAddress), tokenID);\r\n        }\r\n    }\r\n\r\n    /**\r\n        @notice Used to manually release ERC721 tokens from ERC721Safe.\r\n        @param tokenAddress Address of token contract to release.\r\n        @param recipient Address to release token to.\r\n        @param tokenID The ERC721 token ID to release.\r\n     */\r\n    function withdraw(address tokenAddress, address recipient, uint tokenID) external override onlyBridge {\r\n        releaseERC721(tokenAddress, address(this), recipient, tokenID);\r\n    }\r\n}\r\n",
  "sourcePath": "/mnt/d/SourceTree/CAN_bridge_sol/contracts/handlers/ERC721Handler.sol",
  "compiler": {
    "name": "solc",
    "version": "0.8.19+commit.7dd6d404.Emscripten.clang"
  },
  "schemaVersion": "3.4.16",
  "updatedAt": "2024-05-15T07:58:14.411Z",
  "devdoc": {
    "author": "ChainSafe Systems.",
    "kind": "dev",
    "methods": {
      "constructor": {
        "details": "{initialResourceIDs} and {initialContractAddresses} must have the same length (one resourceID for every address). Also, these arrays must be ordered in the way that {initialResourceIDs}[0] is the intended resourceID for {initialContractAddresses}[0].",
        "params": {
          "bridgeAddress": "Contract address of previously deployed Bridge.",
          "burnableContractAddresses": "These addresses will be set as burnable and when {deposit} is called, the deposited token will be burned. When {executeProposal} is called, new tokens will be minted.",
          "initialContractAddresses": "These are the addresses the {initialResourceIDs} will point to, and are the contracts that will be called to perform various deposit calls.",
          "initialResourceIDs": "Resource IDs are used to identify a specific contract address. These are the Resource IDs this contract will initially support."
        }
      },
      "deposit(bytes32,uint8,uint64,address,bytes)": {
        "details": "Depending if the corresponding {tokenAddress} for the parsed {resourceID} is marked true in {_burnList}, deposited tokens will be burned, if not, they will be locked.",
        "params": {
          "data": "Consists of: {resourceID}, {tokenID}, {lenDestinationRecipientAddress}, and {destinationRecipientAddress} all padded to 32 bytes.",
          "depositNonce": "This value is generated as an ID by the Bridge contract.",
          "depositer": "Address of account making the deposit in the Bridge contract.",
          "destinationChainID": "Chain ID of chain token is expected to be bridged to."
        }
      },
      "executeProposal(bytes32,bytes)": {
        "params": {
          "data": "Consists of {tokenID}, {resourceID}, {lenDestinationRecipientAddress}, {destinationRecipientAddress}, {lenMeta}, and {metaData} all padded to 32 bytes."
        }
      },
      "fundERC721(address,address,uint256)": {
        "params": {
          "owner": "Address of current token owner.",
          "tokenAddress": "Address of ERC721 to transfer.",
          "tokenID": "ID of token to transfer."
        }
      },
      "getDepositRecord(uint64,uint8)": {
        "params": {
          "depositNonce": "This ID will have been generated by the Bridge contract.",
          "destId": "ID of chain deposit will be bridged to."
        },
        "returns": {
          "_0": "DepositRecord which consists of: - _tokenAddress Address used when {deposit} was executed. - _destinationChainID ChainID deposited tokens are intended to end up on. - _resourceID ResourceID used when {deposit} was executed. - _lenDestinationRecipientAddress Used to parse recipient's address from {_destinationRecipientAddress} - _destinationRecipientAddress Address tokens are intended to be deposited to on desitnation chain. - _depositer Address that initially called {deposit} in the Bridge contract. - _tokenID ID of ERC721. - _metaData Optional ERC721 metadata."
        }
      },
      "setBurnable(address)": {
        "params": {
          "contractAddress": "Address of contract to be used when making or executing deposits."
        }
      },
      "setResource(bytes32,address)": {
        "params": {
          "contractAddress": "Address of contract to be called when a deposit is made and a deposited is executed.",
          "resourceID": "ResourceID to be used when making deposits."
        }
      },
      "withdraw(address,address,uint256)": {
        "params": {
          "recipient": "Address to release token to.",
          "tokenAddress": "Address of token contract to release.",
          "tokenID": "The ERC721 token ID to release."
        }
      }
    },
    "title": "Handles ERC721 deposits and deposit executions.",
    "version": 1
  },
  "userdoc": {
    "kind": "user",
    "methods": {
      "deposit(bytes32,uint8,uint64,address,bytes)": {
        "notice": "A deposit is initiatied by making a deposit in the Bridge contract.Data passed into the function should be constructed as follows: tokenID                                     uint256    bytes    0  - 32 destinationRecipientAddress     length      uint256    bytes    32 - 64 destinationRecipientAddress                   bytes    bytes    64 - (64 + len(destinationRecipientAddress))If the corresponding {tokenAddress} for the parsed {resourceID} supports {_INTERFACE_ERC721_METADATA}, then {metaData} will be set according to the {tokenURI} method in the token contract."
      },
      "executeProposal(bytes32,bytes)": {
        "notice": "Proposal execution should be initiated when a proposal is finalized in the Bridge contract. by a relayer on the deposit's destination chain.Data passed into the function should be constructed as follows: tokenID                                     uint256    bytes    0  - 32 destinationRecipientAddress     length      uint256    bytes    32 - 64 destinationRecipientAddress                   bytes    bytes    64 - (64 + len(destinationRecipientAddress)) metadata                        length      uint256    bytes    (64 + len(destinationRecipientAddress)) - (64 + len(destinationRecipientAddress) + 32) metadata                                      bytes    bytes    (64 + len(destinationRecipientAddress) + 32) - END"
      },
      "fundERC721(address,address,uint256)": {
        "notice": "Used to transfer tokens into the safe to fund proposals."
      },
      "setBurnable(address)": {
        "notice": "First verifies {contractAddress} is whitelisted, then sets {_burnList}[{contractAddress}] to true."
      },
      "setResource(bytes32,address)": {
        "notice": "First verifies {_resourceIDToContractAddress}[{resourceID}] and {_contractAddressToResourceID}[{contractAddress}] are not already set, then sets {_resourceIDToContractAddress} with {contractAddress}, {_contractAddressToResourceID} with {resourceID}, and {_contractWhitelist} to true for {contractAddress}."
      },
      "withdraw(address,address,uint256)": {
        "notice": "Used to manually release ERC721 tokens from ERC721Safe."
      }
    },
    "notice": "This contract is intended to be used with the Bridge contract.",
    "version": 1
  }
}