{
  "contractName": "Bridge",
  "abi": [
    {
      "inputs": [
        {
          "internalType": "uint8",
          "name": "chainID",
          "type": "uint8"
        },
        {
          "internalType": "address[]",
          "name": "initialRelayers",
          "type": "address[]"
        },
        {
          "internalType": "uint256",
          "name": "initialRelayerThreshold",
          "type": "uint256"
        },
        {
          "internalType": "uint256",
          "name": "fee",
          "type": "uint256"
        },
        {
          "internalType": "uint256",
          "name": "expiry",
          "type": "uint256"
        }
      ],
      "stateMutability": "nonpayable",
      "type": "constructor"
    },
    {
      "anonymous": false,
      "inputs": [
        {
          "indexed": true,
          "internalType": "uint8",
          "name": "destinationChainID",
          "type": "uint8"
        },
        {
          "indexed": true,
          "internalType": "bytes32",
          "name": "resourceID",
          "type": "bytes32"
        },
        {
          "indexed": true,
          "internalType": "uint64",
          "name": "depositNonce",
          "type": "uint64"
        }
      ],
      "name": "Deposit",
      "type": "event"
    },
    {
      "anonymous": false,
      "inputs": [
        {
          "indexed": false,
          "internalType": "address",
          "name": "account",
          "type": "address"
        }
      ],
      "name": "Paused",
      "type": "event"
    },
    {
      "anonymous": false,
      "inputs": [
        {
          "indexed": true,
          "internalType": "uint8",
          "name": "originChainID",
          "type": "uint8"
        },
        {
          "indexed": true,
          "internalType": "uint64",
          "name": "depositNonce",
          "type": "uint64"
        },
        {
          "indexed": true,
          "internalType": "enum Bridge.ProposalStatus",
          "name": "status",
          "type": "uint8"
        },
        {
          "indexed": false,
          "internalType": "bytes32",
          "name": "resourceID",
          "type": "bytes32"
        },
        {
          "indexed": false,
          "internalType": "bytes32",
          "name": "dataHash",
          "type": "bytes32"
        }
      ],
      "name": "ProposalEvent",
      "type": "event"
    },
    {
      "anonymous": false,
      "inputs": [
        {
          "indexed": true,
          "internalType": "uint8",
          "name": "originChainID",
          "type": "uint8"
        },
        {
          "indexed": true,
          "internalType": "uint64",
          "name": "depositNonce",
          "type": "uint64"
        },
        {
          "indexed": true,
          "internalType": "enum Bridge.ProposalStatus",
          "name": "status",
          "type": "uint8"
        },
        {
          "indexed": false,
          "internalType": "bytes32",
          "name": "resourceID",
          "type": "bytes32"
        }
      ],
      "name": "ProposalVote",
      "type": "event"
    },
    {
      "anonymous": false,
      "inputs": [
        {
          "indexed": true,
          "internalType": "uint256",
          "name": "newThreshold",
          "type": "uint256"
        }
      ],
      "name": "RelayerThresholdChanged",
      "type": "event"
    },
    {
      "anonymous": false,
      "inputs": [
        {
          "indexed": true,
          "internalType": "bytes32",
          "name": "role",
          "type": "bytes32"
        },
        {
          "indexed": true,
          "internalType": "bytes32",
          "name": "previousAdminRole",
          "type": "bytes32"
        },
        {
          "indexed": true,
          "internalType": "bytes32",
          "name": "newAdminRole",
          "type": "bytes32"
        }
      ],
      "name": "RoleAdminChanged",
      "type": "event"
    },
    {
      "anonymous": false,
      "inputs": [
        {
          "indexed": true,
          "internalType": "bytes32",
          "name": "role",
          "type": "bytes32"
        },
        {
          "indexed": true,
          "internalType": "address",
          "name": "account",
          "type": "address"
        },
        {
          "indexed": true,
          "internalType": "address",
          "name": "sender",
          "type": "address"
        }
      ],
      "name": "RoleGranted",
      "type": "event"
    },
    {
      "anonymous": false,
      "inputs": [
        {
          "indexed": true,
          "internalType": "bytes32",
          "name": "role",
          "type": "bytes32"
        },
        {
          "indexed": true,
          "internalType": "address",
          "name": "account",
          "type": "address"
        },
        {
          "indexed": true,
          "internalType": "address",
          "name": "sender",
          "type": "address"
        }
      ],
      "name": "RoleRevoked",
      "type": "event"
    },
    {
      "anonymous": false,
      "inputs": [
        {
          "indexed": false,
          "internalType": "address",
          "name": "account",
          "type": "address"
        }
      ],
      "name": "Unpaused",
      "type": "event"
    },
    {
      "inputs": [],
      "name": "DEFAULT_ADMIN_ROLE",
      "outputs": [
        {
          "internalType": "bytes32",
          "name": "",
          "type": "bytes32"
        }
      ],
      "stateMutability": "view",
      "type": "function"
    },
    {
      "inputs": [],
      "name": "EXECUTOR_ROLE",
      "outputs": [
        {
          "internalType": "bytes32",
          "name": "",
          "type": "bytes32"
        }
      ],
      "stateMutability": "view",
      "type": "function"
    },
    {
      "inputs": [],
      "name": "RELAYER_ROLE",
      "outputs": [
        {
          "internalType": "bytes32",
          "name": "",
          "type": "bytes32"
        }
      ],
      "stateMutability": "view",
      "type": "function"
    },
    {
      "inputs": [],
      "name": "_chainID",
      "outputs": [
        {
          "internalType": "uint8",
          "name": "",
          "type": "uint8"
        }
      ],
      "stateMutability": "view",
      "type": "function"
    },
    {
      "inputs": [
        {
          "internalType": "uint8",
          "name": "",
          "type": "uint8"
        }
      ],
      "name": "_depositCounts",
      "outputs": [
        {
          "internalType": "uint64",
          "name": "",
          "type": "uint64"
        }
      ],
      "stateMutability": "view",
      "type": "function"
    },
    {
      "inputs": [
        {
          "internalType": "uint64",
          "name": "",
          "type": "uint64"
        },
        {
          "internalType": "uint8",
          "name": "",
          "type": "uint8"
        }
      ],
      "name": "_depositRecords",
      "outputs": [
        {
          "internalType": "bytes",
          "name": "",
          "type": "bytes"
        }
      ],
      "stateMutability": "view",
      "type": "function"
    },
    {
      "inputs": [],
      "name": "_expiry",
      "outputs": [
        {
          "internalType": "uint256",
          "name": "",
          "type": "uint256"
        }
      ],
      "stateMutability": "view",
      "type": "function"
    },
    {
      "inputs": [],
      "name": "_fee",
      "outputs": [
        {
          "internalType": "uint256",
          "name": "",
          "type": "uint256"
        }
      ],
      "stateMutability": "view",
      "type": "function"
    },
    {
      "inputs": [
        {
          "internalType": "uint72",
          "name": "",
          "type": "uint72"
        },
        {
          "internalType": "bytes32",
          "name": "",
          "type": "bytes32"
        },
        {
          "internalType": "address",
          "name": "",
          "type": "address"
        }
      ],
      "name": "_hasVotedOnProposal",
      "outputs": [
        {
          "internalType": "bool",
          "name": "",
          "type": "bool"
        }
      ],
      "stateMutability": "view",
      "type": "function"
    },
    {
      "inputs": [
        {
          "internalType": "uint72",
          "name": "",
          "type": "uint72"
        },
        {
          "internalType": "bytes32",
          "name": "",
          "type": "bytes32"
        }
      ],
      "name": "_proposals",
      "outputs": [
        {
          "internalType": "bytes32",
          "name": "_resourceID",
          "type": "bytes32"
        },
        {
          "internalType": "bytes32",
          "name": "_dataHash",
          "type": "bytes32"
        },
        {
          "internalType": "enum Bridge.ProposalStatus",
          "name": "_status",
          "type": "uint8"
        },
        {
          "internalType": "uint256",
          "name": "_proposedBlock",
          "type": "uint256"
        }
      ],
      "stateMutability": "view",
      "type": "function"
    },
    {
      "inputs": [],
      "name": "_relayerThreshold",
      "outputs": [
        {
          "internalType": "uint256",
          "name": "",
          "type": "uint256"
        }
      ],
      "stateMutability": "view",
      "type": "function"
    },
    {
      "inputs": [
        {
          "internalType": "bytes32",
          "name": "",
          "type": "bytes32"
        }
      ],
      "name": "_resourceIDToHandlerAddress",
      "outputs": [
        {
          "internalType": "address",
          "name": "",
          "type": "address"
        }
      ],
      "stateMutability": "view",
      "type": "function"
    },
    {
      "inputs": [],
      "name": "_totalProposals",
      "outputs": [
        {
          "internalType": "uint256",
          "name": "",
          "type": "uint256"
        }
      ],
      "stateMutability": "view",
      "type": "function"
    },
    {
      "inputs": [
        {
          "internalType": "bytes32",
          "name": "role",
          "type": "bytes32"
        }
      ],
      "name": "getRoleAdmin",
      "outputs": [
        {
          "internalType": "bytes32",
          "name": "",
          "type": "bytes32"
        }
      ],
      "stateMutability": "view",
      "type": "function"
    },
    {
      "inputs": [
        {
          "internalType": "bytes32",
          "name": "role",
          "type": "bytes32"
        },
        {
          "internalType": "uint256",
          "name": "index",
          "type": "uint256"
        }
      ],
      "name": "getRoleMember",
      "outputs": [
        {
          "internalType": "address",
          "name": "",
          "type": "address"
        }
      ],
      "stateMutability": "view",
      "type": "function"
    },
    {
      "inputs": [
        {
          "internalType": "bytes32",
          "name": "role",
          "type": "bytes32"
        }
      ],
      "name": "getRoleMemberCount",
      "outputs": [
        {
          "internalType": "uint256",
          "name": "",
          "type": "uint256"
        }
      ],
      "stateMutability": "view",
      "type": "function"
    },
    {
      "inputs": [
        {
          "internalType": "bytes32",
          "name": "role",
          "type": "bytes32"
        },
        {
          "internalType": "address",
          "name": "account",
          "type": "address"
        }
      ],
      "name": "grantRole",
      "outputs": [],
      "stateMutability": "nonpayable",
      "type": "function"
    },
    {
      "inputs": [
        {
          "internalType": "bytes32",
          "name": "role",
          "type": "bytes32"
        },
        {
          "internalType": "address",
          "name": "account",
          "type": "address"
        }
      ],
      "name": "hasRole",
      "outputs": [
        {
          "internalType": "bool",
          "name": "",
          "type": "bool"
        }
      ],
      "stateMutability": "view",
      "type": "function"
    },
    {
      "inputs": [],
      "name": "paused",
      "outputs": [
        {
          "internalType": "bool",
          "name": "",
          "type": "bool"
        }
      ],
      "stateMutability": "view",
      "type": "function"
    },
    {
      "inputs": [
        {
          "internalType": "bytes32",
          "name": "role",
          "type": "bytes32"
        },
        {
          "internalType": "address",
          "name": "account",
          "type": "address"
        }
      ],
      "name": "renounceRole",
      "outputs": [],
      "stateMutability": "nonpayable",
      "type": "function"
    },
    {
      "inputs": [
        {
          "internalType": "bytes32",
          "name": "role",
          "type": "bytes32"
        },
        {
          "internalType": "address",
          "name": "account",
          "type": "address"
        }
      ],
      "name": "revokeRole",
      "outputs": [],
      "stateMutability": "nonpayable",
      "type": "function"
    },
    {
      "inputs": [
        {
          "internalType": "address",
          "name": "relayer",
          "type": "address"
        }
      ],
      "name": "isRelayer",
      "outputs": [
        {
          "internalType": "bool",
          "name": "",
          "type": "bool"
        }
      ],
      "stateMutability": "view",
      "type": "function"
    },
    {
      "inputs": [
        {
          "internalType": "address",
          "name": "newAdmin",
          "type": "address"
        }
      ],
      "name": "renounceAdmin",
      "outputs": [],
      "stateMutability": "nonpayable",
      "type": "function"
    },
    {
      "inputs": [],
      "name": "adminPauseTransfers",
      "outputs": [],
      "stateMutability": "nonpayable",
      "type": "function"
    },
    {
      "inputs": [],
      "name": "adminUnpauseTransfers",
      "outputs": [],
      "stateMutability": "nonpayable",
      "type": "function"
    },
    {
      "inputs": [
        {
          "internalType": "uint256",
          "name": "newThreshold",
          "type": "uint256"
        }
      ],
      "name": "adminChangeRelayerThreshold",
      "outputs": [],
      "stateMutability": "nonpayable",
      "type": "function"
    },
    {
      "inputs": [
        {
          "internalType": "address",
          "name": "relayerAddress",
          "type": "address"
        }
      ],
      "name": "adminAddRelayer",
      "outputs": [],
      "stateMutability": "nonpayable",
      "type": "function"
    },
    {
      "inputs": [
        {
          "internalType": "address",
          "name": "relayerAddress",
          "type": "address"
        }
      ],
      "name": "adminRemoveRelayer",
      "outputs": [],
      "stateMutability": "nonpayable",
      "type": "function"
    },
    {
      "inputs": [
        {
          "internalType": "address",
          "name": "executorAddress",
          "type": "address"
        }
      ],
      "name": "relayerAddExecutor",
      "outputs": [],
      "stateMutability": "nonpayable",
      "type": "function"
    },
    {
      "inputs": [
        {
          "internalType": "address",
          "name": "executorAddress",
          "type": "address"
        }
      ],
      "name": "relayerRemoveExecutor",
      "outputs": [],
      "stateMutability": "nonpayable",
      "type": "function"
    },
    {
      "inputs": [
        {
          "internalType": "address",
          "name": "handlerAddress",
          "type": "address"
        },
        {
          "internalType": "bytes32",
          "name": "resourceID",
          "type": "bytes32"
        },
        {
          "internalType": "address",
          "name": "tokenAddress",
          "type": "address"
        }
      ],
      "name": "adminSetResource",
      "outputs": [],
      "stateMutability": "nonpayable",
      "type": "function"
    },
    {
      "inputs": [
        {
          "internalType": "address",
          "name": "handlerAddress",
          "type": "address"
        },
        {
          "internalType": "bytes32",
          "name": "resourceID",
          "type": "bytes32"
        },
        {
          "internalType": "address",
          "name": "contractAddress",
          "type": "address"
        },
        {
          "internalType": "bytes4",
          "name": "depositFunctionSig",
          "type": "bytes4"
        },
        {
          "internalType": "bytes4",
          "name": "executeFunctionSig",
          "type": "bytes4"
        }
      ],
      "name": "adminSetGenericResource",
      "outputs": [],
      "stateMutability": "nonpayable",
      "type": "function"
    },
    {
      "inputs": [
        {
          "internalType": "address",
          "name": "handlerAddress",
          "type": "address"
        },
        {
          "internalType": "address",
          "name": "tokenAddress",
          "type": "address"
        }
      ],
      "name": "adminSetBurnable",
      "outputs": [],
      "stateMutability": "nonpayable",
      "type": "function"
    },
    {
      "inputs": [
        {
          "internalType": "uint8",
          "name": "originChainID",
          "type": "uint8"
        },
        {
          "internalType": "uint64",
          "name": "depositNonce",
          "type": "uint64"
        },
        {
          "internalType": "bytes32",
          "name": "dataHash",
          "type": "bytes32"
        }
      ],
      "name": "getProposal",
      "outputs": [
        {
          "components": [
            {
              "internalType": "bytes32",
              "name": "_resourceID",
              "type": "bytes32"
            },
            {
              "internalType": "bytes32",
              "name": "_dataHash",
              "type": "bytes32"
            },
            {
              "internalType": "address[]",
              "name": "_yesVotes",
              "type": "address[]"
            },
            {
              "internalType": "address[]",
              "name": "_noVotes",
              "type": "address[]"
            },
            {
              "internalType": "enum Bridge.ProposalStatus",
              "name": "_status",
              "type": "uint8"
            },
            {
              "internalType": "uint256",
              "name": "_proposedBlock",
              "type": "uint256"
            }
          ],
          "internalType": "struct Bridge.Proposal",
          "name": "",
          "type": "tuple"
        }
      ],
      "stateMutability": "view",
      "type": "function"
    },
    {
      "inputs": [
        {
          "internalType": "uint256",
          "name": "newFee",
          "type": "uint256"
        }
      ],
      "name": "adminChangeFee",
      "outputs": [],
      "stateMutability": "nonpayable",
      "type": "function"
    },
    {
      "inputs": [
        {
          "internalType": "uint256",
          "name": "newExpiry",
          "type": "uint256"
        }
      ],
      "name": "adminExpiry",
      "outputs": [],
      "stateMutability": "nonpayable",
      "type": "function"
    },
    {
      "inputs": [
        {
          "internalType": "address",
          "name": "handlerAddress",
          "type": "address"
        },
        {
          "internalType": "address",
          "name": "tokenAddress",
          "type": "address"
        },
        {
          "internalType": "address",
          "name": "recipient",
          "type": "address"
        },
        {
          "internalType": "uint256",
          "name": "amountOrTokenID",
          "type": "uint256"
        }
      ],
      "name": "adminWithdraw",
      "outputs": [],
      "stateMutability": "nonpayable",
      "type": "function"
    },
    {
      "inputs": [
        {
          "internalType": "uint8",
          "name": "destinationChainID",
          "type": "uint8"
        },
        {
          "internalType": "bytes32",
          "name": "resourceID",
          "type": "bytes32"
        },
        {
          "internalType": "bytes",
          "name": "data",
          "type": "bytes"
        }
      ],
      "name": "deposit",
      "outputs": [],
      "stateMutability": "payable",
      "type": "function"
    },
    {
      "inputs": [
        {
          "internalType": "uint8",
          "name": "chainID",
          "type": "uint8"
        },
        {
          "internalType": "uint64",
          "name": "depositNonce",
          "type": "uint64"
        },
        {
          "internalType": "bytes32",
          "name": "resourceID",
          "type": "bytes32"
        },
        {
          "internalType": "bytes",
          "name": "data",
          "type": "bytes"
        }
      ],
      "name": "voteProposal",
      "outputs": [],
      "stateMutability": "nonpayable",
      "type": "function"
    },
    {
      "inputs": [
        {
          "internalType": "uint8",
          "name": "chainID",
          "type": "uint8"
        },
        {
          "internalType": "uint64",
          "name": "depositNonce",
          "type": "uint64"
        },
        {
          "internalType": "bytes32",
          "name": "dataHash",
          "type": "bytes32"
        }
      ],
      "name": "cancelProposal",
      "outputs": [],
      "stateMutability": "nonpayable",
      "type": "function"
    },
    {
      "inputs": [
        {
          "internalType": "uint8",
          "name": "chainID",
          "type": "uint8"
        },
        {
          "internalType": "uint64",
          "name": "depositNonce",
          "type": "uint64"
        },
        {
          "internalType": "bytes",
          "name": "data",
          "type": "bytes"
        },
        {
          "internalType": "bytes32",
          "name": "resourceID",
          "type": "bytes32"
        }
      ],
      "name": "executeProposal",
      "outputs": [],
      "stateMutability": "nonpayable",
      "type": "function"
    },
    {
      "inputs": [
        {
          "internalType": "address payable[]",
          "name": "addrs",
          "type": "address[]"
        },
        {
          "internalType": "uint256[]",
          "name": "amounts",
          "type": "uint256[]"
        }
      ],
      "name": "transferFunds",
      "outputs": [],
      "stateMutability": "nonpayable",
      "type": "function"
    }
  ],
  "bytecode": "0x60806040523480156200001157600080fd5b50604051620056823803806200568283398181016040528101906200003791906200058f565b60008060006101000a81548160ff02191690831515021790555084600260006101000a81548160ff021916908360ff160217905550826003819055508160058190555080600681905550620000966000801b33620001c260201b60201c565b620000cb7fe2b7fb3b832174769106daebcfd6d1970523240dda11281102db9363b83b0dc46000801b620001d860201b60201c565b620000fd7fd8aa0f3194971a2a116679f7c2090f6939c8d4e01a2a8d7e41d55e5351469e6333620001c260201b60201c565b6200014f7fd8aa0f3194971a2a116679f7c2090f6939c8d4e01a2a8d7e41d55e5351469e637fe2b7fb3b832174769106daebcfd6d1970523240dda11281102db9363b83b0dc4620001d860201b60201c565b60008451905060005b81811015620001b557620001a77fe2b7fb3b832174769106daebcfd6d1970523240dda11281102db9363b83b0dc48783815181106200019357fe5b60200260200101516200023c60201b60201c565b808060010191505062000158565b50505050505050620007b5565b620001d48282620002cb60201b60201c565b5050565b806001600084815260200190815260200160002060020154837fbd79b86ffe0ab8e8776151514217cd7cacd52c909f66475c3af44e129f0b00ff60405160405180910390a48060016000848152602001908152602001600020600201819055505050565b620002736001600084815260200190815260200160002060020154620002676200036f60201b60201c565b6200037760201b60201c565b620002b5576040517f08c379a0000000000000000000000000000000000000000000000000000000008152600401620002ac9062000692565b60405180910390fd5b620002c78282620002cb60201b60201c565b5050565b620002fa8160016000858152602001908152602001600020600001620003b060201b62002beb1790919060201c565b156200036b57620003106200036f60201b60201c565b73ffffffffffffffffffffffffffffffffffffffff168173ffffffffffffffffffffffffffffffffffffffff16837f2f8788117e7eff1d82e926ec794901d17c78024a50270940304540a733656f0d60405160405180910390a45b5050565b600033905090565b6000620003a88260016000868152602001908152602001600020600001620003e860201b62002c1b1790919060201c565b905092915050565b6000620003e0836000018373ffffffffffffffffffffffffffffffffffffffff1660001b6200042060201b60201c565b905092915050565b600062000418836000018373ffffffffffffffffffffffffffffffffffffffff1660001b6200049a60201b60201c565b905092915050565b60006200043483836200049a60201b60201c565b6200048f57826000018290806001815401808255809150506001900390600052602060002001600090919091909150558260000180549050836001016000848152602001908152602001600020819055506001905062000494565b600090505b92915050565b600080836001016000848152602001908152602001600020541415905092915050565b600081519050620004ce8162000767565b92915050565b600082601f830112620004e657600080fd5b8151620004fd620004f782620006e2565b620006b4565b915081818352602084019350602081019050838560208402820111156200052357600080fd5b60005b838110156200055757816200053c8882620004bd565b84526020840193506020830192505060018101905062000526565b5050505092915050565b600081519050620005728162000781565b92915050565b60008151905062000589816200079b565b92915050565b600080600080600060a08688031215620005a857600080fd5b6000620005b88882890162000578565b955050602086015167ffffffffffffffff811115620005d657600080fd5b620005e488828901620004d4565b9450506040620005f78882890162000561565b93505060606200060a8882890162000561565b92505060806200061d8882890162000561565b9150509295509295909350565b600062000639602f836200070b565b91507f416363657373436f6e74726f6c3a2073656e646572206d75737420626520616e60008301527f2061646d696e20746f206772616e7400000000000000000000000000000000006020830152604082019050919050565b60006020820190508181036000830152620006ad816200062a565b9050919050565b6000604051905081810181811067ffffffffffffffff82111715620006d857600080fd5b8060405250919050565b600067ffffffffffffffff821115620006fa57600080fd5b602082029050602081019050919050565b600082825260208201905092915050565b6000620007298262000730565b9050919050565b600073ffffffffffffffffffffffffffffffffffffffff82169050919050565b6000819050919050565b600060ff82169050919050565b62000772816200071c565b81146200077e57600080fd5b50565b6200078c8162000750565b81146200079857600080fd5b50565b620007a6816200075a565b8114620007b257600080fd5b50565b614ebd80620007c56000396000f3fe6080604052600436106102515760003560e01c80638c0c263111610139578063beab7131116100b6578063cb10f2151161007a578063cb10f215146108ea578063cdb0f73a14610913578063d547741f1461093c578063d7a9cd7914610965578063e8437ee714610990578063ffaac0eb146109b957610251565b8063beab713114610803578063c0331b3e1461082e578063c5b37c2214610857578063c5ec897014610882578063ca15c873146108ad57610251565b80639d5773e0116100fd5780639d5773e01461071e5780639d82dd6314610749578063a217fddf14610772578063a9cf69fa1461079d578063ba5c523c146107da57610251565b80638c0c2631146106275780639010d07c1461065057806391c404ac1461068d57806391d14854146106b6578063926d7d7f146106f357610251565b80634603ae38116101d25780635c975abb116101965780635c975abb146105195780635e1fab0f14610544578063780cf0041461056d5780637febe63f1461059657806380ae1c28146105d357806384db809f146105ea57610251565b80634603ae381461040d5780634b0b919d146104365780634e05600514610473578063505987191461049c578063541d5548146104dc57610251565b80632f2ff15d116102195780632f2ff15d1461032c57806336568abe146103555780633ee7094a1461037e5780633f47585e146103bb5780634454b20d146103e457610251565b806305e2ca171461025657806307bd0265146102725780631149af511461029d57806317f03ce5146102c6578063248a9ca3146102ef575b600080fd5b610270600480360381019061026b919061399e565b6109d0565b005b34801561027e57600080fd5b50610287610c2d565b6040516102949190614645565b60405180910390f35b3480156102a957600080fd5b506102c460048036038101906102bf91906135b8565b610c51565b005b3480156102d257600080fd5b506102ed60048036038101906102e89190613a0a565b610d50565b005b3480156102fb57600080fd5b50610316600480360381019061031191906137e4565b610f72565b6040516103239190614645565b60405180910390f35b34801561033857600080fd5b50610353600480360381019061034e919061380d565b610f92565b005b34801561036157600080fd5b5061037c6004803603810190610377919061380d565b611006565b005b34801561038a57600080fd5b506103a560048036038101906103a091906138ae565b611089565b6040516103b291906147ca565b60405180910390f35b3480156103c757600080fd5b506103e260048036038101906103dd9190613885565b611146565b005b3480156103f057600080fd5b5061040b60048036038101906104069190613ad9565b61119c565b005b34801561041957600080fd5b50610434600480360381019061042f919061376f565b61149a565b005b34801561044257600080fd5b5061045d60048036038101906104589190613975565b6115cf565b60405161046a9190614b6b565b60405180910390f35b34801561047f57600080fd5b5061049a60048036038101906104959190613885565b6115f6565b005b3480156104a857600080fd5b506104c360048036038101906104be91906138ea565b611679565b6040516104d394939291906146f7565b60405180910390f35b3480156104e857600080fd5b5061050360048036038101906104fe91906135b8565b6116c3565b604051610510919061462a565b60405180910390f35b34801561052557600080fd5b5061052e6116f6565b60405161053b919061462a565b60405180910390f35b34801561055057600080fd5b5061056b600480360381019061056691906135b8565b61170c565b005b34801561057957600080fd5b50610594600480360381019061058f9190613646565b611775565b005b3480156105a257600080fd5b506105bd60048036038101906105b89190613926565b61183c565b6040516105ca919061462a565b60405180910390f35b3480156105df57600080fd5b506105e8611878565b005b3480156105f657600080fd5b50610611600480360381019061060c91906137e4565b6118ce565b60405161061e91906145bd565b60405180910390f35b34801561063357600080fd5b5061064e6004803603810190610649919061360a565b611901565b005b34801561065c57600080fd5b5061067760048036038101906106729190613849565b6119c2565b60405161068491906145bd565b60405180910390f35b34801561069957600080fd5b506106b460048036038101906106af9190613885565b6119f4565b005b3480156106c257600080fd5b506106dd60048036038101906106d8919061380d565b611a8f565b6040516106ea919061462a565b60405180910390f35b3480156106ff57600080fd5b50610708611ac1565b6040516107159190614645565b60405180910390f35b34801561072a57600080fd5b50610733611ae5565b6040516107409190614b50565b60405180910390f35b34801561075557600080fd5b50610770600480360381019061076b91906135b8565b611aeb565b005b34801561077e57600080fd5b50610787611bcd565b6040516107949190614645565b60405180910390f35b3480156107a957600080fd5b506107c460048036038101906107bf9190613a0a565b611bd4565b6040516107d19190614b2e565b60405180910390f35b3480156107e657600080fd5b5061080160048036038101906107fc91906135b8565b611db5565b005b34801561080f57600080fd5b50610818611eb5565b6040516108259190614b86565b60405180910390f35b34801561083a57600080fd5b5061085560048036038101906108509190613a59565b611ec8565b005b34801561086357600080fd5b5061086c6127d3565b6040516108799190614b50565b60405180910390f35b34801561088e57600080fd5b506108976127d9565b6040516108a49190614b50565b60405180910390f35b3480156108b957600080fd5b506108d460048036038101906108cf91906137e4565b6127df565b6040516108e19190614b50565b60405180910390f35b3480156108f657600080fd5b50610911600480360381019061090c91906136a9565b612806565b005b34801561091f57600080fd5b5061093a600480360381019061093591906135b8565b61291c565b005b34801561094857600080fd5b50610963600480360381019061095e919061380d565b6129ff565b005b34801561097157600080fd5b5061097a612a73565b6040516109879190614b50565b60405180910390f35b34801561099c57600080fd5b506109b760048036038101906109b291906136f8565b612a79565b005b3480156109c557600080fd5b506109ce612b95565b005b6109d8612c4b565b6005543414610a1c576040517f08c379a0000000000000000000000000000000000000000000000000000000008152600401610a13906148ee565b60405180910390fd5b60006008600085815260200190815260200160002060009054906101000a900473ffffffffffffffffffffffffffffffffffffffff169050600073ffffffffffffffffffffffffffffffffffffffff168173ffffffffffffffffffffffffffffffffffffffff161415610ac4576040517f08c379a0000000000000000000000000000000000000000000000000000000008152600401610abb9061496e565b60405180910390fd5b6000600760008760ff1660ff168152602001908152602001600020600081819054906101000a900467ffffffffffffffff1660010191906101000a81548167ffffffffffffffff021916908367ffffffffffffffff160217905590508383600960008467ffffffffffffffff1667ffffffffffffffff16815260200190815260200160002060008960ff1660ff1681526020019081526020016000209190610b6d929190613289565b5060008290508073ffffffffffffffffffffffffffffffffffffffff166338995da9878985338a8a6040518763ffffffff1660e01b8152600401610bb69695949392919061476e565b600060405180830381600087803b158015610bd057600080fd5b505af1158015610be4573d6000803e3d6000fd5b505050508167ffffffffffffffff16868860ff167fdbb69440df8433824a026ef190652f29929eb64b4d1d5d2a69be8afe3e6eaed860405160405180910390a450505050505050565b7fd8aa0f3194971a2a116679f7c2090f6939c8d4e01a2a8d7e41d55e5351469e6381565b610c7b7fe2b7fb3b832174769106daebcfd6d1970523240dda11281102db9363b83b0dc433611a8f565b610cba576040517f08c379a0000000000000000000000000000000000000000000000000000000008152600401610cb190614a8e565b60405180910390fd5b610ce47fd8aa0f3194971a2a116679f7c2090f6939c8d4e01a2a8d7e41d55e5351469e6382611a8f565b610d23576040517f08c379a0000000000000000000000000000000000000000000000000000000008152600401610d1a906148ce565b60405180910390fd5b610d4d7fd8aa0f3194971a2a116679f7c2090f6939c8d4e01a2a8d7e41d55e5351469e63826129ff565b50565b610d5d6000801b33611a8f565b80610d8e5750610d8d7fe2b7fb3b832174769106daebcfd6d1970523240dda11281102db9363b83b0dc433611a8f565b5b610dcd576040517f08c379a0000000000000000000000000000000000000000000000000000000008152600401610dc49061482e565b60405180910390fd5b60008360ff1660088467ffffffffffffffff1668ffffffffffffffffff16901b1790506000600a60008368ffffffffffffffffff1668ffffffffffffffffff16815260200190815260200160002060008481526020019081526020016000209050600480811115610e3a57fe5b8160040160009054906101000a900460ff166004811115610e5757fe5b1415610e98576040517f08c379a0000000000000000000000000000000000000000000000000000000008152600401610e8f9061494e565b60405180910390fd5b600654610ea9438360050154612c9b565b11610ee9576040517f08c379a0000000000000000000000000000000000000000000000000000000008152600401610ee0906149ae565b60405180910390fd5b60048160040160006101000a81548160ff02191690836004811115610f0a57fe5b0217905550600480811115610f1b57fe5b8467ffffffffffffffff168660ff167f803c5a12f6bde629cea32e63d4b92d1b560816a6fb72e939d3c89e1cab65041784600001548560010154604051610f639291906146ce565b60405180910390a45050505050565b600060016000838152602001908152602001600020600201549050919050565b610fb96001600084815260200190815260200160002060020154610fb4612ce5565b611a8f565b610ff8576040517f08c379a0000000000000000000000000000000000000000000000000000000008152600401610fef9061486e565b60405180910390fd5b6110028282612ced565b5050565b61100e612ce5565b73ffffffffffffffffffffffffffffffffffffffff168173ffffffffffffffffffffffffffffffffffffffff161461107b576040517f08c379a000000000000000000000000000000000000000000000000000000000815260040161107290614b0e565b60405180910390fd5b6110858282612d81565b5050565b6009602052816000526040600020602052806000526040600020600091509150508054600181600116156101000203166002900480601f01602080910402602001604051908101604052809291908181526020018280546001816001161561010002031660029004801561113e5780601f106111135761010080835404028352916020019161113e565b820191906000526020600020905b81548152906001019060200180831161112157829003601f168201915b505050505081565b6111536000801b33611a8f565b611192576040517f08c379a000000000000000000000000000000000000000000000000000000000815260040161118990614aae565b60405180910390fd5b8060068190555050565b6111c67fe2b7fb3b832174769106daebcfd6d1970523240dda11281102db9363b83b0dc433611a8f565b806111f757506111f67fd8aa0f3194971a2a116679f7c2090f6939c8d4e01a2a8d7e41d55e5351469e6333611a8f565b5b8061120b575061120a6000801b33611a8f565b5b61124a576040517f08c379a0000000000000000000000000000000000000000000000000000000008152600401611241906149ee565b60405180910390fd5b611252612c4b565b60006008600083815260200190815260200160002060009054906101000a900473ffffffffffffffffffffffffffffffffffffffff16905060008660ff1660088767ffffffffffffffff1668ffffffffffffffffff16901b17905060008286866040516020016112c493929190614593565b6040516020818303038152906040528051906020012090506000600a60008468ffffffffffffffffff1668ffffffffffffffffff1681526020019081526020016000206000838152602001908152602001600020905084816000015414611360576040517f08c379a000000000000000000000000000000000000000000000000000000000815260040161135790614a0e565b60405180910390fd5b6002600481111561136d57fe5b8160040160009054906101000a900460ff16600481111561138a57fe5b146113ca576040517f08c379a00000000000000000000000000000000000000000000000000000000081526004016113c190614a4e565b60405180910390fd5b6113d5878787612e15565b611414576040517f08c379a000000000000000000000000000000000000000000000000000000000815260040161140b9061490e565b60405180910390fd5b60038160040160006101000a81548160ff0219169083600481111561143557fe5b02179055506003600481111561144757fe5b8867ffffffffffffffff168a60ff167f803c5a12f6bde629cea32e63d4b92d1b560816a6fb72e939d3c89e1cab65041788866040516114879291906146ce565b60405180910390a4505050505050505050565b6114a76000801b33611a8f565b6114e6576040517f08c379a00000000000000000000000000000000000000000000000000000000081526004016114dd90614aae565b60405180910390fd5b81819050848490501461152e576040517f08c379a00000000000000000000000000000000000000000000000000000000081526004016115259061484e565b60405180910390fd5b600084849050905060005b818110156115c75785858281811061154d57fe5b905060200201602081019061156291906135e1565b73ffffffffffffffffffffffffffffffffffffffff166108fc85858481811061158757fe5b905060200201359081150290604051600060405180830381858888f193505050501580156115b9573d6000803e3d6000fd5b508080600101915050611539565b505050505050565b60076020528060005260406000206000915054906101000a900467ffffffffffffffff1681565b6116036000801b33611a8f565b611642576040517f08c379a000000000000000000000000000000000000000000000000000000000815260040161163990614aae565b60405180910390fd5b80600381905550807fa20d6b84cd798a24038be305eff8a45ca82ef54a2aa2082005d8e14c0a4746c860405160405180910390a250565b600a602052816000526040600020602052806000526040600020600091509150508060000154908060010154908060040160009054906101000a900460ff16908060050154905084565b60006116ef7fe2b7fb3b832174769106daebcfd6d1970523240dda11281102db9363b83b0dc483611a8f565b9050919050565b60008060009054906101000a900460ff16905090565b6117196000801b33611a8f565b611758576040517f08c379a000000000000000000000000000000000000000000000000000000000815260040161174f90614aae565b60405180910390fd5b6117656000801b82610f92565b6117726000801b33611006565b50565b6117826000801b33611a8f565b6117c1576040517f08c379a00000000000000000000000000000000000000000000000000000000081526004016117b890614aae565b60405180910390fd5b60008490508073ffffffffffffffffffffffffffffffffffffffff1663d9caed128585856040518463ffffffff1660e01b8152600401611803939291906145f3565b600060405180830381600087803b15801561181d57600080fd5b505af1158015611831573d6000803e3d6000fd5b505050505050505050565b600b602052826000526040600020602052816000526040600020602052806000526040600020600092509250509054906101000a900460ff1681565b6118856000801b33611a8f565b6118c4576040517f08c379a00000000000000000000000000000000000000000000000000000000081526004016118bb90614aae565b60405180910390fd5b6118cc612ed1565b565b60086020528060005260406000206000915054906101000a900473ffffffffffffffffffffffffffffffffffffffff1681565b61190e6000801b33611a8f565b61194d576040517f08c379a000000000000000000000000000000000000000000000000000000000815260040161194490614aae565b60405180910390fd5b60008290508073ffffffffffffffffffffffffffffffffffffffff166307b7ed99836040518263ffffffff1660e01b815260040161198b91906145bd565b600060405180830381600087803b1580156119a557600080fd5b505af11580156119b9573d6000803e3d6000fd5b50505050505050565b60006119ec8260016000868152602001908152602001600020600001612f2c90919063ffffffff16565b905092915050565b611a016000801b33611a8f565b611a40576040517f08c379a0000000000000000000000000000000000000000000000000000000008152600401611a3790614aae565b60405180910390fd5b806005541415611a85576040517f08c379a0000000000000000000000000000000000000000000000000000000008152600401611a7c90614ace565b60405180910390fd5b8060058190555050565b6000611ab98260016000868152602001908152602001600020600001612c1b90919063ffffffff16565b905092915050565b7fe2b7fb3b832174769106daebcfd6d1970523240dda11281102db9363b83b0dc481565b60045481565b611af86000801b33611a8f565b611b37576040517f08c379a0000000000000000000000000000000000000000000000000000000008152600401611b2e90614aae565b60405180910390fd5b611b617fe2b7fb3b832174769106daebcfd6d1970523240dda11281102db9363b83b0dc482611a8f565b611ba0576040517f08c379a0000000000000000000000000000000000000000000000000000000008152600401611b97906148ce565b60405180910390fd5b611bca7fe2b7fb3b832174769106daebcfd6d1970523240dda11281102db9363b83b0dc4826129ff565b50565b6000801b81565b611bdc613309565b60008460ff1660088567ffffffffffffffff1668ffffffffffffffffff16901b179050600a60008268ffffffffffffffffff1668ffffffffffffffffff16815260200190815260200160002060008481526020019081526020016000206040518060c0016040529081600082015481526020016001820154815260200160028201805480602002602001604051908101604052809291908181526020018280548015611cdd57602002820191906000526020600020905b8160009054906101000a900473ffffffffffffffffffffffffffffffffffffffff1673ffffffffffffffffffffffffffffffffffffffff1681526020019060010190808311611c93575b5050505050815260200160038201805480602002602001604051908101604052809291908181526020018280548015611d6b57602002820191906000526020600020905b8160009054906101000a900473ffffffffffffffffffffffffffffffffffffffff1673ffffffffffffffffffffffffffffffffffffffff1681526020019060010190808311611d21575b505050505081526020016004820160009054906101000a900460ff166004811115611d9257fe5b6004811115611d9d57fe5b81526020016005820154815250509150509392505050565b611ddf7fe2b7fb3b832174769106daebcfd6d1970523240dda11281102db9363b83b0dc433611a8f565b611e1e576040517f08c379a0000000000000000000000000000000000000000000000000000000008152600401611e1590614a8e565b60405180910390fd5b611e487fd8aa0f3194971a2a116679f7c2090f6939c8d4e01a2a8d7e41d55e5351469e6382611a8f565b15611e88576040517f08c379a0000000000000000000000000000000000000000000000000000000008152600401611e7f90614a2e565b60405180910390fd5b611eb27fd8aa0f3194971a2a116679f7c2090f6939c8d4e01a2a8d7e41d55e5351469e6382610f92565b50565b600260009054906101000a900460ff1681565b611ef27fe2b7fb3b832174769106daebcfd6d1970523240dda11281102db9363b83b0dc433611a8f565b611f31576040517f08c379a0000000000000000000000000000000000000000000000000000000008152600401611f2890614a8e565b60405180910390fd5b611f39612c4b565b60006008600085815260200190815260200160002060009054906101000a900473ffffffffffffffffffffffffffffffffffffffff1690506000818484604051602001611f8893929190614593565b60405160208183030381529060405280519060200120905060008760ff1660088867ffffffffffffffff1668ffffffffffffffffff16901b1790506000600a60008368ffffffffffffffffff1668ffffffffffffffffff16815260200190815260200160002060008481526020019081526020016000209050600073ffffffffffffffffffffffffffffffffffffffff166008600089815260200190815260200160002060009054906101000a900473ffffffffffffffffffffffffffffffffffffffff1673ffffffffffffffffffffffffffffffffffffffff1614156120a4576040517f08c379a000000000000000000000000000000000000000000000000000000000815260040161209b90614aee565b60405180910390fd5b60018160040160009054906101000a900460ff1660048111156120c357fe5b1115612104576040517f08c379a00000000000000000000000000000000000000000000000000000000081526004016120fb90614a6e565b60405180910390fd5b600b60008368ffffffffffffffffff1668ffffffffffffffffff168152602001908152602001600020600084815260200190815260200160002060003373ffffffffffffffffffffffffffffffffffffffff1673ffffffffffffffffffffffffffffffffffffffff16815260200190815260200160002060009054906101000a900460ff16156121c9576040517f08c379a00000000000000000000000000000000000000000000000000000000081526004016121c09061488e565b60405180910390fd5b60008160040160009054906101000a900460ff1660048111156121e857fe5b141561243657600460008154600101919050819055506040518060c00160405280888152602001848152602001600167ffffffffffffffff8111801561222d57600080fd5b5060405190808252806020026020018201604052801561225c5781602001602082028036833780820191505090505b508152602001600067ffffffffffffffff8111801561227a57600080fd5b506040519080825280602002602001820160405280156122a95781602001602082028036833780820191505090505b508152602001600160048111156122bc57fe5b815260200143815250600a60008468ffffffffffffffffff1668ffffffffffffffffff16815260200190815260200160002060008581526020019081526020016000206000820151816000015560208201518160010155604082015181600201908051906020019061232f929190613350565b50606082015181600301908051906020019061234c929190613350565b5060808201518160040160006101000a81548160ff0219169083600481111561237157fe5b021790555060a08201518160050155905050338160020160008154811061239457fe5b9060005260206000200160006101000a81548173ffffffffffffffffffffffffffffffffffffffff021916908373ffffffffffffffffffffffffffffffffffffffff160217905550600160048111156123e957fe5b8867ffffffffffffffff168a60ff167f803c5a12f6bde629cea32e63d4b92d1b560816a6fb72e939d3c89e1cab6504178a876040516124299291906146ce565b60405180910390a4612579565b600654612447438360050154612c9b565b11156124cc5760048160040160006101000a81548160ff0219169083600481111561246e57fe5b021790555060048081111561247f57fe5b8867ffffffffffffffff168a60ff167f803c5a12f6bde629cea32e63d4b92d1b560816a6fb72e939d3c89e1cab6504178a876040516124bf9291906146ce565b60405180910390a4612578565b86816000015414612512576040517f08c379a00000000000000000000000000000000000000000000000000000000081526004016125099061492e565b60405180910390fd5b80600201339080600181540180825580915050600190039060005260206000200160009091909190916101000a81548173ffffffffffffffffffffffffffffffffffffffff021916908373ffffffffffffffffffffffffffffffffffffffff1602179055505b5b60048081111561258557fe5b8160040160009054906101000a900460ff1660048111156125a257fe5b146127c8576001600b60008468ffffffffffffffffff1668ffffffffffffffffff168152602001908152602001600020600085815260200190815260200160002060003373ffffffffffffffffffffffffffffffffffffffff1673ffffffffffffffffffffffffffffffffffffffff16815260200190815260200160002060006101000a81548160ff0219169083151502179055508060040160009054906101000a900460ff16600481111561265457fe5b8867ffffffffffffffff168a60ff167f25f8daaa4635a7729927ba3f5b3d59cc3320aca7c32c9db4e7ca7b95743436408a6040516126929190614645565b60405180910390a460016003541115806126b55750600354816002018054905010155b156127c7576126c5868689612e15565b1561274a5760038160040160006101000a81548160ff021916908360048111156126eb57fe5b0217905550600360048111156126fd57fe5b8867ffffffffffffffff168a60ff167f803c5a12f6bde629cea32e63d4b92d1b560816a6fb72e939d3c89e1cab6504178a8760405161273d9291906146ce565b60405180910390a46127c6565b60028160040160006101000a81548160ff0219169083600481111561276b57fe5b02179055506002600481111561277d57fe5b8867ffffffffffffffff168a60ff167f803c5a12f6bde629cea32e63d4b92d1b560816a6fb72e939d3c89e1cab6504178a876040516127bd9291906146ce565b60405180910390a45b5b5b505050505050505050565b60055481565b60065481565b60006127ff60016000848152602001908152602001600020600001612f46565b9050919050565b6128136000801b33611a8f565b612852576040517f08c379a000000000000000000000000000000000000000000000000000000000815260040161284990614aae565b60405180910390fd5b826008600084815260200190815260200160002060006101000a81548173ffffffffffffffffffffffffffffffffffffffff021916908373ffffffffffffffffffffffffffffffffffffffff16021790555060008390508073ffffffffffffffffffffffffffffffffffffffff1663b8fa373684846040518363ffffffff1660e01b81526004016128e4929190614660565b600060405180830381600087803b1580156128fe57600080fd5b505af1158015612912573d6000803e3d6000fd5b5050505050505050565b6129296000801b33611a8f565b612968576040517f08c379a000000000000000000000000000000000000000000000000000000000815260040161295f90614aae565b60405180910390fd5b6129927fe2b7fb3b832174769106daebcfd6d1970523240dda11281102db9363b83b0dc482611a8f565b156129d2576040517f08c379a00000000000000000000000000000000000000000000000000000000081526004016129c990614a2e565b60405180910390fd5b6129fc7fe2b7fb3b832174769106daebcfd6d1970523240dda11281102db9363b83b0dc482610f92565b50565b612a266001600084815260200190815260200160002060020154612a21612ce5565b611a8f565b612a65576040517f08c379a0000000000000000000000000000000000000000000000000000000008152600401612a5c9061498e565b60405180910390fd5b612a6f8282612d81565b5050565b60035481565b612a866000801b33611a8f565b612ac5576040517f08c379a0000000000000000000000000000000000000000000000000000000008152600401612abc90614aae565b60405180910390fd5b846008600086815260200190815260200160002060006101000a81548173ffffffffffffffffffffffffffffffffffffffff021916908373ffffffffffffffffffffffffffffffffffffffff16021790555060008590508073ffffffffffffffffffffffffffffffffffffffff1663bba8185a868686866040518563ffffffff1660e01b8152600401612b5b9493929190614689565b600060405180830381600087803b158015612b7557600080fd5b505af1158015612b89573d6000803e3d6000fd5b50505050505050505050565b612ba26000801b33611a8f565b612be1576040517f08c379a0000000000000000000000000000000000000000000000000000000008152600401612bd890614aae565b60405180910390fd5b612be9612f5b565b565b6000612c13836000018373ffffffffffffffffffffffffffffffffffffffff1660001b612fb6565b905092915050565b6000612c43836000018373ffffffffffffffffffffffffffffffffffffffff1660001b613026565b905092915050565b60008054906101000a900460ff1615612c99576040517f08c379a0000000000000000000000000000000000000000000000000000000008152600401612c90906149ce565b60405180910390fd5b565b6000612cdd83836040518060400160405280601e81526020017f536166654d6174683a207375627472616374696f6e206f766572666c6f770000815250613049565b905092915050565b600033905090565b612d158160016000858152602001908152602001600020600001612beb90919063ffffffff16565b15612d7d57612d22612ce5565b73ffffffffffffffffffffffffffffffffffffffff168173ffffffffffffffffffffffffffffffffffffffff16837f2f8788117e7eff1d82e926ec794901d17c78024a50270940304540a733656f0d60405160405180910390a45b5050565b612da981600160008581526020019081526020016000206000016130a490919063ffffffff16565b15612e1157612db6612ce5565b73ffffffffffffffffffffffffffffffffffffffff168173ffffffffffffffffffffffffffffffffffffffff16837ff6391f5c32d9c69d2a47ea670b442974b53935d1edc7fd64eb21e047a839171b60405160405180910390a45b5050565b6000806008600084815260200190815260200160002060009054906101000a900473ffffffffffffffffffffffffffffffffffffffff1690508073ffffffffffffffffffffffffffffffffffffffff1663e248cff28487876040518463ffffffff1660e01b8152600401612e8b9392919061473c565b600060405180830381600087803b158015612ea557600080fd5b505af1925050508015612eb6575060015b612ec4576000915050612eca565b60019150505b9392505050565b612ed9612c4b565b60016000806101000a81548160ff0219169083151502179055507f62e78cea01bee320cd4e420270b5ea74000d11b0c9f74754ebdbfc544b05a25833604051612f2291906145d8565b60405180910390a1565b6000612f3b83600001836130d4565b60001c905092915050565b6000612f5482600001613141565b9050919050565b612f63613152565b60008060006101000a81548160ff0219169083151502179055507f5db9ee0a495bf2e6ff9c91a7834c1ba4fdd244a5e8aa4e537bd38aeae4b073aa33604051612fac91906145d8565b60405180910390a1565b6000612fc28383613026565b61301b578260000182908060018154018082558091505060019003906000526020600020016000909190919091505582600001805490508360010160008481526020019081526020016000208190555060019050613020565b600090505b92915050565b600080836001016000848152602001908152602001600020541415905092915050565b6000838311158290613091576040517f08c379a000000000000000000000000000000000000000000000000000000000815260040161308891906147ec565b60405180910390fd5b5060008385039050809150509392505050565b60006130cc836000018373ffffffffffffffffffffffffffffffffffffffff1660001b6131a1565b905092915050565b60008183600001805490501161311f576040517f08c379a00000000000000000000000000000000000000000000000000000000081526004016131169061480e565b60405180910390fd5b82600001828154811061312e57fe5b9060005260206000200154905092915050565b600081600001805490509050919050565b60008054906101000a900460ff1661319f576040517f08c379a0000000000000000000000000000000000000000000000000000000008152600401613196906148ae565b60405180910390fd5b565b6000808360010160008481526020019081526020016000205490506000811461327d57600060018203905060006001866000018054905003905060008660000182815481106131ec57fe5b906000526020600020015490508087600001848154811061320957fe5b906000526020600020018190555060018301876001016000838152602001908152602001600020819055508660000180548061324157fe5b60019003818190600052602060002001600090559055866001016000878152602001908152602001600020600090556001945050505050613283565b60009150505b92915050565b828054600181600116156101000203166002900490600052602060002090601f016020900481019282601f106132ca57803560ff19168380011785556132f8565b828001600101855582156132f8579182015b828111156132f75782358255916020019190600101906132dc565b5b50905061330591906133da565b5090565b6040518060c00160405280600080191681526020016000801916815260200160608152602001606081526020016000600481111561334357fe5b8152602001600081525090565b8280548282559060005260206000209081019282156133c9579160200282015b828111156133c85782518260006101000a81548173ffffffffffffffffffffffffffffffffffffffff021916908373ffffffffffffffffffffffffffffffffffffffff16021790555091602001919060010190613370565b5b5090506133d691906133f7565b5090565b5b808211156133f35760008160009055506001016133db565b5090565b5b8082111561342e57600081816101000a81549073ffffffffffffffffffffffffffffffffffffffff0219169055506001016133f8565b5090565b60008135905061344181614dcf565b92915050565b60008135905061345681614de6565b92915050565b60008083601f84011261346e57600080fd5b8235905067ffffffffffffffff81111561348757600080fd5b60208301915083602082028301111561349f57600080fd5b9250929050565b60008083601f8401126134b857600080fd5b8235905067ffffffffffffffff8111156134d157600080fd5b6020830191508360208202830111156134e957600080fd5b9250929050565b6000813590506134ff81614dfd565b92915050565b60008135905061351481614e14565b92915050565b60008083601f84011261352c57600080fd5b8235905067ffffffffffffffff81111561354557600080fd5b60208301915083600182028301111561355d57600080fd5b9250929050565b60008135905061357381614e2b565b92915050565b60008135905061358881614e42565b92915050565b60008135905061359d81614e59565b92915050565b6000813590506135b281614e70565b92915050565b6000602082840312156135ca57600080fd5b60006135d884828501613432565b91505092915050565b6000602082840312156135f357600080fd5b600061360184828501613447565b91505092915050565b6000806040838503121561361d57600080fd5b600061362b85828601613432565b925050602061363c85828601613432565b9150509250929050565b6000806000806080858703121561365c57600080fd5b600061366a87828801613432565b945050602061367b87828801613432565b935050604061368c87828801613432565b925050606061369d87828801613564565b91505092959194509250565b6000806000606084860312156136be57600080fd5b60006136cc86828701613432565b93505060206136dd868287016134f0565b92505060406136ee86828701613432565b9150509250925092565b600080600080600060a0868803121561371057600080fd5b600061371e88828901613432565b955050602061372f888289016134f0565b945050604061374088828901613432565b935050606061375188828901613505565b925050608061376288828901613505565b9150509295509295909350565b6000806000806040858703121561378557600080fd5b600085013567ffffffffffffffff81111561379f57600080fd5b6137ab8782880161345c565b9450945050602085013567ffffffffffffffff8111156137ca57600080fd5b6137d6878288016134a6565b925092505092959194509250565b6000602082840312156137f657600080fd5b6000613804848285016134f0565b91505092915050565b6000806040838503121561382057600080fd5b600061382e858286016134f0565b925050602061383f85828601613432565b9150509250929050565b6000806040838503121561385c57600080fd5b600061386a858286016134f0565b925050602061387b85828601613564565b9150509250929050565b60006020828403121561389757600080fd5b60006138a584828501613564565b91505092915050565b600080604083850312156138c157600080fd5b60006138cf85828601613579565b92505060206138e0858286016135a3565b9150509250929050565b600080604083850312156138fd57600080fd5b600061390b8582860161358e565b925050602061391c858286016134f0565b9150509250929050565b60008060006060848603121561393b57600080fd5b60006139498682870161358e565b935050602061395a868287016134f0565b925050604061396b86828701613432565b9150509250925092565b60006020828403121561398757600080fd5b6000613995848285016135a3565b91505092915050565b600080600080606085870312156139b457600080fd5b60006139c2878288016135a3565b94505060206139d3878288016134f0565b935050604085013567ffffffffffffffff8111156139f057600080fd5b6139fc8782880161351a565b925092505092959194509250565b600080600060608486031215613a1f57600080fd5b6000613a2d868287016135a3565b9350506020613a3e86828701613579565b9250506040613a4f868287016134f0565b9150509250925092565b600080600080600060808688031215613a7157600080fd5b6000613a7f888289016135a3565b9550506020613a9088828901613579565b9450506040613aa1888289016134f0565b935050606086013567ffffffffffffffff811115613abe57600080fd5b613aca8882890161351a565b92509250509295509295909350565b600080600080600060808688031215613af157600080fd5b6000613aff888289016135a3565b9550506020613b1088828901613579565b945050604086013567ffffffffffffffff811115613b2d57600080fd5b613b398882890161351a565b93509350506060613b4c888289016134f0565b9150509295509295909350565b6000613b658383613b80565b60208301905092915050565b613b7a81614cf6565b82525050565b613b8981614c1d565b82525050565b613b9881614c1d565b82525050565b613baf613baa82614c1d565b614d80565b82525050565b6000613bc082614bb1565b613bca8185614bdf565b9350613bd583614ba1565b8060005b83811015613c06578151613bed8882613b59565b9750613bf883614bd2565b925050600181019050613bd9565b5085935050505092915050565b613c1c81614c41565b82525050565b613c2b81614c4d565b82525050565b613c3a81614c4d565b82525050565b613c4981614c57565b82525050565b6000613c5b8385614bf0565b9350613c68838584614d3e565b613c7183614da4565b840190509392505050565b6000613c888385614c01565b9350613c95838584614d3e565b82840190509392505050565b6000613cac82614bbc565b613cb68185614bf0565b9350613cc6818560208601614d4d565b613ccf81614da4565b840191505092915050565b613ce381614d08565b82525050565b613cf281614d08565b82525050565b6000613d0382614bc7565b613d0d8185614c0c565b9350613d1d818560208601614d4d565b613d2681614da4565b840191505092915050565b6000613d3e602283614c0c565b91507f456e756d657261626c655365743a20696e646578206f7574206f6620626f756e60008301527f64730000000000000000000000000000000000000000000000000000000000006020830152604082019050919050565b6000613da4601e83614c0c565b91507f73656e646572206973206e6f742072656c61796572206f722061646d696e00006000830152602082019050919050565b6000613de4602683614c0c565b91507f6c656e677468206f66206164647265737320616e6420616d6f756e747320646960008301527f736d6174636800000000000000000000000000000000000000000000000000006020830152604082019050919050565b6000613e4a602f83614c0c565b91507f416363657373436f6e74726f6c3a2073656e646572206d75737420626520616e60008301527f2061646d696e20746f206772616e7400000000000000000000000000000000006020830152604082019050919050565b6000613eb0601583614c0c565b91507f72656c6179657220616c726561647920766f74656400000000000000000000006000830152602082019050919050565b6000613ef0601483614c0c565b91507f5061757361626c653a206e6f74207061757365640000000000000000000000006000830152602082019050919050565b6000613f30601f83614c0c565b91507f6164647220646f65736e277420686176652072656c6179657220726f6c6521006000830152602082019050919050565b6000613f70601683614c0c565b91507f496e636f72726563742066656520737570706c696564000000000000000000006000830152602082019050919050565b6000613fb0601883614c0c565b91507f457865637574696f6e206e6f74207375636365737366756c00000000000000006000830152602082019050919050565b6000613ff0603183614c0c565b91507f4368656174696e67205269736b3b2052656c6179657220766f7465207769746860008301527f2077726f6e67207265736f7572636549440000000000000000000000000000006020830152604082019050919050565b6000614056601a83614c0c565b91507f50726f706f73616c20616c72656164792063616e63656c6c65640000000000006000830152602082019050919050565b6000614096602083614c0c565b91507f7265736f757263654944206e6f74206d617070656420746f2068616e646c65726000830152602082019050919050565b60006140d6603083614c0c565b91507f416363657373436f6e74726f6c3a2073656e646572206d75737420626520616e60008301527f2061646d696e20746f207265766f6b65000000000000000000000000000000006020830152604082019050919050565b600061413c602083614c0c565b91507f50726f706f73616c206e6f7420617420657870697279207468726573686f6c646000830152602082019050919050565b600061417c601083614c0c565b91507f5061757361626c653a20706175736564000000000000000000000000000000006000830152602082019050919050565b60006141bc602183614c0c565b91507f73656e64657220646f65736e27742068617665206578656375746f7220726f6c60008301527f65000000000000000000000000000000000000000000000000000000000000006020830152604082019050919050565b6000614222601183614c0c565b91507f77726f6e67207265736f757263652069640000000000000000000000000000006000830152602082019050919050565b6000614262601e83614c0c565b91507f6164647220616c7265616479206861732072656c6179657220726f6c652100006000830152602082019050919050565b60006142a2602e83614c0c565b91507f70726f706f73616c20616c7265616479207472616e736665727265642f6e6f7460008301527f2066696e616c697a6564207965740000000000000000000000000000000000006020830152604082019050919050565b6000614308602a83614c0c565b91507f70726f706f73616c20616c7265616479207061737365642f657865637574656460008301527f2f63616e63656c6c6564000000000000000000000000000000000000000000006020830152604082019050919050565b600061436e602083614c0c565b91507f73656e64657220646f65736e277420686176652072656c6179657220726f6c656000830152602082019050919050565b60006143ae601e83614c0c565b91507f73656e64657220646f65736e277420686176652061646d696e20726f6c6500006000830152602082019050919050565b60006143ee601f83614c0c565b91507f43757272656e742066656520697320657175616c20746f206e657720666565006000830152602082019050919050565b600061442e601983614c0c565b91507f6e6f2068616e646c657220666f72207265736f757263654944000000000000006000830152602082019050919050565b600061446e602f83614c0c565b91507f416363657373436f6e74726f6c3a2063616e206f6e6c792072656e6f756e636560008301527f20726f6c657320666f722073656c6600000000000000000000000000000000006020830152604082019050919050565b600060c0830160008301516144df6000860182613c22565b5060208301516144f26020860182613c22565b506040830151848203604086015261450a8282613bb5565b915050606083015184820360608601526145248282613bb5565b91505060808301516145396080860182613cda565b5060a083015161454c60a0860182614557565b508091505092915050565b61456081614cb6565b82525050565b61456f81614cb6565b82525050565b61457e81614cc0565b82525050565b61458d81614ce9565b82525050565b600061459f8286613b9e565b6014820191506145b0828486613c7c565b9150819050949350505050565b60006020820190506145d26000830184613b8f565b92915050565b60006020820190506145ed6000830184613b71565b92915050565b60006060820190506146086000830186613b8f565b6146156020830185613b8f565b6146226040830184614566565b949350505050565b600060208201905061463f6000830184613c13565b92915050565b600060208201905061465a6000830184613c31565b92915050565b60006040820190506146756000830185613c31565b6146826020830184613b8f565b9392505050565b600060808201905061469e6000830187613c31565b6146ab6020830186613b8f565b6146b86040830185613c40565b6146c56060830184613c40565b95945050505050565b60006040820190506146e36000830185613c31565b6146f06020830184613c31565b9392505050565b600060808201905061470c6000830187613c31565b6147196020830186613c31565b6147266040830185613ce9565b6147336060830184614566565b95945050505050565b60006040820190506147516000830186613c31565b8181036020830152614764818486613c4f565b9050949350505050565b600060a0820190506147836000830189613c31565b6147906020830188614584565b61479d6040830187614575565b6147aa6060830186613b71565b81810360808301526147bd818486613c4f565b9050979650505050505050565b600060208201905081810360008301526147e48184613ca1565b905092915050565b600060208201905081810360008301526148068184613cf8565b905092915050565b6000602082019050818103600083015261482781613d31565b9050919050565b6000602082019050818103600083015261484781613d97565b9050919050565b6000602082019050818103600083015261486781613dd7565b9050919050565b6000602082019050818103600083015261488781613e3d565b9050919050565b600060208201905081810360008301526148a781613ea3565b9050919050565b600060208201905081810360008301526148c781613ee3565b9050919050565b600060208201905081810360008301526148e781613f23565b9050919050565b6000602082019050818103600083015261490781613f63565b9050919050565b6000602082019050818103600083015261492781613fa3565b9050919050565b6000602082019050818103600083015261494781613fe3565b9050919050565b6000602082019050818103600083015261496781614049565b9050919050565b6000602082019050818103600083015261498781614089565b9050919050565b600060208201905081810360008301526149a7816140c9565b9050919050565b600060208201905081810360008301526149c78161412f565b9050919050565b600060208201905081810360008301526149e78161416f565b9050919050565b60006020820190508181036000830152614a07816141af565b9050919050565b60006020820190508181036000830152614a2781614215565b9050919050565b60006020820190508181036000830152614a4781614255565b9050919050565b60006020820190508181036000830152614a6781614295565b9050919050565b60006020820190508181036000830152614a87816142fb565b9050919050565b60006020820190508181036000830152614aa781614361565b9050919050565b60006020820190508181036000830152614ac7816143a1565b9050919050565b60006020820190508181036000830152614ae7816143e1565b9050919050565b60006020820190508181036000830152614b0781614421565b9050919050565b60006020820190508181036000830152614b2781614461565b9050919050565b60006020820190508181036000830152614b4881846144c7565b905092915050565b6000602082019050614b656000830184614566565b92915050565b6000602082019050614b806000830184614575565b92915050565b6000602082019050614b9b6000830184614584565b92915050565b6000819050602082019050919050565b600081519050919050565b600081519050919050565b600081519050919050565b6000602082019050919050565b600082825260208201905092915050565b600082825260208201905092915050565b600081905092915050565b600082825260208201905092915050565b6000614c2882614c96565b9050919050565b6000614c3a82614c96565b9050919050565b60008115159050919050565b6000819050919050565b60007fffffffff0000000000000000000000000000000000000000000000000000000082169050919050565b6000819050614c9182614dc2565b919050565b600073ffffffffffffffffffffffffffffffffffffffff82169050919050565b6000819050919050565b600067ffffffffffffffff82169050919050565b600068ffffffffffffffffff82169050919050565b600060ff82169050919050565b6000614d0182614d1a565b9050919050565b6000614d1382614c83565b9050919050565b6000614d2582614d2c565b9050919050565b6000614d3782614c96565b9050919050565b82818337600083830152505050565b60005b83811015614d6b578082015181840152602081019050614d50565b83811115614d7a576000848401525b50505050565b6000614d8b82614d92565b9050919050565b6000614d9d82614db5565b9050919050565b6000601f19601f8301169050919050565b60008160601b9050919050565b60058110614dcc57fe5b50565b614dd881614c1d565b8114614de357600080fd5b50565b614def81614c2f565b8114614dfa57600080fd5b50565b614e0681614c4d565b8114614e1157600080fd5b50565b614e1d81614c57565b8114614e2857600080fd5b50565b614e3481614cb6565b8114614e3f57600080fd5b50565b614e4b81614cc0565b8114614e5657600080fd5b50565b614e6281614cd4565b8114614e6d57600080fd5b50565b614e7981614ce9565b8114614e8457600080fd5b5056fea2646970667358221220207ef15f9bfb8536da3f4e910fdf11be993e28586eb524cc0258f5be860a891764736f6c63430007000033",
  "immutableReferences": {},
  "source": "// SPDX-License-Identifier: MIT\r\npragma solidity 0.7.0;\r\npragma experimental ABIEncoderV2;\r\n\r\nimport \"@openzeppelin/contracts/access/AccessControl.sol\";\r\nimport \"./utils/Pausable.sol\";\r\nimport \"./utils/SafeMath.sol\";\r\nimport \"./interfaces/IDepositExecute.sol\";\r\nimport \"./interfaces/IBridge.sol\";\r\nimport \"./interfaces/IERCHandler.sol\";\r\nimport \"./interfaces/IGenericHandler.sol\";\r\n\r\n/**\r\n    @title Facilitates deposits, creation and votiing of deposit proposals, and deposit executions.\r\n    @author ChainSafe Systems.\r\n */\r\ncontract Bridge is Pausable, AccessControl, SafeMath {\r\n\r\n    uint8   public _chainID;\r\n    uint256 public _relayerThreshold;\r\n\r\n    // // This parameter is safe to be removed and duplicate to getRoleMemberCount(bytes32) \r\n    // uint256 public _totalRelayers;\r\n    uint256 public _totalProposals;\r\n    uint256 public _fee;\r\n    uint256 public _expiry;\r\n\r\n    enum Vote {No, Yes}\r\n\r\n    enum ProposalStatus {Inactive, Active, Passed, Executed, Cancelled}\r\n\r\n    struct Proposal {\r\n        bytes32 _resourceID;\r\n        bytes32 _dataHash;\r\n        address[] _yesVotes;\r\n        address[] _noVotes;\r\n        ProposalStatus _status;\r\n        uint256 _proposedBlock;\r\n    }\r\n\r\n    // destinationChainID => number of deposits\r\n    mapping(uint8 => uint64) public _depositCounts;\r\n    // resourceID => handler address\r\n    mapping(bytes32 => address) public _resourceIDToHandlerAddress;\r\n    // depositNonce => destinationChainID => bytes\r\n    mapping(uint64 => mapping(uint8 => bytes)) public _depositRecords;\r\n    // destinationChainID + depositNonce => dataHash => Proposal\r\n    mapping(uint72 => mapping(bytes32 => Proposal)) public _proposals;\r\n    // destinationChainID + depositNonce => dataHash => relayerAddress => bool\r\n    mapping(uint72 => mapping(bytes32 => mapping(address => bool))) public _hasVotedOnProposal;\r\n\r\n    event RelayerThresholdChanged(uint indexed newThreshold);\r\n    // // Save gas fee since contract will generate event RoleGranted(role, account, _msgSender())\r\n    // // When add/remove any role \r\n    // // TODO: Clean up the comment\r\n    // event RelayerAdded(address indexed relayer);\r\n    // event RelayerRemoved(address indexed relayer);\r\n    event Deposit(\r\n        uint8   indexed destinationChainID,\r\n        bytes32 indexed resourceID,\r\n        uint64  indexed depositNonce\r\n    );\r\n    event ProposalEvent(\r\n        uint8           indexed originChainID,\r\n        uint64          indexed depositNonce,\r\n        ProposalStatus  indexed status,\r\n        bytes32 resourceID,\r\n        bytes32 dataHash\r\n    );\r\n\r\n    event ProposalVote(\r\n        uint8   indexed originChainID,\r\n        uint64  indexed depositNonce,\r\n        ProposalStatus indexed status,\r\n        bytes32 resourceID\r\n    );\r\n\r\n    bytes32 public constant RELAYER_ROLE = keccak256(\"RELAYER_ROLE\");\r\n    bytes32 public constant EXECUTOR_ROLE = keccak256(\"EXECUTOR_ROLE\");\r\n\r\n    modifier onlyAdmin() {\r\n        require(hasRole(DEFAULT_ADMIN_ROLE, msg.sender), \"sender doesn't have admin role\");\r\n        _;\r\n    }\r\n\r\n    modifier onlyAdminOrRelayer() {\r\n        require(hasRole(DEFAULT_ADMIN_ROLE, msg.sender) || hasRole(RELAYER_ROLE, msg.sender),\r\n            \"sender is not relayer or admin\");\r\n        _;\r\n    }\r\n\r\n    modifier onlyRelayers() {\r\n        require(hasRole(RELAYER_ROLE, msg.sender), \"sender doesn't have relayer role\");\r\n        _;\r\n    }\r\n\r\n    modifier onlyExecutorOrAbove() {\r\n        require(hasRole(RELAYER_ROLE, msg.sender) || hasRole(EXECUTOR_ROLE, msg.sender) || hasRole(DEFAULT_ADMIN_ROLE, msg.sender), \"sender doesn't have executor role\");\r\n        _;\r\n    }\r\n\r\n    /**\r\n        @notice Initializes Bridge, creates and grants {msg.sender} the admin role,\r\n        creates and grants {initialRelayers} the relayer role.\r\n        @param chainID ID of chain the Bridge contract exists on.\r\n        @param initialRelayers Addresses that should be initially granted the relayer role.\r\n        @param initialRelayerThreshold Number of votes needed for a deposit proposal to be considered passed.\r\n     */\r\n    constructor (uint8 chainID, address[] memory initialRelayers, uint initialRelayerThreshold, uint256 fee, uint256 expiry) {\r\n        _chainID = chainID;\r\n        _relayerThreshold = initialRelayerThreshold;\r\n        _fee = fee;\r\n        _expiry = expiry;\r\n\r\n        _setupRole(DEFAULT_ADMIN_ROLE, msg.sender);\r\n        _setRoleAdmin(RELAYER_ROLE, DEFAULT_ADMIN_ROLE);\r\n\r\n        // Relayer can add or remove External Executor\r\n        _setupRole(EXECUTOR_ROLE, msg.sender);\r\n        _setRoleAdmin(EXECUTOR_ROLE, RELAYER_ROLE);\r\n\r\n        uint initialRelayerCount = initialRelayers.length;\r\n        for (uint i; i < initialRelayerCount; i++) {\r\n            grantRole(RELAYER_ROLE, initialRelayers[i]);\r\n            // _totalRelayers++;\r\n        }\r\n\r\n    }\r\n\r\n    /**\r\n        @notice Returns true if {relayer} has the relayer role.\r\n        @param relayer Address to check.\r\n     */\r\n    function isRelayer(address relayer) external view returns (bool) {\r\n        return hasRole(RELAYER_ROLE, relayer);\r\n    }\r\n\r\n    /**\r\n        @notice Removes admin role from {msg.sender} and grants it to {newAdmin}.\r\n        @notice Only callable by an address that currently has the admin role.\r\n        @param newAdmin Address that admin role will be granted to.\r\n     */\r\n    function renounceAdmin(address newAdmin) external onlyAdmin {\r\n        grantRole(DEFAULT_ADMIN_ROLE, newAdmin);\r\n        renounceRole(DEFAULT_ADMIN_ROLE, msg.sender);\r\n    }\r\n\r\n    /**\r\n        @notice Pauses deposits, proposal creation and voting, and deposit executions.\r\n        @notice Only callable by an address that currently has the admin role.\r\n     */\r\n    function adminPauseTransfers() external onlyAdmin {\r\n        _pause();\r\n    }\r\n\r\n    /**\r\n        @notice Unpauses deposits, proposal creation and voting, and deposit executions.\r\n        @notice Only callable by an address that currently has the admin role.\r\n     */\r\n    function adminUnpauseTransfers() external onlyAdmin {\r\n        _unpause();\r\n    }\r\n\r\n    /**\r\n        @notice Modifies the number of votes required for a proposal to be considered passed.\r\n        @notice Only callable by an address that currently has the admin role.\r\n        @param newThreshold Value {_relayerThreshold} will be changed to.\r\n        @notice Emits {RelayerThresholdChanged} event.\r\n     */\r\n    function adminChangeRelayerThreshold(uint newThreshold) external onlyAdmin {\r\n        _relayerThreshold = newThreshold;\r\n        emit RelayerThresholdChanged(newThreshold);\r\n    }\r\n\r\n    /**\r\n        @notice Grants {relayerAddress} the relayer role.\r\n        @notice Only callable by an address that currently has the admin role.\r\n        @param relayerAddress Address of relayer to be added.\r\n     */\r\n    function adminAddRelayer(address relayerAddress) external onlyAdmin {\r\n        require(!hasRole(RELAYER_ROLE, relayerAddress), \"addr already has relayer role!\");\r\n        grantRole(RELAYER_ROLE, relayerAddress);\r\n        // _totalRelayers++;\r\n    }\r\n\r\n    /**\r\n        @notice Removes relayer role for {relayerAddress}.\r\n        @notice Only callable by an address that currently has the admin role.\r\n        @param relayerAddress Address of relayer to be removed.\r\n     */\r\n    function adminRemoveRelayer(address relayerAddress) external onlyAdmin {\r\n        require(hasRole(RELAYER_ROLE, relayerAddress), \"addr doesn't have relayer role!\");\r\n        revokeRole(RELAYER_ROLE, relayerAddress);\r\n        // _totalRelayers--;\r\n    }\r\n\r\n        /**\r\n        @notice Grants {executorAddress} the executor role.\r\n        @notice Only callable by an address that currently has the relayer role.\r\n        @param executorAddress Address of executor to be added.\r\n     */\r\n    function relayerAddExecutor(address executorAddress) external onlyRelayers {\r\n        require(!hasRole(EXECUTOR_ROLE, executorAddress), \"addr already has relayer role!\");\r\n        grantRole(EXECUTOR_ROLE, executorAddress);\r\n    }\r\n\r\n    /**\r\n        @notice Removes relayer role for {executorAddress}.\r\n        @notice Only callable by an address that currently has the relayer role.\r\n        @param executorAddress Address of executor to be removed.\r\n     */\r\n    function relayerRemoveExecutor(address executorAddress) external onlyRelayers {\r\n        require(hasRole(EXECUTOR_ROLE, executorAddress), \"addr doesn't have relayer role!\");\r\n        revokeRole(EXECUTOR_ROLE, executorAddress);\r\n    }\r\n\r\n    /**\r\n        @notice Sets a new resource for handler contracts that use the IERCHandler interface,\r\n        and maps the {handlerAddress} to {resourceID} in {_resourceIDToHandlerAddress}.\r\n        @notice Only callable by an address that currently has the admin role.\r\n        @param handlerAddress Address of handler resource will be set for.\r\n        @param resourceID ResourceID to be used when making deposits.\r\n        @param tokenAddress Address of contract to be called when a deposit is made and a deposited is executed.\r\n     */\r\n    function adminSetResource(address handlerAddress, bytes32 resourceID, address tokenAddress) external onlyAdmin {\r\n        _resourceIDToHandlerAddress[resourceID] = handlerAddress;\r\n        IERCHandler handler = IERCHandler(handlerAddress);\r\n        handler.setResource(resourceID, tokenAddress);\r\n    }\r\n\r\n    /**\r\n        @notice Sets a new resource for handler contracts that use the IGenericHandler interface,\r\n        and maps the {handlerAddress} to {resourceID} in {_resourceIDToHandlerAddress}.\r\n        @notice Only callable by an address that currently has the admin role.\r\n        @param handlerAddress Address of handler resource will be set for.\r\n        @param resourceID ResourceID to be used when making deposits.\r\n        @param contractAddress Address of contract to be called when a deposit is made and a deposited is executed.\r\n     */\r\n    function adminSetGenericResource(\r\n        address handlerAddress,\r\n        bytes32 resourceID,\r\n        address contractAddress,\r\n        bytes4 depositFunctionSig,\r\n        bytes4 executeFunctionSig\r\n    ) external onlyAdmin {\r\n        _resourceIDToHandlerAddress[resourceID] = handlerAddress;\r\n        IGenericHandler handler = IGenericHandler(handlerAddress);\r\n        handler.setResource(resourceID, contractAddress, depositFunctionSig, executeFunctionSig);\r\n    }\r\n\r\n    /**\r\n        @notice Sets a resource as burnable for handler contracts that use the IERCHandler interface.\r\n        @notice Only callable by an address that currently has the admin role.\r\n        @param handlerAddress Address of handler resource will be set for.\r\n        @param tokenAddress Address of contract to be called when a deposit is made and a deposited is executed.\r\n     */\r\n    function adminSetBurnable(address handlerAddress, address tokenAddress) external onlyAdmin {\r\n        IERCHandler handler = IERCHandler(handlerAddress);\r\n        handler.setBurnable(tokenAddress);\r\n    }\r\n\r\n    /**\r\n        @notice Returns a proposal.\r\n        @param originChainID Chain ID deposit originated from.\r\n        @param depositNonce ID of proposal generated by proposal's origin Bridge contract.\r\n        @param dataHash Hash of data to be provided when deposit proposal is executed.\r\n        @return Proposal which consists of:\r\n        - _dataHash Hash of data to be provided when deposit proposal is executed.\r\n        - _yesVotes Number of votes in favor of proposal.\r\n        - _noVotes Number of votes against proposal.\r\n        - _status Current status of proposal.\r\n     */\r\n    function getProposal(uint8 originChainID, uint64 depositNonce, bytes32 dataHash) external view returns (Proposal memory) {\r\n        uint72 nonceAndID = (uint72(depositNonce) << 8) | uint72(originChainID);\r\n        return _proposals[nonceAndID][dataHash];\r\n    }\r\n\r\n    /**\r\n        @notice Changes deposit fee.\r\n        @notice Only callable by admin.\r\n        @param newFee Value {_fee} will be updated to.\r\n     */\r\n    function adminChangeFee(uint newFee) external onlyAdmin {\r\n        require(_fee != newFee, \"Current fee is equal to new fee\");\r\n        _fee = newFee;\r\n    }\r\n\r\n    /**\r\n        @notice Changes xpiry.\r\n        @notice Only callable by admin.\r\n        @param newExpiry Value {_expiry} will be updated to.\r\n     */\r\n    function adminExpiry(uint newExpiry) external onlyAdmin {\r\n        _expiry = newExpiry;\r\n    }\r\n\r\n    /**\r\n        @notice Used to manually withdraw funds from ERC safes.\r\n        @param handlerAddress Address of handler to withdraw from.\r\n        @param tokenAddress Address of token to withdraw.\r\n        @param recipient Address to withdraw tokens to.\r\n        @param amountOrTokenID Either the amount of ERC20 tokens or the ERC721 token ID to withdraw.\r\n     */\r\n    function adminWithdraw(\r\n        address handlerAddress,\r\n        address tokenAddress,\r\n        address recipient,\r\n        uint256 amountOrTokenID\r\n    ) external onlyAdmin {\r\n        IERCHandler handler = IERCHandler(handlerAddress);\r\n        handler.withdraw(tokenAddress, recipient, amountOrTokenID);\r\n    }\r\n\r\n    /**\r\n        @notice Initiates a transfer using a specified handler contract.\r\n        @notice Only callable when Bridge is not paused.\r\n        @param destinationChainID ID of chain deposit will be bridged to.\r\n        @param resourceID ResourceID used to find address of handler to be used for deposit.\r\n        @param data Additional data to be passed to specified handler.\r\n        @notice Emits {Deposit} event.\r\n     */\r\n    function deposit(uint8 destinationChainID, bytes32 resourceID, bytes calldata data) external payable whenNotPaused {\r\n        require(msg.value == _fee, \"Incorrect fee supplied\");\r\n\r\n        address handler = _resourceIDToHandlerAddress[resourceID];\r\n        require(handler != address(0), \"resourceID not mapped to handler\");\r\n\r\n        uint64 depositNonce = ++_depositCounts[destinationChainID];\r\n        _depositRecords[depositNonce][destinationChainID] = data;\r\n\r\n        IDepositExecute depositHandler = IDepositExecute(handler);\r\n        depositHandler.deposit(resourceID, destinationChainID, depositNonce, msg.sender, data);\r\n\r\n        emit Deposit(destinationChainID, resourceID, depositNonce);\r\n    }\r\n\r\n    /**\r\n        @notice When called, {msg.sender} will be marked as voting in favor of proposal.\r\n        @notice Only callable by relayers when Bridge is not paused.\r\n        @param chainID ID of chain deposit originated from.\r\n        @param depositNonce ID of deposited generated by origin Bridge contract.\r\n        @param data Data provided when deposit was made.\r\n        @notice Proposal must not have already been passed or executed.\r\n        @notice {msg.sender} must not have already voted on proposal.\r\n        @notice Emits {ProposalEvent} event with status indicating the proposal status.\r\n        @notice Emits {ProposalVote} event.\r\n     */\r\n    function voteProposal(uint8 chainID, uint64 depositNonce, bytes32 resourceID, bytes calldata data) external onlyRelayers whenNotPaused {\r\n        address handler = _resourceIDToHandlerAddress[resourceID];\r\n        bytes32 dataHash = keccak256(abi.encodePacked(handler, data));\r\n        uint72 nonceAndID = (uint72(depositNonce) << 8) | uint72(chainID);\r\n        Proposal storage proposal = _proposals[nonceAndID][dataHash];\r\n\r\n        require(_resourceIDToHandlerAddress[resourceID] != address(0), \"no handler for resourceID\");\r\n        require(uint(proposal._status) <= 1, \"proposal already passed/executed/cancelled\");\r\n        require(!_hasVotedOnProposal[nonceAndID][dataHash][msg.sender], \"relayer already voted\");\r\n\r\n        if (uint(proposal._status) == 0) {\r\n            ++_totalProposals;\r\n            _proposals[nonceAndID][dataHash] = Proposal({\r\n                _resourceID : resourceID,\r\n                _dataHash : dataHash,\r\n                _yesVotes : new address[](1),\r\n                _noVotes : new address[](0),\r\n                _status : ProposalStatus.Active,\r\n                _proposedBlock : block.number\r\n                });\r\n\r\n            proposal._yesVotes[0] = msg.sender;\r\n            emit ProposalEvent(chainID, depositNonce, ProposalStatus.Active, resourceID, dataHash);\r\n        } else {\r\n            if (sub(block.number, proposal._proposedBlock) > _expiry) {\r\n                // if the number of blocks that has passed since this proposal was\r\n                // submitted exceeds the expiry threshold set, cancel the proposal\r\n                proposal._status = ProposalStatus.Cancelled;\r\n                emit ProposalEvent(chainID, depositNonce, ProposalStatus.Cancelled, resourceID, dataHash);\r\n            } else {\r\n                // // dataHash is never manually provided, so no need to check anymore\r\n                // require(dataHash == proposal._dataHash, \"datahash mismatch\");\r\n                // I think there is a risk, we should not vote without checking resourceID\r\n                // Otherwise, Relayer can initialize a proposal with right data but wrong resourceID and lure other relayers to vote \r\n                require(proposal._resourceID == resourceID, \"Cheating Risk; Relayer vote with wrong resourceID\");\r\n                proposal._yesVotes.push(msg.sender);\r\n            }\r\n\r\n        }\r\n        if (proposal._status != ProposalStatus.Cancelled) {\r\n            _hasVotedOnProposal[nonceAndID][dataHash][msg.sender] = true;\r\n            emit ProposalVote(chainID, depositNonce, proposal._status, resourceID);\r\n\r\n            // If _depositThreshold is set to 1, then auto finalize\r\n            // or if _relayerThreshold has been exceeded\r\n            if (_relayerThreshold <= 1 || proposal._yesVotes.length >= _relayerThreshold) {\r\n                if (_executeProposal(data, resourceID)) {\r\n                    proposal._status = ProposalStatus.Executed;\r\n                    emit ProposalEvent(chainID, depositNonce, ProposalStatus.Executed, resourceID, dataHash);\r\n                } else {\r\n                    // If we can not execute due to any ERC20 Handler issue, then just make the proposal passed\r\n                    proposal._status = ProposalStatus.Passed;\r\n                    emit ProposalEvent(chainID, depositNonce, ProposalStatus.Passed, resourceID, dataHash);\r\n                }\r\n            }\r\n        }\r\n\r\n    }\r\n\r\n    /**\r\n        @notice Executes a deposit proposal that is considered passed using a specified handler contract.\r\n        @notice Only callable by relayers when Bridge is not paused.\r\n        @param chainID ID of chain deposit originated from.\r\n        @param depositNonce ID of deposited generated by origin Bridge contract.\r\n        @param dataHash Hash of data originally provided when deposit was made.\r\n        @notice Proposal must be past expiry threshold.\r\n        @notice Emits {ProposalEvent} event with status {Cancelled}.\r\n     */\r\n    function cancelProposal(uint8 chainID, uint64 depositNonce, bytes32 dataHash) public onlyAdminOrRelayer {\r\n        uint72 nonceAndID = (uint72(depositNonce) << 8) | uint72(chainID);\r\n        Proposal storage proposal = _proposals[nonceAndID][dataHash];\r\n\r\n        require(proposal._status != ProposalStatus.Cancelled, \"Proposal already cancelled\");\r\n        require(sub(block.number, proposal._proposedBlock) > _expiry, \"Proposal not at expiry threshold\");\r\n\r\n        proposal._status = ProposalStatus.Cancelled;\r\n        emit ProposalEvent(chainID, depositNonce, ProposalStatus.Cancelled, proposal._resourceID, proposal._dataHash);\r\n\r\n    }\r\n\r\n    /**\r\n        @notice Executes a deposit proposal that is considered passed using a specified handler contract.\r\n        @notice callable by Executor or above when Bridge is not paused.\r\n        @param chainID ID of chain deposit originated from.\r\n        @param resourceID ResourceID to be used when making deposits.\r\n        @param depositNonce ID of deposited generated by origin Bridge contract.\r\n        @param data Data originally provided when deposit was made.\r\n        @notice Proposal must have Passed status.\r\n        @notice Hash of {data} must equal proposal's {dataHash}.\r\n        @notice Emits {ProposalEvent} event with status {Executed}.\r\n     */\r\n    function executeProposal(uint8 chainID, uint64 depositNonce, bytes calldata data, bytes32 resourceID) external onlyExecutorOrAbove whenNotPaused {\r\n        address handler = _resourceIDToHandlerAddress[resourceID];\r\n        uint72 nonceAndID = (uint72(depositNonce) << 8) | uint72(chainID);\r\n        bytes32 dataHash = keccak256(abi.encodePacked(handler, data));\r\n        Proposal storage proposal = _proposals[nonceAndID][dataHash];\r\n        // We must check this. So if executor cheating and outrun a wrong resource id proposal \r\n        require(proposal._resourceID == resourceID, \"wrong resource id\");\r\n        require(proposal._status == ProposalStatus.Passed, \"proposal already transferred/not finalized yet\");\r\n        \r\n        require(_executeProposal(data, resourceID), \"Execution not successful\");\r\n        proposal._status = ProposalStatus.Executed;\r\n        emit ProposalEvent(chainID, depositNonce, ProposalStatus.Executed, resourceID, dataHash);\r\n    }\r\n\r\n     /**\r\n        @notice Executes a deposit proposal that is considered passed using a specified handler contract.\r\n        @notice This method itself does not change the status of proposal or emit event!\r\n        @notice Internal method not callable by public.\r\n        @param resourceID ResourceID to be used when making deposits.\r\n        @param data Data originally provided when deposit was made.\r\n        @return bool The result of handler execution:\r\n        @notice This method does not check if proposal is Passed status!\r\n        @notice Hash of {data} must equal proposal's {dataHash}.\r\n     */\r\n    function _executeProposal(bytes calldata data, bytes32 resourceID) internal returns (bool) {\r\n        IDepositExecute depositHandler = IDepositExecute(_resourceIDToHandlerAddress[resourceID]);\r\n        try depositHandler.executeProposal(resourceID, data) {\r\n            return true;\r\n        } catch {\r\n            return false;\r\n        }\r\n    }\r\n\r\n    /**\r\n        @notice Transfers eth in the contract to the specified addresses. The parameters addrs and amounts are mapped 1-1.\r\n        This means that the address at index 0 for addrs will receive the amount (in WEI) from amounts at index 0.\r\n        @param addrs Array of addresses to transfer {amounts} to.\r\n        @param amounts Array of amonuts to transfer to {addrs}.\r\n     */\r\n    function transferFunds(address payable[] calldata addrs, uint[] calldata amounts) external onlyAdmin {\r\n        require(addrs.length == amounts.length, \"length of address and amounts dismatch\");\r\n        uint addrCount = addrs.length;\r\n        for (uint i = 0; i < addrCount; i++) {\r\n            addrs[i].transfer(amounts[i]);\r\n        }\r\n    }\r\n\r\n}\r\n",
  "sourcePath": "D:\\SourceTree\\ChainBridge_solidity\\contracts\\Bridge.sol",
  "compiler": {
    "name": "solc",
    "version": "0.7.0+commit.9e61f92b.Emscripten.clang"
  },
  "schemaVersion": "3.4.12",
  "updatedAt": "2023-02-26T08:46:24.102Z",
  "devdoc": {
    "author": "ChainSafe Systems.",
    "kind": "dev",
    "methods": {
      "adminAddRelayer(address)": {
        "params": {
          "relayerAddress": "Address of relayer to be added."
        }
      },
      "adminChangeFee(uint256)": {
        "params": {
          "newFee": "Value {_fee} will be updated to."
        }
      },
      "adminChangeRelayerThreshold(uint256)": {
        "params": {
          "newThreshold": "Value {_relayerThreshold} will be changed to."
        }
      },
      "adminExpiry(uint256)": {
        "params": {
          "newExpiry": "Value {_expiry} will be updated to."
        }
      },
      "adminRemoveRelayer(address)": {
        "params": {
          "relayerAddress": "Address of relayer to be removed."
        }
      },
      "adminSetBurnable(address,address)": {
        "params": {
          "handlerAddress": "Address of handler resource will be set for.",
          "tokenAddress": "Address of contract to be called when a deposit is made and a deposited is executed."
        }
      },
      "adminSetGenericResource(address,bytes32,address,bytes4,bytes4)": {
        "params": {
          "contractAddress": "Address of contract to be called when a deposit is made and a deposited is executed.",
          "handlerAddress": "Address of handler resource will be set for.",
          "resourceID": "ResourceID to be used when making deposits."
        }
      },
      "adminSetResource(address,bytes32,address)": {
        "params": {
          "handlerAddress": "Address of handler resource will be set for.",
          "resourceID": "ResourceID to be used when making deposits.",
          "tokenAddress": "Address of contract to be called when a deposit is made and a deposited is executed."
        }
      },
      "adminWithdraw(address,address,address,uint256)": {
        "params": {
          "amountOrTokenID": "Either the amount of ERC20 tokens or the ERC721 token ID to withdraw.",
          "handlerAddress": "Address of handler to withdraw from.",
          "recipient": "Address to withdraw tokens to.",
          "tokenAddress": "Address of token to withdraw."
        }
      },
      "cancelProposal(uint8,uint64,bytes32)": {
        "params": {
          "chainID": "ID of chain deposit originated from.",
          "dataHash": "Hash of data originally provided when deposit was made.",
          "depositNonce": "ID of deposited generated by origin Bridge contract."
        }
      },
      "constructor": {
        "params": {
          "chainID": "ID of chain the Bridge contract exists on.",
          "initialRelayerThreshold": "Number of votes needed for a deposit proposal to be considered passed.",
          "initialRelayers": "Addresses that should be initially granted the relayer role."
        }
      },
      "deposit(uint8,bytes32,bytes)": {
        "params": {
          "data": "Additional data to be passed to specified handler.",
          "destinationChainID": "ID of chain deposit will be bridged to.",
          "resourceID": "ResourceID used to find address of handler to be used for deposit."
        }
      },
      "executeProposal(uint8,uint64,bytes,bytes32)": {
        "params": {
          "chainID": "ID of chain deposit originated from.",
          "data": "Data originally provided when deposit was made.",
          "depositNonce": "ID of deposited generated by origin Bridge contract.",
          "resourceID": "ResourceID to be used when making deposits."
        }
      },
      "getProposal(uint8,uint64,bytes32)": {
        "params": {
          "dataHash": "Hash of data to be provided when deposit proposal is executed.",
          "depositNonce": "ID of proposal generated by proposal's origin Bridge contract.",
          "originChainID": "Chain ID deposit originated from."
        },
        "returns": {
          "_0": "Proposal which consists of: - _dataHash Hash of data to be provided when deposit proposal is executed. - _yesVotes Number of votes in favor of proposal. - _noVotes Number of votes against proposal. - _status Current status of proposal."
        }
      },
      "getRoleAdmin(bytes32)": {
        "details": "Returns the admin role that controls `role`. See {grantRole} and {revokeRole}. To change a role's admin, use {_setRoleAdmin}."
      },
      "getRoleMember(bytes32,uint256)": {
        "details": "Returns one of the accounts that have `role`. `index` must be a value between 0 and {getRoleMemberCount}, non-inclusive. Role bearers are not sorted in any particular way, and their ordering may change at any point. WARNING: When using {getRoleMember} and {getRoleMemberCount}, make sure you perform all queries on the same block. See the following https://forum.openzeppelin.com/t/iterating-over-elements-on-enumerableset-in-openzeppelin-contracts/2296[forum post] for more information."
      },
      "getRoleMemberCount(bytes32)": {
        "details": "Returns the number of accounts that have `role`. Can be used together with {getRoleMember} to enumerate all bearers of a role."
      },
      "grantRole(bytes32,address)": {
        "details": "Grants `role` to `account`. If `account` had not been already granted `role`, emits a {RoleGranted} event. Requirements: - the caller must have ``role``'s admin role."
      },
      "hasRole(bytes32,address)": {
        "details": "Returns `true` if `account` has been granted `role`."
      },
      "isRelayer(address)": {
        "params": {
          "relayer": "Address to check."
        }
      },
      "paused()": {
        "details": "Returns true if the contract is paused, and false otherwise."
      },
      "relayerAddExecutor(address)": {
        "params": {
          "executorAddress": "Address of executor to be added."
        }
      },
      "relayerRemoveExecutor(address)": {
        "params": {
          "executorAddress": "Address of executor to be removed."
        }
      },
      "renounceAdmin(address)": {
        "params": {
          "newAdmin": "Address that admin role will be granted to."
        }
      },
      "renounceRole(bytes32,address)": {
        "details": "Revokes `role` from the calling account. Roles are often managed via {grantRole} and {revokeRole}: this function's purpose is to provide a mechanism for accounts to lose their privileges if they are compromised (such as when a trusted device is misplaced). If the calling account had been granted `role`, emits a {RoleRevoked} event. Requirements: - the caller must be `account`."
      },
      "revokeRole(bytes32,address)": {
        "details": "Revokes `role` from `account`. If `account` had been granted `role`, emits a {RoleRevoked} event. Requirements: - the caller must have ``role``'s admin role."
      },
      "transferFunds(address[],uint256[])": {
        "params": {
          "addrs": "Array of addresses to transfer {amounts} to.",
          "amounts": "Array of amonuts to transfer to {addrs}."
        }
      },
      "voteProposal(uint8,uint64,bytes32,bytes)": {
        "params": {
          "chainID": "ID of chain deposit originated from.",
          "data": "Data provided when deposit was made.",
          "depositNonce": "ID of deposited generated by origin Bridge contract."
        }
      }
    },
    "title": "Facilitates deposits, creation and votiing of deposit proposals, and deposit executions.",
    "version": 1
  },
  "userdoc": {
    "kind": "user",
    "methods": {
      "adminAddRelayer(address)": {
        "notice": "Grants {relayerAddress} the relayer role.Only callable by an address that currently has the admin role."
      },
      "adminChangeFee(uint256)": {
        "notice": "Changes deposit fee.Only callable by admin."
      },
      "adminChangeRelayerThreshold(uint256)": {
        "notice": "Modifies the number of votes required for a proposal to be considered passed.Only callable by an address that currently has the admin role.Emits {RelayerThresholdChanged} event."
      },
      "adminExpiry(uint256)": {
        "notice": "Changes xpiry.Only callable by admin."
      },
      "adminPauseTransfers()": {
        "notice": "Pauses deposits, proposal creation and voting, and deposit executions.Only callable by an address that currently has the admin role."
      },
      "adminRemoveRelayer(address)": {
        "notice": "Removes relayer role for {relayerAddress}.Only callable by an address that currently has the admin role."
      },
      "adminSetBurnable(address,address)": {
        "notice": "Sets a resource as burnable for handler contracts that use the IERCHandler interface.Only callable by an address that currently has the admin role."
      },
      "adminSetGenericResource(address,bytes32,address,bytes4,bytes4)": {
        "notice": "Sets a new resource for handler contracts that use the IGenericHandler interface, and maps the {handlerAddress} to {resourceID} in {_resourceIDToHandlerAddress}.Only callable by an address that currently has the admin role."
      },
      "adminSetResource(address,bytes32,address)": {
        "notice": "Sets a new resource for handler contracts that use the IERCHandler interface, and maps the {handlerAddress} to {resourceID} in {_resourceIDToHandlerAddress}.Only callable by an address that currently has the admin role."
      },
      "adminUnpauseTransfers()": {
        "notice": "Unpauses deposits, proposal creation and voting, and deposit executions.Only callable by an address that currently has the admin role."
      },
      "adminWithdraw(address,address,address,uint256)": {
        "notice": "Used to manually withdraw funds from ERC safes."
      },
      "cancelProposal(uint8,uint64,bytes32)": {
        "notice": "Executes a deposit proposal that is considered passed using a specified handler contract.Only callable by relayers when Bridge is not paused.Proposal must be past expiry threshold.Emits {ProposalEvent} event with status {Cancelled}."
      },
      "constructor": {
        "notice": "Initializes Bridge, creates and grants {msg.sender} the admin role, creates and grants {initialRelayers} the relayer role."
      },
      "deposit(uint8,bytes32,bytes)": {
        "notice": "Initiates a transfer using a specified handler contract.Only callable when Bridge is not paused.Emits {Deposit} event."
      },
      "executeProposal(uint8,uint64,bytes,bytes32)": {
        "notice": "Executes a deposit proposal that is considered passed using a specified handler contract.callable by Executor or above when Bridge is not paused.Proposal must have Passed status.Hash of {data} must equal proposal's {dataHash}.Emits {ProposalEvent} event with status {Executed}."
      },
      "getProposal(uint8,uint64,bytes32)": {
        "notice": "Returns a proposal."
      },
      "isRelayer(address)": {
        "notice": "Returns true if {relayer} has the relayer role."
      },
      "relayerAddExecutor(address)": {
        "notice": "Grants {executorAddress} the executor role.Only callable by an address that currently has the relayer role."
      },
      "relayerRemoveExecutor(address)": {
        "notice": "Removes relayer role for {executorAddress}.Only callable by an address that currently has the relayer role."
      },
      "renounceAdmin(address)": {
        "notice": "Removes admin role from {msg.sender} and grants it to {newAdmin}.Only callable by an address that currently has the admin role."
      },
      "transferFunds(address[],uint256[])": {
        "notice": "Transfers eth in the contract to the specified addresses. The parameters addrs and amounts are mapped 1-1. This means that the address at index 0 for addrs will receive the amount (in WEI) from amounts at index 0."
      },
      "voteProposal(uint8,uint64,bytes32,bytes)": {
        "notice": "When called, {msg.sender} will be marked as voting in favor of proposal.Only callable by relayers when Bridge is not paused.Proposal must not have already been passed or executed.{msg.sender} must not have already voted on proposal.Emits {ProposalEvent} event with status indicating the proposal status.Emits {ProposalVote} event."
      }
    },
    "version": 1
  }
}