{
  "contractName": "ERC721Handler",
  "abi": [
    {
      "inputs": [
        {
          "internalType": "address",
          "name": "bridgeAddress",
          "type": "address"
        },
        {
          "internalType": "bytes32[]",
          "name": "initialResourceIDs",
          "type": "bytes32[]"
        },
        {
          "internalType": "address[]",
          "name": "initialContractAddresses",
          "type": "address[]"
        },
        {
          "internalType": "address[]",
          "name": "burnableContractAddresses",
          "type": "address[]"
        }
      ],
      "stateMutability": "nonpayable",
      "type": "constructor"
    },
    {
      "inputs": [],
      "name": "_bridgeAddress",
      "outputs": [
        {
          "internalType": "address",
          "name": "",
          "type": "address"
        }
      ],
      "stateMutability": "view",
      "type": "function"
    },
    {
      "inputs": [
        {
          "internalType": "address",
          "name": "",
          "type": "address"
        }
      ],
      "name": "_burnList",
      "outputs": [
        {
          "internalType": "bool",
          "name": "",
          "type": "bool"
        }
      ],
      "stateMutability": "view",
      "type": "function"
    },
    {
      "inputs": [
        {
          "internalType": "address",
          "name": "",
          "type": "address"
        }
      ],
      "name": "_contractWhitelist",
      "outputs": [
        {
          "internalType": "bool",
          "name": "",
          "type": "bool"
        }
      ],
      "stateMutability": "view",
      "type": "function"
    },
    {
      "inputs": [
        {
          "internalType": "uint8",
          "name": "",
          "type": "uint8"
        },
        {
          "internalType": "uint64",
          "name": "",
          "type": "uint64"
        }
      ],
      "name": "_depositRecords",
      "outputs": [
        {
          "internalType": "address",
          "name": "_tokenAddress",
          "type": "address"
        },
        {
          "internalType": "uint8",
          "name": "_lenDestinationRecipientAddress",
          "type": "uint8"
        },
        {
          "internalType": "uint8",
          "name": "_destinationChainID",
          "type": "uint8"
        },
        {
          "internalType": "bytes32",
          "name": "_resourceID",
          "type": "bytes32"
        },
        {
          "internalType": "bytes",
          "name": "_destinationRecipientAddress",
          "type": "bytes"
        },
        {
          "internalType": "address",
          "name": "_depositer",
          "type": "address"
        },
        {
          "internalType": "uint256",
          "name": "_tokenID",
          "type": "uint256"
        },
        {
          "internalType": "bytes",
          "name": "_metaData",
          "type": "bytes"
        }
      ],
      "stateMutability": "view",
      "type": "function"
    },
    {
      "inputs": [
        {
          "internalType": "bytes32",
          "name": "",
          "type": "bytes32"
        }
      ],
      "name": "_resourceIDToTokenContractAddress",
      "outputs": [
        {
          "internalType": "address",
          "name": "",
          "type": "address"
        }
      ],
      "stateMutability": "view",
      "type": "function"
    },
    {
      "inputs": [
        {
          "internalType": "address",
          "name": "",
          "type": "address"
        }
      ],
      "name": "_tokenContractAddressToResourceID",
      "outputs": [
        {
          "internalType": "bytes32",
          "name": "",
          "type": "bytes32"
        }
      ],
      "stateMutability": "view",
      "type": "function"
    },
    {
      "inputs": [
        {
          "internalType": "address",
          "name": "tokenAddress",
          "type": "address"
        },
        {
          "internalType": "address",
          "name": "owner",
          "type": "address"
        },
        {
          "internalType": "uint256",
          "name": "tokenID",
          "type": "uint256"
        }
      ],
      "name": "fundERC721",
      "outputs": [],
      "stateMutability": "nonpayable",
      "type": "function"
    },
    {
      "inputs": [
        {
          "internalType": "address",
          "name": "contractAddress",
          "type": "address"
        }
      ],
      "name": "setBurnable",
      "outputs": [],
      "stateMutability": "nonpayable",
      "type": "function"
    },
    {
      "inputs": [
        {
          "internalType": "bytes32",
          "name": "resourceID",
          "type": "bytes32"
        },
        {
          "internalType": "address",
          "name": "contractAddress",
          "type": "address"
        }
      ],
      "name": "setResource",
      "outputs": [],
      "stateMutability": "nonpayable",
      "type": "function"
    },
    {
      "inputs": [
        {
          "internalType": "uint64",
          "name": "depositNonce",
          "type": "uint64"
        },
        {
          "internalType": "uint8",
          "name": "destId",
          "type": "uint8"
        }
      ],
      "name": "getDepositRecord",
      "outputs": [
        {
          "components": [
            {
              "internalType": "address",
              "name": "_tokenAddress",
              "type": "address"
            },
            {
              "internalType": "uint8",
              "name": "_lenDestinationRecipientAddress",
              "type": "uint8"
            },
            {
              "internalType": "uint8",
              "name": "_destinationChainID",
              "type": "uint8"
            },
            {
              "internalType": "bytes32",
              "name": "_resourceID",
              "type": "bytes32"
            },
            {
              "internalType": "bytes",
              "name": "_destinationRecipientAddress",
              "type": "bytes"
            },
            {
              "internalType": "address",
              "name": "_depositer",
              "type": "address"
            },
            {
              "internalType": "uint256",
              "name": "_tokenID",
              "type": "uint256"
            },
            {
              "internalType": "bytes",
              "name": "_metaData",
              "type": "bytes"
            }
          ],
          "internalType": "struct ERC721Handler.DepositRecord",
          "name": "",
          "type": "tuple"
        }
      ],
      "stateMutability": "view",
      "type": "function"
    },
    {
      "inputs": [
        {
          "internalType": "bytes32",
          "name": "resourceID",
          "type": "bytes32"
        },
        {
          "internalType": "uint8",
          "name": "destinationChainID",
          "type": "uint8"
        },
        {
          "internalType": "uint64",
          "name": "depositNonce",
          "type": "uint64"
        },
        {
          "internalType": "address",
          "name": "depositer",
          "type": "address"
        },
        {
          "internalType": "bytes",
          "name": "data",
          "type": "bytes"
        }
      ],
      "name": "deposit",
      "outputs": [],
      "stateMutability": "nonpayable",
      "type": "function"
    },
    {
      "inputs": [
        {
          "internalType": "bytes32",
          "name": "resourceID",
          "type": "bytes32"
        },
        {
          "internalType": "bytes",
          "name": "data",
          "type": "bytes"
        }
      ],
      "name": "executeProposal",
      "outputs": [],
      "stateMutability": "nonpayable",
      "type": "function"
    },
    {
      "inputs": [
        {
          "internalType": "address",
          "name": "tokenAddress",
          "type": "address"
        },
        {
          "internalType": "address",
          "name": "recipient",
          "type": "address"
        },
        {
          "internalType": "uint256",
          "name": "tokenID",
          "type": "uint256"
        }
      ],
      "name": "withdraw",
      "outputs": [],
      "stateMutability": "nonpayable",
      "type": "function"
    }
  ],
  "bytecode": "0x60806040523480156200001157600080fd5b506040516200282338038062002823833981810160405281019062000037919062000483565b81518351146200007e576040517f08c379a000000000000000000000000000000000000000000000000000000000815260040162000075906200062c565b60405180910390fd5b836000806101000a81548173ffffffffffffffffffffffffffffffffffffffff021916908373ffffffffffffffffffffffffffffffffffffffff16021790555060005b8351811015620001135762000105848281518110620000dc57fe5b6020026020010151848381518110620000f157fe5b60200260200101516200015f60201b60201c565b8080600101915050620000c1565b5060005b81518110156200015457620001468282815181106200013257fe5b60200260200101516200025160201b60201c565b808060010191505062000117565b505050505062000751565b806001600084815260200190815260200160002060006101000a81548173ffffffffffffffffffffffffffffffffffffffff021916908373ffffffffffffffffffffffffffffffffffffffff16021790555081600260008373ffffffffffffffffffffffffffffffffffffffff1673ffffffffffffffffffffffffffffffffffffffff168152602001908152602001600020819055506001600360008373ffffffffffffffffffffffffffffffffffffffff1673ffffffffffffffffffffffffffffffffffffffff16815260200190815260200160002060006101000a81548160ff0219169083151502179055505050565b600360008273ffffffffffffffffffffffffffffffffffffffff1673ffffffffffffffffffffffffffffffffffffffff16815260200190815260200160002060009054906101000a900460ff16620002e0576040517f08c379a0000000000000000000000000000000000000000000000000000000008152600401620002d7906200060a565b60405180910390fd5b6001600460008373ffffffffffffffffffffffffffffffffffffffff1673ffffffffffffffffffffffffffffffffffffffff16815260200190815260200160002060006101000a81548160ff02191690831515021790555050565b6000815190506200034c816200071d565b92915050565b600082601f8301126200036457600080fd5b81516200037b62000375826200067c565b6200064e565b91508181835260208401935060208101905083856020840282011115620003a157600080fd5b60005b83811015620003d55781620003ba88826200033b565b845260208401935060208301925050600181019050620003a4565b5050505092915050565b600082601f830112620003f157600080fd5b8151620004086200040282620006a5565b6200064e565b915081818352602084019350602081019050838560208402820111156200042e57600080fd5b60005b838110156200046257816200044788826200046c565b84526020840193506020830192505060018101905062000431565b5050505092915050565b6000815190506200047d8162000737565b92915050565b600080600080608085870312156200049a57600080fd5b6000620004aa878288016200033b565b945050602085015167ffffffffffffffff811115620004c857600080fd5b620004d687828801620003df565b935050604085015167ffffffffffffffff811115620004f457600080fd5b620005028782880162000352565b925050606085015167ffffffffffffffff8111156200052057600080fd5b6200052e8782880162000352565b91505092959194509250565b600062000549602483620006ce565b91507f70726f766964656420636f6e7472616374206973206e6f742077686974656c6960008301527f73746564000000000000000000000000000000000000000000000000000000006020830152604082019050919050565b6000620005b1603c83620006ce565b91507f696e697469616c5265736f7572636549447320616e6420696e697469616c436f60008301527f6e7472616374416464726573736573206c656e206d69736d61746368000000006020830152604082019050919050565b6000602082019050818103600083015262000625816200053a565b9050919050565b600060208201905081810360008301526200064781620005a2565b9050919050565b6000604051905081810181811067ffffffffffffffff821117156200067257600080fd5b8060405250919050565b600067ffffffffffffffff8211156200069457600080fd5b602082029050602081019050919050565b600067ffffffffffffffff821115620006bd57600080fd5b602082029050602081019050919050565b600082825260208201905092915050565b6000620006ec82620006fd565b9050919050565b6000819050919050565b600073ffffffffffffffffffffffffffffffffffffffff82169050919050565b6200072881620006df565b81146200073457600080fd5b50565b6200074281620006f3565b81146200074e57600080fd5b50565b6120c280620007616000396000f3fe608060405234801561001057600080fd5b50600436106100cf5760003560e01c8063735429801161008c578063ba484c0911610066578063ba484c0914610229578063c8ba6c8714610259578063d9caed1214610289578063e248cff2146102a5576100cf565b806373542980146101c15780637f79bea8146101dd578063b8fa37361461020d576100cf565b806307b7ed99146100d45780630a6d55d8146100f0578063318c136e1461012057806338995da91461013e5780634402027f1461015a5780636a70d08114610191575b600080fd5b6100ee60048036038101906100e99190611673565b6102c1565b005b61010a60048036038101906101059190611714565b6102d5565b6040516101179190611c68565b60405180910390f35b610128610308565b6040516101359190611c68565b60405180910390f35b610158600480360381019061015391906117d1565b61032c565b005b610174600480360381019061016f91906118e0565b610730565b604051610188989796959493929190611cf8565b60405180910390f35b6101ab60048036038101906101a69190611673565b61090f565b6040516101b89190611d84565b60405180910390f35b6101db60048036038101906101d6919061169c565b61092f565b005b6101f760048036038101906101f29190611673565b6109a9565b6040516102049190611d84565b60405180910390f35b6102276004803603810190610222919061173d565b6109c9565b005b610243600480360381019061023e91906118a4565b6109df565b6040516102509190611e35565b60405180910390f35b610273600480360381019061026e9190611673565b610c77565b6040516102809190611d9f565b60405180910390f35b6102a3600480360381019061029e919061169c565b610c8f565b005b6102bf60048036038101906102ba9190611779565b610ca8565b005b6102c9610e45565b6102d281610ed5565b50565b60016020528060005260406000206000915054906101000a900473ffffffffffffffffffffffffffffffffffffffff1681565b60008054906101000a900473ffffffffffffffffffffffffffffffffffffffff1681565b610334610e45565b60008060608060c435925060e4359350604051915083820160200160405260e4360360e483376000600160008c815260200190815260200160002060009054906101000a900473ffffffffffffffffffffffffffffffffffffffff169050600360008273ffffffffffffffffffffffffffffffffffffffff1673ffffffffffffffffffffffffffffffffffffffff16815260200190815260200160002060009054906101000a900460ff1661041e576040517f08c379a000000000000000000000000000000000000000000000000000000000815260040161041590611e15565b60405180910390fd5b61044e635b5e139f60e01b8273ffffffffffffffffffffffffffffffffffffffff16610fbc90919063ffffffff16565b156104ea5760008190508073ffffffffffffffffffffffffffffffffffffffff1663c87b56dd866040518263ffffffff1660e01b81526004016104919190611e57565b60006040518083038186803b1580156104a957600080fd5b505afa1580156104bd573d6000803e3d6000fd5b505050506040513d6000823e3d601f19601f820116820180604052508101906104e69190611863565b9250505b600460008273ffffffffffffffffffffffffffffffffffffffff1673ffffffffffffffffffffffffffffffffffffffff16815260200190815260200160002060009054906101000a900460ff161561054b576105468185610fe1565b610558565b61055781893087611056565b5b6040518061010001604052808273ffffffffffffffffffffffffffffffffffffffff1681526020018660ff1681526020018b60ff1681526020018c81526020018481526020018973ffffffffffffffffffffffffffffffffffffffff16815260200185815260200183815250600560008c60ff1660ff16815260200190815260200160002060008b67ffffffffffffffff1667ffffffffffffffff16815260200190815260200160002060008201518160000160006101000a81548173ffffffffffffffffffffffffffffffffffffffff021916908373ffffffffffffffffffffffffffffffffffffffff16021790555060208201518160000160146101000a81548160ff021916908360ff16021790555060408201518160000160156101000a81548160ff021916908360ff1602179055506060820151816001015560808201518160020190805190602001906106b1929190611440565b5060a08201518160030160006101000a81548173ffffffffffffffffffffffffffffffffffffffff021916908373ffffffffffffffffffffffffffffffffffffffff16021790555060c0820151816004015560e082015181600501908051906020019061071f929190611440565b509050505050505050505050505050565b6005602052816000526040600020602052806000526040600020600091509150508060000160009054906101000a900473ffffffffffffffffffffffffffffffffffffffff16908060000160149054906101000a900460ff16908060000160159054906101000a900460ff1690806001015490806002018054600181600116156101000203166002900480601f01602080910402602001604051908101604052809291908181526020018280546001816001161561010002031660029004801561083b5780601f106108105761010080835404028352916020019161083b565b820191906000526020600020905b81548152906001019060200180831161081e57829003601f168201915b5050505050908060030160009054906101000a900473ffffffffffffffffffffffffffffffffffffffff1690806004015490806005018054600181600116156101000203166002900480601f0160208091040260200160405190810160405280929190818152602001828054600181600116156101000203166002900480156109055780601f106108da57610100808354040283529160200191610905565b820191906000526020600020905b8154815290600101906020018083116108e857829003601f168201915b5050505050905088565b60046020528060005260406000206000915054906101000a900460ff1681565b60008390508073ffffffffffffffffffffffffffffffffffffffff166323b872dd8430856040518463ffffffff1660e01b815260040161097193929190611c83565b600060405180830381600087803b15801561098b57600080fd5b505af115801561099f573d6000803e3d6000fd5b5050505050505050565b60036020528060005260406000206000915054906101000a900460ff1681565b6109d1610e45565b6109db82826110d1565b5050565b6109e76114c0565b600560008360ff1660ff16815260200190815260200160002060008467ffffffffffffffff1667ffffffffffffffff168152602001908152602001600020604051806101000160405290816000820160009054906101000a900473ffffffffffffffffffffffffffffffffffffffff1673ffffffffffffffffffffffffffffffffffffffff1673ffffffffffffffffffffffffffffffffffffffff1681526020016000820160149054906101000a900460ff1660ff1660ff1681526020016000820160159054906101000a900460ff1660ff1660ff16815260200160018201548152602001600282018054600181600116156101000203166002900480601f016020809104026020016040519081016040528092919081815260200182805460018160011615610100020316600290048015610b645780601f10610b3957610100808354040283529160200191610b64565b820191906000526020600020905b815481529060010190602001808311610b4757829003601f168201915b505050505081526020016003820160009054906101000a900473ffffffffffffffffffffffffffffffffffffffff1673ffffffffffffffffffffffffffffffffffffffff1673ffffffffffffffffffffffffffffffffffffffff16815260200160048201548152602001600582018054600181600116156101000203166002900480601f016020809104026020016040519081016040528092919081815260200182805460018160011615610100020316600290048015610c665780601f10610c3b57610100808354040283529160200191610c66565b820191906000526020600020905b815481529060010190602001808311610c4957829003601f168201915b505050505081525050905092915050565b60026020528060005260406000206000915090505481565b610c97610e45565b610ca3833084846111c3565b505050565b610cb0610e45565b6000606080606435925060405191506084358060a401358184016040016040528060200160840136036084853760405192508083016040016040528160a40180360381853750505060006020830151905060006001600089815260200190815260200160002060009054906101000a900473ffffffffffffffffffffffffffffffffffffffff169050600360008273ffffffffffffffffffffffffffffffffffffffff1673ffffffffffffffffffffffffffffffffffffffff16815260200190815260200160002060009054906101000a900460ff16610dc5576040517f08c379a0000000000000000000000000000000000000000000000000000000008152600401610dbc90611e15565b60405180910390fd5b600460008273ffffffffffffffffffffffffffffffffffffffff1673ffffffffffffffffffffffffffffffffffffffff16815260200190815260200160002060009054906101000a900460ff1615610e2b57610e26818360601c878661123e565b610e3b565b610e3a81308460601c886111c3565b5b5050505050505050565b60008054906101000a900473ffffffffffffffffffffffffffffffffffffffff1673ffffffffffffffffffffffffffffffffffffffff163373ffffffffffffffffffffffffffffffffffffffff1614610ed3576040517f08c379a0000000000000000000000000000000000000000000000000000000008152600401610eca90611dd5565b60405180910390fd5b565b600360008273ffffffffffffffffffffffffffffffffffffffff1673ffffffffffffffffffffffffffffffffffffffff16815260200190815260200160002060009054906101000a900460ff16610f61576040517f08c379a0000000000000000000000000000000000000000000000000000000008152600401610f5890611df5565b60405180910390fd5b6001600460008373ffffffffffffffffffffffffffffffffffffffff1673ffffffffffffffffffffffffffffffffffffffff16815260200190815260200160002060006101000a81548160ff02191690831515021790555050565b6000610fc7836112b9565b8015610fd95750610fd883836112ed565b5b905092915050565b60008290508073ffffffffffffffffffffffffffffffffffffffff166342966c68836040518263ffffffff1660e01b815260040161101f9190611e57565b600060405180830381600087803b15801561103957600080fd5b505af115801561104d573d6000803e3d6000fd5b50505050505050565b60008490508073ffffffffffffffffffffffffffffffffffffffff166323b872dd8585856040518463ffffffff1660e01b815260040161109893929190611c83565b600060405180830381600087803b1580156110b257600080fd5b505af11580156110c6573d6000803e3d6000fd5b505050505050505050565b806001600084815260200190815260200160002060006101000a81548173ffffffffffffffffffffffffffffffffffffffff021916908373ffffffffffffffffffffffffffffffffffffffff16021790555081600260008373ffffffffffffffffffffffffffffffffffffffff1673ffffffffffffffffffffffffffffffffffffffff168152602001908152602001600020819055506001600360008373ffffffffffffffffffffffffffffffffffffffff1673ffffffffffffffffffffffffffffffffffffffff16815260200190815260200160002060006101000a81548160ff0219169083151502179055505050565b60008490508073ffffffffffffffffffffffffffffffffffffffff166323b872dd8585856040518463ffffffff1660e01b815260040161120593929190611c83565b600060405180830381600087803b15801561121f57600080fd5b505af1158015611233573d6000803e3d6000fd5b505050505050505050565b60008490508073ffffffffffffffffffffffffffffffffffffffff1663d3fc98648585856040518463ffffffff1660e01b815260040161128093929190611cba565b600060405180830381600087803b15801561129a57600080fd5b505af11580156112ae573d6000803e3d6000fd5b505050505050505050565b60006112cc826301ffc9a760e01b6112ed565b80156112e657506112e48263ffffffff60e01b6112ed565b155b9050919050565b60008060006112fc8585611314565b9150915081801561130a5750805b9250505092915050565b60008060606301ffc9a760e01b846040516024016113329190611dba565b604051602081830303815290604052907bffffffffffffffffffffffffffffffffffffffffffffffffffffffff19166020820180517bffffffffffffffffffffffffffffffffffffffffffffffffffffffff83818316178352505050509050600060608673ffffffffffffffffffffffffffffffffffffffff16617530846040516113bd9190611c51565b6000604051808303818686fa925050503d80600081146113f9576040519150601f19603f3d011682016040523d82523d6000602084013e6113fe565b606091505b509150915060208151101561141c5760008094509450505050611439565b818180602001905181019061143191906116eb565b945094505050505b9250929050565b828054600181600116156101000203166002900490600052602060002090601f016020900481019282601f1061148157805160ff19168380011785556114af565b828001600101855582156114af579182015b828111156114ae578251825591602001919060010190611493565b5b5090506114bc919061153a565b5090565b604051806101000160405280600073ffffffffffffffffffffffffffffffffffffffff168152602001600060ff168152602001600060ff1681526020016000801916815260200160608152602001600073ffffffffffffffffffffffffffffffffffffffff16815260200160008152602001606081525090565b5b8082111561155357600081600090555060010161153b565b5090565b60008135905061156681612002565b92915050565b60008151905061157b81612019565b92915050565b60008135905061159081612030565b92915050565b60008083601f8401126115a857600080fd5b8235905067ffffffffffffffff8111156115c157600080fd5b6020830191508360018202830111156115d957600080fd5b9250929050565b600082601f8301126115f157600080fd5b81516116046115ff82611e9f565b611e72565b9150808252602083016020830185838301111561162057600080fd5b61162b838284611fbe565b50505092915050565b60008135905061164381612047565b92915050565b6000813590506116588161205e565b92915050565b60008135905061166d81612075565b92915050565b60006020828403121561168557600080fd5b600061169384828501611557565b91505092915050565b6000806000606084860312156116b157600080fd5b60006116bf86828701611557565b93505060206116d086828701611557565b92505060406116e186828701611634565b9150509250925092565b6000602082840312156116fd57600080fd5b600061170b8482850161156c565b91505092915050565b60006020828403121561172657600080fd5b600061173484828501611581565b91505092915050565b6000806040838503121561175057600080fd5b600061175e85828601611581565b925050602061176f85828601611557565b9150509250929050565b60008060006040848603121561178e57600080fd5b600061179c86828701611581565b935050602084013567ffffffffffffffff8111156117b957600080fd5b6117c586828701611596565b92509250509250925092565b60008060008060008060a087890312156117ea57600080fd5b60006117f889828a01611581565b965050602061180989828a0161165e565b955050604061181a89828a01611649565b945050606061182b89828a01611557565b935050608087013567ffffffffffffffff81111561184857600080fd5b61185489828a01611596565b92509250509295509295509295565b60006020828403121561187557600080fd5b600082015167ffffffffffffffff81111561188f57600080fd5b61189b848285016115e0565b91505092915050565b600080604083850312156118b757600080fd5b60006118c585828601611649565b92505060206118d68582860161165e565b9150509250929050565b600080604083850312156118f357600080fd5b60006119018582860161165e565b925050602061191285828601611649565b9150509250929050565b61192581611f1f565b82525050565b61193481611f1f565b82525050565b61194381611f31565b82525050565b61195281611f3d565b82525050565b61196181611f3d565b82525050565b61197081611f47565b82525050565b600061198182611ecb565b61198b8185611ee1565b935061199b818560208601611fbe565b6119a481611ff1565b840191505092915050565b60006119ba82611ecb565b6119c48185611ef2565b93506119d4818560208601611fbe565b6119dd81611ff1565b840191505092915050565b60006119f382611ecb565b6119fd8185611f03565b9350611a0d818560208601611fbe565b80840191505092915050565b6000611a2482611ed6565b611a2e8185611f0e565b9350611a3e818560208601611fbe565b611a4781611ff1565b840191505092915050565b6000611a5f601e83611f0e565b91507f73656e646572206d7573742062652062726964676520636f6e747261637400006000830152602082019050919050565b6000611a9f602483611f0e565b91507f70726f766964656420636f6e7472616374206973206e6f742077686974656c6960008301527f73746564000000000000000000000000000000000000000000000000000000006020830152604082019050919050565b6000611b05602883611f0e565b91507f70726f766964656420746f6b656e41646472657373206973206e6f742077686960008301527f74656c69737465640000000000000000000000000000000000000000000000006020830152604082019050919050565b600061010083016000830151611b77600086018261191c565b506020830151611b8a6020860182611c33565b506040830151611b9d6040860182611c33565b506060830151611bb06060860182611949565b5060808301518482036080860152611bc88282611976565b91505060a0830151611bdd60a086018261191c565b5060c0830151611bf060c0860182611c15565b5060e083015184820360e0860152611c088282611976565b9150508091505092915050565b611c1e81611f93565b82525050565b611c2d81611f93565b82525050565b611c3c81611fb1565b82525050565b611c4b81611fb1565b82525050565b6000611c5d82846119e8565b915081905092915050565b6000602082019050611c7d600083018461192b565b92915050565b6000606082019050611c98600083018661192b565b611ca5602083018561192b565b611cb26040830184611c24565b949350505050565b6000606082019050611ccf600083018661192b565b611cdc6020830185611c24565b8181036040830152611cee8184611a19565b9050949350505050565b600061010082019050611d0e600083018b61192b565b611d1b602083018a611c42565b611d286040830189611c42565b611d356060830188611958565b8181036080830152611d4781876119af565b9050611d5660a083018661192b565b611d6360c0830185611c24565b81810360e0830152611d7581846119af565b90509998505050505050505050565b6000602082019050611d99600083018461193a565b92915050565b6000602082019050611db46000830184611958565b92915050565b6000602082019050611dcf6000830184611967565b92915050565b60006020820190508181036000830152611dee81611a52565b9050919050565b60006020820190508181036000830152611e0e81611a92565b9050919050565b60006020820190508181036000830152611e2e81611af8565b9050919050565b60006020820190508181036000830152611e4f8184611b5e565b905092915050565b6000602082019050611e6c6000830184611c24565b92915050565b6000604051905081810181811067ffffffffffffffff82111715611e9557600080fd5b8060405250919050565b600067ffffffffffffffff821115611eb657600080fd5b601f19601f8301169050602081019050919050565b600081519050919050565b600081519050919050565b600082825260208201905092915050565b600082825260208201905092915050565b600081905092915050565b600082825260208201905092915050565b6000611f2a82611f73565b9050919050565b60008115159050919050565b6000819050919050565b60007fffffffff0000000000000000000000000000000000000000000000000000000082169050919050565b600073ffffffffffffffffffffffffffffffffffffffff82169050919050565b6000819050919050565b600067ffffffffffffffff82169050919050565b600060ff82169050919050565b60005b83811015611fdc578082015181840152602081019050611fc1565b83811115611feb576000848401525b50505050565b6000601f19601f8301169050919050565b61200b81611f1f565b811461201657600080fd5b50565b61202281611f31565b811461202d57600080fd5b50565b61203981611f3d565b811461204457600080fd5b50565b61205081611f93565b811461205b57600080fd5b50565b61206781611f9d565b811461207257600080fd5b50565b61207e81611fb1565b811461208957600080fd5b5056fea264697066735822122047fa8d438c179156f6db3c90f383bcbe49e20cb3cb0e3b22a58bfcef6f838f3864736f6c63430007000033",
  "immutableReferences": {},
  "source": "pragma solidity 0.7.0;\r\npragma experimental ABIEncoderV2;\r\n\r\nimport \"../interfaces/IDepositExecute.sol\";\r\nimport \"./HandlerHelpers.sol\";\r\nimport \"../ERC721Safe.sol\";\r\nimport \"../ERC721MinterBurnerPauser.sol\";\r\nimport \"@openzeppelin/contracts/introspection/ERC165Checker.sol\";\r\nimport \"@openzeppelin/contracts/token/ERC721/IERC721Metadata.sol\";\r\n\r\n\r\n/**\r\n    @title Handles ERC721 deposits and deposit executions.\r\n    @author ChainSafe Systems.\r\n    @notice This contract is intended to be used with the Bridge contract.\r\n */\r\ncontract ERC721Handler is IDepositExecute, HandlerHelpers, ERC721Safe {\r\n    using ERC165Checker for address;\r\n\r\n    bytes4 private constant _INTERFACE_ERC721_METADATA = 0x5b5e139f;\r\n\r\n    struct DepositRecord {\r\n        address _tokenAddress;\r\n        uint8    _lenDestinationRecipientAddress;\r\n        uint8   _destinationChainID;\r\n        bytes32 _resourceID;\r\n        bytes   _destinationRecipientAddress;\r\n        address _depositer;\r\n        uint    _tokenID;\r\n        bytes   _metaData;\r\n    }\r\n\r\n    // DepositNonce => Deposit Record\r\n    mapping (uint8 => mapping (uint64 => DepositRecord)) public _depositRecords;\r\n\r\n    /**\r\n        @param bridgeAddress Contract address of previously deployed Bridge.\r\n        @param initialResourceIDs Resource IDs are used to identify a specific contract address.\r\n        These are the Resource IDs this contract will initially support.\r\n        @param initialContractAddresses These are the addresses the {initialResourceIDs} will point to, and are the contracts that will be\r\n        called to perform various deposit calls.\r\n        @param burnableContractAddresses These addresses will be set as burnable and when {deposit} is called, the deposited token will be burned.\r\n        When {executeProposal} is called, new tokens will be minted.\r\n\r\n        @dev {initialResourceIDs} and {initialContractAddresses} must have the same length (one resourceID for every address).\r\n        Also, these arrays must be ordered in the way that {initialResourceIDs}[0] is the intended resourceID for {initialContractAddresses}[0].\r\n     */\r\n    constructor(\r\n        address bridgeAddress,\r\n        bytes32[] memory initialResourceIDs,\r\n        address[] memory initialContractAddresses,\r\n        address[] memory burnableContractAddresses\r\n    ) public {\r\n        require(initialResourceIDs.length == initialContractAddresses.length,\r\n            \"initialResourceIDs and initialContractAddresses len mismatch\");\r\n\r\n        _bridgeAddress = bridgeAddress;\r\n\r\n        for (uint256 i = 0; i < initialResourceIDs.length; i++) {\r\n            _setResource(initialResourceIDs[i], initialContractAddresses[i]);\r\n        }\r\n\r\n        for (uint256 i = 0; i < burnableContractAddresses.length; i++) {\r\n            _setBurnable(burnableContractAddresses[i]);\r\n        }\r\n    }\r\n\r\n    /**\r\n        @param depositNonce This ID will have been generated by the Bridge contract.\r\n        @param destId ID of chain deposit will be bridged to.\r\n        @return DepositRecord which consists of:\r\n        - _tokenAddress Address used when {deposit} was executed.\r\n        - _destinationChainID ChainID deposited tokens are intended to end up on.\r\n        - _resourceID ResourceID used when {deposit} was executed.\r\n        - _lenDestinationRecipientAddress Used to parse recipient's address from {_destinationRecipientAddress}\r\n        - _destinationRecipientAddress Address tokens are intended to be deposited to on desitnation chain.\r\n        - _depositer Address that initially called {deposit} in the Bridge contract.\r\n        - _tokenID ID of ERC721.\r\n        - _metaData Optional ERC721 metadata.\r\n    */\r\n    function getDepositRecord(uint64 depositNonce, uint8 destId) external view returns (DepositRecord memory) {\r\n        return _depositRecords[destId][depositNonce];\r\n    }\r\n\r\n    /**\r\n        @notice A deposit is initiatied by making a deposit in the Bridge contract.\r\n        @param destinationChainID Chain ID of chain token is expected to be bridged to.\r\n        @param depositNonce This value is generated as an ID by the Bridge contract.\r\n        @param depositer Address of account making the deposit in the Bridge contract.\r\n        @param data Consists of: {resourceID}, {tokenID}, {lenDestinationRecipientAddress},\r\n        and {destinationRecipientAddress} all padded to 32 bytes.\r\n        @notice Data passed into the function should be constructed as follows:\r\n        tokenID                                     uint256    bytes    0  - 32\r\n        destinationRecipientAddress     length      uint256    bytes    32 - 64\r\n        destinationRecipientAddress                   bytes    bytes    64 - (64 + len(destinationRecipientAddress))\r\n        @notice If the corresponding {tokenAddress} for the parsed {resourceID} supports {_INTERFACE_ERC721_METADATA},\r\n        then {metaData} will be set according to the {tokenURI} method in the token contract.\r\n        @dev Depending if the corresponding {tokenAddress} for the parsed {resourceID} is\r\n        marked true in {_burnList}, deposited tokens will be burned, if not, they will be locked.\r\n     */\r\n    function deposit(bytes32    resourceID,\r\n                    uint8       destinationChainID,\r\n                    uint64      depositNonce,\r\n                    address     depositer,\r\n                    bytes       calldata data\r\n                    ) external override onlyBridge {\r\n        uint         lenDestinationRecipientAddress;\r\n        uint         tokenID;\r\n        bytes memory destinationRecipientAddress;\r\n        bytes memory metaData;\r\n\r\n        assembly {\r\n\r\n            // Load tokenID from data + 32\r\n            tokenID := calldataload(0xC4)\r\n\r\n            // Load length of recipient address from data + 96\r\n            lenDestinationRecipientAddress := calldataload(0xE4)\r\n            // Load free mem pointer for recipient\r\n            destinationRecipientAddress := mload(0x40)\r\n            // Store recipient address\r\n            mstore(0x40, add(0x20, add(destinationRecipientAddress, lenDestinationRecipientAddress)))\r\n\r\n            // func sig (4) + destinationChainId (padded to 32) + depositNonce (32) + depositor (32) +\r\n            // bytes lenght (32) + resourceId (32) + tokenId (32) + length (32) = 0xE4\r\n\r\n            calldatacopy(\r\n                destinationRecipientAddress,    // copy to destinationRecipientAddress\r\n                0xE4,                           // copy from calldata after destinationRecipientAddress length declaration @0xE4\r\n                sub(calldatasize(), 0xE4)       // copy size (calldatasize - (0xE4 + 0x20))\r\n            )\r\n        }\r\n\r\n        address tokenAddress = _resourceIDToTokenContractAddress[resourceID];\r\n        require(_contractWhitelist[tokenAddress], \"provided tokenAddress is not whitelisted\");\r\n\r\n        // Check if the contract supports metadata, fetch it if it does\r\n        if (tokenAddress.supportsInterface(_INTERFACE_ERC721_METADATA)) {\r\n            IERC721Metadata erc721 = IERC721Metadata(tokenAddress);\r\n            metaData = bytes(erc721.tokenURI(tokenID));\r\n        }\r\n\r\n        if (_burnList[tokenAddress]) {\r\n            burnERC721(tokenAddress, tokenID);\r\n        } else {\r\n            lockERC721(tokenAddress, depositer, address(this), tokenID);\r\n        }\r\n\r\n        _depositRecords[destinationChainID][depositNonce] = DepositRecord(\r\n            tokenAddress,\r\n            uint8(lenDestinationRecipientAddress),\r\n            uint8(destinationChainID),\r\n            resourceID,\r\n            destinationRecipientAddress,\r\n            depositer,\r\n            tokenID,\r\n            metaData\r\n        );\r\n    }\r\n\r\n    /**\r\n        @notice Proposal execution should be initiated when a proposal is finalized in the Bridge contract.\r\n        by a relayer on the deposit's destination chain.\r\n        @param data Consists of {tokenID}, {resourceID}, {lenDestinationRecipientAddress},\r\n        {destinationRecipientAddress}, {lenMeta}, and {metaData} all padded to 32 bytes.\r\n        @notice Data passed into the function should be constructed as follows:\r\n        tokenID                                     uint256    bytes    0  - 32\r\n        destinationRecipientAddress     length      uint256    bytes    32 - 64\r\n        destinationRecipientAddress                   bytes    bytes    64 - (64 + len(destinationRecipientAddress))\r\n        metadata                        length      uint256    bytes    (64 + len(destinationRecipientAddress)) - (64 + len(destinationRecipientAddress) + 32)\r\n        metadata                                      bytes    bytes    (64 + len(destinationRecipientAddress) + 32) - END\r\n     */\r\n    function executeProposal(bytes32 resourceID, bytes calldata data) external override onlyBridge {\r\n        uint256         tokenID;\r\n        bytes  memory   destinationRecipientAddress;\r\n        bytes  memory   metaData;\r\n\r\n        assembly {\r\n            tokenID    := calldataload(0x64)\r\n\r\n\r\n            // set up destinationRecipientAddress\r\n            destinationRecipientAddress        := mload(0x40)              // load free memory pointer\r\n            let lenDestinationRecipientAddress := calldataload(0x84)\r\n\r\n            // set up metaData\r\n            // 0xA4 is a combination of 0x24 (position of {data} in calldata) and\r\n            // 0x80 is the relative position of the {metadata} length in {data}\r\n            let lenMeta := calldataload(add(0xA4, lenDestinationRecipientAddress))\r\n\r\n            mstore(0x40, add(0x40, add(destinationRecipientAddress, lenDestinationRecipientAddress))) // shift free memory pointer\r\n\r\n            calldatacopy(\r\n                destinationRecipientAddress,                             // copy to destinationRecipientAddress\r\n                0x84,                                                    // copy from calldata after destinationRecipientAddress length declaration @0x84\r\n                sub(calldatasize(), add(0x84, add(0x20, lenMeta)))       // copy size (calldatasize - (0xC4 + the space metaData takes up))\r\n            )\r\n\r\n            // metadata has variable length\r\n            // load free memory pointer to store metadata\r\n            metaData := mload(0x40)\r\n\r\n            // incrementing free memory pointer\r\n            mstore(0x40, add(0x40, add(metaData, lenMeta)))\r\n\r\n            // metadata is located at (0x84 + 0x20 + lenDestinationRecipientAddress) in calldata\r\n            let metaDataLoc := add(0xA4, lenDestinationRecipientAddress)\r\n\r\n            // in the calldata, metadata is stored @0x124 after accounting for function signature and the depositNonce\r\n            calldatacopy(\r\n                metaData,                           // copy to metaData\r\n                metaDataLoc,                       // copy from calldata after metaData length declaration\r\n                sub(calldatasize(), metaDataLoc)   // copy size (calldatasize - metaDataLoc)\r\n            )\r\n        }\r\n\r\n        bytes20 recipientAddress;\r\n\r\n        assembly {\r\n            recipientAddress := mload(add(destinationRecipientAddress, 0x20))\r\n        }\r\n\r\n        address tokenAddress = _resourceIDToTokenContractAddress[resourceID];\r\n        require(_contractWhitelist[address(tokenAddress)], \"provided tokenAddress is not whitelisted\");\r\n\r\n        if (_burnList[tokenAddress]) {\r\n            mintERC721(tokenAddress, address(recipientAddress), tokenID, metaData);\r\n        } else {\r\n            releaseERC721(tokenAddress, address(this), address(recipientAddress), tokenID);\r\n        }\r\n    }\r\n\r\n    /**\r\n        @notice Used to manually release ERC721 tokens from ERC721Safe.\r\n        @param tokenAddress Address of token contract to release.\r\n        @param recipient Address to release token to.\r\n        @param tokenID The ERC721 token ID to release.\r\n     */\r\n    function withdraw(address tokenAddress, address recipient, uint tokenID) external override onlyBridge {\r\n        releaseERC721(tokenAddress, address(this), recipient, tokenID);\r\n    }\r\n}\r\n",
  "sourcePath": "D:\\SourceTree\\ChainBridge_solidity\\contracts\\handlers\\ERC721Handler.sol",
  "compiler": {
    "name": "solc",
    "version": "0.7.0+commit.9e61f92b.Emscripten.clang"
  },
  "schemaVersion": "3.4.12",
  "updatedAt": "2023-02-26T08:46:24.137Z",
  "devdoc": {
    "author": "ChainSafe Systems.",
    "kind": "dev",
    "methods": {
      "constructor": {
        "details": "{initialResourceIDs} and {initialContractAddresses} must have the same length (one resourceID for every address). Also, these arrays must be ordered in the way that {initialResourceIDs}[0] is the intended resourceID for {initialContractAddresses}[0].",
        "params": {
          "bridgeAddress": "Contract address of previously deployed Bridge.",
          "burnableContractAddresses": "These addresses will be set as burnable and when {deposit} is called, the deposited token will be burned. When {executeProposal} is called, new tokens will be minted.",
          "initialContractAddresses": "These are the addresses the {initialResourceIDs} will point to, and are the contracts that will be called to perform various deposit calls.",
          "initialResourceIDs": "Resource IDs are used to identify a specific contract address. These are the Resource IDs this contract will initially support."
        }
      },
      "deposit(bytes32,uint8,uint64,address,bytes)": {
        "details": "Depending if the corresponding {tokenAddress} for the parsed {resourceID} is marked true in {_burnList}, deposited tokens will be burned, if not, they will be locked.",
        "params": {
          "data": "Consists of: {resourceID}, {tokenID}, {lenDestinationRecipientAddress}, and {destinationRecipientAddress} all padded to 32 bytes.",
          "depositNonce": "This value is generated as an ID by the Bridge contract.",
          "depositer": "Address of account making the deposit in the Bridge contract.",
          "destinationChainID": "Chain ID of chain token is expected to be bridged to."
        }
      },
      "executeProposal(bytes32,bytes)": {
        "params": {
          "data": "Consists of {tokenID}, {resourceID}, {lenDestinationRecipientAddress}, {destinationRecipientAddress}, {lenMeta}, and {metaData} all padded to 32 bytes."
        }
      },
      "fundERC721(address,address,uint256)": {
        "params": {
          "owner": "Address of current token owner.",
          "tokenAddress": "Address of ERC721 to transfer.",
          "tokenID": "ID of token to transfer."
        }
      },
      "getDepositRecord(uint64,uint8)": {
        "params": {
          "depositNonce": "This ID will have been generated by the Bridge contract.",
          "destId": "ID of chain deposit will be bridged to."
        },
        "returns": {
          "_0": "DepositRecord which consists of: - _tokenAddress Address used when {deposit} was executed. - _destinationChainID ChainID deposited tokens are intended to end up on. - _resourceID ResourceID used when {deposit} was executed. - _lenDestinationRecipientAddress Used to parse recipient's address from {_destinationRecipientAddress} - _destinationRecipientAddress Address tokens are intended to be deposited to on desitnation chain. - _depositer Address that initially called {deposit} in the Bridge contract. - _tokenID ID of ERC721. - _metaData Optional ERC721 metadata."
        }
      },
      "setBurnable(address)": {
        "params": {
          "contractAddress": "Address of contract to be used when making or executing deposits."
        }
      },
      "setResource(bytes32,address)": {
        "params": {
          "contractAddress": "Address of contract to be called when a deposit is made and a deposited is executed.",
          "resourceID": "ResourceID to be used when making deposits."
        }
      },
      "withdraw(address,address,uint256)": {
        "params": {
          "recipient": "Address to release token to.",
          "tokenAddress": "Address of token contract to release.",
          "tokenID": "The ERC721 token ID to release."
        }
      }
    },
    "title": "Handles ERC721 deposits and deposit executions.",
    "version": 1
  },
  "userdoc": {
    "kind": "user",
    "methods": {
      "deposit(bytes32,uint8,uint64,address,bytes)": {
        "notice": "A deposit is initiatied by making a deposit in the Bridge contract.Data passed into the function should be constructed as follows: tokenID                                     uint256    bytes    0  - 32 destinationRecipientAddress     length      uint256    bytes    32 - 64 destinationRecipientAddress                   bytes    bytes    64 - (64 + len(destinationRecipientAddress))If the corresponding {tokenAddress} for the parsed {resourceID} supports {_INTERFACE_ERC721_METADATA}, then {metaData} will be set according to the {tokenURI} method in the token contract."
      },
      "executeProposal(bytes32,bytes)": {
        "notice": "Proposal execution should be initiated when a proposal is finalized in the Bridge contract. by a relayer on the deposit's destination chain.Data passed into the function should be constructed as follows: tokenID                                     uint256    bytes    0  - 32 destinationRecipientAddress     length      uint256    bytes    32 - 64 destinationRecipientAddress                   bytes    bytes    64 - (64 + len(destinationRecipientAddress)) metadata                        length      uint256    bytes    (64 + len(destinationRecipientAddress)) - (64 + len(destinationRecipientAddress) + 32) metadata                                      bytes    bytes    (64 + len(destinationRecipientAddress) + 32) - END"
      },
      "fundERC721(address,address,uint256)": {
        "notice": "Used to transfer tokens into the safe to fund proposals."
      },
      "setBurnable(address)": {
        "notice": "First verifies {contractAddress} is whitelisted, then sets {_burnList}[{contractAddress}] to true."
      },
      "setResource(bytes32,address)": {
        "notice": "First verifies {_resourceIDToContractAddress}[{resourceID}] and {_contractAddressToResourceID}[{contractAddress}] are not already set, then sets {_resourceIDToContractAddress} with {contractAddress}, {_contractAddressToResourceID} with {resourceID}, and {_contractWhitelist} to true for {contractAddress}."
      },
      "withdraw(address,address,uint256)": {
        "notice": "Used to manually release ERC721 tokens from ERC721Safe."
      }
    },
    "notice": "This contract is intended to be used with the Bridge contract.",
    "version": 1
  }
}