{
    "contractName": "ERC721Handler",
    "abi": [
        {
            "inputs": [
                {
                    "internalType": "address",
                    "name": "bridgeAddress",
                    "type": "address"
                },
                {
                    "internalType": "bytes32[]",
                    "name": "initialResourceIDs",
                    "type": "bytes32[]"
                },
                {
                    "internalType": "address[]",
                    "name": "initialContractAddresses",
                    "type": "address[]"
                },
                {
                    "internalType": "address[]",
                    "name": "burnableContractAddresses",
                    "type": "address[]"
                }
            ],
            "stateMutability": "nonpayable",
            "type": "constructor"
        },
        {
            "inputs": [],
            "name": "_bridgeAddress",
            "outputs": [
                {
                    "internalType": "address",
                    "name": "",
                    "type": "address"
                }
            ],
            "stateMutability": "view",
            "type": "function",
            "constant": true
        },
        {
            "inputs": [
                {
                    "internalType": "address",
                    "name": "",
                    "type": "address"
                }
            ],
            "name": "_burnList",
            "outputs": [
                {
                    "internalType": "bool",
                    "name": "",
                    "type": "bool"
                }
            ],
            "stateMutability": "view",
            "type": "function",
            "constant": true
        },
        {
            "inputs": [
                {
                    "internalType": "address",
                    "name": "",
                    "type": "address"
                }
            ],
            "name": "_contractWhitelist",
            "outputs": [
                {
                    "internalType": "bool",
                    "name": "",
                    "type": "bool"
                }
            ],
            "stateMutability": "view",
            "type": "function",
            "constant": true
        },
        {
            "inputs": [
                {
                    "internalType": "address",
                    "name": "",
                    "type": "address"
                }
            ],
            "name": "_decimals",
            "outputs": [
                {
                    "internalType": "uint8",
                    "name": "srcDecimals",
                    "type": "uint8"
                },
                {
                    "internalType": "uint8",
                    "name": "destDecimals",
                    "type": "uint8"
                }
            ],
            "stateMutability": "view",
            "type": "function",
            "constant": true
        },
        {
            "inputs": [
                {
                    "internalType": "uint8",
                    "name": "",
                    "type": "uint8"
                },
                {
                    "internalType": "uint64",
                    "name": "",
                    "type": "uint64"
                }
            ],
            "name": "_depositRecords",
            "outputs": [
                {
                    "internalType": "address",
                    "name": "_tokenAddress",
                    "type": "address"
                },
                {
                    "internalType": "uint8",
                    "name": "_lenDestinationRecipientAddress",
                    "type": "uint8"
                },
                {
                    "internalType": "uint8",
                    "name": "_destinationChainID",
                    "type": "uint8"
                },
                {
                    "internalType": "bytes32",
                    "name": "_resourceID",
                    "type": "bytes32"
                },
                {
                    "internalType": "bytes",
                    "name": "_destinationRecipientAddress",
                    "type": "bytes"
                },
                {
                    "internalType": "address",
                    "name": "_depositer",
                    "type": "address"
                },
                {
                    "internalType": "uint256",
                    "name": "_tokenID",
                    "type": "uint256"
                },
                {
                    "internalType": "bytes",
                    "name": "_metaData",
                    "type": "bytes"
                }
            ],
            "stateMutability": "view",
            "type": "function",
            "constant": true
        },
        {
            "inputs": [
                {
                    "internalType": "bytes32",
                    "name": "",
                    "type": "bytes32"
                }
            ],
            "name": "_resourceIDToTokenContractAddress",
            "outputs": [
                {
                    "internalType": "address",
                    "name": "",
                    "type": "address"
                }
            ],
            "stateMutability": "view",
            "type": "function",
            "constant": true
        },
        {
            "inputs": [
                {
                    "internalType": "address",
                    "name": "",
                    "type": "address"
                }
            ],
            "name": "_tokenContractAddressToResourceID",
            "outputs": [
                {
                    "internalType": "bytes32",
                    "name": "",
                    "type": "bytes32"
                }
            ],
            "stateMutability": "view",
            "type": "function",
            "constant": true
        },
        {
            "inputs": [
                {
                    "internalType": "address",
                    "name": "tokenAddress",
                    "type": "address"
                },
                {
                    "internalType": "address",
                    "name": "owner",
                    "type": "address"
                },
                {
                    "internalType": "uint256",
                    "name": "tokenID",
                    "type": "uint256"
                }
            ],
            "name": "fundERC721",
            "outputs": [],
            "stateMutability": "nonpayable",
            "type": "function"
        },
        {
            "inputs": [
                {
                    "internalType": "address",
                    "name": "contractAddress",
                    "type": "address"
                }
            ],
            "name": "setBurnable",
            "outputs": [],
            "stateMutability": "nonpayable",
            "type": "function"
        },
        {
            "inputs": [
                {
                    "internalType": "address",
                    "name": "contractAddress",
                    "type": "address"
                },
                {
                    "internalType": "uint8",
                    "name": "srcDecimals",
                    "type": "uint8"
                },
                {
                    "internalType": "uint8",
                    "name": "destDecimals",
                    "type": "uint8"
                }
            ],
            "name": "setDecimals",
            "outputs": [],
            "stateMutability": "nonpayable",
            "type": "function"
        },
        {
            "inputs": [
                {
                    "internalType": "bytes32",
                    "name": "resourceID",
                    "type": "bytes32"
                },
                {
                    "internalType": "address",
                    "name": "contractAddress",
                    "type": "address"
                }
            ],
            "name": "setResource",
            "outputs": [],
            "stateMutability": "nonpayable",
            "type": "function"
        },
        {
            "inputs": [
                {
                    "internalType": "uint64",
                    "name": "depositNonce",
                    "type": "uint64"
                },
                {
                    "internalType": "uint8",
                    "name": "destId",
                    "type": "uint8"
                }
            ],
            "name": "getDepositRecord",
            "outputs": [
                {
                    "components": [
                        {
                            "internalType": "address",
                            "name": "_tokenAddress",
                            "type": "address"
                        },
                        {
                            "internalType": "uint8",
                            "name": "_lenDestinationRecipientAddress",
                            "type": "uint8"
                        },
                        {
                            "internalType": "uint8",
                            "name": "_destinationChainID",
                            "type": "uint8"
                        },
                        {
                            "internalType": "bytes32",
                            "name": "_resourceID",
                            "type": "bytes32"
                        },
                        {
                            "internalType": "bytes",
                            "name": "_destinationRecipientAddress",
                            "type": "bytes"
                        },
                        {
                            "internalType": "address",
                            "name": "_depositer",
                            "type": "address"
                        },
                        {
                            "internalType": "uint256",
                            "name": "_tokenID",
                            "type": "uint256"
                        },
                        {
                            "internalType": "bytes",
                            "name": "_metaData",
                            "type": "bytes"
                        }
                    ],
                    "internalType": "struct ERC721Handler.DepositRecord",
                    "name": "",
                    "type": "tuple"
                }
            ],
            "stateMutability": "view",
            "type": "function",
            "constant": true
        },
        {
            "inputs": [
                {
                    "internalType": "bytes32",
                    "name": "resourceID",
                    "type": "bytes32"
                },
                {
                    "internalType": "uint8",
                    "name": "destinationChainID",
                    "type": "uint8"
                },
                {
                    "internalType": "uint64",
                    "name": "depositNonce",
                    "type": "uint64"
                },
                {
                    "internalType": "address",
                    "name": "depositer",
                    "type": "address"
                },
                {
                    "internalType": "bytes",
                    "name": "data",
                    "type": "bytes"
                }
            ],
            "name": "deposit",
            "outputs": [],
            "stateMutability": "nonpayable",
            "type": "function"
        },
        {
            "inputs": [
                {
                    "internalType": "bytes32",
                    "name": "resourceID",
                    "type": "bytes32"
                },
                {
                    "internalType": "bytes",
                    "name": "data",
                    "type": "bytes"
                }
            ],
            "name": "executeProposal",
            "outputs": [],
            "stateMutability": "nonpayable",
            "type": "function"
        },
        {
            "inputs": [
                {
                    "internalType": "address",
                    "name": "tokenAddress",
                    "type": "address"
                },
                {
                    "internalType": "address",
                    "name": "recipient",
                    "type": "address"
                },
                {
                    "internalType": "uint256",
                    "name": "tokenID",
                    "type": "uint256"
                }
            ],
            "name": "withdraw",
            "outputs": [],
            "stateMutability": "nonpayable",
            "type": "function"
        }
    ],
    "bytecode": "0x60806040523480156200001157600080fd5b5060405162002a9438038062002a94833981810160405281019062000037919062000483565b81518351146200007e576040517f08c379a000000000000000000000000000000000000000000000000000000000815260040162000075906200062c565b60405180910390fd5b836000806101000a81548173ffffffffffffffffffffffffffffffffffffffff021916908373ffffffffffffffffffffffffffffffffffffffff16021790555060005b8351811015620001135762000105848281518110620000dc57fe5b6020026020010151848381518110620000f157fe5b60200260200101516200015f60201b60201c565b8080600101915050620000c1565b5060005b81518110156200015457620001468282815181106200013257fe5b60200260200101516200025160201b60201c565b808060010191505062000117565b505050505062000751565b806001600084815260200190815260200160002060006101000a81548173ffffffffffffffffffffffffffffffffffffffff021916908373ffffffffffffffffffffffffffffffffffffffff16021790555081600260008373ffffffffffffffffffffffffffffffffffffffff1673ffffffffffffffffffffffffffffffffffffffff168152602001908152602001600020819055506001600360008373ffffffffffffffffffffffffffffffffffffffff1673ffffffffffffffffffffffffffffffffffffffff16815260200190815260200160002060006101000a81548160ff0219169083151502179055505050565b600360008273ffffffffffffffffffffffffffffffffffffffff1673ffffffffffffffffffffffffffffffffffffffff16815260200190815260200160002060009054906101000a900460ff16620002e0576040517f08c379a0000000000000000000000000000000000000000000000000000000008152600401620002d7906200060a565b60405180910390fd5b6001600460008373ffffffffffffffffffffffffffffffffffffffff1673ffffffffffffffffffffffffffffffffffffffff16815260200190815260200160002060006101000a81548160ff02191690831515021790555050565b6000815190506200034c816200071d565b92915050565b600082601f8301126200036457600080fd5b81516200037b62000375826200067c565b6200064e565b91508181835260208401935060208101905083856020840282011115620003a157600080fd5b60005b83811015620003d55781620003ba88826200033b565b845260208401935060208301925050600181019050620003a4565b5050505092915050565b600082601f830112620003f157600080fd5b8151620004086200040282620006a5565b6200064e565b915081818352602084019350602081019050838560208402820111156200042e57600080fd5b60005b838110156200046257816200044788826200046c565b84526020840193506020830192505060018101905062000431565b5050505092915050565b6000815190506200047d8162000737565b92915050565b600080600080608085870312156200049a57600080fd5b6000620004aa878288016200033b565b945050602085015167ffffffffffffffff811115620004c857600080fd5b620004d687828801620003df565b935050604085015167ffffffffffffffff811115620004f457600080fd5b620005028782880162000352565b925050606085015167ffffffffffffffff8111156200052057600080fd5b6200052e8782880162000352565b91505092959194509250565b600062000549602483620006ce565b91507f70726f766964656420636f6e7472616374206973206e6f742077686974656c6960008301527f73746564000000000000000000000000000000000000000000000000000000006020830152604082019050919050565b6000620005b1603c83620006ce565b91507f696e697469616c5265736f7572636549447320616e6420696e697469616c436f60008301527f6e7472616374416464726573736573206c656e206d69736d61746368000000006020830152604082019050919050565b6000602082019050818103600083015262000625816200053a565b9050919050565b600060208201905081810360008301526200064781620005a2565b9050919050565b6000604051905081810181811067ffffffffffffffff821117156200067257600080fd5b8060405250919050565b600067ffffffffffffffff8211156200069457600080fd5b602082029050602081019050919050565b600067ffffffffffffffff821115620006bd57600080fd5b602082029050602081019050919050565b600082825260208201905092915050565b6000620006ec82620006fd565b9050919050565b6000819050919050565b600073ffffffffffffffffffffffffffffffffffffffff82169050919050565b6200072881620006df565b81146200073457600080fd5b50565b6200074281620006f3565b81146200074e57600080fd5b50565b61233380620007616000396000f3fe608060405234801561001057600080fd5b50600436106100f55760003560e01c80637f79bea811610097578063d51f0f4711610066578063d51f0f47146102af578063d9caed12146102e0578063e248cff2146102fc578063f471274414610318576100f5565b80637f79bea814610203578063b8fa373614610233578063ba484c091461024f578063c8ba6c871461027f576100f5565b806338995da9116100d357806338995da9146101645780634402027f146101805780636a70d081146101b757806373542980146101e7576100f5565b806307b7ed99146100fa5780630a6d55d814610116578063318c136e14610146575b600080fd5b610114600480360381019061010f919061186c565b610334565b005b610130600480360381019061012b919061195c565b610348565b60405161013d9190611eb0565b60405180910390f35b61014e61037b565b60405161015b9190611eb0565b60405180910390f35b61017e60048036038101906101799190611a19565b61039f565b005b61019a60048036038101906101959190611b28565b6107a3565b6040516101ae989796959493929190611f40565b60405180910390f35b6101d160048036038101906101cc919061186c565b610982565b6040516101de9190611fcc565b60405180910390f35b61020160048036038101906101fc9190611895565b6109a2565b005b61021d6004803603810190610218919061186c565b610a1c565b60405161022a9190611fcc565b60405180910390f35b61024d60048036038101906102489190611985565b610a3c565b005b61026960048036038101906102649190611aec565b610a52565b604051610276919061207d565b60405180910390f35b6102996004803603810190610294919061186c565b610cea565b6040516102a69190611fe7565b60405180910390f35b6102c960048036038101906102c4919061186c565b610d02565b6040516102d79291906120ba565b60405180910390f35b6102fa60048036038101906102f59190611895565b610d40565b005b610316600480360381019061031191906119c1565b610d59565b005b610332600480360381019061032d91906118e4565b610ef6565b005b61033c610f0e565b61034581610f9e565b50565b60016020528060005260406000206000915054906101000a900473ffffffffffffffffffffffffffffffffffffffff1681565b60008054906101000a900473ffffffffffffffffffffffffffffffffffffffff1681565b6103a7610f0e565b60008060608060c435925060e4359350604051915083820160200160405260e4360360e483376000600160008c815260200190815260200160002060009054906101000a900473ffffffffffffffffffffffffffffffffffffffff169050600360008273ffffffffffffffffffffffffffffffffffffffff1673ffffffffffffffffffffffffffffffffffffffff16815260200190815260200160002060009054906101000a900460ff16610491576040517f08c379a00000000000000000000000000000000000000000000000000000000081526004016104889061205d565b60405180910390fd5b6104c1635b5e139f60e01b8273ffffffffffffffffffffffffffffffffffffffff1661108590919063ffffffff16565b1561055d5760008190508073ffffffffffffffffffffffffffffffffffffffff1663c87b56dd866040518263ffffffff1660e01b8152600401610504919061209f565b60006040518083038186803b15801561051c57600080fd5b505afa158015610530573d6000803e3d6000fd5b505050506040513d6000823e3d601f19601f820116820180604052508101906105599190611aab565b9250505b600460008273ffffffffffffffffffffffffffffffffffffffff1673ffffffffffffffffffffffffffffffffffffffff16815260200190815260200160002060009054906101000a900460ff16156105be576105b981856110aa565b6105cb565b6105ca8189308761111f565b5b6040518061010001604052808273ffffffffffffffffffffffffffffffffffffffff1681526020018660ff1681526020018b60ff1681526020018c81526020018481526020018973ffffffffffffffffffffffffffffffffffffffff16815260200185815260200183815250600660008c60ff1660ff16815260200190815260200160002060008b67ffffffffffffffff1667ffffffffffffffff16815260200190815260200160002060008201518160000160006101000a81548173ffffffffffffffffffffffffffffffffffffffff021916908373ffffffffffffffffffffffffffffffffffffffff16021790555060208201518160000160146101000a81548160ff021916908360ff16021790555060408201518160000160156101000a81548160ff021916908360ff160217905550606082015181600101556080820151816002019080519060200190610724929190611639565b5060a08201518160030160006101000a81548173ffffffffffffffffffffffffffffffffffffffff021916908373ffffffffffffffffffffffffffffffffffffffff16021790555060c0820151816004015560e0820151816005019080519060200190610792929190611639565b509050505050505050505050505050565b6006602052816000526040600020602052806000526040600020600091509150508060000160009054906101000a900473ffffffffffffffffffffffffffffffffffffffff16908060000160149054906101000a900460ff16908060000160159054906101000a900460ff1690806001015490806002018054600181600116156101000203166002900480601f0160208091040260200160405190810160405280929190818152602001828054600181600116156101000203166002900480156108ae5780601f10610883576101008083540402835291602001916108ae565b820191906000526020600020905b81548152906001019060200180831161089157829003601f168201915b5050505050908060030160009054906101000a900473ffffffffffffffffffffffffffffffffffffffff1690806004015490806005018054600181600116156101000203166002900480601f0160208091040260200160405190810160405280929190818152602001828054600181600116156101000203166002900480156109785780601f1061094d57610100808354040283529160200191610978565b820191906000526020600020905b81548152906001019060200180831161095b57829003601f168201915b5050505050905088565b60046020528060005260406000206000915054906101000a900460ff1681565b60008390508073ffffffffffffffffffffffffffffffffffffffff166323b872dd8430856040518463ffffffff1660e01b81526004016109e493929190611ecb565b600060405180830381600087803b1580156109fe57600080fd5b505af1158015610a12573d6000803e3d6000fd5b5050505050505050565b60036020528060005260406000206000915054906101000a900460ff1681565b610a44610f0e565b610a4e828261119a565b5050565b610a5a6116b9565b600660008360ff1660ff16815260200190815260200160002060008467ffffffffffffffff1667ffffffffffffffff168152602001908152602001600020604051806101000160405290816000820160009054906101000a900473ffffffffffffffffffffffffffffffffffffffff1673ffffffffffffffffffffffffffffffffffffffff1673ffffffffffffffffffffffffffffffffffffffff1681526020016000820160149054906101000a900460ff1660ff1660ff1681526020016000820160159054906101000a900460ff1660ff1660ff16815260200160018201548152602001600282018054600181600116156101000203166002900480601f016020809104026020016040519081016040528092919081815260200182805460018160011615610100020316600290048015610bd75780601f10610bac57610100808354040283529160200191610bd7565b820191906000526020600020905b815481529060010190602001808311610bba57829003601f168201915b505050505081526020016003820160009054906101000a900473ffffffffffffffffffffffffffffffffffffffff1673ffffffffffffffffffffffffffffffffffffffff1673ffffffffffffffffffffffffffffffffffffffff16815260200160048201548152602001600582018054600181600116156101000203166002900480601f016020809104026020016040519081016040528092919081815260200182805460018160011615610100020316600290048015610cd95780601f10610cae57610100808354040283529160200191610cd9565b820191906000526020600020905b815481529060010190602001808311610cbc57829003601f168201915b505050505081525050905092915050565b60026020528060005260406000206000915090505481565b60056020528060005260406000206000915090508060000160009054906101000a900460ff16908060000160019054906101000a900460ff16905082565b610d48610f0e565b610d548330848461128c565b505050565b610d61610f0e565b6000606080606435925060405191506084358060a401358184016040016040528060200160840136036084853760405192508083016040016040528160a40180360381853750505060006020830151905060006001600089815260200190815260200160002060009054906101000a900473ffffffffffffffffffffffffffffffffffffffff169050600360008273ffffffffffffffffffffffffffffffffffffffff1673ffffffffffffffffffffffffffffffffffffffff16815260200190815260200160002060009054906101000a900460ff16610e76576040517f08c379a0000000000000000000000000000000000000000000000000000000008152600401610e6d9061205d565b60405180910390fd5b600460008273ffffffffffffffffffffffffffffffffffffffff1673ffffffffffffffffffffffffffffffffffffffff16815260200190815260200160002060009054906101000a900460ff1615610edc57610ed7818360601c8786611307565b610eec565b610eeb81308460601c8861128c565b5b5050505050505050565b610efe610f0e565b610f09838383611382565b505050565b60008054906101000a900473ffffffffffffffffffffffffffffffffffffffff1673ffffffffffffffffffffffffffffffffffffffff163373ffffffffffffffffffffffffffffffffffffffff1614610f9c576040517f08c379a0000000000000000000000000000000000000000000000000000000008152600401610f939061201d565b60405180910390fd5b565b600360008273ffffffffffffffffffffffffffffffffffffffff1673ffffffffffffffffffffffffffffffffffffffff16815260200190815260200160002060009054906101000a900460ff1661102a576040517f08c379a00000000000000000000000000000000000000000000000000000000081526004016110219061203d565b60405180910390fd5b6001600460008373ffffffffffffffffffffffffffffffffffffffff1673ffffffffffffffffffffffffffffffffffffffff16815260200190815260200160002060006101000a81548160ff02191690831515021790555050565b6000611090836114b2565b80156110a257506110a183836114e6565b5b905092915050565b60008290508073ffffffffffffffffffffffffffffffffffffffff166342966c68836040518263ffffffff1660e01b81526004016110e8919061209f565b600060405180830381600087803b15801561110257600080fd5b505af1158015611116573d6000803e3d6000fd5b50505050505050565b60008490508073ffffffffffffffffffffffffffffffffffffffff166323b872dd8585856040518463ffffffff1660e01b815260040161116193929190611ecb565b600060405180830381600087803b15801561117b57600080fd5b505af115801561118f573d6000803e3d6000fd5b505050505050505050565b806001600084815260200190815260200160002060006101000a81548173ffffffffffffffffffffffffffffffffffffffff021916908373ffffffffffffffffffffffffffffffffffffffff16021790555081600260008373ffffffffffffffffffffffffffffffffffffffff1673ffffffffffffffffffffffffffffffffffffffff168152602001908152602001600020819055506001600360008373ffffffffffffffffffffffffffffffffffffffff1673ffffffffffffffffffffffffffffffffffffffff16815260200190815260200160002060006101000a81548160ff0219169083151502179055505050565b60008490508073ffffffffffffffffffffffffffffffffffffffff166323b872dd8585856040518463ffffffff1660e01b81526004016112ce93929190611ecb565b600060405180830381600087803b1580156112e857600080fd5b505af11580156112fc573d6000803e3d6000fd5b505050505050505050565b60008490508073ffffffffffffffffffffffffffffffffffffffff1663d3fc98648585856040518463ffffffff1660e01b815260040161134993929190611f02565b600060405180830381600087803b15801561136357600080fd5b505af1158015611377573d6000803e3d6000fd5b505050505050505050565b600360008473ffffffffffffffffffffffffffffffffffffffff1673ffffffffffffffffffffffffffffffffffffffff16815260200190815260200160002060009054906101000a900460ff1661140e576040517f08c379a00000000000000000000000000000000000000000000000000000000081526004016114059061203d565b60405180910390fd5b60405180604001604052808360ff1681526020018260ff16815250600560008573ffffffffffffffffffffffffffffffffffffffff1673ffffffffffffffffffffffffffffffffffffffff16815260200190815260200160002060008201518160000160006101000a81548160ff021916908360ff16021790555060208201518160000160016101000a81548160ff021916908360ff160217905550905050505050565b60006114c5826301ffc9a760e01b6114e6565b80156114df57506114dd8263ffffffff60e01b6114e6565b155b9050919050565b60008060006114f5858561150d565b915091508180156115035750805b9250505092915050565b60008060606301ffc9a760e01b8460405160240161152b9190612002565b604051602081830303815290604052907bffffffffffffffffffffffffffffffffffffffffffffffffffffffff19166020820180517bffffffffffffffffffffffffffffffffffffffffffffffffffffffff83818316178352505050509050600060608673ffffffffffffffffffffffffffffffffffffffff16617530846040516115b69190611e99565b6000604051808303818686fa925050503d80600081146115f2576040519150601f19603f3d011682016040523d82523d6000602084013e6115f7565b606091505b50915091506020815110156116155760008094509450505050611632565b818180602001905181019061162a9190611933565b945094505050505b9250929050565b828054600181600116156101000203166002900490600052602060002090601f016020900481019282601f1061167a57805160ff19168380011785556116a8565b828001600101855582156116a8579182015b828111156116a757825182559160200191906001019061168c565b5b5090506116b59190611733565b5090565b604051806101000160405280600073ffffffffffffffffffffffffffffffffffffffff168152602001600060ff168152602001600060ff1681526020016000801916815260200160608152602001600073ffffffffffffffffffffffffffffffffffffffff16815260200160008152602001606081525090565b5b8082111561174c576000816000905550600101611734565b5090565b60008135905061175f81612273565b92915050565b6000815190506117748161228a565b92915050565b600081359050611789816122a1565b92915050565b60008083601f8401126117a157600080fd5b8235905067ffffffffffffffff8111156117ba57600080fd5b6020830191508360018202830111156117d257600080fd5b9250929050565b600082601f8301126117ea57600080fd5b81516117fd6117f882612110565b6120e3565b9150808252602083016020830185838301111561181957600080fd5b61182483828461222f565b50505092915050565b60008135905061183c816122b8565b92915050565b600081359050611851816122cf565b92915050565b600081359050611866816122e6565b92915050565b60006020828403121561187e57600080fd5b600061188c84828501611750565b91505092915050565b6000806000606084860312156118aa57600080fd5b60006118b886828701611750565b93505060206118c986828701611750565b92505060406118da8682870161182d565b9150509250925092565b6000806000606084860312156118f957600080fd5b600061190786828701611750565b935050602061191886828701611857565b925050604061192986828701611857565b9150509250925092565b60006020828403121561194557600080fd5b600061195384828501611765565b91505092915050565b60006020828403121561196e57600080fd5b600061197c8482850161177a565b91505092915050565b6000806040838503121561199857600080fd5b60006119a68582860161177a565b92505060206119b785828601611750565b9150509250929050565b6000806000604084860312156119d657600080fd5b60006119e48682870161177a565b935050602084013567ffffffffffffffff811115611a0157600080fd5b611a0d8682870161178f565b92509250509250925092565b60008060008060008060a08789031215611a3257600080fd5b6000611a4089828a0161177a565b9650506020611a5189828a01611857565b9550506040611a6289828a01611842565b9450506060611a7389828a01611750565b935050608087013567ffffffffffffffff811115611a9057600080fd5b611a9c89828a0161178f565b92509250509295509295509295565b600060208284031215611abd57600080fd5b600082015167ffffffffffffffff811115611ad757600080fd5b611ae3848285016117d9565b91505092915050565b60008060408385031215611aff57600080fd5b6000611b0d85828601611842565b9250506020611b1e85828601611857565b9150509250929050565b60008060408385031215611b3b57600080fd5b6000611b4985828601611857565b9250506020611b5a85828601611842565b9150509250929050565b611b6d81612190565b82525050565b611b7c81612190565b82525050565b611b8b816121a2565b82525050565b611b9a816121ae565b82525050565b611ba9816121ae565b82525050565b611bb8816121b8565b82525050565b6000611bc98261213c565b611bd38185612152565b9350611be381856020860161222f565b611bec81612262565b840191505092915050565b6000611c028261213c565b611c0c8185612163565b9350611c1c81856020860161222f565b611c2581612262565b840191505092915050565b6000611c3b8261213c565b611c458185612174565b9350611c5581856020860161222f565b80840191505092915050565b6000611c6c82612147565b611c76818561217f565b9350611c8681856020860161222f565b611c8f81612262565b840191505092915050565b6000611ca7601e8361217f565b91507f73656e646572206d7573742062652062726964676520636f6e747261637400006000830152602082019050919050565b6000611ce760248361217f565b91507f70726f766964656420636f6e7472616374206973206e6f742077686974656c6960008301527f73746564000000000000000000000000000000000000000000000000000000006020830152604082019050919050565b6000611d4d60288361217f565b91507f70726f766964656420746f6b656e41646472657373206973206e6f742077686960008301527f74656c69737465640000000000000000000000000000000000000000000000006020830152604082019050919050565b600061010083016000830151611dbf6000860182611b64565b506020830151611dd26020860182611e7b565b506040830151611de56040860182611e7b565b506060830151611df86060860182611b91565b5060808301518482036080860152611e108282611bbe565b91505060a0830151611e2560a0860182611b64565b5060c0830151611e3860c0860182611e5d565b5060e083015184820360e0860152611e508282611bbe565b9150508091505092915050565b611e6681612204565b82525050565b611e7581612204565b82525050565b611e8481612222565b82525050565b611e9381612222565b82525050565b6000611ea58284611c30565b915081905092915050565b6000602082019050611ec56000830184611b73565b92915050565b6000606082019050611ee06000830186611b73565b611eed6020830185611b73565b611efa6040830184611e6c565b949350505050565b6000606082019050611f176000830186611b73565b611f246020830185611e6c565b8181036040830152611f368184611c61565b9050949350505050565b600061010082019050611f56600083018b611b73565b611f63602083018a611e8a565b611f706040830189611e8a565b611f7d6060830188611ba0565b8181036080830152611f8f8187611bf7565b9050611f9e60a0830186611b73565b611fab60c0830185611e6c565b81810360e0830152611fbd8184611bf7565b90509998505050505050505050565b6000602082019050611fe16000830184611b82565b92915050565b6000602082019050611ffc6000830184611ba0565b92915050565b60006020820190506120176000830184611baf565b92915050565b6000602082019050818103600083015261203681611c9a565b9050919050565b6000602082019050818103600083015261205681611cda565b9050919050565b6000602082019050818103600083015261207681611d40565b9050919050565b600060208201905081810360008301526120978184611da6565b905092915050565b60006020820190506120b46000830184611e6c565b92915050565b60006040820190506120cf6000830185611e8a565b6120dc6020830184611e8a565b9392505050565b6000604051905081810181811067ffffffffffffffff8211171561210657600080fd5b8060405250919050565b600067ffffffffffffffff82111561212757600080fd5b601f19601f8301169050602081019050919050565b600081519050919050565b600081519050919050565b600082825260208201905092915050565b600082825260208201905092915050565b600081905092915050565b600082825260208201905092915050565b600061219b826121e4565b9050919050565b60008115159050919050565b6000819050919050565b60007fffffffff0000000000000000000000000000000000000000000000000000000082169050919050565b600073ffffffffffffffffffffffffffffffffffffffff82169050919050565b6000819050919050565b600067ffffffffffffffff82169050919050565b600060ff82169050919050565b60005b8381101561224d578082015181840152602081019050612232565b8381111561225c576000848401525b50505050565b6000601f19601f8301169050919050565b61227c81612190565b811461228757600080fd5b50565b612293816121a2565b811461229e57600080fd5b50565b6122aa816121ae565b81146122b557600080fd5b50565b6122c181612204565b81146122cc57600080fd5b50565b6122d88161220e565b81146122e357600080fd5b50565b6122ef81612222565b81146122fa57600080fd5b5056fea26469706673582212203b5740bf9cc4a6dbe3d2a280957943770fe8a12d70a7385a7af28a888c896c8164736f6c63430007000033",
    "immutableReferences": {},
    "source": "pragma solidity 0.7.0;\npragma experimental ABIEncoderV2;\n\nimport \"../interfaces/IDepositExecute.sol\";\nimport \"./HandlerHelpers.sol\";\nimport \"../ERC721Safe.sol\";\nimport \"../ERC721MinterBurnerPauser.sol\";\nimport \"@openzeppelin/contracts/introspection/ERC165Checker.sol\";\nimport \"@openzeppelin/contracts/token/ERC721/IERC721Metadata.sol\";\n\n\n/**\n    @title Handles ERC721 deposits and deposit executions.\n    @author ChainSafe Systems.\n    @notice This contract is intended to be used with the Bridge contract.\n */\ncontract ERC721Handler is IDepositExecute, HandlerHelpers, ERC721Safe {\n    using ERC165Checker for address;\n\n    bytes4 private constant _INTERFACE_ERC721_METADATA = 0x5b5e139f;\n\n    struct DepositRecord {\n        address _tokenAddress;\n        uint8    _lenDestinationRecipientAddress;\n        uint8   _destinationChainID;\n        bytes32 _resourceID;\n        bytes   _destinationRecipientAddress;\n        address _depositer;\n        uint    _tokenID;\n        bytes   _metaData;\n    }\n\n    // DepositNonce => Deposit Record\n    mapping (uint8 => mapping (uint64 => DepositRecord)) public _depositRecords;\n\n    /**\n        @param bridgeAddress Contract address of previously deployed Bridge.\n        @param initialResourceIDs Resource IDs are used to identify a specific contract address.\n        These are the Resource IDs this contract will initially support.\n        @param initialContractAddresses These are the addresses the {initialResourceIDs} will point to, and are the contracts that will be\n        called to perform various deposit calls.\n        @param burnableContractAddresses These addresses will be set as burnable and when {deposit} is called, the deposited token will be burned.\n        When {executeProposal} is called, new tokens will be minted.\n\n        @dev {initialResourceIDs} and {initialContractAddresses} must have the same length (one resourceID for every address).\n        Also, these arrays must be ordered in the way that {initialResourceIDs}[0] is the intended resourceID for {initialContractAddresses}[0].\n     */\n    constructor(\n        address bridgeAddress,\n        bytes32[] memory initialResourceIDs,\n        address[] memory initialContractAddresses,\n        address[] memory burnableContractAddresses\n    ) public {\n        require(initialResourceIDs.length == initialContractAddresses.length,\n            \"initialResourceIDs and initialContractAddresses len mismatch\");\n\n        _bridgeAddress = bridgeAddress;\n\n        for (uint256 i = 0; i < initialResourceIDs.length; i++) {\n            _setResource(initialResourceIDs[i], initialContractAddresses[i]);\n        }\n\n        for (uint256 i = 0; i < burnableContractAddresses.length; i++) {\n            _setBurnable(burnableContractAddresses[i]);\n        }\n    }\n\n    /**\n        @param depositNonce This ID will have been generated by the Bridge contract.\n        @param destId ID of chain deposit will be bridged to.\n        @return DepositRecord which consists of:\n        - _tokenAddress Address used when {deposit} was executed.\n        - _destinationChainID ChainID deposited tokens are intended to end up on.\n        - _resourceID ResourceID used when {deposit} was executed.\n        - _lenDestinationRecipientAddress Used to parse recipient's address from {_destinationRecipientAddress}\n        - _destinationRecipientAddress Address tokens are intended to be deposited to on desitnation chain.\n        - _depositer Address that initially called {deposit} in the Bridge contract.\n        - _tokenID ID of ERC721.\n        - _metaData Optional ERC721 metadata.\n    */\n    function getDepositRecord(uint64 depositNonce, uint8 destId) external view returns (DepositRecord memory) {\n        return _depositRecords[destId][depositNonce];\n    }\n\n    /**\n        @notice A deposit is initiatied by making a deposit in the Bridge contract.\n        @param destinationChainID Chain ID of chain token is expected to be bridged to.\n        @param depositNonce This value is generated as an ID by the Bridge contract.\n        @param depositer Address of account making the deposit in the Bridge contract.\n        @param data Consists of: {resourceID}, {tokenID}, {lenDestinationRecipientAddress},\n        and {destinationRecipientAddress} all padded to 32 bytes.\n        @notice Data passed into the function should be constructed as follows:\n        tokenID                                     uint256    bytes    0  - 32\n        destinationRecipientAddress     length      uint256    bytes    32 - 64\n        destinationRecipientAddress                   bytes    bytes    64 - (64 + len(destinationRecipientAddress))\n        @notice If the corresponding {tokenAddress} for the parsed {resourceID} supports {_INTERFACE_ERC721_METADATA},\n        then {metaData} will be set according to the {tokenURI} method in the token contract.\n        @dev Depending if the corresponding {tokenAddress} for the parsed {resourceID} is\n        marked true in {_burnList}, deposited tokens will be burned, if not, they will be locked.\n     */\n    function deposit(bytes32    resourceID,\n                    uint8       destinationChainID,\n                    uint64      depositNonce,\n                    address     depositer,\n                    bytes       calldata data\n                    ) external override onlyBridge {\n        uint         lenDestinationRecipientAddress;\n        uint         tokenID;\n        bytes memory destinationRecipientAddress;\n        bytes memory metaData;\n\n        assembly {\n\n            // Load tokenID from data + 32\n            tokenID := calldataload(0xC4)\n\n            // Load length of recipient address from data + 96\n            lenDestinationRecipientAddress := calldataload(0xE4)\n            // Load free mem pointer for recipient\n            destinationRecipientAddress := mload(0x40)\n            // Store recipient address\n            mstore(0x40, add(0x20, add(destinationRecipientAddress, lenDestinationRecipientAddress)))\n\n            // func sig (4) + destinationChainId (padded to 32) + depositNonce (32) + depositor (32) +\n            // bytes lenght (32) + resourceId (32) + tokenId (32) + length (32) = 0xE4\n\n            calldatacopy(\n                destinationRecipientAddress,    // copy to destinationRecipientAddress\n                0xE4,                           // copy from calldata after destinationRecipientAddress length declaration @0xE4\n                sub(calldatasize(), 0xE4)       // copy size (calldatasize - (0xE4 + 0x20))\n            )\n        }\n\n        address tokenAddress = _resourceIDToTokenContractAddress[resourceID];\n        require(_contractWhitelist[tokenAddress], \"provided tokenAddress is not whitelisted\");\n\n        // Check if the contract supports metadata, fetch it if it does\n        if (tokenAddress.supportsInterface(_INTERFACE_ERC721_METADATA)) {\n            IERC721Metadata erc721 = IERC721Metadata(tokenAddress);\n            metaData = bytes(erc721.tokenURI(tokenID));\n        }\n\n        if (_burnList[tokenAddress]) {\n            burnERC721(tokenAddress, tokenID);\n        } else {\n            lockERC721(tokenAddress, depositer, address(this), tokenID);\n        }\n\n        _depositRecords[destinationChainID][depositNonce] = DepositRecord(\n            tokenAddress,\n            uint8(lenDestinationRecipientAddress),\n            uint8(destinationChainID),\n            resourceID,\n            destinationRecipientAddress,\n            depositer,\n            tokenID,\n            metaData\n        );\n    }\n\n    /**\n        @notice Proposal execution should be initiated when a proposal is finalized in the Bridge contract.\n        by a relayer on the deposit's destination chain.\n        @param data Consists of {tokenID}, {resourceID}, {lenDestinationRecipientAddress},\n        {destinationRecipientAddress}, {lenMeta}, and {metaData} all padded to 32 bytes.\n        @notice Data passed into the function should be constructed as follows:\n        tokenID                                     uint256    bytes    0  - 32\n        destinationRecipientAddress     length      uint256    bytes    32 - 64\n        destinationRecipientAddress                   bytes    bytes    64 - (64 + len(destinationRecipientAddress))\n        metadata                        length      uint256    bytes    (64 + len(destinationRecipientAddress)) - (64 + len(destinationRecipientAddress) + 32)\n        metadata                                      bytes    bytes    (64 + len(destinationRecipientAddress) + 32) - END\n     */\n    function executeProposal(bytes32 resourceID, bytes calldata data) external override onlyBridge {\n        uint256         tokenID;\n        bytes  memory   destinationRecipientAddress;\n        bytes  memory   metaData;\n\n        assembly {\n            tokenID    := calldataload(0x64)\n\n\n            // set up destinationRecipientAddress\n            destinationRecipientAddress        := mload(0x40)              // load free memory pointer\n            let lenDestinationRecipientAddress := calldataload(0x84)\n\n            // set up metaData\n            // 0xA4 is a combination of 0x24 (position of {data} in calldata) and\n            // 0x80 is the relative position of the {metadata} length in {data}\n            let lenMeta := calldataload(add(0xA4, lenDestinationRecipientAddress))\n\n            mstore(0x40, add(0x40, add(destinationRecipientAddress, lenDestinationRecipientAddress))) // shift free memory pointer\n\n            calldatacopy(\n                destinationRecipientAddress,                             // copy to destinationRecipientAddress\n                0x84,                                                    // copy from calldata after destinationRecipientAddress length declaration @0x84\n                sub(calldatasize(), add(0x84, add(0x20, lenMeta)))       // copy size (calldatasize - (0xC4 + the space metaData takes up))\n            )\n\n            // metadata has variable length\n            // load free memory pointer to store metadata\n            metaData := mload(0x40)\n\n            // incrementing free memory pointer\n            mstore(0x40, add(0x40, add(metaData, lenMeta)))\n\n            // metadata is located at (0x84 + 0x20 + lenDestinationRecipientAddress) in calldata\n            let metaDataLoc := add(0xA4, lenDestinationRecipientAddress)\n\n            // in the calldata, metadata is stored @0x124 after accounting for function signature and the depositNonce\n            calldatacopy(\n                metaData,                           // copy to metaData\n                metaDataLoc,                       // copy from calldata after metaData length declaration\n                sub(calldatasize(), metaDataLoc)   // copy size (calldatasize - metaDataLoc)\n            )\n        }\n\n        bytes20 recipientAddress;\n\n        assembly {\n            recipientAddress := mload(add(destinationRecipientAddress, 0x20))\n        }\n\n        address tokenAddress = _resourceIDToTokenContractAddress[resourceID];\n        require(_contractWhitelist[address(tokenAddress)], \"provided tokenAddress is not whitelisted\");\n\n        if (_burnList[tokenAddress]) {\n            mintERC721(tokenAddress, address(recipientAddress), tokenID, metaData);\n        } else {\n            releaseERC721(tokenAddress, address(this), address(recipientAddress), tokenID);\n        }\n    }\n\n    /**\n        @notice Used to manually release ERC721 tokens from ERC721Safe.\n        @param tokenAddress Address of token contract to release.\n        @param recipient Address to release token to.\n        @param tokenID The ERC721 token ID to release.\n     */\n    function withdraw(address tokenAddress, address recipient, uint tokenID) external override onlyBridge {\n        releaseERC721(tokenAddress, address(this), recipient, tokenID);\n    }\n}\n",
    "sourcePath": "/root/dev-spaces/me/chainbridge-solidity/contracts/handlers/ERC721Handler.sol",
    "compiler": {
        "name": "solc",
        "version": "0.7.0+commit.9e61f92b.Emscripten.clang"
    },
    "schemaVersion": "3.4.8",
    "updatedAt": "2022-07-27T05:41:34.683Z",
    "networkType": "ethereum",
    "devdoc": {
        "author": "ChainSafe Systems.",
        "kind": "dev",
        "methods": {
            "constructor": {
                "details": "{initialResourceIDs} and {initialContractAddresses} must have the same length (one resourceID for every address). Also, these arrays must be ordered in the way that {initialResourceIDs}[0] is the intended resourceID for {initialContractAddresses}[0].",
                "params": {
                    "bridgeAddress": "Contract address of previously deployed Bridge.",
                    "burnableContractAddresses": "These addresses will be set as burnable and when {deposit} is called, the deposited token will be burned. When {executeProposal} is called, new tokens will be minted.",
                    "initialContractAddresses": "These are the addresses the {initialResourceIDs} will point to, and are the contracts that will be called to perform various deposit calls.",
                    "initialResourceIDs": "Resource IDs are used to identify a specific contract address. These are the Resource IDs this contract will initially support."
                }
            },
            "deposit(bytes32,uint8,uint64,address,bytes)": {
                "details": "Depending if the corresponding {tokenAddress} for the parsed {resourceID} is marked true in {_burnList}, deposited tokens will be burned, if not, they will be locked.",
                "params": {
                    "data": "Consists of: {resourceID}, {tokenID}, {lenDestinationRecipientAddress}, and {destinationRecipientAddress} all padded to 32 bytes.",
                    "depositNonce": "This value is generated as an ID by the Bridge contract.",
                    "depositer": "Address of account making the deposit in the Bridge contract.",
                    "destinationChainID": "Chain ID of chain token is expected to be bridged to."
                }
            },
            "executeProposal(bytes32,bytes)": {
                "params": {
                    "data": "Consists of {tokenID}, {resourceID}, {lenDestinationRecipientAddress}, {destinationRecipientAddress}, {lenMeta}, and {metaData} all padded to 32 bytes."
                }
            },
            "fundERC721(address,address,uint256)": {
                "params": {
                    "owner": "Address of current token owner.",
                    "tokenAddress": "Address of ERC721 to transfer.",
                    "tokenID": "ID of token to transfer."
                }
            },
            "getDepositRecord(uint64,uint8)": {
                "params": {
                    "depositNonce": "This ID will have been generated by the Bridge contract.",
                    "destId": "ID of chain deposit will be bridged to."
                },
                "returns": {
                    "_0": "DepositRecord which consists of: - _tokenAddress Address used when {deposit} was executed. - _destinationChainID ChainID deposited tokens are intended to end up on. - _resourceID ResourceID used when {deposit} was executed. - _lenDestinationRecipientAddress Used to parse recipient's address from {_destinationRecipientAddress} - _destinationRecipientAddress Address tokens are intended to be deposited to on desitnation chain. - _depositer Address that initially called {deposit} in the Bridge contract. - _tokenID ID of ERC721. - _metaData Optional ERC721 metadata."
                }
            },
            "setBurnable(address)": {
                "params": {
                    "contractAddress": "Address of contract to be used when making or executing deposits."
                }
            },
            "setDecimals(address,uint8,uint8)": {
                "params": {
                    "contractAddress": "Address of contract to be used when making or eexcuting deposits.",
                    "destDecimals": "Decimals of this token on dest chain.",
                    "srcDecimals": "Decimals of this token on source chain"
                }
            },
            "setResource(bytes32,address)": {
                "params": {
                    "contractAddress": "Address of contract to be called when a deposit is made and a deposited is executed.",
                    "resourceID": "ResourceID to be used when making deposits."
                }
            },
            "withdraw(address,address,uint256)": {
                "params": {
                    "recipient": "Address to release token to.",
                    "tokenAddress": "Address of token contract to release.",
                    "tokenID": "The ERC721 token ID to release."
                }
            }
        },
        "title": "Handles ERC721 deposits and deposit executions.",
        "version": 1
    },
    "userdoc": {
        "kind": "user",
        "methods": {
            "deposit(bytes32,uint8,uint64,address,bytes)": {
                "notice": "A deposit is initiatied by making a deposit in the Bridge contract.Data passed into the function should be constructed as follows: tokenID                                     uint256    bytes    0  - 32 destinationRecipientAddress     length      uint256    bytes    32 - 64 destinationRecipientAddress                   bytes    bytes    64 - (64 + len(destinationRecipientAddress))If the corresponding {tokenAddress} for the parsed {resourceID} supports {_INTERFACE_ERC721_METADATA}, then {metaData} will be set according to the {tokenURI} method in the token contract."
            },
            "executeProposal(bytes32,bytes)": {
                "notice": "Proposal execution should be initiated when a proposal is finalized in the Bridge contract. by a relayer on the deposit's destination chain.Data passed into the function should be constructed as follows: tokenID                                     uint256    bytes    0  - 32 destinationRecipientAddress     length      uint256    bytes    32 - 64 destinationRecipientAddress                   bytes    bytes    64 - (64 + len(destinationRecipientAddress)) metadata                        length      uint256    bytes    (64 + len(destinationRecipientAddress)) - (64 + len(destinationRecipientAddress) + 32) metadata                                      bytes    bytes    (64 + len(destinationRecipientAddress) + 32) - END"
            },
            "fundERC721(address,address,uint256)": {
                "notice": "Used to transfer tokens into the safe to fund proposals."
            },
            "setBurnable(address)": {
                "notice": "First verifies {contractAddress} is whitelisted, then sets {_burnList}[{contractAddress}] to true."
            },
            "setDecimals(address,uint8,uint8)": {
                "notice": "First verifies {contractAddress} is whitelisted, then sets {_decimals}[{contractAddress}] to it's decimals value."
            },
            "setResource(bytes32,address)": {
                "notice": "First verifies {_resourceIDToContractAddress}[{resourceID}] and {_contractAddressToResourceID}[{contractAddress}] are not already set, then sets {_resourceIDToContractAddress} with {contractAddress}, {_contractAddressToResourceID} with {resourceID}, and {_contractWhitelist} to true for {contractAddress}."
            },
            "withdraw(address,address,uint256)": {
                "notice": "Used to manually release ERC721 tokens from ERC721Safe."
            }
        },
        "notice": "This contract is intended to be used with the Bridge contract.",
        "version": 1
    }
}