{
  "contractName": "GenericHandler",
  "abi": [
    {
      "inputs": [
        {
          "internalType": "address",
          "name": "bridgeAddress",
          "type": "address"
        },
        {
          "internalType": "bytes32[]",
          "name": "initialResourceIDs",
          "type": "bytes32[]"
        },
        {
          "internalType": "address[]",
          "name": "initialContractAddresses",
          "type": "address[]"
        },
        {
          "internalType": "bytes4[]",
          "name": "initialDepositFunctionSignatures",
          "type": "bytes4[]"
        },
        {
          "internalType": "bytes4[]",
          "name": "initialExecuteFunctionSignatures",
          "type": "bytes4[]"
        }
      ],
      "stateMutability": "nonpayable",
      "type": "constructor"
    },
    {
      "inputs": [],
      "name": "_bridgeAddress",
      "outputs": [
        {
          "internalType": "address",
          "name": "",
          "type": "address"
        }
      ],
      "stateMutability": "view",
      "type": "function"
    },
    {
      "inputs": [
        {
          "internalType": "address",
          "name": "",
          "type": "address"
        }
      ],
      "name": "_contractAddressToDepositFunctionSignature",
      "outputs": [
        {
          "internalType": "bytes4",
          "name": "",
          "type": "bytes4"
        }
      ],
      "stateMutability": "view",
      "type": "function"
    },
    {
      "inputs": [
        {
          "internalType": "address",
          "name": "",
          "type": "address"
        }
      ],
      "name": "_contractAddressToExecuteFunctionSignature",
      "outputs": [
        {
          "internalType": "bytes4",
          "name": "",
          "type": "bytes4"
        }
      ],
      "stateMutability": "view",
      "type": "function"
    },
    {
      "inputs": [
        {
          "internalType": "address",
          "name": "",
          "type": "address"
        }
      ],
      "name": "_contractAddressToResourceID",
      "outputs": [
        {
          "internalType": "bytes32",
          "name": "",
          "type": "bytes32"
        }
      ],
      "stateMutability": "view",
      "type": "function"
    },
    {
      "inputs": [
        {
          "internalType": "address",
          "name": "",
          "type": "address"
        }
      ],
      "name": "_contractWhitelist",
      "outputs": [
        {
          "internalType": "bool",
          "name": "",
          "type": "bool"
        }
      ],
      "stateMutability": "view",
      "type": "function"
    },
    {
      "inputs": [
        {
          "internalType": "uint8",
          "name": "",
          "type": "uint8"
        },
        {
          "internalType": "uint64",
          "name": "",
          "type": "uint64"
        }
      ],
      "name": "_depositRecords",
      "outputs": [
        {
          "internalType": "uint8",
          "name": "_destinationChainID",
          "type": "uint8"
        },
        {
          "internalType": "address",
          "name": "_depositer",
          "type": "address"
        },
        {
          "internalType": "bytes32",
          "name": "_resourceID",
          "type": "bytes32"
        },
        {
          "internalType": "bytes",
          "name": "_metaData",
          "type": "bytes"
        }
      ],
      "stateMutability": "view",
      "type": "function"
    },
    {
      "inputs": [
        {
          "internalType": "bytes32",
          "name": "",
          "type": "bytes32"
        }
      ],
      "name": "_resourceIDToContractAddress",
      "outputs": [
        {
          "internalType": "address",
          "name": "",
          "type": "address"
        }
      ],
      "stateMutability": "view",
      "type": "function"
    },
    {
      "inputs": [
        {
          "internalType": "uint64",
          "name": "depositNonce",
          "type": "uint64"
        },
        {
          "internalType": "uint8",
          "name": "destId",
          "type": "uint8"
        }
      ],
      "name": "getDepositRecord",
      "outputs": [
        {
          "components": [
            {
              "internalType": "uint8",
              "name": "_destinationChainID",
              "type": "uint8"
            },
            {
              "internalType": "address",
              "name": "_depositer",
              "type": "address"
            },
            {
              "internalType": "bytes32",
              "name": "_resourceID",
              "type": "bytes32"
            },
            {
              "internalType": "bytes",
              "name": "_metaData",
              "type": "bytes"
            }
          ],
          "internalType": "struct GenericHandler.DepositRecord",
          "name": "",
          "type": "tuple"
        }
      ],
      "stateMutability": "view",
      "type": "function"
    },
    {
      "inputs": [
        {
          "internalType": "bytes32",
          "name": "resourceID",
          "type": "bytes32"
        },
        {
          "internalType": "address",
          "name": "contractAddress",
          "type": "address"
        },
        {
          "internalType": "bytes4",
          "name": "depositFunctionSig",
          "type": "bytes4"
        },
        {
          "internalType": "bytes4",
          "name": "executeFunctionSig",
          "type": "bytes4"
        }
      ],
      "name": "setResource",
      "outputs": [],
      "stateMutability": "nonpayable",
      "type": "function"
    },
    {
      "inputs": [
        {
          "internalType": "bytes32",
          "name": "resourceID",
          "type": "bytes32"
        },
        {
          "internalType": "uint8",
          "name": "destinationChainID",
          "type": "uint8"
        },
        {
          "internalType": "uint64",
          "name": "depositNonce",
          "type": "uint64"
        },
        {
          "internalType": "address",
          "name": "depositer",
          "type": "address"
        },
        {
          "internalType": "bytes",
          "name": "data",
          "type": "bytes"
        }
      ],
      "name": "deposit",
      "outputs": [],
      "stateMutability": "nonpayable",
      "type": "function"
    },
    {
      "inputs": [
        {
          "internalType": "bytes32",
          "name": "resourceID",
          "type": "bytes32"
        },
        {
          "internalType": "bytes",
          "name": "data",
          "type": "bytes"
        }
      ],
      "name": "executeProposal",
      "outputs": [],
      "stateMutability": "nonpayable",
      "type": "function"
    }
  ],
  "bytecode": "0x60806040523480156200001157600080fd5b50604051620022993803806200229983398181016040528101906200003791906200056d565b82518451146200007e576040517f08c379a000000000000000000000000000000000000000000000000000000000815260040162000075906200078b565b60405180910390fd5b8151835114620000c5576040517f08c379a0000000000000000000000000000000000000000000000000000000008152600401620000bc90620007cf565b60405180910390fd5b80518251146200010c576040517f08c379a00000000000000000000000000000000000000000000000000000000081526004016200010390620007ad565b60405180910390fd5b846000806101000a81548173ffffffffffffffffffffffffffffffffffffffff021916908373ffffffffffffffffffffffffffffffffffffffff16021790555060005b8451811015620001cb57620001bd8582815181106200016a57fe5b60200260200101518583815181106200017f57fe5b60200260200101518584815181106200019457fe5b6020026020010151858581518110620001a957fe5b6020026020010151620001d760201b60201c565b80806001019150506200014f565b50505050505062000963565b826002600086815260200190815260200160002060006101000a81548173ffffffffffffffffffffffffffffffffffffffff021916908373ffffffffffffffffffffffffffffffffffffffff16021790555083600360008573ffffffffffffffffffffffffffffffffffffffff1673ffffffffffffffffffffffffffffffffffffffff1681526020019081526020016000208190555081600460008573ffffffffffffffffffffffffffffffffffffffff1673ffffffffffffffffffffffffffffffffffffffff16815260200190815260200160002060006101000a81548163ffffffff021916908360e01c021790555080600560008573ffffffffffffffffffffffffffffffffffffffff1673ffffffffffffffffffffffffffffffffffffffff16815260200190815260200160002060006101000a81548163ffffffff021916908360e01c02179055506001600660008573ffffffffffffffffffffffffffffffffffffffff1673ffffffffffffffffffffffffffffffffffffffff16815260200190815260200160002060006101000a81548160ff02191690831515021790555050505050565b600081519050620003928162000915565b92915050565b600082601f830112620003aa57600080fd5b8151620003c1620003bb826200081f565b620007f1565b91508181835260208401935060208101905083856020840282011115620003e757600080fd5b60005b838110156200041b578162000400888262000381565b845260208401935060208301925050600181019050620003ea565b5050505092915050565b600082601f8301126200043757600080fd5b81516200044e620004488262000848565b620007f1565b915081818352602084019350602081019050838560208402820111156200047457600080fd5b60005b83811015620004a857816200048d88826200053f565b84526020840193506020830192505060018101905062000477565b5050505092915050565b600082601f830112620004c457600080fd5b8151620004db620004d58262000871565b620007f1565b915081818352602084019350602081019050838560208402820111156200050157600080fd5b60005b838110156200053557816200051a888262000556565b84526020840193506020830192505060018101905062000504565b5050505092915050565b60008151905062000550816200092f565b92915050565b600081519050620005678162000949565b92915050565b600080600080600060a086880312156200058657600080fd5b6000620005968882890162000381565b955050602086015167ffffffffffffffff811115620005b457600080fd5b620005c28882890162000425565b945050604086015167ffffffffffffffff811115620005e057600080fd5b620005ee8882890162000398565b935050606086015167ffffffffffffffff8111156200060c57600080fd5b6200061a88828901620004b2565b925050608086015167ffffffffffffffff8111156200063857600080fd5b6200064688828901620004b2565b9150509295509295909350565b600062000662603c836200089a565b91507f696e697469616c5265736f7572636549447320616e6420696e697469616c436f60008301527f6e7472616374416464726573736573206c656e206d69736d61746368000000006020830152604082019050919050565b6000620006ca603d836200089a565b91507f70726f7669646564206465706f73697420616e6420657865637574652066756e60008301527f6374696f6e207369676e617475726573206c656e206d69736d617463680000006020830152604082019050919050565b6000620007326040836200089a565b91507f70726f766964656420636f6e74726163742061646472657373657320616e642060008301527f66756e6374696f6e207369676e617475726573206c656e206d69736d617463686020830152604082019050919050565b60006020820190508181036000830152620007a68162000653565b9050919050565b60006020820190508181036000830152620007c881620006bb565b9050919050565b60006020820190508181036000830152620007ea8162000723565b9050919050565b6000604051905081810181811067ffffffffffffffff821117156200081557600080fd5b8060405250919050565b600067ffffffffffffffff8211156200083757600080fd5b602082029050602081019050919050565b600067ffffffffffffffff8211156200086057600080fd5b602082029050602081019050919050565b600067ffffffffffffffff8211156200088957600080fd5b602082029050602081019050919050565b600082825260208201905092915050565b6000620008b882620008f5565b9050919050565b6000819050919050565b60007fffffffff0000000000000000000000000000000000000000000000000000000082169050919050565b600073ffffffffffffffffffffffffffffffffffffffff82169050919050565b6200092081620008ab565b81146200092c57600080fd5b50565b6200093a81620008bf565b81146200094657600080fd5b50565b6200095481620008c9565b81146200096057600080fd5b50565b61192680620009736000396000f3fe608060405234801561001057600080fd5b50600436106100a95760003560e01c8063ba484c0911610071578063ba484c091461017b578063bba8185a146101ab578063c54c2a11146101c7578063cb624463146101f7578063e248cff214610227578063ec97d3b414610243576100a9565b8063318c136e146100ae57806338995da9146100cc5780634402027f146100e85780637f79bea81461011b578063a5c3a9851461014b575b600080fd5b6100b6610273565b6040516100c391906115ab565b60405180910390f35b6100e660048036038101906100e191906111d7565b610297565b005b61010260048036038101906100fd91906112ce565b6106a6565b60405161011294939291906116bb565b60405180910390f35b610135600480360381019061013091906110ca565b6107a8565b60405161014291906115c6565b60405180910390f35b610165600480360381019061016091906110ca565b6107c8565b60405161017291906115fc565b60405180910390f35b61019560048036038101906101909190611292565b6107e8565b6040516101a29190611699565b60405180910390f35b6101c560048036038101906101c0919061111c565b610960565b005b6101e160048036038101906101dc91906110f3565b61097a565b6040516101ee91906115ab565b60405180910390f35b610211600480360381019061020c91906110ca565b6109ad565b60405161021e91906115fc565b60405180910390f35b610241600480360381019061023c919061117f565b6109cd565b005b61025d600480360381019061025891906110ca565b610ccf565b60405161026a91906115e1565b60405180910390f35b60008054906101000a900473ffffffffffffffffffffffffffffffffffffffff1681565b61029f610ce7565b6000606083838101906102b29190611269565b9150838360209084602001926102ca93929190611750565b8080601f016020809104026020016040519081016040528093929190818152602001838380828437600081840152601f19601f8201169050808301925050505050505090506000600260008a815260200190815260200160002060009054906101000a900473ffffffffffffffffffffffffffffffffffffffff169050600660008273ffffffffffffffffffffffffffffffffffffffff1673ffffffffffffffffffffffffffffffffffffffff16815260200190815260200160002060009054906101000a900460ff166103d3576040517f08c379a00000000000000000000000000000000000000000000000000000000081526004016103ca90611679565b60405180910390fd5b6000600460008373ffffffffffffffffffffffffffffffffffffffff1673ffffffffffffffffffffffffffffffffffffffff16815260200190815260200160002060009054906101000a900460e01b9050600060e01b7bffffffffffffffffffffffffffffffffffffffffffffffffffffffff1916817bffffffffffffffffffffffffffffffffffffffffffffffffffffffff19161461059057606081846040516024016104819190611617565b604051602081830303815290604052907bffffffffffffffffffffffffffffffffffffffffffffffffffffffff19166020820180517bffffffffffffffffffffffffffffffffffffffffffffffffffffffff8381831617835250505050905060008373ffffffffffffffffffffffffffffffffffffffff16826040516105079190611594565b6000604051808303816000865af19150503d8060008114610544576040519150601f19603f3d011682016040523d82523d6000602084013e610549565b606091505b505090508061058d576040517f08c379a000000000000000000000000000000000000000000000000000000000815260040161058490611659565b60405180910390fd5b50505b60405180608001604052808a60ff1681526020018873ffffffffffffffffffffffffffffffffffffffff1681526020018b815260200184815250600160008b60ff1660ff16815260200190815260200160002060008a67ffffffffffffffff1667ffffffffffffffff16815260200190815260200160002060008201518160000160006101000a81548160ff021916908360ff16021790555060208201518160000160016101000a81548173ffffffffffffffffffffffffffffffffffffffff021916908373ffffffffffffffffffffffffffffffffffffffff160217905550604082015181600101556060820151816002019080519060200190610696929190610f21565b5090505050505050505050505050565b6001602052816000526040600020602052806000526040600020600091509150508060000160009054906101000a900460ff16908060000160019054906101000a900473ffffffffffffffffffffffffffffffffffffffff1690806001015490806002018054600181600116156101000203166002900480601f01602080910402602001604051908101604052809291908181526020018280546001816001161561010002031660029004801561079e5780601f106107735761010080835404028352916020019161079e565b820191906000526020600020905b81548152906001019060200180831161078157829003601f168201915b5050505050905084565b60066020528060005260406000206000915054906101000a900460ff1681565b60056020528060005260406000206000915054906101000a900460e01b81565b6107f0610fa1565b600160008360ff1660ff16815260200190815260200160002060008467ffffffffffffffff1667ffffffffffffffff1681526020019081526020016000206040518060800160405290816000820160009054906101000a900460ff1660ff1660ff1681526020016000820160019054906101000a900473ffffffffffffffffffffffffffffffffffffffff1673ffffffffffffffffffffffffffffffffffffffff1673ffffffffffffffffffffffffffffffffffffffff16815260200160018201548152602001600282018054600181600116156101000203166002900480601f01602080910402602001604051908101604052809291908181526020018280546001816001161561010002031660029004801561094f5780601f106109245761010080835404028352916020019161094f565b820191906000526020600020905b81548152906001019060200180831161093257829003601f168201915b505050505081525050905092915050565b610968610ce7565b61097484848484610d77565b50505050565b60026020528060005260406000206000915054906101000a900473ffffffffffffffffffffffffffffffffffffffff1681565b60046020528060005260406000206000915054906101000a900460e01b81565b6109d5610ce7565b6000606083838101906109e89190611269565b915083836020908460200192610a0093929190611750565b8080601f016020809104026020016040519081016040528093929190818152602001838380828437600081840152601f19601f82011690508083019250505050505050905060006002600087815260200190815260200160002060009054906101000a900473ffffffffffffffffffffffffffffffffffffffff169050600660008273ffffffffffffffffffffffffffffffffffffffff1673ffffffffffffffffffffffffffffffffffffffff16815260200190815260200160002060009054906101000a900460ff16610b09576040517f08c379a0000000000000000000000000000000000000000000000000000000008152600401610b0090611679565b60405180910390fd5b6000600560008373ffffffffffffffffffffffffffffffffffffffff1673ffffffffffffffffffffffffffffffffffffffff16815260200190815260200160002060009054906101000a900460e01b9050600060e01b7bffffffffffffffffffffffffffffffffffffffffffffffffffffffff1916817bffffffffffffffffffffffffffffffffffffffffffffffffffffffff191614610cc65760608184604051602401610bb79190611617565b604051602081830303815290604052907bffffffffffffffffffffffffffffffffffffffffffffffffffffffff19166020820180517bffffffffffffffffffffffffffffffffffffffffffffffffffffffff8381831617835250505050905060008373ffffffffffffffffffffffffffffffffffffffff1682604051610c3d9190611594565b6000604051808303816000865af19150503d8060008114610c7a576040519150601f19603f3d011682016040523d82523d6000602084013e610c7f565b606091505b5050905080610cc3576040517f08c379a0000000000000000000000000000000000000000000000000000000008152600401610cba90611659565b60405180910390fd5b50505b50505050505050565b60036020528060005260406000206000915090505481565b60008054906101000a900473ffffffffffffffffffffffffffffffffffffffff1673ffffffffffffffffffffffffffffffffffffffff163373ffffffffffffffffffffffffffffffffffffffff1614610d75576040517f08c379a0000000000000000000000000000000000000000000000000000000008152600401610d6c90611639565b60405180910390fd5b565b826002600086815260200190815260200160002060006101000a81548173ffffffffffffffffffffffffffffffffffffffff021916908373ffffffffffffffffffffffffffffffffffffffff16021790555083600360008573ffffffffffffffffffffffffffffffffffffffff1673ffffffffffffffffffffffffffffffffffffffff1681526020019081526020016000208190555081600460008573ffffffffffffffffffffffffffffffffffffffff1673ffffffffffffffffffffffffffffffffffffffff16815260200190815260200160002060006101000a81548163ffffffff021916908360e01c021790555080600560008573ffffffffffffffffffffffffffffffffffffffff1673ffffffffffffffffffffffffffffffffffffffff16815260200190815260200160002060006101000a81548163ffffffff021916908360e01c02179055506001600660008573ffffffffffffffffffffffffffffffffffffffff1673ffffffffffffffffffffffffffffffffffffffff16815260200190815260200160002060006101000a81548160ff02191690831515021790555050505050565b828054600181600116156101000203166002900490600052602060002090601f016020900481019282601f10610f6257805160ff1916838001178555610f90565b82800160010185558215610f90579182015b82811115610f8f578251825591602001919060010190610f74565b5b509050610f9d9190610fe5565b5090565b6040518060800160405280600060ff168152602001600073ffffffffffffffffffffffffffffffffffffffff16815260200160008019168152602001606081525090565b5b80821115610ffe576000816000905550600101610fe6565b5090565b60008135905061101181611866565b92915050565b6000813590506110268161187d565b92915050565b60008135905061103b81611894565b92915050565b60008083601f84011261105357600080fd5b8235905067ffffffffffffffff81111561106c57600080fd5b60208301915083600182028301111561108457600080fd5b9250929050565b60008135905061109a816118ab565b92915050565b6000813590506110af816118c2565b92915050565b6000813590506110c4816118d9565b92915050565b6000602082840312156110dc57600080fd5b60006110ea84828501611002565b91505092915050565b60006020828403121561110557600080fd5b600061111384828501611017565b91505092915050565b6000806000806080858703121561113257600080fd5b600061114087828801611017565b945050602061115187828801611002565b93505060406111628782880161102c565b92505060606111738782880161102c565b91505092959194509250565b60008060006040848603121561119457600080fd5b60006111a286828701611017565b935050602084013567ffffffffffffffff8111156111bf57600080fd5b6111cb86828701611041565b92509250509250925092565b60008060008060008060a087890312156111f057600080fd5b60006111fe89828a01611017565b965050602061120f89828a016110b5565b955050604061122089828a016110a0565b945050606061123189828a01611002565b935050608087013567ffffffffffffffff81111561124e57600080fd5b61125a89828a01611041565b92509250509295509295509295565b60006020828403121561127b57600080fd5b60006112898482850161108b565b91505092915050565b600080604083850312156112a557600080fd5b60006112b3858286016110a0565b92505060206112c4858286016110b5565b9150509250929050565b600080604083850312156112e157600080fd5b60006112ef858286016110b5565b9250506020611300858286016110a0565b9150509250929050565b61131381611783565b82525050565b61132281611783565b82525050565b61133181611795565b82525050565b611340816117a1565b82525050565b61134f816117a1565b82525050565b61135e816117ab565b82525050565b600061136f82611707565b6113798185611712565b9350611389818560208601611822565b61139281611855565b840191505092915050565b60006113a882611707565b6113b28185611723565b93506113c2818560208601611822565b6113cb81611855565b840191505092915050565b60006113e182611707565b6113eb8185611734565b93506113fb818560208601611822565b80840191505092915050565b6000611414601e8361173f565b91507f73656e646572206d7573742062652062726964676520636f6e747261637400006000830152602082019050919050565b600061145460268361173f565b91507f64656c656761746563616c6c20746f20636f6e7472616374416464726573732060008301527f6661696c656400000000000000000000000000000000000000000000000000006020830152604082019050919050565b60006114ba602b8361173f565b91507f70726f766964656420636f6e747261637441646472657373206973206e6f742060008301527f77686974656c69737465640000000000000000000000000000000000000000006020830152604082019050919050565b600060808301600083015161152b6000860182611576565b50602083015161153e602086018261130a565b5060408301516115516040860182611337565b50606083015184820360608601526115698282611364565b9150508091505092915050565b61157f81611815565b82525050565b61158e81611815565b82525050565b60006115a082846113d6565b915081905092915050565b60006020820190506115c06000830184611319565b92915050565b60006020820190506115db6000830184611328565b92915050565b60006020820190506115f66000830184611346565b92915050565b60006020820190506116116000830184611355565b92915050565b60006020820190508181036000830152611631818461139d565b905092915050565b6000602082019050818103600083015261165281611407565b9050919050565b6000602082019050818103600083015261167281611447565b9050919050565b60006020820190508181036000830152611692816114ad565b9050919050565b600060208201905081810360008301526116b38184611513565b905092915050565b60006080820190506116d06000830187611585565b6116dd6020830186611319565b6116ea6040830185611346565b81810360608301526116fc818461139d565b905095945050505050565b600081519050919050565b600082825260208201905092915050565b600082825260208201905092915050565b600081905092915050565b600082825260208201905092915050565b6000808585111561176057600080fd5b8386111561176d57600080fd5b6001850283019150848603905094509492505050565b600061178e826117d7565b9050919050565b60008115159050919050565b6000819050919050565b60007fffffffff0000000000000000000000000000000000000000000000000000000082169050919050565b600073ffffffffffffffffffffffffffffffffffffffff82169050919050565b6000819050919050565b600067ffffffffffffffff82169050919050565b600060ff82169050919050565b60005b83811015611840578082015181840152602081019050611825565b8381111561184f576000848401525b50505050565b6000601f19601f8301169050919050565b61186f81611783565b811461187a57600080fd5b50565b611886816117a1565b811461189157600080fd5b50565b61189d816117ab565b81146118a857600080fd5b50565b6118b4816117f7565b81146118bf57600080fd5b50565b6118cb81611801565b81146118d657600080fd5b50565b6118e281611815565b81146118ed57600080fd5b5056fea2646970667358221220bf4ffa6810c17e54451e48b88a090bdc8aee4b4eb92fdab1f3013e225ec79e2064736f6c63430007000033",
  "immutableReferences": {},
  "source": "pragma solidity 0.7.0;\r\npragma experimental ABIEncoderV2;\r\n\r\nimport \"../interfaces/IGenericHandler.sol\";\r\n\r\n/**\r\n    @title Handles generic deposits and deposit executions.\r\n    @author ChainSafe Systems.\r\n    @notice This contract is intended to be used with the Bridge contract.\r\n */\r\ncontract GenericHandler is IGenericHandler {\r\n    address public _bridgeAddress;\r\n\r\n    struct DepositRecord {\r\n        uint8   _destinationChainID;\r\n        address _depositer;\r\n        bytes32 _resourceID;\r\n        bytes   _metaData;\r\n    }\r\n\r\n    // depositNonce => Deposit Record\r\n    mapping (uint8 => mapping(uint64 => DepositRecord)) public _depositRecords;\r\n\r\n    // resourceID => contract address\r\n    mapping (bytes32 => address) public _resourceIDToContractAddress;\r\n\r\n    // contract address => resourceID\r\n    mapping (address => bytes32) public _contractAddressToResourceID;\r\n\r\n    // contract address => deposit function signature\r\n    mapping (address => bytes4) public _contractAddressToDepositFunctionSignature;\r\n\r\n    // contract address => execute proposal function signature\r\n    mapping (address => bytes4) public _contractAddressToExecuteFunctionSignature;\r\n\r\n    // token contract address => is whitelisted\r\n    mapping (address => bool) public _contractWhitelist;\r\n\r\n    modifier onlyBridge() {\r\n        _onlyBridge();\r\n        _;\r\n    }\r\n\r\n    function _onlyBridge() private {\r\n         require(msg.sender == _bridgeAddress, \"sender must be bridge contract\");\r\n    }\r\n\r\n    /**\r\n        @param bridgeAddress Contract address of previously deployed Bridge.\r\n        @param initialResourceIDs Resource IDs used to identify a specific contract address.\r\n        These are the Resource IDs this contract will initially support.\r\n        @param initialContractAddresses These are the addresses the {initialResourceIDs} will point to, and are the contracts that will be\r\n        called to perform deposit and execution calls.\r\n        @param initialDepositFunctionSignatures These are the function signatures {initialContractAddresses} will point to,\r\n        and are the function that will be called when executing {deposit}\r\n        @param initialExecuteFunctionSignatures These are the function signatures {initialContractAddresses} will point to,\r\n        and are the function that will be called when executing {executeProposal}\r\n\r\n        @dev {initialResourceIDs}, {initialContractAddresses}, {initialDepositFunctionSignatures},\r\n        and {initialExecuteFunctionSignatures} must all have the same length. Also,\r\n        values must be ordered in the way that that index x of any mentioned array\r\n        must be intended for value x of any other array, e.g. {initialContractAddresses}[0]\r\n        is the intended address for {initialDepositFunctionSignatures}[0].\r\n     */\r\n    constructor(\r\n        address          bridgeAddress,\r\n        bytes32[] memory initialResourceIDs,\r\n        address[] memory initialContractAddresses,\r\n        bytes4[]  memory initialDepositFunctionSignatures,\r\n        bytes4[]  memory initialExecuteFunctionSignatures\r\n    ) public {\r\n        require(initialResourceIDs.length == initialContractAddresses.length,\r\n            \"initialResourceIDs and initialContractAddresses len mismatch\");\r\n\r\n        require(initialContractAddresses.length == initialDepositFunctionSignatures.length,\r\n            \"provided contract addresses and function signatures len mismatch\");\r\n\r\n        require(initialDepositFunctionSignatures.length == initialExecuteFunctionSignatures.length,\r\n            \"provided deposit and execute function signatures len mismatch\");\r\n\r\n        _bridgeAddress = bridgeAddress;\r\n\r\n        for (uint256 i = 0; i < initialResourceIDs.length; i++) {\r\n            _setResource(\r\n                initialResourceIDs[i],\r\n                initialContractAddresses[i],\r\n                initialDepositFunctionSignatures[i],\r\n                initialExecuteFunctionSignatures[i]);\r\n        }\r\n    }\r\n\r\n    /**\r\n        @param depositNonce This ID will have been generated by the Bridge contract.\r\n        @param destId ID of chain deposit will be bridged to.\r\n        @return DepositRecord which consists of:\r\n        - _destinationChainID ChainID deposited tokens are intended to end up on.\r\n        - _resourceID ResourceID used when {deposit} was executed.\r\n        - _depositer Address that initially called {deposit} in the Bridge contract.\r\n        - _metaData Data to be passed to method executed in corresponding {resourceID} contract.\r\n    */\r\n    function getDepositRecord(uint64 depositNonce, uint8 destId) external view returns (DepositRecord memory) {\r\n        return _depositRecords[destId][depositNonce];\r\n    }\r\n\r\n    /**\r\n        @notice First verifies {_resourceIDToContractAddress}[{resourceID}] and\r\n        {_contractAddressToResourceID}[{contractAddress}] are not already set,\r\n        then sets {_resourceIDToContractAddress} with {contractAddress},\r\n        {_contractAddressToResourceID} with {resourceID},\r\n        {_contractAddressToDepositFunctionSignature} with {depositFunctionSig},\r\n        {_contractAddressToExecuteFunctionSignature} with {executeFunctionSig},\r\n        and {_contractWhitelist} to true for {contractAddress}.\r\n        @param resourceID ResourceID to be used when making deposits.\r\n        @param contractAddress Address of contract to be called when a deposit is made and a deposited is executed.\r\n        @param depositFunctionSig Function signature of method to be called in {contractAddress} when a deposit is made.\r\n        @param executeFunctionSig Function signature of method to be called in {contractAddress} when a deposit is executed.\r\n     */\r\n    function setResource(\r\n        bytes32 resourceID,\r\n        address contractAddress,\r\n        bytes4 depositFunctionSig,\r\n        bytes4 executeFunctionSig\r\n    ) external onlyBridge override {\r\n\r\n        _setResource(resourceID, contractAddress, depositFunctionSig, executeFunctionSig);\r\n    }\r\n\r\n    /**\r\n        @notice A deposit is initiatied by making a deposit in the Bridge contract.\r\n        @param destinationChainID Chain ID deposit is expected to be bridged to.\r\n        @param depositNonce This value is generated as an ID by the Bridge contract.\r\n        @param depositer Address of account making the deposit in the Bridge contract.\r\n        @param data Consists of: {resourceID}, {lenMetaData}, and {metaData} all padded to 32 bytes.\r\n        @notice Data passed into the function should be constructed as follows:\r\n        len(data)                              uint256     bytes  0  - 32\r\n        data                                   bytes       bytes  64 - END\r\n        @notice {contractAddress} is required to be whitelisted\r\n        @notice If {_contractAddressToDepositFunctionSignature}[{contractAddress}] is set,\r\n        {metaData} is expected to consist of needed function arguments.\r\n     */\r\n    function deposit(bytes32 resourceID, uint8 destinationChainID, uint64 depositNonce, address depositer, bytes calldata data) external onlyBridge {\r\n        uint256      lenMetadata;\r\n        bytes memory metadata;\r\n\r\n        lenMetadata = abi.decode(data, (uint256));\r\n        metadata = bytes(data[32:32 + lenMetadata]);\r\n\r\n        address contractAddress = _resourceIDToContractAddress[resourceID];\r\n        require(_contractWhitelist[contractAddress], \"provided contractAddress is not whitelisted\");\r\n\r\n        bytes4 sig = _contractAddressToDepositFunctionSignature[contractAddress];\r\n        if (sig != bytes4(0)) {\r\n            bytes memory callData = abi.encodeWithSelector(sig, metadata);\r\n            (bool success,) = contractAddress.call(callData);\r\n            require(success, \"delegatecall to contractAddress failed\");\r\n        }\r\n\r\n        _depositRecords[destinationChainID][depositNonce] = DepositRecord(\r\n            destinationChainID,\r\n            depositer,\r\n            resourceID,\r\n            metadata\r\n        );\r\n    }\r\n\r\n    /**\r\n        @notice Proposal execution should be initiated when a proposal is finalized in the Bridge contract.\r\n        @param data Consists of {resourceID}, {lenMetaData}, and {metaData}.\r\n        @notice Data passed into the function should be constructed as follows:\r\n        len(data)                              uint256     bytes  0  - 32\r\n        data                                   bytes       bytes  32 - END\r\n        @notice {contractAddress} is required to be whitelisted\r\n        @notice If {_contractAddressToExecuteFunctionSignature}[{contractAddress}] is set,\r\n        {metaData} is expected to consist of needed function arguments.\r\n     */\r\n    function executeProposal(bytes32 resourceID, bytes calldata data) external onlyBridge {\r\n        uint256      lenMetadata;\r\n        bytes memory metaData;\r\n\r\n        lenMetadata = abi.decode(data, (uint256));\r\n        metaData = bytes(data[32:32 + lenMetadata]);\r\n\r\n        address contractAddress = _resourceIDToContractAddress[resourceID];\r\n        require(_contractWhitelist[contractAddress], \"provided contractAddress is not whitelisted\");\r\n\r\n        bytes4 sig = _contractAddressToExecuteFunctionSignature[contractAddress];\r\n        if (sig != bytes4(0)) {\r\n            bytes memory callData = abi.encodeWithSelector(sig, metaData);\r\n            (bool success,) = contractAddress.call(callData);\r\n            require(success, \"delegatecall to contractAddress failed\");\r\n        }\r\n    }\r\n\r\n    function _setResource(\r\n        bytes32 resourceID,\r\n        address contractAddress,\r\n        bytes4 depositFunctionSig,\r\n        bytes4 executeFunctionSig\r\n    ) internal {\r\n        _resourceIDToContractAddress[resourceID] = contractAddress;\r\n        _contractAddressToResourceID[contractAddress] = resourceID;\r\n        _contractAddressToDepositFunctionSignature[contractAddress] = depositFunctionSig;\r\n        _contractAddressToExecuteFunctionSignature[contractAddress] = executeFunctionSig;\r\n\r\n        _contractWhitelist[contractAddress] = true;\r\n    }\r\n}\r\n",
  "sourcePath": "D:\\SourceTree\\ChainBridge_solidity\\contracts\\handlers\\GenericHandler.sol",
  "compiler": {
    "name": "solc",
    "version": "0.7.0+commit.9e61f92b.Emscripten.clang"
  },
  "schemaVersion": "3.4.12",
  "updatedAt": "2023-02-26T08:46:24.143Z",
  "devdoc": {
    "author": "ChainSafe Systems.",
    "kind": "dev",
    "methods": {
      "constructor": {
        "details": "{initialResourceIDs}, {initialContractAddresses}, {initialDepositFunctionSignatures}, and {initialExecuteFunctionSignatures} must all have the same length. Also, values must be ordered in the way that that index x of any mentioned array must be intended for value x of any other array, e.g. {initialContractAddresses}[0] is the intended address for {initialDepositFunctionSignatures}[0].",
        "params": {
          "bridgeAddress": "Contract address of previously deployed Bridge.",
          "initialContractAddresses": "These are the addresses the {initialResourceIDs} will point to, and are the contracts that will be called to perform deposit and execution calls.",
          "initialDepositFunctionSignatures": "These are the function signatures {initialContractAddresses} will point to, and are the function that will be called when executing {deposit}",
          "initialExecuteFunctionSignatures": "These are the function signatures {initialContractAddresses} will point to, and are the function that will be called when executing {executeProposal}",
          "initialResourceIDs": "Resource IDs used to identify a specific contract address. These are the Resource IDs this contract will initially support."
        }
      },
      "deposit(bytes32,uint8,uint64,address,bytes)": {
        "params": {
          "data": "Consists of: {resourceID}, {lenMetaData}, and {metaData} all padded to 32 bytes.",
          "depositNonce": "This value is generated as an ID by the Bridge contract.",
          "depositer": "Address of account making the deposit in the Bridge contract.",
          "destinationChainID": "Chain ID deposit is expected to be bridged to."
        }
      },
      "executeProposal(bytes32,bytes)": {
        "params": {
          "data": "Consists of {resourceID}, {lenMetaData}, and {metaData}."
        }
      },
      "getDepositRecord(uint64,uint8)": {
        "params": {
          "depositNonce": "This ID will have been generated by the Bridge contract.",
          "destId": "ID of chain deposit will be bridged to."
        },
        "returns": {
          "_0": "DepositRecord which consists of: - _destinationChainID ChainID deposited tokens are intended to end up on. - _resourceID ResourceID used when {deposit} was executed. - _depositer Address that initially called {deposit} in the Bridge contract. - _metaData Data to be passed to method executed in corresponding {resourceID} contract."
        }
      },
      "setResource(bytes32,address,bytes4,bytes4)": {
        "params": {
          "contractAddress": "Address of contract to be called when a deposit is made and a deposited is executed.",
          "depositFunctionSig": "Function signature of method to be called in {contractAddress} when a deposit is made.",
          "executeFunctionSig": "Function signature of method to be called in {contractAddress} when a deposit is executed.",
          "resourceID": "ResourceID to be used when making deposits."
        }
      }
    },
    "title": "Handles generic deposits and deposit executions.",
    "version": 1
  },
  "userdoc": {
    "kind": "user",
    "methods": {
      "deposit(bytes32,uint8,uint64,address,bytes)": {
        "notice": "A deposit is initiatied by making a deposit in the Bridge contract.Data passed into the function should be constructed as follows: len(data)                              uint256     bytes  0  - 32 data                                   bytes       bytes  64 - END{contractAddress} is required to be whitelistedIf {_contractAddressToDepositFunctionSignature}[{contractAddress}] is set, {metaData} is expected to consist of needed function arguments."
      },
      "executeProposal(bytes32,bytes)": {
        "notice": "Proposal execution should be initiated when a proposal is finalized in the Bridge contract.Data passed into the function should be constructed as follows: len(data)                              uint256     bytes  0  - 32 data                                   bytes       bytes  32 - END{contractAddress} is required to be whitelistedIf {_contractAddressToExecuteFunctionSignature}[{contractAddress}] is set, {metaData} is expected to consist of needed function arguments."
      },
      "setResource(bytes32,address,bytes4,bytes4)": {
        "notice": "First verifies {_resourceIDToContractAddress}[{resourceID}] and {_contractAddressToResourceID}[{contractAddress}] are not already set, then sets {_resourceIDToContractAddress} with {contractAddress}, {_contractAddressToResourceID} with {resourceID}, {_contractAddressToDepositFunctionSignature} with {depositFunctionSig}, {_contractAddressToExecuteFunctionSignature} with {executeFunctionSig}, and {_contractWhitelist} to true for {contractAddress}."
      }
    },
    "notice": "This contract is intended to be used with the Bridge contract.",
    "version": 1
  }
}