{
  "contractName": "Bridge",
  "abi": [
    {
      "inputs": [
        {
          "internalType": "uint8",
          "name": "chainID",
          "type": "uint8"
        },
        {
          "internalType": "address[]",
          "name": "initialRelayers",
          "type": "address[]"
        },
        {
          "internalType": "uint256",
          "name": "initialRelayerThreshold",
          "type": "uint256"
        },
        {
          "internalType": "uint256",
          "name": "fee",
          "type": "uint256"
        },
        {
          "internalType": "uint256",
          "name": "expiry",
          "type": "uint256"
        }
      ],
      "stateMutability": "nonpayable",
      "type": "constructor"
    },
    {
      "anonymous": false,
      "inputs": [
        {
          "indexed": true,
          "internalType": "uint8",
          "name": "destinationChainID",
          "type": "uint8"
        },
        {
          "indexed": true,
          "internalType": "bytes32",
          "name": "resourceID",
          "type": "bytes32"
        },
        {
          "indexed": true,
          "internalType": "uint64",
          "name": "depositNonce",
          "type": "uint64"
        }
      ],
      "name": "Deposit",
      "type": "event"
    },
    {
      "anonymous": false,
      "inputs": [
        {
          "indexed": false,
          "internalType": "address",
          "name": "account",
          "type": "address"
        }
      ],
      "name": "Paused",
      "type": "event"
    },
    {
      "anonymous": false,
      "inputs": [
        {
          "indexed": true,
          "internalType": "uint8",
          "name": "originChainID",
          "type": "uint8"
        },
        {
          "indexed": true,
          "internalType": "uint64",
          "name": "depositNonce",
          "type": "uint64"
        },
        {
          "indexed": true,
          "internalType": "enum Bridge.ProposalStatus",
          "name": "status",
          "type": "uint8"
        },
        {
          "indexed": false,
          "internalType": "bytes32",
          "name": "resourceID",
          "type": "bytes32"
        },
        {
          "indexed": false,
          "internalType": "bytes32",
          "name": "dataHash",
          "type": "bytes32"
        }
      ],
      "name": "ProposalEvent",
      "type": "event"
    },
    {
      "anonymous": false,
      "inputs": [
        {
          "indexed": true,
          "internalType": "uint256",
          "name": "newThreshold",
          "type": "uint256"
        }
      ],
      "name": "RelayerThresholdChanged",
      "type": "event"
    },
    {
      "anonymous": false,
      "inputs": [
        {
          "indexed": true,
          "internalType": "bytes32",
          "name": "role",
          "type": "bytes32"
        },
        {
          "indexed": true,
          "internalType": "bytes32",
          "name": "previousAdminRole",
          "type": "bytes32"
        },
        {
          "indexed": true,
          "internalType": "bytes32",
          "name": "newAdminRole",
          "type": "bytes32"
        }
      ],
      "name": "RoleAdminChanged",
      "type": "event"
    },
    {
      "anonymous": false,
      "inputs": [
        {
          "indexed": true,
          "internalType": "bytes32",
          "name": "role",
          "type": "bytes32"
        },
        {
          "indexed": true,
          "internalType": "address",
          "name": "account",
          "type": "address"
        },
        {
          "indexed": true,
          "internalType": "address",
          "name": "sender",
          "type": "address"
        }
      ],
      "name": "RoleGranted",
      "type": "event"
    },
    {
      "anonymous": false,
      "inputs": [
        {
          "indexed": true,
          "internalType": "bytes32",
          "name": "role",
          "type": "bytes32"
        },
        {
          "indexed": true,
          "internalType": "address",
          "name": "account",
          "type": "address"
        },
        {
          "indexed": true,
          "internalType": "address",
          "name": "sender",
          "type": "address"
        }
      ],
      "name": "RoleRevoked",
      "type": "event"
    },
    {
      "anonymous": false,
      "inputs": [
        {
          "indexed": false,
          "internalType": "address",
          "name": "account",
          "type": "address"
        }
      ],
      "name": "Unpaused",
      "type": "event"
    },
    {
      "inputs": [],
      "name": "DEFAULT_ADMIN_ROLE",
      "outputs": [
        {
          "internalType": "bytes32",
          "name": "",
          "type": "bytes32"
        }
      ],
      "stateMutability": "view",
      "type": "function"
    },
    {
      "inputs": [],
      "name": "EXECUTOR_ROLE",
      "outputs": [
        {
          "internalType": "bytes32",
          "name": "",
          "type": "bytes32"
        }
      ],
      "stateMutability": "view",
      "type": "function"
    },
    {
      "inputs": [],
      "name": "RELAYER_ROLE",
      "outputs": [
        {
          "internalType": "bytes32",
          "name": "",
          "type": "bytes32"
        }
      ],
      "stateMutability": "view",
      "type": "function"
    },
    {
      "inputs": [],
      "name": "_chainID",
      "outputs": [
        {
          "internalType": "uint8",
          "name": "",
          "type": "uint8"
        }
      ],
      "stateMutability": "view",
      "type": "function"
    },
    {
      "inputs": [
        {
          "internalType": "uint8",
          "name": "",
          "type": "uint8"
        }
      ],
      "name": "_depositCounts",
      "outputs": [
        {
          "internalType": "uint64",
          "name": "",
          "type": "uint64"
        }
      ],
      "stateMutability": "view",
      "type": "function"
    },
    {
      "inputs": [
        {
          "internalType": "uint64",
          "name": "",
          "type": "uint64"
        },
        {
          "internalType": "uint8",
          "name": "",
          "type": "uint8"
        }
      ],
      "name": "_depositRecords",
      "outputs": [
        {
          "internalType": "bytes",
          "name": "",
          "type": "bytes"
        }
      ],
      "stateMutability": "view",
      "type": "function"
    },
    {
      "inputs": [],
      "name": "_expiry",
      "outputs": [
        {
          "internalType": "uint256",
          "name": "",
          "type": "uint256"
        }
      ],
      "stateMutability": "view",
      "type": "function"
    },
    {
      "inputs": [],
      "name": "_fee",
      "outputs": [
        {
          "internalType": "uint256",
          "name": "",
          "type": "uint256"
        }
      ],
      "stateMutability": "view",
      "type": "function"
    },
    {
      "inputs": [
        {
          "internalType": "uint72",
          "name": "",
          "type": "uint72"
        },
        {
          "internalType": "bytes32",
          "name": "",
          "type": "bytes32"
        },
        {
          "internalType": "address",
          "name": "",
          "type": "address"
        }
      ],
      "name": "_hasVotedOnProposal",
      "outputs": [
        {
          "internalType": "bool",
          "name": "",
          "type": "bool"
        }
      ],
      "stateMutability": "view",
      "type": "function"
    },
    {
      "inputs": [
        {
          "internalType": "uint72",
          "name": "",
          "type": "uint72"
        },
        {
          "internalType": "bytes32",
          "name": "",
          "type": "bytes32"
        }
      ],
      "name": "_proposals",
      "outputs": [
        {
          "internalType": "bytes32",
          "name": "_resourceID",
          "type": "bytes32"
        },
        {
          "internalType": "bytes32",
          "name": "_dataHash",
          "type": "bytes32"
        },
        {
          "internalType": "enum Bridge.ProposalStatus",
          "name": "_status",
          "type": "uint8"
        },
        {
          "internalType": "uint256",
          "name": "_proposedBlock",
          "type": "uint256"
        }
      ],
      "stateMutability": "view",
      "type": "function"
    },
    {
      "inputs": [],
      "name": "_relayerThreshold",
      "outputs": [
        {
          "internalType": "uint256",
          "name": "",
          "type": "uint256"
        }
      ],
      "stateMutability": "view",
      "type": "function"
    },
    {
      "inputs": [
        {
          "internalType": "bytes32",
          "name": "",
          "type": "bytes32"
        }
      ],
      "name": "_resourceIDToHandlerAddress",
      "outputs": [
        {
          "internalType": "address",
          "name": "",
          "type": "address"
        }
      ],
      "stateMutability": "view",
      "type": "function"
    },
    {
      "inputs": [],
      "name": "_totalProposals",
      "outputs": [
        {
          "internalType": "uint256",
          "name": "",
          "type": "uint256"
        }
      ],
      "stateMutability": "view",
      "type": "function"
    },
    {
      "inputs": [
        {
          "internalType": "bytes32",
          "name": "role",
          "type": "bytes32"
        }
      ],
      "name": "getRoleAdmin",
      "outputs": [
        {
          "internalType": "bytes32",
          "name": "",
          "type": "bytes32"
        }
      ],
      "stateMutability": "view",
      "type": "function"
    },
    {
      "inputs": [
        {
          "internalType": "bytes32",
          "name": "role",
          "type": "bytes32"
        },
        {
          "internalType": "uint256",
          "name": "index",
          "type": "uint256"
        }
      ],
      "name": "getRoleMember",
      "outputs": [
        {
          "internalType": "address",
          "name": "",
          "type": "address"
        }
      ],
      "stateMutability": "view",
      "type": "function"
    },
    {
      "inputs": [
        {
          "internalType": "bytes32",
          "name": "role",
          "type": "bytes32"
        }
      ],
      "name": "getRoleMemberCount",
      "outputs": [
        {
          "internalType": "uint256",
          "name": "",
          "type": "uint256"
        }
      ],
      "stateMutability": "view",
      "type": "function"
    },
    {
      "inputs": [
        {
          "internalType": "bytes32",
          "name": "role",
          "type": "bytes32"
        },
        {
          "internalType": "address",
          "name": "account",
          "type": "address"
        }
      ],
      "name": "grantRole",
      "outputs": [],
      "stateMutability": "nonpayable",
      "type": "function"
    },
    {
      "inputs": [
        {
          "internalType": "bytes32",
          "name": "role",
          "type": "bytes32"
        },
        {
          "internalType": "address",
          "name": "account",
          "type": "address"
        }
      ],
      "name": "hasRole",
      "outputs": [
        {
          "internalType": "bool",
          "name": "",
          "type": "bool"
        }
      ],
      "stateMutability": "view",
      "type": "function"
    },
    {
      "inputs": [],
      "name": "paused",
      "outputs": [
        {
          "internalType": "bool",
          "name": "",
          "type": "bool"
        }
      ],
      "stateMutability": "view",
      "type": "function"
    },
    {
      "inputs": [
        {
          "internalType": "bytes32",
          "name": "role",
          "type": "bytes32"
        },
        {
          "internalType": "address",
          "name": "account",
          "type": "address"
        }
      ],
      "name": "renounceRole",
      "outputs": [],
      "stateMutability": "nonpayable",
      "type": "function"
    },
    {
      "inputs": [
        {
          "internalType": "bytes32",
          "name": "role",
          "type": "bytes32"
        },
        {
          "internalType": "address",
          "name": "account",
          "type": "address"
        }
      ],
      "name": "revokeRole",
      "outputs": [],
      "stateMutability": "nonpayable",
      "type": "function"
    },
    {
      "inputs": [
        {
          "internalType": "bytes4",
          "name": "interfaceId",
          "type": "bytes4"
        }
      ],
      "name": "supportsInterface",
      "outputs": [
        {
          "internalType": "bool",
          "name": "",
          "type": "bool"
        }
      ],
      "stateMutability": "view",
      "type": "function"
    },
    {
      "inputs": [
        {
          "internalType": "address",
          "name": "relayer",
          "type": "address"
        }
      ],
      "name": "isRelayer",
      "outputs": [
        {
          "internalType": "bool",
          "name": "",
          "type": "bool"
        }
      ],
      "stateMutability": "view",
      "type": "function"
    },
    {
      "inputs": [
        {
          "internalType": "address",
          "name": "newAdmin",
          "type": "address"
        }
      ],
      "name": "renounceAdmin",
      "outputs": [],
      "stateMutability": "nonpayable",
      "type": "function"
    },
    {
      "inputs": [],
      "name": "adminPauseTransfers",
      "outputs": [],
      "stateMutability": "nonpayable",
      "type": "function"
    },
    {
      "inputs": [],
      "name": "adminUnpauseTransfers",
      "outputs": [],
      "stateMutability": "nonpayable",
      "type": "function"
    },
    {
      "inputs": [
        {
          "internalType": "uint256",
          "name": "newThreshold",
          "type": "uint256"
        }
      ],
      "name": "adminChangeRelayerThreshold",
      "outputs": [],
      "stateMutability": "nonpayable",
      "type": "function"
    },
    {
      "inputs": [
        {
          "internalType": "address",
          "name": "relayerAddress",
          "type": "address"
        }
      ],
      "name": "adminAddRelayer",
      "outputs": [],
      "stateMutability": "nonpayable",
      "type": "function"
    },
    {
      "inputs": [
        {
          "internalType": "address",
          "name": "relayerAddress",
          "type": "address"
        }
      ],
      "name": "adminRemoveRelayer",
      "outputs": [],
      "stateMutability": "nonpayable",
      "type": "function"
    },
    {
      "inputs": [
        {
          "internalType": "address",
          "name": "executorAddress",
          "type": "address"
        }
      ],
      "name": "relayerAddExecutor",
      "outputs": [],
      "stateMutability": "nonpayable",
      "type": "function"
    },
    {
      "inputs": [
        {
          "internalType": "address",
          "name": "executorAddress",
          "type": "address"
        }
      ],
      "name": "relayerRemoveExecutor",
      "outputs": [],
      "stateMutability": "nonpayable",
      "type": "function"
    },
    {
      "inputs": [
        {
          "internalType": "address",
          "name": "handlerAddress",
          "type": "address"
        },
        {
          "internalType": "bytes32",
          "name": "resourceID",
          "type": "bytes32"
        },
        {
          "internalType": "address",
          "name": "tokenAddress",
          "type": "address"
        }
      ],
      "name": "adminSetResource",
      "outputs": [],
      "stateMutability": "nonpayable",
      "type": "function"
    },
    {
      "inputs": [
        {
          "internalType": "address",
          "name": "handlerAddress",
          "type": "address"
        },
        {
          "internalType": "bytes32",
          "name": "resourceID",
          "type": "bytes32"
        },
        {
          "internalType": "address",
          "name": "contractAddress",
          "type": "address"
        },
        {
          "internalType": "bytes4",
          "name": "depositFunctionSig",
          "type": "bytes4"
        },
        {
          "internalType": "bytes4",
          "name": "executeFunctionSig",
          "type": "bytes4"
        }
      ],
      "name": "adminSetGenericResource",
      "outputs": [],
      "stateMutability": "nonpayable",
      "type": "function"
    },
    {
      "inputs": [
        {
          "internalType": "address",
          "name": "handlerAddress",
          "type": "address"
        },
        {
          "internalType": "address",
          "name": "tokenAddress",
          "type": "address"
        }
      ],
      "name": "adminSetBurnable",
      "outputs": [],
      "stateMutability": "nonpayable",
      "type": "function"
    },
    {
      "inputs": [
        {
          "internalType": "uint8",
          "name": "originChainID",
          "type": "uint8"
        },
        {
          "internalType": "uint64",
          "name": "depositNonce",
          "type": "uint64"
        },
        {
          "internalType": "bytes32",
          "name": "dataHash",
          "type": "bytes32"
        }
      ],
      "name": "getProposal",
      "outputs": [
        {
          "components": [
            {
              "internalType": "bytes32",
              "name": "_resourceID",
              "type": "bytes32"
            },
            {
              "internalType": "bytes32",
              "name": "_dataHash",
              "type": "bytes32"
            },
            {
              "internalType": "address[]",
              "name": "_yesVotes",
              "type": "address[]"
            },
            {
              "internalType": "address[]",
              "name": "_noVotes",
              "type": "address[]"
            },
            {
              "internalType": "enum Bridge.ProposalStatus",
              "name": "_status",
              "type": "uint8"
            },
            {
              "internalType": "uint256",
              "name": "_proposedBlock",
              "type": "uint256"
            }
          ],
          "internalType": "struct Bridge.Proposal",
          "name": "",
          "type": "tuple"
        }
      ],
      "stateMutability": "view",
      "type": "function"
    },
    {
      "inputs": [
        {
          "internalType": "uint8",
          "name": "chainId",
          "type": "uint8"
        },
        {
          "internalType": "uint64",
          "name": "depositNonce",
          "type": "uint64"
        }
      ],
      "name": "adminSetDepositNonce",
      "outputs": [],
      "stateMutability": "nonpayable",
      "type": "function"
    },
    {
      "inputs": [
        {
          "internalType": "uint256",
          "name": "newFee",
          "type": "uint256"
        }
      ],
      "name": "adminChangeFee",
      "outputs": [],
      "stateMutability": "nonpayable",
      "type": "function"
    },
    {
      "inputs": [
        {
          "internalType": "uint256",
          "name": "newExpiry",
          "type": "uint256"
        }
      ],
      "name": "adminExpiry",
      "outputs": [],
      "stateMutability": "nonpayable",
      "type": "function"
    },
    {
      "inputs": [
        {
          "internalType": "address",
          "name": "handlerAddress",
          "type": "address"
        },
        {
          "internalType": "address",
          "name": "tokenAddress",
          "type": "address"
        },
        {
          "internalType": "address",
          "name": "recipient",
          "type": "address"
        },
        {
          "internalType": "uint256",
          "name": "amountOrTokenID",
          "type": "uint256"
        }
      ],
      "name": "adminWithdraw",
      "outputs": [],
      "stateMutability": "nonpayable",
      "type": "function"
    },
    {
      "inputs": [
        {
          "internalType": "uint8",
          "name": "destinationChainID",
          "type": "uint8"
        },
        {
          "internalType": "bytes32",
          "name": "resourceID",
          "type": "bytes32"
        },
        {
          "internalType": "bytes",
          "name": "data",
          "type": "bytes"
        }
      ],
      "name": "deposit",
      "outputs": [],
      "stateMutability": "payable",
      "type": "function"
    },
    {
      "inputs": [
        {
          "internalType": "uint8",
          "name": "chainID",
          "type": "uint8"
        },
        {
          "internalType": "uint64",
          "name": "depositNonce",
          "type": "uint64"
        },
        {
          "internalType": "bytes32",
          "name": "resourceID",
          "type": "bytes32"
        },
        {
          "internalType": "bytes",
          "name": "data",
          "type": "bytes"
        }
      ],
      "name": "voteProposal",
      "outputs": [],
      "stateMutability": "nonpayable",
      "type": "function"
    },
    {
      "inputs": [
        {
          "internalType": "uint8",
          "name": "chainID",
          "type": "uint8"
        },
        {
          "internalType": "uint64",
          "name": "depositNonce",
          "type": "uint64"
        },
        {
          "internalType": "bytes32",
          "name": "dataHash",
          "type": "bytes32"
        }
      ],
      "name": "cancelProposal",
      "outputs": [],
      "stateMutability": "nonpayable",
      "type": "function"
    },
    {
      "inputs": [
        {
          "internalType": "uint8",
          "name": "chainID",
          "type": "uint8"
        },
        {
          "internalType": "uint64",
          "name": "depositNonce",
          "type": "uint64"
        },
        {
          "internalType": "bytes",
          "name": "data",
          "type": "bytes"
        },
        {
          "internalType": "bytes32",
          "name": "resourceID",
          "type": "bytes32"
        }
      ],
      "name": "executeProposal",
      "outputs": [],
      "stateMutability": "nonpayable",
      "type": "function"
    },
    {
      "inputs": [
        {
          "internalType": "address payable[]",
          "name": "addrs",
          "type": "address[]"
        },
        {
          "internalType": "uint256[]",
          "name": "amounts",
          "type": "uint256[]"
        }
      ],
      "name": "transferFunds",
      "outputs": [],
      "stateMutability": "nonpayable",
      "type": "function"
    }
  ],
  "bytecode": "0x60806040523480156200001157600080fd5b5060405162006a3f38038062006a3f833981810160405281019062000037919062000ada565b60008060006101000a81548160ff02191690831515021790555084600360006101000a81548160ff021916908360ff160217905550826004819055508160068190555080600781905550620000966000801b33620001d360201b60201c565b620000cb7fe2b7fb3b832174769106daebcfd6d1970523240dda11281102db9363b83b0dc46000801b620001e960201b60201c565b620000fd7fd8aa0f3194971a2a116679f7c2090f6939c8d4e01a2a8d7e41d55e5351469e6333620001d360201b60201c565b6200014f7fd8aa0f3194971a2a116679f7c2090f6939c8d4e01a2a8d7e41d55e5351469e637fe2b7fb3b832174769106daebcfd6d1970523240dda11281102db9363b83b0dc4620001e960201b60201c565b60008451905060005b81811015620001c657620001b07fe2b7fb3b832174769106daebcfd6d1970523240dda11281102db9363b83b0dc48783815181106200019c576200019b62000b81565b5b60200260200101516200024d60201b60201c565b8080620001bd9062000bdf565b91505062000158565b5050505050505062000f23565b620001e582826200028660201b60201c565b5050565b6000620001fc83620002c460201b60201c565b90508160016000858152602001908152602001600020600101819055508181847fbd79b86ffe0ab8e8776151514217cd7cacd52c909f66475c3af44e129f0b00ff60405160405180910390a4505050565b6200025e82620002c460201b60201c565b6200026f81620002e460201b60201c565b6200028183836200028660201b60201c565b505050565b6200029882826200030860201b60201c565b620002bf8160026000858152602001908152602001600020620003f960201b90919060201c565b505050565b600060016000838152602001908152602001600020600101549050919050565b6200030581620002f96200043160201b60201c565b6200043960201b60201c565b50565b6200031a8282620004db60201b60201c565b620003f557600180600084815260200190815260200160002060000160008373ffffffffffffffffffffffffffffffffffffffff1673ffffffffffffffffffffffffffffffffffffffff16815260200190815260200160002060006101000a81548160ff0219169083151502179055506200039a6200043160201b60201c565b73ffffffffffffffffffffffffffffffffffffffff168173ffffffffffffffffffffffffffffffffffffffff16837f2f8788117e7eff1d82e926ec794901d17c78024a50270940304540a733656f0d60405160405180910390a45b5050565b600062000429836000018373ffffffffffffffffffffffffffffffffffffffff1660001b6200054660201b60201c565b905092915050565b600033905090565b6200044b8282620004db60201b60201c565b620004d7576200046181620005c060201b60201c565b620004778360001c6020620005f560201b60201c565b6040516020016200048a92919062000d45565b6040516020818303038152906040526040517f08c379a0000000000000000000000000000000000000000000000000000000008152600401620004ce919062000dd9565b60405180910390fd5b5050565b60006001600084815260200190815260200160002060000160008373ffffffffffffffffffffffffffffffffffffffff1673ffffffffffffffffffffffffffffffffffffffff16815260200190815260200160002060009054906101000a900460ff16905092915050565b60006200055a83836200085060201b60201c565b620005b5578260000182908060018154018082558091505060019003906000526020600020016000909190919091505582600001805490508360010160008481526020019081526020016000208190555060019050620005ba565b600090505b92915050565b6060620005ee8273ffffffffffffffffffffffffffffffffffffffff16601460ff16620005f560201b60201c565b9050919050565b6060600060028360026200060a919062000dfd565b62000616919062000e48565b67ffffffffffffffff811115620006325762000631620008db565b5b6040519080825280601f01601f191660200182016040528015620006655781602001600182028036833780820191505090505b5090507f300000000000000000000000000000000000000000000000000000000000000081600081518110620006a0576200069f62000b81565b5b60200101907effffffffffffffffffffffffffffffffffffffffffffffffffffffffffffff1916908160001a9053507f78000000000000000000000000000000000000000000000000000000000000008160018151811062000707576200070662000b81565b5b60200101907effffffffffffffffffffffffffffffffffffffffffffffffffffffffffffff1916908160001a9053506000600184600262000749919062000dfd565b62000755919062000e48565b90505b6001811115620007ff577f3031323334353637383961626364656600000000000000000000000000000000600f8616601081106200079b576200079a62000b81565b5b1a60f81b828281518110620007b557620007b462000b81565b5b60200101907effffffffffffffffffffffffffffffffffffffffffffffffffffffffffffff1916908160001a905350600485901c945080620007f79062000e83565b905062000758565b506000841462000846576040517f08c379a00000000000000000000000000000000000000000000000000000000081526004016200083d9062000f01565b60405180910390fd5b8091505092915050565b600080836001016000848152602001908152602001600020541415905092915050565b6000604051905090565b600080fd5b600080fd5b600060ff82169050919050565b6200089f8162000887565b8114620008ab57600080fd5b50565b600081519050620008bf8162000894565b92915050565b600080fd5b6000601f19601f8301169050919050565b7f4e487b7100000000000000000000000000000000000000000000000000000000600052604160045260246000fd5b6200091582620008ca565b810181811067ffffffffffffffff82111715620009375762000936620008db565b5b80604052505050565b60006200094c62000873565b90506200095a82826200090a565b919050565b600067ffffffffffffffff8211156200097d576200097c620008db565b5b602082029050602081019050919050565b600080fd5b600073ffffffffffffffffffffffffffffffffffffffff82169050919050565b6000620009c08262000993565b9050919050565b620009d281620009b3565b8114620009de57600080fd5b50565b600081519050620009f281620009c7565b92915050565b600062000a0f62000a09846200095f565b62000940565b9050808382526020820190506020840283018581111562000a355762000a346200098e565b5b835b8181101562000a62578062000a4d8882620009e1565b84526020840193505060208101905062000a37565b5050509392505050565b600082601f83011262000a845762000a83620008c5565b5b815162000a96848260208601620009f8565b91505092915050565b6000819050919050565b62000ab48162000a9f565b811462000ac057600080fd5b50565b60008151905062000ad48162000aa9565b92915050565b600080600080600060a0868803121562000af95762000af86200087d565b5b600062000b0988828901620008ae565b955050602086015167ffffffffffffffff81111562000b2d5762000b2c62000882565b5b62000b3b8882890162000a6c565b945050604062000b4e8882890162000ac3565b935050606062000b618882890162000ac3565b925050608062000b748882890162000ac3565b9150509295509295909350565b7f4e487b7100000000000000000000000000000000000000000000000000000000600052603260045260246000fd5b7f4e487b7100000000000000000000000000000000000000000000000000000000600052601160045260246000fd5b600062000bec8262000a9f565b91507fffffffffffffffffffffffffffffffffffffffffffffffffffffffffffffffff820362000c215762000c2062000bb0565b5b600182019050919050565b600081905092915050565b7f416363657373436f6e74726f6c3a206163636f756e7420000000000000000000600082015250565b600062000c6f60178362000c2c565b915062000c7c8262000c37565b601782019050919050565b600081519050919050565b60005b8381101562000cb257808201518184015260208101905062000c95565b60008484015250505050565b600062000ccb8262000c87565b62000cd7818562000c2c565b935062000ce981856020860162000c92565b80840191505092915050565b7f206973206d697373696e6720726f6c6520000000000000000000000000000000600082015250565b600062000d2d60118362000c2c565b915062000d3a8262000cf5565b601182019050919050565b600062000d528262000c60565b915062000d60828562000cbe565b915062000d6d8262000d1e565b915062000d7b828462000cbe565b91508190509392505050565b600082825260208201905092915050565b600062000da58262000c87565b62000db1818562000d87565b935062000dc381856020860162000c92565b62000dce81620008ca565b840191505092915050565b6000602082019050818103600083015262000df5818462000d98565b905092915050565b600062000e0a8262000a9f565b915062000e178362000a9f565b925082820262000e278162000a9f565b9150828204841483151762000e415762000e4062000bb0565b5b5092915050565b600062000e558262000a9f565b915062000e628362000a9f565b925082820190508082111562000e7d5762000e7c62000bb0565b5b92915050565b600062000e908262000a9f565b91506000820362000ea65762000ea562000bb0565b5b600182039050919050565b7f537472696e67733a20686578206c656e67746820696e73756666696369656e74600082015250565b600062000ee960208362000d87565b915062000ef68262000eb1565b602082019050919050565b6000602082019050818103600083015262000f1c8162000eda565b9050919050565b615b0c8062000f336000396000f3fe6080604052600436106102675760003560e01c80638c0c263111610144578063c0331b3e116100b6578063cdb0f73a1161007a578063cdb0f73a14610966578063d547741f1461098f578063d7a9cd79146109b8578063e8437ee7146109e3578063edc20c3c14610a0c578063ffaac0eb14610a3557610267565b8063c0331b3e14610881578063c5b37c22146108aa578063c5ec8970146108d5578063ca15c87314610900578063cb10f2151461093d57610267565b80639d5773e0116101085780639d5773e0146107715780639d82dd631461079c578063a217fddf146107c5578063a9cf69fa146107f0578063ba5c523c1461082d578063beab71311461085657610267565b80638c0c26311461067a5780639010d07c146106a357806391c404ac146106e057806391d1485414610709578063926d7d7f1461074657610267565b80634603ae38116101dd5780635c975abb116101a15780635c975abb1461056c5780635e1fab0f14610597578063780cf004146105c05780637febe63f146105e957806380ae1c281461062657806384db809f1461063d57610267565b80634603ae38146104605780634b0b919d146104895780634e056005146104c657806350598719146104ef578063541d55481461052f57610267565b8063248a9ca31161022f578063248a9ca3146103425780632f2ff15d1461037f57806336568abe146103a85780633ee7094a146103d15780633f47585e1461040e5780634454b20d1461043757610267565b806301ffc9a71461026c57806305e2ca17146102a957806307bd0265146102c55780631149af51146102f057806317f03ce514610319575b600080fd5b34801561027857600080fd5b50610293600480360381019061028e9190613956565b610a4c565b6040516102a0919061399e565b60405180910390f35b6102c360048036038101906102be9190613a8d565b610ac6565b005b3480156102d157600080fd5b506102da610d28565b6040516102e79190613b10565b60405180910390f35b3480156102fc57600080fd5b5061031760048036038101906103129190613b89565b610d4c565b005b34801561032557600080fd5b50610340600480360381019061033b9190613bf6565b610e4b565b005b34801561034e57600080fd5b5061036960048036038101906103649190613c49565b61108a565b6040516103769190613b10565b60405180910390f35b34801561038b57600080fd5b506103a660048036038101906103a19190613c76565b6110aa565b005b3480156103b457600080fd5b506103cf60048036038101906103ca9190613c76565b6110cb565b005b3480156103dd57600080fd5b506103f860048036038101906103f39190613cb6565b61114e565b6040516104059190613d86565b60405180910390f35b34801561041a57600080fd5b5061043560048036038101906104309190613dde565b6111fb565b005b34801561044357600080fd5b5061045e60048036038101906104599190613e0b565b611251565b005b34801561046c57600080fd5b5061048760048036038101906104829190613f3f565b61156b565b005b34801561049557600080fd5b506104b060048036038101906104ab9190613fc0565b6116b4565b6040516104bd9190613ffc565b60405180910390f35b3480156104d257600080fd5b506104ed60048036038101906104e89190613dde565b6116db565b005b3480156104fb57600080fd5b5061051660048036038101906105119190614058565b61175e565b604051610526949392919061411e565b60405180910390f35b34801561053b57600080fd5b5061055660048036038101906105519190613b89565b6117a8565b604051610563919061399e565b60405180910390f35b34801561057857600080fd5b506105816117db565b60405161058e919061399e565b60405180910390f35b3480156105a357600080fd5b506105be60048036038101906105b99190613b89565b6117f1565b005b3480156105cc57600080fd5b506105e760048036038101906105e29190614163565b61185a565b005b3480156105f557600080fd5b50610610600480360381019061060b91906141ca565b611921565b60405161061d919061399e565b60405180910390f35b34801561063257600080fd5b5061063b61195d565b005b34801561064957600080fd5b50610664600480360381019061065f9190613c49565b6119b3565b604051610671919061422c565b60405180910390f35b34801561068657600080fd5b506106a1600480360381019061069c9190614247565b6119e6565b005b3480156106af57600080fd5b506106ca60048036038101906106c59190614287565b611aa7565b6040516106d7919061422c565b60405180910390f35b3480156106ec57600080fd5b5061070760048036038101906107029190613dde565b611ad6565b005b34801561071557600080fd5b50610730600480360381019061072b9190613c76565b611b70565b60405161073d919061399e565b60405180910390f35b34801561075257600080fd5b5061075b611bdb565b6040516107689190613b10565b60405180910390f35b34801561077d57600080fd5b50610786611bff565b60405161079391906142c7565b60405180910390f35b3480156107a857600080fd5b506107c360048036038101906107be9190613b89565b611c05565b005b3480156107d157600080fd5b506107da611ce7565b6040516107e79190613b10565b60405180910390f35b3480156107fc57600080fd5b5061081760048036038101906108129190613bf6565b611cee565b604051610824919061445d565b60405180910390f35b34801561083957600080fd5b50610854600480360381019061084f9190613b89565b611edd565b005b34801561086257600080fd5b5061086b611fdd565b604051610878919061448e565b60405180910390f35b34801561088d57600080fd5b506108a860048036038101906108a391906144a9565b611ff0565b005b3480156108b657600080fd5b506108bf612910565b6040516108cc91906142c7565b60405180910390f35b3480156108e157600080fd5b506108ea612916565b6040516108f791906142c7565b60405180910390f35b34801561090c57600080fd5b5061092760048036038101906109229190613c49565b61291c565b60405161093491906142c7565b60405180910390f35b34801561094957600080fd5b50610964600480360381019061095f9190614531565b612940565b005b34801561097257600080fd5b5061098d60048036038101906109889190613b89565b612a56565b005b34801561099b57600080fd5b506109b660048036038101906109b19190613c76565b612b39565b005b3480156109c457600080fd5b506109cd612b5a565b6040516109da91906142c7565b60405180910390f35b3480156109ef57600080fd5b50610a0a6004803603810190610a059190614584565b612b60565b005b348015610a1857600080fd5b50610a336004803603810190610a2e91906145ff565b612c7c565b005b348015610a4157600080fd5b50610a4a612d0c565b005b60007f5a05180f000000000000000000000000000000000000000000000000000000007bffffffffffffffffffffffffffffffffffffffffffffffffffffffff1916827bffffffffffffffffffffffffffffffffffffffffffffffffffffffff19161480610abf5750610abe82612d62565b5b9050919050565b610ace612ddc565b6006543414610b12576040517f08c379a0000000000000000000000000000000000000000000000000000000008152600401610b099061469c565b60405180910390fd5b60006009600085815260200190815260200160002060009054906101000a900473ffffffffffffffffffffffffffffffffffffffff169050600073ffffffffffffffffffffffffffffffffffffffff168173ffffffffffffffffffffffffffffffffffffffff1603610bb9576040517f08c379a0000000000000000000000000000000000000000000000000000000008152600401610bb090614708565b60405180910390fd5b6000600860008760ff1660ff168152602001908152602001600020600081819054906101000a900467ffffffffffffffff16610bf490614757565b91906101000a81548167ffffffffffffffff021916908367ffffffffffffffff160217905590508383600a60008467ffffffffffffffff1667ffffffffffffffff16815260200190815260200160002060008960ff1660ff1681526020019081526020016000209182610c689291906149cd565b5060008290508073ffffffffffffffffffffffffffffffffffffffff166338995da9878985338a8a6040518763ffffffff1660e01b8152600401610cb196959493929190614ad9565b600060405180830381600087803b158015610ccb57600080fd5b505af1158015610cdf573d6000803e3d6000fd5b505050508167ffffffffffffffff16868860ff167fdbb69440df8433824a026ef190652f29929eb64b4d1d5d2a69be8afe3e6eaed860405160405180910390a450505050505050565b7fd8aa0f3194971a2a116679f7c2090f6939c8d4e01a2a8d7e41d55e5351469e6381565b610d767fe2b7fb3b832174769106daebcfd6d1970523240dda11281102db9363b83b0dc433611b70565b610db5576040517f08c379a0000000000000000000000000000000000000000000000000000000008152600401610dac90614b81565b60405180910390fd5b610ddf7fd8aa0f3194971a2a116679f7c2090f6939c8d4e01a2a8d7e41d55e5351469e6382611b70565b610e1e576040517f08c379a0000000000000000000000000000000000000000000000000000000008152600401610e1590614bed565b60405180910390fd5b610e487fd8aa0f3194971a2a116679f7c2090f6939c8d4e01a2a8d7e41d55e5351469e6382612b39565b50565b610e586000801b33611b70565b80610e895750610e887fe2b7fb3b832174769106daebcfd6d1970523240dda11281102db9363b83b0dc433611b70565b5b610ec8576040517f08c379a0000000000000000000000000000000000000000000000000000000008152600401610ebf90614c59565b60405180910390fd5b60008360ff1660088467ffffffffffffffff1668ffffffffffffffffff16901b1790506000600b60008368ffffffffffffffffff1668ffffffffffffffffff16815260200190815260200160002060008481526020019081526020016000209050600480811115610f3c57610f3b614098565b5b8160040160009054906101000a900460ff166004811115610f6057610f5f614098565b5b03610fa0576040517f08c379a0000000000000000000000000000000000000000000000000000000008152600401610f9790614cc5565b60405180910390fd5b600754816005015443610fb39190614ce5565b11610ff3576040517f08c379a0000000000000000000000000000000000000000000000000000000008152600401610fea90614d65565b60405180910390fd5b60048160040160006101000a81548160ff0219169083600481111561101b5761101a614098565b5b021790555060048081111561103357611032614098565b5b8467ffffffffffffffff168660ff167f803c5a12f6bde629cea32e63d4b92d1b560816a6fb72e939d3c89e1cab6504178460000154856001015460405161107b929190614d85565b60405180910390a45050505050565b600060016000838152602001908152602001600020600101549050919050565b6110b38261108a565b6110bc81612e26565b6110c68383612e3a565b505050565b6110d3612e6e565b73ffffffffffffffffffffffffffffffffffffffff168173ffffffffffffffffffffffffffffffffffffffff1614611140576040517f08c379a000000000000000000000000000000000000000000000000000000000815260040161113790614e20565b60405180910390fd5b61114a8282612e76565b5050565b600a60205281600052604060002060205280600052604060002060009150915050805461117a906147f0565b80601f01602080910402602001604051908101604052809291908181526020018280546111a6906147f0565b80156111f35780601f106111c8576101008083540402835291602001916111f3565b820191906000526020600020905b8154815290600101906020018083116111d657829003601f168201915b505050505081565b6112086000801b33611b70565b611247576040517f08c379a000000000000000000000000000000000000000000000000000000000815260040161123e90614e8c565b60405180910390fd5b8060078190555050565b61127b7fe2b7fb3b832174769106daebcfd6d1970523240dda11281102db9363b83b0dc433611b70565b806112ac57506112ab7fd8aa0f3194971a2a116679f7c2090f6939c8d4e01a2a8d7e41d55e5351469e6333611b70565b5b806112c057506112bf6000801b33611b70565b5b6112ff576040517f08c379a00000000000000000000000000000000000000000000000000000000081526004016112f690614f1e565b60405180910390fd5b611307612ddc565b60006009600083815260200190815260200160002060009054906101000a900473ffffffffffffffffffffffffffffffffffffffff16905060008660ff1660088767ffffffffffffffff1668ffffffffffffffffff16901b179050600082868660405160200161137993929190614fb6565b6040516020818303038152906040528051906020012090506000600b60008468ffffffffffffffffff1668ffffffffffffffffff1681526020019081526020016000206000838152602001908152602001600020905084816000015414611415576040517f08c379a000000000000000000000000000000000000000000000000000000000815260040161140c9061502c565b60405180910390fd5b6002600481111561142957611428614098565b5b8160040160009054906101000a900460ff16600481111561144d5761144c614098565b5b1461148d576040517f08c379a0000000000000000000000000000000000000000000000000000000008152600401611484906150be565b60405180910390fd5b611498878787612eaa565b6114d7576040517f08c379a00000000000000000000000000000000000000000000000000000000081526004016114ce9061512a565b60405180910390fd5b60038160040160006101000a81548160ff021916908360048111156114ff576114fe614098565b5b02179055506003600481111561151857611517614098565b5b8867ffffffffffffffff168a60ff167f803c5a12f6bde629cea32e63d4b92d1b560816a6fb72e939d3c89e1cab6504178886604051611558929190614d85565b60405180910390a4505050505050505050565b6115786000801b33611b70565b6115b7576040517f08c379a00000000000000000000000000000000000000000000000000000000081526004016115ae90614e8c565b60405180910390fd5b8181905084849050146115ff576040517f08c379a00000000000000000000000000000000000000000000000000000000081526004016115f6906151bc565b60405180910390fd5b600084849050905060005b818110156116ac57858582818110611625576116246151dc565b5b905060200201602081019061163a9190615249565b73ffffffffffffffffffffffffffffffffffffffff166108fc858584818110611666576116656151dc565b5b905060200201359081150290604051600060405180830381858888f19350505050158015611698573d6000803e3d6000fd5b5080806116a490615276565b91505061160a565b505050505050565b60086020528060005260406000206000915054906101000a900467ffffffffffffffff1681565b6116e86000801b33611b70565b611727576040517f08c379a000000000000000000000000000000000000000000000000000000000815260040161171e90614e8c565b60405180910390fd5b80600481905550807fa20d6b84cd798a24038be305eff8a45ca82ef54a2aa2082005d8e14c0a4746c860405160405180910390a250565b600b602052816000526040600020602052806000526040600020600091509150508060000154908060010154908060040160009054906101000a900460ff16908060050154905084565b60006117d47fe2b7fb3b832174769106daebcfd6d1970523240dda11281102db9363b83b0dc483611b70565b9050919050565b60008060009054906101000a900460ff16905090565b6117fe6000801b33611b70565b61183d576040517f08c379a000000000000000000000000000000000000000000000000000000000815260040161183490614e8c565b60405180910390fd5b61184a6000801b826110aa565b6118576000801b336110cb565b50565b6118676000801b33611b70565b6118a6576040517f08c379a000000000000000000000000000000000000000000000000000000000815260040161189d90614e8c565b60405180910390fd5b60008490508073ffffffffffffffffffffffffffffffffffffffff1663d9caed128585856040518463ffffffff1660e01b81526004016118e8939291906152be565b600060405180830381600087803b15801561190257600080fd5b505af1158015611916573d6000803e3d6000fd5b505050505050505050565b600c602052826000526040600020602052816000526040600020602052806000526040600020600092509250509054906101000a900460ff1681565b61196a6000801b33611b70565b6119a9576040517f08c379a00000000000000000000000000000000000000000000000000000000081526004016119a090614e8c565b60405180910390fd5b6119b1612f66565b565b60096020528060005260406000206000915054906101000a900473ffffffffffffffffffffffffffffffffffffffff1681565b6119f36000801b33611b70565b611a32576040517f08c379a0000000000000000000000000000000000000000000000000000000008152600401611a2990614e8c565b60405180910390fd5b60008290508073ffffffffffffffffffffffffffffffffffffffff166307b7ed99836040518263ffffffff1660e01b8152600401611a70919061422c565b600060405180830381600087803b158015611a8a57600080fd5b505af1158015611a9e573d6000803e3d6000fd5b50505050505050565b6000611ace8260026000868152602001908152602001600020612fc890919063ffffffff16565b905092915050565b611ae36000801b33611b70565b611b22576040517f08c379a0000000000000000000000000000000000000000000000000000000008152600401611b1990614e8c565b60405180910390fd5b8060065403611b66576040517f08c379a0000000000000000000000000000000000000000000000000000000008152600401611b5d90615341565b60405180910390fd5b8060068190555050565b60006001600084815260200190815260200160002060000160008373ffffffffffffffffffffffffffffffffffffffff1673ffffffffffffffffffffffffffffffffffffffff16815260200190815260200160002060009054906101000a900460ff16905092915050565b7fe2b7fb3b832174769106daebcfd6d1970523240dda11281102db9363b83b0dc481565b60055481565b611c126000801b33611b70565b611c51576040517f08c379a0000000000000000000000000000000000000000000000000000000008152600401611c4890614e8c565b60405180910390fd5b611c7b7fe2b7fb3b832174769106daebcfd6d1970523240dda11281102db9363b83b0dc482611b70565b611cba576040517f08c379a0000000000000000000000000000000000000000000000000000000008152600401611cb1906153ad565b60405180910390fd5b611ce47fe2b7fb3b832174769106daebcfd6d1970523240dda11281102db9363b83b0dc482612b39565b50565b6000801b81565b611cf66137ff565b60008460ff1660088567ffffffffffffffff1668ffffffffffffffffff16901b179050600b60008268ffffffffffffffffff1668ffffffffffffffffff16815260200190815260200160002060008481526020019081526020016000206040518060c0016040529081600082015481526020016001820154815260200160028201805480602002602001604051908101604052809291908181526020018280548015611df757602002820191906000526020600020905b8160009054906101000a900473ffffffffffffffffffffffffffffffffffffffff1673ffffffffffffffffffffffffffffffffffffffff1681526020019060010190808311611dad575b5050505050815260200160038201805480602002602001604051908101604052809291908181526020018280548015611e8557602002820191906000526020600020905b8160009054906101000a900473ffffffffffffffffffffffffffffffffffffffff1673ffffffffffffffffffffffffffffffffffffffff1681526020019060010190808311611e3b575b505050505081526020016004820160009054906101000a900460ff166004811115611eb357611eb2614098565b5b6004811115611ec557611ec4614098565b5b81526020016005820154815250509150509392505050565b611f077fe2b7fb3b832174769106daebcfd6d1970523240dda11281102db9363b83b0dc433611b70565b611f46576040517f08c379a0000000000000000000000000000000000000000000000000000000008152600401611f3d90614b81565b60405180910390fd5b611f707fd8aa0f3194971a2a116679f7c2090f6939c8d4e01a2a8d7e41d55e5351469e6382611b70565b15611fb0576040517f08c379a0000000000000000000000000000000000000000000000000000000008152600401611fa790615419565b60405180910390fd5b611fda7fd8aa0f3194971a2a116679f7c2090f6939c8d4e01a2a8d7e41d55e5351469e63826110aa565b50565b600360009054906101000a900460ff1681565b61201a7fe2b7fb3b832174769106daebcfd6d1970523240dda11281102db9363b83b0dc433611b70565b612059576040517f08c379a000000000000000000000000000000000000000000000000000000000815260040161205090614b81565b60405180910390fd5b612061612ddc565b60006009600085815260200190815260200160002060009054906101000a900473ffffffffffffffffffffffffffffffffffffffff16905060008184846040516020016120b093929190614fb6565b60405160208183030381529060405280519060200120905060008760ff1660088867ffffffffffffffff1668ffffffffffffffffff16901b1790506000600b60008368ffffffffffffffffff1668ffffffffffffffffff16815260200190815260200160002060008481526020019081526020016000209050600073ffffffffffffffffffffffffffffffffffffffff166009600089815260200190815260200160002060009054906101000a900473ffffffffffffffffffffffffffffffffffffffff1673ffffffffffffffffffffffffffffffffffffffff16036121cb576040517f08c379a00000000000000000000000000000000000000000000000000000000081526004016121c290615485565b60405180910390fd5b60018160040160009054906101000a900460ff1660048111156121f1576121f0614098565b5b1115612232576040517f08c379a000000000000000000000000000000000000000000000000000000000815260040161222990615517565b60405180910390fd5b600c60008368ffffffffffffffffff1668ffffffffffffffffff168152602001908152602001600020600084815260200190815260200160002060003373ffffffffffffffffffffffffffffffffffffffff1673ffffffffffffffffffffffffffffffffffffffff16815260200190815260200160002060009054906101000a900460ff16156122f7576040517f08c379a00000000000000000000000000000000000000000000000000000000081526004016122ee90615583565b60405180910390fd5b60008160040160009054906101000a900460ff16600481111561231d5761231c614098565b5b036125905760056000815461233190615276565b919050819055506040518060c00160405280888152602001848152602001600167ffffffffffffffff81111561236a57612369614792565b5b6040519080825280602002602001820160405280156123985781602001602082028036833780820191505090505b508152602001600067ffffffffffffffff8111156123b9576123b8614792565b5b6040519080825280602002602001820160405280156123e75781602001602082028036833780820191505090505b5081526020016001600481111561240157612400614098565b5b815260200143815250600b60008468ffffffffffffffffff1668ffffffffffffffffff16815260200190815260200160002060008581526020019081526020016000206000820151816000015560208201518160010155604082015181600201908051906020019061247492919061384d565b50606082015181600301908051906020019061249192919061384d565b5060808201518160040160006101000a81548160ff021916908360048111156124bd576124bc614098565b5b021790555060a0820151816005015590505033816002016000815481106124e7576124e66151dc565b5b9060005260206000200160006101000a81548173ffffffffffffffffffffffffffffffffffffffff021916908373ffffffffffffffffffffffffffffffffffffffff1602179055506001600481111561254357612542614098565b5b8867ffffffffffffffff168a60ff167f803c5a12f6bde629cea32e63d4b92d1b560816a6fb72e939d3c89e1cab6504178a87604051612583929190614d85565b60405180910390a46126e3565b6007548160050154436125a39190614ce5565b11156126365760048160040160006101000a81548160ff021916908360048111156125d1576125d0614098565b5b02179055506004808111156125e9576125e8614098565b5b8867ffffffffffffffff168a60ff167f803c5a12f6bde629cea32e63d4b92d1b560816a6fb72e939d3c89e1cab6504178a87604051612629929190614d85565b60405180910390a46126e2565b8681600001541461267c576040517f08c379a000000000000000000000000000000000000000000000000000000000815260040161267390615615565b60405180910390fd5b80600201339080600181540180825580915050600190039060005260206000200160009091909190916101000a81548173ffffffffffffffffffffffffffffffffffffffff021916908373ffffffffffffffffffffffffffffffffffffffff1602179055505b5b6004808111156126f6576126f5614098565b5b8160040160009054906101000a900460ff16600481111561271a57612719614098565b5b14612904576001600c60008468ffffffffffffffffff1668ffffffffffffffffff168152602001908152602001600020600085815260200190815260200160002060003373ffffffffffffffffffffffffffffffffffffffff1673ffffffffffffffffffffffffffffffffffffffff16815260200190815260200160002060006101000a81548160ff02191690831515021790555060016004541115806127ca5750600454816002018054905010155b15612903576127da868689612eaa565b156128715760038160040160006101000a81548160ff0219169083600481111561280757612806614098565b5b0217905550600360048111156128205761281f614098565b5b8867ffffffffffffffff168a60ff167f803c5a12f6bde629cea32e63d4b92d1b560816a6fb72e939d3c89e1cab6504178a87604051612860929190614d85565b60405180910390a450505050612909565b60028160040160006101000a81548160ff0219169083600481111561289957612898614098565b5b0217905550600260048111156128b2576128b1614098565b5b8867ffffffffffffffff168a60ff167f803c5a12f6bde629cea32e63d4b92d1b560816a6fb72e939d3c89e1cab6504178a876040516128f2929190614d85565b60405180910390a450505050612909565b5b505050505b5050505050565b60065481565b60075481565b600061293960026000848152602001908152602001600020612fe2565b9050919050565b61294d6000801b33611b70565b61298c576040517f08c379a000000000000000000000000000000000000000000000000000000000815260040161298390614e8c565b60405180910390fd5b826009600084815260200190815260200160002060006101000a81548173ffffffffffffffffffffffffffffffffffffffff021916908373ffffffffffffffffffffffffffffffffffffffff16021790555060008390508073ffffffffffffffffffffffffffffffffffffffff1663b8fa373684846040518363ffffffff1660e01b8152600401612a1e929190615635565b600060405180830381600087803b158015612a3857600080fd5b505af1158015612a4c573d6000803e3d6000fd5b5050505050505050565b612a636000801b33611b70565b612aa2576040517f08c379a0000000000000000000000000000000000000000000000000000000008152600401612a9990614e8c565b60405180910390fd5b612acc7fe2b7fb3b832174769106daebcfd6d1970523240dda11281102db9363b83b0dc482611b70565b15612b0c576040517f08c379a0000000000000000000000000000000000000000000000000000000008152600401612b03906156aa565b60405180910390fd5b612b367fe2b7fb3b832174769106daebcfd6d1970523240dda11281102db9363b83b0dc4826110aa565b50565b612b428261108a565b612b4b81612e26565b612b558383612e76565b505050565b60045481565b612b6d6000801b33611b70565b612bac576040517f08c379a0000000000000000000000000000000000000000000000000000000008152600401612ba390614e8c565b60405180910390fd5b846009600086815260200190815260200160002060006101000a81548173ffffffffffffffffffffffffffffffffffffffff021916908373ffffffffffffffffffffffffffffffffffffffff16021790555060008590508073ffffffffffffffffffffffffffffffffffffffff1663bba8185a868686866040518563ffffffff1660e01b8152600401612c4294939291906156d9565b600060405180830381600087803b158015612c5c57600080fd5b505af1158015612c70573d6000803e3d6000fd5b50505050505050505050565b612c896000801b33611b70565b612cc8576040517f08c379a0000000000000000000000000000000000000000000000000000000008152600401612cbf90614e8c565b60405180910390fd5b80600860008460ff1660ff16815260200190815260200160002060006101000a81548167ffffffffffffffff021916908367ffffffffffffffff1602179055505050565b612d196000801b33611b70565b612d58576040517f08c379a0000000000000000000000000000000000000000000000000000000008152600401612d4f90614e8c565b60405180910390fd5b612d60612ff7565b565b60007f7965db0b000000000000000000000000000000000000000000000000000000007bffffffffffffffffffffffffffffffffffffffffffffffffffffffff1916827bffffffffffffffffffffffffffffffffffffffffffffffffffffffff19161480612dd55750612dd482613059565b5b9050919050565b612de46117db565b15612e24576040517f08c379a0000000000000000000000000000000000000000000000000000000008152600401612e1b9061576a565b60405180910390fd5b565b612e3781612e32612e6e565b6130c3565b50565b612e448282613148565b612e69816002600085815260200190815260200160002061322890919063ffffffff16565b505050565b600033905090565b612e808282613258565b612ea5816002600085815260200190815260200160002061333a90919063ffffffff16565b505050565b6000806009600084815260200190815260200160002060009054906101000a900473ffffffffffffffffffffffffffffffffffffffff1690508073ffffffffffffffffffffffffffffffffffffffff1663e248cff28487876040518463ffffffff1660e01b8152600401612f209392919061578a565b600060405180830381600087803b158015612f3a57600080fd5b505af1925050508015612f4b575060015b612f59576000915050612f5f565b60019150505b9392505050565b612f6e612ddc565b60016000806101000a81548160ff0219169083151502179055507f62e78cea01bee320cd4e420270b5ea74000d11b0c9f74754ebdbfc544b05a258612fb1612e6e565b604051612fbe919061422c565b60405180910390a1565b6000612fd7836000018361336a565b60001c905092915050565b6000612ff082600001613395565b9050919050565b612fff6133a6565b60008060006101000a81548160ff0219169083151502179055507f5db9ee0a495bf2e6ff9c91a7834c1ba4fdd244a5e8aa4e537bd38aeae4b073aa613042612e6e565b60405161304f919061422c565b60405180910390a1565b60007f01ffc9a7000000000000000000000000000000000000000000000000000000007bffffffffffffffffffffffffffffffffffffffffffffffffffffffff1916827bffffffffffffffffffffffffffffffffffffffffffffffffffffffff1916149050919050565b6130cd8282611b70565b613144576130da816133ef565b6130e88360001c602061341c565b6040516020016130f992919061589b565b6040516020818303038152906040526040517f08c379a000000000000000000000000000000000000000000000000000000000815260040161313b919061590e565b60405180910390fd5b5050565b6131528282611b70565b61322457600180600084815260200190815260200160002060000160008373ffffffffffffffffffffffffffffffffffffffff1673ffffffffffffffffffffffffffffffffffffffff16815260200190815260200160002060006101000a81548160ff0219169083151502179055506131c9612e6e565b73ffffffffffffffffffffffffffffffffffffffff168173ffffffffffffffffffffffffffffffffffffffff16837f2f8788117e7eff1d82e926ec794901d17c78024a50270940304540a733656f0d60405160405180910390a45b5050565b6000613250836000018373ffffffffffffffffffffffffffffffffffffffff1660001b613658565b905092915050565b6132628282611b70565b156133365760006001600084815260200190815260200160002060000160008373ffffffffffffffffffffffffffffffffffffffff1673ffffffffffffffffffffffffffffffffffffffff16815260200190815260200160002060006101000a81548160ff0219169083151502179055506132db612e6e565b73ffffffffffffffffffffffffffffffffffffffff168173ffffffffffffffffffffffffffffffffffffffff16837ff6391f5c32d9c69d2a47ea670b442974b53935d1edc7fd64eb21e047a839171b60405160405180910390a45b5050565b6000613362836000018373ffffffffffffffffffffffffffffffffffffffff1660001b6136c8565b905092915050565b6000826000018281548110613382576133816151dc565b5b9060005260206000200154905092915050565b600081600001805490509050919050565b6133ae6117db565b6133ed576040517f08c379a00000000000000000000000000000000000000000000000000000000081526004016133e49061597c565b60405180910390fd5b565b60606134158273ffffffffffffffffffffffffffffffffffffffff16601460ff1661341c565b9050919050565b60606000600283600261342f919061599c565b61343991906159de565b67ffffffffffffffff81111561345257613451614792565b5b6040519080825280601f01601f1916602001820160405280156134845781602001600182028036833780820191505090505b5090507f3000000000000000000000000000000000000000000000000000000000000000816000815181106134bc576134bb6151dc565b5b60200101907effffffffffffffffffffffffffffffffffffffffffffffffffffffffffffff1916908160001a9053507f7800000000000000000000000000000000000000000000000000000000000000816001815181106135205761351f6151dc565b5b60200101907effffffffffffffffffffffffffffffffffffffffffffffffffffffffffffff1916908160001a90535060006001846002613560919061599c565b61356a91906159de565b90505b600181111561360a577f3031323334353637383961626364656600000000000000000000000000000000600f8616601081106135ac576135ab6151dc565b5b1a60f81b8282815181106135c3576135c26151dc565b5b60200101907effffffffffffffffffffffffffffffffffffffffffffffffffffffffffffff1916908160001a905350600485901c94508061360390615a12565b905061356d565b506000841461364e576040517f08c379a000000000000000000000000000000000000000000000000000000000815260040161364590615a87565b60405180910390fd5b8091505092915050565b600061366483836137dc565b6136bd5782600001829080600181540180825580915050600190039060005260206000200160009091909190915055826000018054905083600101600084815260200190815260200160002081905550600190506136c2565b600090505b92915050565b600080836001016000848152602001908152602001600020549050600081146137d05760006001826136fa9190614ce5565b90506000600186600001805490506137129190614ce5565b9050818114613781576000866000018281548110613733576137326151dc565b5b9060005260206000200154905080876000018481548110613757576137566151dc565b5b90600052602060002001819055508387600101600083815260200190815260200160002081905550505b8560000180548061379557613794615aa7565b5b6001900381819060005260206000200160009055905585600101600086815260200190815260200160002060009055600193505050506137d6565b60009150505b92915050565b600080836001016000848152602001908152602001600020541415905092915050565b6040518060c0016040528060008019168152602001600080191681526020016060815260200160608152602001600060048111156138405761383f614098565b5b8152602001600081525090565b8280548282559060005260206000209081019282156138c6579160200282015b828111156138c55782518260006101000a81548173ffffffffffffffffffffffffffffffffffffffff021916908373ffffffffffffffffffffffffffffffffffffffff1602179055509160200191906001019061386d565b5b5090506138d391906138d7565b5090565b5b808211156138f05760008160009055506001016138d8565b5090565b600080fd5b600080fd5b60007fffffffff0000000000000000000000000000000000000000000000000000000082169050919050565b613933816138fe565b811461393e57600080fd5b50565b6000813590506139508161392a565b92915050565b60006020828403121561396c5761396b6138f4565b5b600061397a84828501613941565b91505092915050565b60008115159050919050565b61399881613983565b82525050565b60006020820190506139b3600083018461398f565b92915050565b600060ff82169050919050565b6139cf816139b9565b81146139da57600080fd5b50565b6000813590506139ec816139c6565b92915050565b6000819050919050565b613a05816139f2565b8114613a1057600080fd5b50565b600081359050613a22816139fc565b92915050565b600080fd5b600080fd5b600080fd5b60008083601f840112613a4d57613a4c613a28565b5b8235905067ffffffffffffffff811115613a6a57613a69613a2d565b5b602083019150836001820283011115613a8657613a85613a32565b5b9250929050565b60008060008060608587031215613aa757613aa66138f4565b5b6000613ab5878288016139dd565b9450506020613ac687828801613a13565b935050604085013567ffffffffffffffff811115613ae757613ae66138f9565b5b613af387828801613a37565b925092505092959194509250565b613b0a816139f2565b82525050565b6000602082019050613b256000830184613b01565b92915050565b600073ffffffffffffffffffffffffffffffffffffffff82169050919050565b6000613b5682613b2b565b9050919050565b613b6681613b4b565b8114613b7157600080fd5b50565b600081359050613b8381613b5d565b92915050565b600060208284031215613b9f57613b9e6138f4565b5b6000613bad84828501613b74565b91505092915050565b600067ffffffffffffffff82169050919050565b613bd381613bb6565b8114613bde57600080fd5b50565b600081359050613bf081613bca565b92915050565b600080600060608486031215613c0f57613c0e6138f4565b5b6000613c1d868287016139dd565b9350506020613c2e86828701613be1565b9250506040613c3f86828701613a13565b9150509250925092565b600060208284031215613c5f57613c5e6138f4565b5b6000613c6d84828501613a13565b91505092915050565b60008060408385031215613c8d57613c8c6138f4565b5b6000613c9b85828601613a13565b9250506020613cac85828601613b74565b9150509250929050565b60008060408385031215613ccd57613ccc6138f4565b5b6000613cdb85828601613be1565b9250506020613cec858286016139dd565b9150509250929050565b600081519050919050565b600082825260208201905092915050565b60005b83811015613d30578082015181840152602081019050613d15565b60008484015250505050565b6000601f19601f8301169050919050565b6000613d5882613cf6565b613d628185613d01565b9350613d72818560208601613d12565b613d7b81613d3c565b840191505092915050565b60006020820190508181036000830152613da08184613d4d565b905092915050565b6000819050919050565b613dbb81613da8565b8114613dc657600080fd5b50565b600081359050613dd881613db2565b92915050565b600060208284031215613df457613df36138f4565b5b6000613e0284828501613dc9565b91505092915050565b600080600080600060808688031215613e2757613e266138f4565b5b6000613e35888289016139dd565b9550506020613e4688828901613be1565b945050604086013567ffffffffffffffff811115613e6757613e666138f9565b5b613e7388828901613a37565b93509350506060613e8688828901613a13565b9150509295509295909350565b60008083601f840112613ea957613ea8613a28565b5b8235905067ffffffffffffffff811115613ec657613ec5613a2d565b5b602083019150836020820283011115613ee257613ee1613a32565b5b9250929050565b60008083601f840112613eff57613efe613a28565b5b8235905067ffffffffffffffff811115613f1c57613f1b613a2d565b5b602083019150836020820283011115613f3857613f37613a32565b5b9250929050565b60008060008060408587031215613f5957613f586138f4565b5b600085013567ffffffffffffffff811115613f7757613f766138f9565b5b613f8387828801613e93565b9450945050602085013567ffffffffffffffff811115613fa657613fa56138f9565b5b613fb287828801613ee9565b925092505092959194509250565b600060208284031215613fd657613fd56138f4565b5b6000613fe4848285016139dd565b91505092915050565b613ff681613bb6565b82525050565b60006020820190506140116000830184613fed565b92915050565b600068ffffffffffffffffff82169050919050565b61403581614017565b811461404057600080fd5b50565b6000813590506140528161402c565b92915050565b6000806040838503121561406f5761406e6138f4565b5b600061407d85828601614043565b925050602061408e85828601613a13565b9150509250929050565b7f4e487b7100000000000000000000000000000000000000000000000000000000600052602160045260246000fd5b600581106140d8576140d7614098565b5b50565b60008190506140e9826140c7565b919050565b60006140f9826140db565b9050919050565b614109816140ee565b82525050565b61411881613da8565b82525050565b60006080820190506141336000830187613b01565b6141406020830186613b01565b61414d6040830185614100565b61415a606083018461410f565b95945050505050565b6000806000806080858703121561417d5761417c6138f4565b5b600061418b87828801613b74565b945050602061419c87828801613b74565b93505060406141ad87828801613b74565b92505060606141be87828801613dc9565b91505092959194509250565b6000806000606084860312156141e3576141e26138f4565b5b60006141f186828701614043565b935050602061420286828701613a13565b925050604061421386828701613b74565b9150509250925092565b61422681613b4b565b82525050565b6000602082019050614241600083018461421d565b92915050565b6000806040838503121561425e5761425d6138f4565b5b600061426c85828601613b74565b925050602061427d85828601613b74565b9150509250929050565b6000806040838503121561429e5761429d6138f4565b5b60006142ac85828601613a13565b92505060206142bd85828601613dc9565b9150509250929050565b60006020820190506142dc600083018461410f565b92915050565b6142eb816139f2565b82525050565b600081519050919050565b600082825260208201905092915050565b6000819050602082019050919050565b61432681613b4b565b82525050565b6000614338838361431d565b60208301905092915050565b6000602082019050919050565b600061435c826142f1565b61436681856142fc565b93506143718361430d565b8060005b838110156143a2578151614389888261432c565b975061439483614344565b925050600181019050614375565b5085935050505092915050565b6143b8816140ee565b82525050565b6143c781613da8565b82525050565b600060c0830160008301516143e560008601826142e2565b5060208301516143f860208601826142e2565b50604083015184820360408601526144108282614351565b9150506060830151848203606086015261442a8282614351565b915050608083015161443f60808601826143af565b5060a083015161445260a08601826143be565b508091505092915050565b6000602082019050818103600083015261447781846143cd565b905092915050565b614488816139b9565b82525050565b60006020820190506144a3600083018461447f565b92915050565b6000806000806000608086880312156144c5576144c46138f4565b5b60006144d3888289016139dd565b95505060206144e488828901613be1565b94505060406144f588828901613a13565b935050606086013567ffffffffffffffff811115614516576145156138f9565b5b61452288828901613a37565b92509250509295509295909350565b60008060006060848603121561454a576145496138f4565b5b600061455886828701613b74565b935050602061456986828701613a13565b925050604061457a86828701613b74565b9150509250925092565b600080600080600060a086880312156145a05761459f6138f4565b5b60006145ae88828901613b74565b95505060206145bf88828901613a13565b94505060406145d088828901613b74565b93505060606145e188828901613941565b92505060806145f288828901613941565b9150509295509295909350565b60008060408385031215614616576146156138f4565b5b6000614624858286016139dd565b925050602061463585828601613be1565b9150509250929050565b600082825260208201905092915050565b7f496e636f72726563742066656520737570706c69656400000000000000000000600082015250565b600061468660168361463f565b915061469182614650565b602082019050919050565b600060208201905081810360008301526146b581614679565b9050919050565b7f7265736f757263654944206e6f74206d617070656420746f2068616e646c6572600082015250565b60006146f260208361463f565b91506146fd826146bc565b602082019050919050565b60006020820190508181036000830152614721816146e5565b9050919050565b7f4e487b7100000000000000000000000000000000000000000000000000000000600052601160045260246000fd5b600061476282613bb6565b915067ffffffffffffffff820361477c5761477b614728565b5b600182019050919050565b600082905092915050565b7f4e487b7100000000000000000000000000000000000000000000000000000000600052604160045260246000fd5b7f4e487b7100000000000000000000000000000000000000000000000000000000600052602260045260246000fd5b6000600282049050600182168061480857607f821691505b60208210810361481b5761481a6147c1565b5b50919050565b60008190508160005260206000209050919050565b60006020601f8301049050919050565b600082821b905092915050565b6000600883026148837fffffffffffffffffffffffffffffffffffffffffffffffffffffffffffffffff82614846565b61488d8683614846565b95508019841693508086168417925050509392505050565b6000819050919050565b60006148ca6148c56148c084613da8565b6148a5565b613da8565b9050919050565b6000819050919050565b6148e4836148af565b6148f86148f0826148d1565b848454614853565b825550505050565b600090565b61490d614900565b6149188184846148db565b505050565b5b8181101561493c57614931600082614905565b60018101905061491e565b5050565b601f8211156149815761495281614821565b61495b84614836565b8101602085101561496a578190505b61497e61497685614836565b83018261491d565b50505b505050565b600082821c905092915050565b60006149a460001984600802614986565b1980831691505092915050565b60006149bd8383614993565b9150826002028217905092915050565b6149d78383614787565b67ffffffffffffffff8111156149f0576149ef614792565b5b6149fa82546147f0565b614a05828285614940565b6000601f831160018114614a345760008415614a22578287013590505b614a2c85826149b1565b865550614a94565b601f198416614a4286614821565b60005b82811015614a6a57848901358255600182019150602085019450602081019050614a45565b86831015614a875784890135614a83601f891682614993565b8355505b6001600288020188555050505b50505050505050565b82818337600083830152505050565b6000614ab88385613d01565b9350614ac5838584614a9d565b614ace83613d3c565b840190509392505050565b600060a082019050614aee6000830189613b01565b614afb602083018861447f565b614b086040830187613fed565b614b15606083018661421d565b8181036080830152614b28818486614aac565b9050979650505050505050565b7f73656e64657220646f65736e277420686176652072656c6179657220726f6c65600082015250565b6000614b6b60208361463f565b9150614b7682614b35565b602082019050919050565b60006020820190508181036000830152614b9a81614b5e565b9050919050565b7f6164647220646f65736e27742068617665206578656375746f7220726f6c6521600082015250565b6000614bd760208361463f565b9150614be282614ba1565b602082019050919050565b60006020820190508181036000830152614c0681614bca565b9050919050565b7f73656e646572206973206e6f742072656c61796572206f722061646d696e0000600082015250565b6000614c43601e8361463f565b9150614c4e82614c0d565b602082019050919050565b60006020820190508181036000830152614c7281614c36565b9050919050565b7f50726f706f73616c20616c72656164792063616e63656c6c6564000000000000600082015250565b6000614caf601a8361463f565b9150614cba82614c79565b602082019050919050565b60006020820190508181036000830152614cde81614ca2565b9050919050565b6000614cf082613da8565b9150614cfb83613da8565b9250828203905081811115614d1357614d12614728565b5b92915050565b7f50726f706f73616c206e6f7420617420657870697279207468726573686f6c64600082015250565b6000614d4f60208361463f565b9150614d5a82614d19565b602082019050919050565b60006020820190508181036000830152614d7e81614d42565b9050919050565b6000604082019050614d9a6000830185613b01565b614da76020830184613b01565b9392505050565b7f416363657373436f6e74726f6c3a2063616e206f6e6c792072656e6f756e636560008201527f20726f6c657320666f722073656c660000000000000000000000000000000000602082015250565b6000614e0a602f8361463f565b9150614e1582614dae565b604082019050919050565b60006020820190508181036000830152614e3981614dfd565b9050919050565b7f73656e64657220646f65736e277420686176652061646d696e20726f6c650000600082015250565b6000614e76601e8361463f565b9150614e8182614e40565b602082019050919050565b60006020820190508181036000830152614ea581614e69565b9050919050565b7f73656e64657220646f65736e27742068617665206578656375746f7220726f6c60008201527f6500000000000000000000000000000000000000000000000000000000000000602082015250565b6000614f0860218361463f565b9150614f1382614eac565b604082019050919050565b60006020820190508181036000830152614f3781614efb565b9050919050565b60008160601b9050919050565b6000614f5682614f3e565b9050919050565b6000614f6882614f4b565b9050919050565b614f80614f7b82613b4b565b614f5d565b82525050565b600081905092915050565b6000614f9d8385614f86565b9350614faa838584614a9d565b82840190509392505050565b6000614fc28286614f6f565b601482019150614fd3828486614f91565b9150819050949350505050565b7f77726f6e67207265736f75726365206964000000000000000000000000000000600082015250565b600061501660118361463f565b915061502182614fe0565b602082019050919050565b6000602082019050818103600083015261504581615009565b9050919050565b7f70726f706f73616c20616c7265616479207472616e736665727265642f6e6f7460008201527f2066696e616c697a656420796574000000000000000000000000000000000000602082015250565b60006150a8602e8361463f565b91506150b38261504c565b604082019050919050565b600060208201905081810360008301526150d78161509b565b9050919050565b7f457865637574696f6e206e6f74207375636365737366756c0000000000000000600082015250565b600061511460188361463f565b915061511f826150de565b602082019050919050565b6000602082019050818103600083015261514381615107565b9050919050565b7f6c656e677468206f66206164647265737320616e6420616d6f756e747320646960008201527f736d617463680000000000000000000000000000000000000000000000000000602082015250565b60006151a660268361463f565b91506151b18261514a565b604082019050919050565b600060208201905081810360008301526151d581615199565b9050919050565b7f4e487b7100000000000000000000000000000000000000000000000000000000600052603260045260246000fd5b600061521682613b2b565b9050919050565b6152268161520b565b811461523157600080fd5b50565b6000813590506152438161521d565b92915050565b60006020828403121561525f5761525e6138f4565b5b600061526d84828501615234565b91505092915050565b600061528182613da8565b91507fffffffffffffffffffffffffffffffffffffffffffffffffffffffffffffffff82036152b3576152b2614728565b5b600182019050919050565b60006060820190506152d3600083018661421d565b6152e0602083018561421d565b6152ed604083018461410f565b949350505050565b7f43757272656e742066656520697320657175616c20746f206e65772066656500600082015250565b600061532b601f8361463f565b9150615336826152f5565b602082019050919050565b6000602082019050818103600083015261535a8161531e565b9050919050565b7f6164647220646f65736e277420686176652072656c6179657220726f6c652100600082015250565b6000615397601f8361463f565b91506153a282615361565b602082019050919050565b600060208201905081810360008301526153c68161538a565b9050919050565b7f6164647220616c726561647920686173206578656375746f7220726f6c652100600082015250565b6000615403601f8361463f565b915061540e826153cd565b602082019050919050565b60006020820190508181036000830152615432816153f6565b9050919050565b7f6e6f2068616e646c657220666f72207265736f75726365494400000000000000600082015250565b600061546f60198361463f565b915061547a82615439565b602082019050919050565b6000602082019050818103600083015261549e81615462565b9050919050565b7f70726f706f73616c20616c7265616479207061737365642f657865637574656460008201527f2f63616e63656c6c656400000000000000000000000000000000000000000000602082015250565b6000615501602a8361463f565b915061550c826154a5565b604082019050919050565b60006020820190508181036000830152615530816154f4565b9050919050565b7f72656c6179657220616c726561647920766f7465640000000000000000000000600082015250565b600061556d60158361463f565b915061557882615537565b602082019050919050565b6000602082019050818103600083015261559c81615560565b9050919050565b7f4368656174696e67205269736b3b2052656c6179657220766f7465207769746860008201527f2077726f6e67207265736f757263654944000000000000000000000000000000602082015250565b60006155ff60318361463f565b915061560a826155a3565b604082019050919050565b6000602082019050818103600083015261562e816155f2565b9050919050565b600060408201905061564a6000830185613b01565b615657602083018461421d565b9392505050565b7f6164647220616c7265616479206861732072656c6179657220726f6c65210000600082015250565b6000615694601e8361463f565b915061569f8261565e565b602082019050919050565b600060208201905081810360008301526156c381615687565b9050919050565b6156d3816138fe565b82525050565b60006080820190506156ee6000830187613b01565b6156fb602083018661421d565b61570860408301856156ca565b61571560608301846156ca565b95945050505050565b7f5061757361626c653a2070617573656400000000000000000000000000000000600082015250565b600061575460108361463f565b915061575f8261571e565b602082019050919050565b6000602082019050818103600083015261578381615747565b9050919050565b600060408201905061579f6000830186613b01565b81810360208301526157b2818486614aac565b9050949350505050565b600081905092915050565b7f416363657373436f6e74726f6c3a206163636f756e7420000000000000000000600082015250565b60006157fd6017836157bc565b9150615808826157c7565b601782019050919050565b600081519050919050565b600061582982615813565b61583381856157bc565b9350615843818560208601613d12565b80840191505092915050565b7f206973206d697373696e6720726f6c6520000000000000000000000000000000600082015250565b60006158856011836157bc565b91506158908261584f565b601182019050919050565b60006158a6826157f0565b91506158b2828561581e565b91506158bd82615878565b91506158c9828461581e565b91508190509392505050565b60006158e082615813565b6158ea818561463f565b93506158fa818560208601613d12565b61590381613d3c565b840191505092915050565b6000602082019050818103600083015261592881846158d5565b905092915050565b7f5061757361626c653a206e6f7420706175736564000000000000000000000000600082015250565b600061596660148361463f565b915061597182615930565b602082019050919050565b6000602082019050818103600083015261599581615959565b9050919050565b60006159a782613da8565b91506159b283613da8565b92508282026159c081613da8565b915082820484148315176159d7576159d6614728565b5b5092915050565b60006159e982613da8565b91506159f483613da8565b9250828201905080821115615a0c57615a0b614728565b5b92915050565b6000615a1d82613da8565b915060008203615a3057615a2f614728565b5b600182039050919050565b7f537472696e67733a20686578206c656e67746820696e73756666696369656e74600082015250565b6000615a7160208361463f565b9150615a7c82615a3b565b602082019050919050565b60006020820190508181036000830152615aa081615a64565b9050919050565b7f4e487b7100000000000000000000000000000000000000000000000000000000600052603160045260246000fdfea2646970667358221220297de076fe0ee871185214dfa721bf50bd5d1e5fea7d9dd320a35b089d64a16964736f6c63430008130033",
  "immutableReferences": {},
  "source": "// SPDX-License-Identifier: MIT\r\npragma solidity 0.8.19;\r\n\r\nimport \"@openzeppelin/contracts/access/AccessControlEnumerable.sol\";\r\nimport \"@openzeppelin/contracts/security/Pausable.sol\";\r\nimport \"./interfaces/IDepositExecute.sol\";\r\nimport \"./interfaces/IBridge.sol\";\r\nimport \"./interfaces/IERCHandler.sol\";\r\nimport \"./interfaces/IGenericHandler.sol\";\r\n\r\n/**\r\n    @title Facilitates deposits, creation and votiing of deposit proposals, and deposit executions.\r\n    @author ChainSafe Systems.\r\n */\r\ncontract Bridge is Pausable, AccessControlEnumerable {\r\n\r\n    uint8   public _chainID;\r\n    uint256 public _relayerThreshold;\r\n\r\n    uint256 public _totalProposals;\r\n    uint256 public _fee;\r\n    uint256 public _expiry;\r\n\r\n    enum Vote {No, Yes}\r\n\r\n    enum ProposalStatus {Inactive, Active, Passed, Executed, Cancelled}\r\n\r\n    struct Proposal {\r\n        bytes32 _resourceID;\r\n        bytes32 _dataHash;\r\n        address[] _yesVotes;\r\n        address[] _noVotes;\r\n        ProposalStatus _status;\r\n        uint256 _proposedBlock;\r\n    }\r\n\r\n    // destinationChainID => number of deposits\r\n    mapping(uint8 => uint64) public _depositCounts;\r\n    // resourceID => handler address\r\n    mapping(bytes32 => address) public _resourceIDToHandlerAddress;\r\n    // depositNonce => destinationChainID => bytes\r\n    mapping(uint64 => mapping(uint8 => bytes)) public _depositRecords;\r\n    // destinationChainID + depositNonce => dataHash => Proposal\r\n    mapping(uint72 => mapping(bytes32 => Proposal)) public _proposals;\r\n    // destinationChainID + depositNonce => dataHash => relayerAddress => bool\r\n    mapping(uint72 => mapping(bytes32 => mapping(address => bool))) public _hasVotedOnProposal;\r\n\r\n    event RelayerThresholdChanged(uint indexed newThreshold);\r\n    event Deposit(\r\n        uint8   indexed destinationChainID,\r\n        bytes32 indexed resourceID,\r\n        uint64  indexed depositNonce\r\n    );\r\n    event ProposalEvent(\r\n        uint8           indexed originChainID,\r\n        uint64          indexed depositNonce,\r\n        ProposalStatus  indexed status,\r\n        bytes32 resourceID,\r\n        bytes32 dataHash\r\n    );\r\n\r\n    bytes32 public constant RELAYER_ROLE = keccak256(\"RELAYER_ROLE\");\r\n    bytes32 public constant EXECUTOR_ROLE = keccak256(\"EXECUTOR_ROLE\");\r\n\r\n    modifier onlyAdmin() {\r\n        require(hasRole(DEFAULT_ADMIN_ROLE, msg.sender), \"sender doesn't have admin role\");\r\n        _;\r\n    }\r\n\r\n    modifier onlyAdminOrRelayer() {\r\n        require(hasRole(DEFAULT_ADMIN_ROLE, msg.sender) || hasRole(RELAYER_ROLE, msg.sender),\r\n            \"sender is not relayer or admin\");\r\n        _;\r\n    }\r\n\r\n    modifier onlyRelayers() {\r\n        require(hasRole(RELAYER_ROLE, msg.sender), \"sender doesn't have relayer role\");\r\n        _;\r\n    }\r\n\r\n    modifier onlyExecutorOrAbove() {\r\n        require(hasRole(RELAYER_ROLE, msg.sender) || hasRole(EXECUTOR_ROLE, msg.sender) || hasRole(DEFAULT_ADMIN_ROLE, msg.sender), \"sender doesn't have executor role\");\r\n        _;\r\n    }\r\n\r\n    /**\r\n        @notice Initializes Bridge, creates and grants {msg.sender} the admin role,\r\n        creates and grants {initialRelayers} the relayer role.\r\n        @param chainID ID of chain the Bridge contract exists on.\r\n        @param initialRelayers Addresses that should be initially granted the relayer role.\r\n        @param initialRelayerThreshold Number of votes needed for a deposit proposal to be considered passed.\r\n     */\r\n    constructor (uint8 chainID, address[] memory initialRelayers, uint initialRelayerThreshold, uint256 fee, uint256 expiry) {\r\n        _chainID = chainID;\r\n        _relayerThreshold = initialRelayerThreshold;\r\n        _fee = fee;\r\n        _expiry = expiry;\r\n\r\n        _setupRole(DEFAULT_ADMIN_ROLE, msg.sender);\r\n        _setRoleAdmin(RELAYER_ROLE, DEFAULT_ADMIN_ROLE);\r\n\r\n        // Relayer can add or remove External Executor\r\n        _setupRole(EXECUTOR_ROLE, msg.sender);\r\n        _setRoleAdmin(EXECUTOR_ROLE, RELAYER_ROLE);\r\n\r\n        uint initialRelayerCount = initialRelayers.length;\r\n        for (uint i; i < initialRelayerCount; i++) {\r\n            grantRole(RELAYER_ROLE, initialRelayers[i]);\r\n        }\r\n\r\n    }\r\n\r\n    /**\r\n        @notice Returns true if {relayer} has the relayer role.\r\n        @param relayer Address to check.\r\n     */\r\n    function isRelayer(address relayer) external view returns (bool) {\r\n        return hasRole(RELAYER_ROLE, relayer);\r\n    }\r\n\r\n    /**\r\n        @notice Removes admin role from {msg.sender} and grants it to {newAdmin}.\r\n        @notice Only callable by an address that currently has the admin role.\r\n        @param newAdmin Address that admin role will be granted to.\r\n     */\r\n    function renounceAdmin(address newAdmin) external onlyAdmin {\r\n        grantRole(DEFAULT_ADMIN_ROLE, newAdmin);\r\n        renounceRole(DEFAULT_ADMIN_ROLE, msg.sender);\r\n    }\r\n\r\n    /**\r\n        @notice Pauses deposits, proposal creation and voting, and deposit executions.\r\n        @notice Only callable by an address that currently has the admin role.\r\n     */\r\n    function adminPauseTransfers() external onlyAdmin {\r\n        _pause();\r\n    }\r\n\r\n    /**\r\n        @notice Unpauses deposits, proposal creation and voting, and deposit executions.\r\n        @notice Only callable by an address that currently has the admin role.\r\n     */\r\n    function adminUnpauseTransfers() external onlyAdmin {\r\n        _unpause();\r\n    }\r\n\r\n    /**\r\n        @notice Modifies the number of votes required for a proposal to be considered passed.\r\n        @notice Only callable by an address that currently has the admin role.\r\n        @param newThreshold Value {_relayerThreshold} will be changed to.\r\n        @notice Emits {RelayerThresholdChanged} event.\r\n     */\r\n    function adminChangeRelayerThreshold(uint newThreshold) external onlyAdmin {\r\n        _relayerThreshold = newThreshold;\r\n        emit RelayerThresholdChanged(newThreshold);\r\n    }\r\n\r\n    /**\r\n        @notice Grants {relayerAddress} the relayer role.\r\n        @notice Only callable by an address that currently has the admin role.\r\n        @param relayerAddress Address of relayer to be added.\r\n     */\r\n    function adminAddRelayer(address relayerAddress) external onlyAdmin {\r\n        require(!hasRole(RELAYER_ROLE, relayerAddress), \"addr already has relayer role!\");\r\n        grantRole(RELAYER_ROLE, relayerAddress);\r\n    }\r\n\r\n    /**\r\n        @notice Removes relayer role for {relayerAddress}.\r\n        @notice Only callable by an address that currently has the admin role.\r\n        @param relayerAddress Address of relayer to be removed.\r\n     */\r\n    function adminRemoveRelayer(address relayerAddress) external onlyAdmin {\r\n        require(hasRole(RELAYER_ROLE, relayerAddress), \"addr doesn't have relayer role!\");\r\n        revokeRole(RELAYER_ROLE, relayerAddress);\r\n    }\r\n\r\n        /**\r\n        @notice Grants {executorAddress} the executor role.\r\n        @notice Only callable by an address that currently has the relayer role.\r\n        @param executorAddress Address of executor to be added.\r\n     */\r\n    function relayerAddExecutor(address executorAddress) external onlyRelayers {\r\n        require(!hasRole(EXECUTOR_ROLE, executorAddress), \"addr already has executor role!\");\r\n        grantRole(EXECUTOR_ROLE, executorAddress);\r\n    }\r\n\r\n    /**\r\n        @notice Removes relayer role for {executorAddress}.\r\n        @notice Only callable by an address that currently has the relayer role.\r\n        @param executorAddress Address of executor to be removed.\r\n     */\r\n    function relayerRemoveExecutor(address executorAddress) external onlyRelayers {\r\n        require(hasRole(EXECUTOR_ROLE, executorAddress), \"addr doesn't have executor role!\");\r\n        revokeRole(EXECUTOR_ROLE, executorAddress);\r\n    }\r\n\r\n    /**\r\n        @notice Sets a new resource for handler contracts that use the IERCHandler interface,\r\n        and maps the {handlerAddress} to {resourceID} in {_resourceIDToHandlerAddress}.\r\n        @notice Only callable by an address that currently has the admin role.\r\n        @param handlerAddress Address of handler resource will be set for.\r\n        @param resourceID ResourceID to be used when making deposits.\r\n        @param tokenAddress Address of contract to be called when a deposit is made and a deposited is executed.\r\n     */\r\n    function adminSetResource(address handlerAddress, bytes32 resourceID, address tokenAddress) external onlyAdmin {\r\n        _resourceIDToHandlerAddress[resourceID] = handlerAddress;\r\n        IERCHandler handler = IERCHandler(handlerAddress);\r\n        handler.setResource(resourceID, tokenAddress);\r\n    }\r\n\r\n    /**\r\n        @notice Sets a new resource for handler contracts that use the IGenericHandler interface,\r\n        and maps the {handlerAddress} to {resourceID} in {_resourceIDToHandlerAddress}.\r\n        @notice Only callable by an address that currently has the admin role.\r\n        @param handlerAddress Address of handler resource will be set for.\r\n        @param resourceID ResourceID to be used when making deposits.\r\n        @param contractAddress Address of contract to be called when a deposit is made and a deposited is executed.\r\n     */\r\n    function adminSetGenericResource(\r\n        address handlerAddress,\r\n        bytes32 resourceID,\r\n        address contractAddress,\r\n        bytes4 depositFunctionSig,\r\n        bytes4 executeFunctionSig\r\n    ) external onlyAdmin {\r\n        _resourceIDToHandlerAddress[resourceID] = handlerAddress;\r\n        IGenericHandler handler = IGenericHandler(handlerAddress);\r\n        handler.setResource(resourceID, contractAddress, depositFunctionSig, executeFunctionSig);\r\n    }\r\n\r\n    /**\r\n        @notice Sets a resource as burnable for handler contracts that use the IERCHandler interface.\r\n        @notice Only callable by an address that currently has the admin role.\r\n        @param handlerAddress Address of handler resource will be set for.\r\n        @param tokenAddress Address of contract to be called when a deposit is made and a deposited is executed.\r\n     */\r\n    function adminSetBurnable(address handlerAddress, address tokenAddress) external onlyAdmin {\r\n        IERCHandler handler = IERCHandler(handlerAddress);\r\n        handler.setBurnable(tokenAddress);\r\n    }\r\n\r\n    /**\r\n        @notice Returns a proposal.\r\n        @param originChainID Chain ID deposit originated from.\r\n        @param depositNonce ID of proposal generated by proposal's origin Bridge contract.\r\n        @param dataHash Hash of data to be provided when deposit proposal is executed.\r\n        @return Proposal which consists of:\r\n        - _dataHash Hash of data to be provided when deposit proposal is executed.\r\n        - _yesVotes Number of votes in favor of proposal.\r\n        - _noVotes Number of votes against proposal.\r\n        - _status Current status of proposal.\r\n     */\r\n    function getProposal(uint8 originChainID, uint64 depositNonce, bytes32 dataHash) external view returns (Proposal memory) {\r\n        uint72 nonceAndID = (uint72(depositNonce) << 8) | uint72(originChainID);\r\n        return _proposals[nonceAndID][dataHash];\r\n    }\r\n\r\n    /**\r\n        @notice Sets a initial deposit nonce for dest chan, this is used to migrate to a new bridge contract.\r\n        @param chainId Dest chain id.\r\n        @param depositNonce Initial deposit nonce.\r\n     */\r\n    function adminSetDepositNonce(uint8 chainId, uint64 depositNonce) external onlyAdmin {\r\n        _depositCounts[chainId] = depositNonce;\r\n    }\r\n\r\n    /**\r\n        @notice Changes deposit fee.\r\n        @notice Only callable by admin.\r\n        @param newFee Value {_fee} will be updated to.\r\n     */\r\n    function adminChangeFee(uint newFee) external onlyAdmin {\r\n        require(_fee != newFee, \"Current fee is equal to new fee\");\r\n        _fee = newFee;\r\n    }\r\n\r\n    /**\r\n        @notice Changes xpiry.\r\n        @notice Only callable by admin.\r\n        @param newExpiry Value {_expiry} will be updated to.\r\n     */\r\n    function adminExpiry(uint newExpiry) external onlyAdmin {\r\n        _expiry = newExpiry;\r\n    }\r\n\r\n    /**\r\n        @notice Used to manually withdraw funds from ERC safes.\r\n        @param handlerAddress Address of handler to withdraw from.\r\n        @param tokenAddress Address of token to withdraw.\r\n        @param recipient Address to withdraw tokens to.\r\n        @param amountOrTokenID Either the amount of ERC20 tokens or the ERC721 token ID to withdraw.\r\n     */\r\n    function adminWithdraw(\r\n        address handlerAddress,\r\n        address tokenAddress,\r\n        address recipient,\r\n        uint256 amountOrTokenID\r\n    ) external onlyAdmin {\r\n        IERCHandler handler = IERCHandler(handlerAddress);\r\n        handler.withdraw(tokenAddress, recipient, amountOrTokenID);\r\n    }\r\n\r\n    /**\r\n        @notice Initiates a transfer using a specified handler contract.\r\n        @notice Only callable when Bridge is not paused.\r\n        @param destinationChainID ID of chain deposit will be bridged to.\r\n        @param resourceID ResourceID used to find address of handler to be used for deposit.\r\n        @param data Additional data to be passed to specified handler.\r\n        @notice Emits {Deposit} event.\r\n     */\r\n    function deposit(uint8 destinationChainID, bytes32 resourceID, bytes calldata data) external payable whenNotPaused {\r\n        require(msg.value == _fee, \"Incorrect fee supplied\");\r\n\r\n        address handler = _resourceIDToHandlerAddress[resourceID];\r\n        require(handler != address(0), \"resourceID not mapped to handler\");\r\n\r\n        uint64 depositNonce = ++_depositCounts[destinationChainID];\r\n        _depositRecords[depositNonce][destinationChainID] = data;\r\n\r\n        IDepositExecute depositHandler = IDepositExecute(handler);\r\n        depositHandler.deposit(resourceID, destinationChainID, depositNonce, msg.sender, data);\r\n\r\n        emit Deposit(destinationChainID, resourceID, depositNonce);\r\n    }\r\n\r\n    /**\r\n        @notice When called, {msg.sender} will be marked as voting in favor of proposal.\r\n        @notice Only callable by relayers when Bridge is not paused.\r\n        @param chainID ID of chain deposit originated from.\r\n        @param depositNonce ID of deposited generated by origin Bridge contract.\r\n        @param data Data provided when deposit was made.\r\n        @notice Proposal must not have already been passed or executed.\r\n        @notice {msg.sender} must not have already voted on proposal.\r\n        @notice Emits {ProposalEvent} event with status indicating the proposal status.\r\n     */\r\n    function voteProposal(uint8 chainID, uint64 depositNonce, bytes32 resourceID, bytes calldata data) external onlyRelayers whenNotPaused {\r\n        address handler = _resourceIDToHandlerAddress[resourceID];\r\n        bytes32 dataHash = keccak256(abi.encodePacked(handler, data));\r\n        uint72 nonceAndID = (uint72(depositNonce) << 8) | uint72(chainID);\r\n        Proposal storage proposal = _proposals[nonceAndID][dataHash];\r\n\r\n        require(_resourceIDToHandlerAddress[resourceID] != address(0), \"no handler for resourceID\");\r\n        require(uint(proposal._status) <= 1, \"proposal already passed/executed/cancelled\");\r\n        require(!_hasVotedOnProposal[nonceAndID][dataHash][msg.sender], \"relayer already voted\");\r\n\r\n        if (uint(proposal._status) == 0) {\r\n            ++_totalProposals;\r\n            _proposals[nonceAndID][dataHash] = Proposal({\r\n                _resourceID : resourceID,\r\n                _dataHash : dataHash,\r\n                _yesVotes : new address[](1),\r\n                _noVotes : new address[](0),\r\n                _status : ProposalStatus.Active,\r\n                _proposedBlock : block.number\r\n                });\r\n\r\n            proposal._yesVotes[0] = msg.sender;\r\n            emit ProposalEvent(chainID, depositNonce, ProposalStatus.Active, resourceID, dataHash);\r\n        } else {\r\n            if ((block.number - proposal._proposedBlock) > _expiry) {\r\n                // if the number of blocks that has passed since this proposal was\r\n                // submitted exceeds the expiry threshold set, cancel the proposal\r\n                proposal._status = ProposalStatus.Cancelled;\r\n                emit ProposalEvent(chainID, depositNonce, ProposalStatus.Cancelled, resourceID, dataHash);\r\n            } else {\r\n                // // dataHash is never manually provided, so no need to check anymore\r\n                // require(dataHash == proposal._dataHash, \"datahash mismatch\");\r\n                // I think there is a risk, we should not vote without checking resourceID\r\n                // Otherwise, Relayer can initialize a proposal with right data but wrong resourceID and lure other relayers to vote \r\n                require(proposal._resourceID == resourceID, \"Cheating Risk; Relayer vote with wrong resourceID\");\r\n                proposal._yesVotes.push(msg.sender);\r\n            }\r\n\r\n        }\r\n        if (proposal._status != ProposalStatus.Cancelled) {\r\n            _hasVotedOnProposal[nonceAndID][dataHash][msg.sender] = true;\r\n\r\n            // If _depositThreshold is set to 1, then auto finalize\r\n            // or if _relayerThreshold has been exceeded\r\n            if (_relayerThreshold <= 1 || proposal._yesVotes.length >= _relayerThreshold) {\r\n                if (_executeProposal(data, resourceID)) {\r\n                    proposal._status = ProposalStatus.Executed;\r\n                    emit ProposalEvent(chainID, depositNonce, ProposalStatus.Executed, resourceID, dataHash);\r\n                    return;\r\n                } else {\r\n                    // If we can not execute due to any ERC20 Handler issue, then just make the proposal passed\r\n                    proposal._status = ProposalStatus.Passed;\r\n                    emit ProposalEvent(chainID, depositNonce, ProposalStatus.Passed, resourceID, dataHash);\r\n                    return;\r\n                }\r\n            }\r\n        }\r\n\r\n    }\r\n\r\n    /**\r\n        @notice Executes a deposit proposal that is considered passed using a specified handler contract.\r\n        @notice Only callable by relayers when Bridge is not paused.\r\n        @param chainID ID of chain deposit originated from.\r\n        @param depositNonce ID of deposited generated by origin Bridge contract.\r\n        @param dataHash Hash of data originally provided when deposit was made.\r\n        @notice Proposal must be past expiry threshold.\r\n        @notice Emits {ProposalEvent} event with status {Cancelled}.\r\n     */\r\n    function cancelProposal(uint8 chainID, uint64 depositNonce, bytes32 dataHash) public onlyAdminOrRelayer {\r\n        uint72 nonceAndID = (uint72(depositNonce) << 8) | uint72(chainID);\r\n        Proposal storage proposal = _proposals[nonceAndID][dataHash];\r\n\r\n        require(proposal._status != ProposalStatus.Cancelled, \"Proposal already cancelled\");\r\n        require((block.number - proposal._proposedBlock) > _expiry, \"Proposal not at expiry threshold\");\r\n\r\n        proposal._status = ProposalStatus.Cancelled;\r\n        emit ProposalEvent(chainID, depositNonce, ProposalStatus.Cancelled, proposal._resourceID, proposal._dataHash);\r\n\r\n    }\r\n\r\n    /**\r\n        @notice Executes a deposit proposal that is considered passed using a specified handler contract.\r\n        @notice callable by Executor or above when Bridge is not paused.\r\n        @param chainID ID of chain deposit originated from.\r\n        @param resourceID ResourceID to be used when making deposits.\r\n        @param depositNonce ID of deposited generated by origin Bridge contract.\r\n        @param data Data originally provided when deposit was made.\r\n        @notice Proposal must have Passed status.\r\n        @notice Hash of {data} must equal proposal's {dataHash}.\r\n        @notice Emits {ProposalEvent} event with status {Executed}.\r\n     */\r\n    function executeProposal(uint8 chainID, uint64 depositNonce, bytes calldata data, bytes32 resourceID) external onlyExecutorOrAbove whenNotPaused {\r\n        address handler = _resourceIDToHandlerAddress[resourceID];\r\n        uint72 nonceAndID = (uint72(depositNonce) << 8) | uint72(chainID);\r\n        bytes32 dataHash = keccak256(abi.encodePacked(handler, data));\r\n        Proposal storage proposal = _proposals[nonceAndID][dataHash];\r\n        // We must check this. So if executor cheating and outrun a wrong resource id proposal \r\n        require(proposal._resourceID == resourceID, \"wrong resource id\");\r\n        require(proposal._status == ProposalStatus.Passed, \"proposal already transferred/not finalized yet\");\r\n        \r\n        require(_executeProposal(data, resourceID), \"Execution not successful\");\r\n        proposal._status = ProposalStatus.Executed;\r\n        emit ProposalEvent(chainID, depositNonce, ProposalStatus.Executed, resourceID, dataHash);\r\n    }\r\n\r\n     /**\r\n        @notice Executes a deposit proposal that is considered passed using a specified handler contract.\r\n        @notice This method itself does not change the status of proposal or emit event!\r\n        @notice Internal method not callable by public.\r\n        @param resourceID ResourceID to be used when making deposits.\r\n        @param data Data originally provided when deposit was made.\r\n        @return bool The result of handler execution:\r\n        @notice This method does not check if proposal is Passed status!\r\n        @notice Hash of {data} must equal proposal's {dataHash}.\r\n     */\r\n    function _executeProposal(bytes calldata data, bytes32 resourceID) internal returns (bool) {\r\n        IDepositExecute depositHandler = IDepositExecute(_resourceIDToHandlerAddress[resourceID]);\r\n        try depositHandler.executeProposal(resourceID, data) {\r\n            return true;\r\n        } catch {\r\n            return false;\r\n        }\r\n    }\r\n\r\n    /**\r\n        @notice Transfers eth in the contract to the specified addresses. The parameters addrs and amounts are mapped 1-1.\r\n        This means that the address at index 0 for addrs will receive the amount (in WEI) from amounts at index 0.\r\n        @param addrs Array of addresses to transfer {amounts} to.\r\n        @param amounts Array of amonuts to transfer to {addrs}.\r\n     */\r\n    function transferFunds(address payable[] calldata addrs, uint[] calldata amounts) external onlyAdmin {\r\n        require(addrs.length == amounts.length, \"length of address and amounts dismatch\");\r\n        uint addrCount = addrs.length;\r\n        for (uint i = 0; i < addrCount; i++) {\r\n            addrs[i].transfer(amounts[i]);\r\n        }\r\n    }\r\n\r\n}\r\n",
  "sourcePath": "/mnt/d/SourceTree/CAN_bridge_sol/contracts/Bridge.sol",
  "compiler": {
    "name": "solc",
    "version": "0.8.19+commit.7dd6d404.Emscripten.clang"
  },
  "schemaVersion": "3.4.16",
  "updatedAt": "2024-07-30T03:24:17.041Z",
  "devdoc": {
    "author": "ChainSafe Systems.",
    "events": {
      "Paused(address)": {
        "details": "Emitted when the pause is triggered by `account`."
      },
      "RoleAdminChanged(bytes32,bytes32,bytes32)": {
        "details": "Emitted when `newAdminRole` is set as ``role``'s admin role, replacing `previousAdminRole` `DEFAULT_ADMIN_ROLE` is the starting admin for all roles, despite {RoleAdminChanged} not being emitted signaling this. _Available since v3.1._"
      },
      "RoleGranted(bytes32,address,address)": {
        "details": "Emitted when `account` is granted `role`. `sender` is the account that originated the contract call, an admin role bearer except when using {AccessControl-_setupRole}."
      },
      "RoleRevoked(bytes32,address,address)": {
        "details": "Emitted when `account` is revoked `role`. `sender` is the account that originated the contract call:   - if using `revokeRole`, it is the admin role bearer   - if using `renounceRole`, it is the role bearer (i.e. `account`)"
      },
      "Unpaused(address)": {
        "details": "Emitted when the pause is lifted by `account`."
      }
    },
    "kind": "dev",
    "methods": {
      "adminAddRelayer(address)": {
        "params": {
          "relayerAddress": "Address of relayer to be added."
        }
      },
      "adminChangeFee(uint256)": {
        "params": {
          "newFee": "Value {_fee} will be updated to."
        }
      },
      "adminChangeRelayerThreshold(uint256)": {
        "params": {
          "newThreshold": "Value {_relayerThreshold} will be changed to."
        }
      },
      "adminExpiry(uint256)": {
        "params": {
          "newExpiry": "Value {_expiry} will be updated to."
        }
      },
      "adminRemoveRelayer(address)": {
        "params": {
          "relayerAddress": "Address of relayer to be removed."
        }
      },
      "adminSetBurnable(address,address)": {
        "params": {
          "handlerAddress": "Address of handler resource will be set for.",
          "tokenAddress": "Address of contract to be called when a deposit is made and a deposited is executed."
        }
      },
      "adminSetDepositNonce(uint8,uint64)": {
        "params": {
          "chainId": "Dest chain id.",
          "depositNonce": "Initial deposit nonce."
        }
      },
      "adminSetGenericResource(address,bytes32,address,bytes4,bytes4)": {
        "params": {
          "contractAddress": "Address of contract to be called when a deposit is made and a deposited is executed.",
          "handlerAddress": "Address of handler resource will be set for.",
          "resourceID": "ResourceID to be used when making deposits."
        }
      },
      "adminSetResource(address,bytes32,address)": {
        "params": {
          "handlerAddress": "Address of handler resource will be set for.",
          "resourceID": "ResourceID to be used when making deposits.",
          "tokenAddress": "Address of contract to be called when a deposit is made and a deposited is executed."
        }
      },
      "adminWithdraw(address,address,address,uint256)": {
        "params": {
          "amountOrTokenID": "Either the amount of ERC20 tokens or the ERC721 token ID to withdraw.",
          "handlerAddress": "Address of handler to withdraw from.",
          "recipient": "Address to withdraw tokens to.",
          "tokenAddress": "Address of token to withdraw."
        }
      },
      "cancelProposal(uint8,uint64,bytes32)": {
        "params": {
          "chainID": "ID of chain deposit originated from.",
          "dataHash": "Hash of data originally provided when deposit was made.",
          "depositNonce": "ID of deposited generated by origin Bridge contract."
        }
      },
      "constructor": {
        "params": {
          "chainID": "ID of chain the Bridge contract exists on.",
          "initialRelayerThreshold": "Number of votes needed for a deposit proposal to be considered passed.",
          "initialRelayers": "Addresses that should be initially granted the relayer role."
        }
      },
      "deposit(uint8,bytes32,bytes)": {
        "params": {
          "data": "Additional data to be passed to specified handler.",
          "destinationChainID": "ID of chain deposit will be bridged to.",
          "resourceID": "ResourceID used to find address of handler to be used for deposit."
        }
      },
      "executeProposal(uint8,uint64,bytes,bytes32)": {
        "params": {
          "chainID": "ID of chain deposit originated from.",
          "data": "Data originally provided when deposit was made.",
          "depositNonce": "ID of deposited generated by origin Bridge contract.",
          "resourceID": "ResourceID to be used when making deposits."
        }
      },
      "getProposal(uint8,uint64,bytes32)": {
        "params": {
          "dataHash": "Hash of data to be provided when deposit proposal is executed.",
          "depositNonce": "ID of proposal generated by proposal's origin Bridge contract.",
          "originChainID": "Chain ID deposit originated from."
        },
        "returns": {
          "_0": "Proposal which consists of: - _dataHash Hash of data to be provided when deposit proposal is executed. - _yesVotes Number of votes in favor of proposal. - _noVotes Number of votes against proposal. - _status Current status of proposal."
        }
      },
      "getRoleAdmin(bytes32)": {
        "details": "Returns the admin role that controls `role`. See {grantRole} and {revokeRole}. To change a role's admin, use {_setRoleAdmin}."
      },
      "getRoleMember(bytes32,uint256)": {
        "details": "Returns one of the accounts that have `role`. `index` must be a value between 0 and {getRoleMemberCount}, non-inclusive. Role bearers are not sorted in any particular way, and their ordering may change at any point. WARNING: When using {getRoleMember} and {getRoleMemberCount}, make sure you perform all queries on the same block. See the following https://forum.openzeppelin.com/t/iterating-over-elements-on-enumerableset-in-openzeppelin-contracts/2296[forum post] for more information."
      },
      "getRoleMemberCount(bytes32)": {
        "details": "Returns the number of accounts that have `role`. Can be used together with {getRoleMember} to enumerate all bearers of a role."
      },
      "grantRole(bytes32,address)": {
        "details": "Grants `role` to `account`. If `account` had not been already granted `role`, emits a {RoleGranted} event. Requirements: - the caller must have ``role``'s admin role. May emit a {RoleGranted} event."
      },
      "hasRole(bytes32,address)": {
        "details": "Returns `true` if `account` has been granted `role`."
      },
      "isRelayer(address)": {
        "params": {
          "relayer": "Address to check."
        }
      },
      "paused()": {
        "details": "Returns true if the contract is paused, and false otherwise."
      },
      "relayerAddExecutor(address)": {
        "params": {
          "executorAddress": "Address of executor to be added."
        }
      },
      "relayerRemoveExecutor(address)": {
        "params": {
          "executorAddress": "Address of executor to be removed."
        }
      },
      "renounceAdmin(address)": {
        "params": {
          "newAdmin": "Address that admin role will be granted to."
        }
      },
      "renounceRole(bytes32,address)": {
        "details": "Revokes `role` from the calling account. Roles are often managed via {grantRole} and {revokeRole}: this function's purpose is to provide a mechanism for accounts to lose their privileges if they are compromised (such as when a trusted device is misplaced). If the calling account had been revoked `role`, emits a {RoleRevoked} event. Requirements: - the caller must be `account`. May emit a {RoleRevoked} event."
      },
      "revokeRole(bytes32,address)": {
        "details": "Revokes `role` from `account`. If `account` had been granted `role`, emits a {RoleRevoked} event. Requirements: - the caller must have ``role``'s admin role. May emit a {RoleRevoked} event."
      },
      "supportsInterface(bytes4)": {
        "details": "See {IERC165-supportsInterface}."
      },
      "transferFunds(address[],uint256[])": {
        "params": {
          "addrs": "Array of addresses to transfer {amounts} to.",
          "amounts": "Array of amonuts to transfer to {addrs}."
        }
      },
      "voteProposal(uint8,uint64,bytes32,bytes)": {
        "params": {
          "chainID": "ID of chain deposit originated from.",
          "data": "Data provided when deposit was made.",
          "depositNonce": "ID of deposited generated by origin Bridge contract."
        }
      }
    },
    "title": "Facilitates deposits, creation and votiing of deposit proposals, and deposit executions.",
    "version": 1
  },
  "userdoc": {
    "kind": "user",
    "methods": {
      "adminAddRelayer(address)": {
        "notice": "Grants {relayerAddress} the relayer role.Only callable by an address that currently has the admin role."
      },
      "adminChangeFee(uint256)": {
        "notice": "Changes deposit fee.Only callable by admin."
      },
      "adminChangeRelayerThreshold(uint256)": {
        "notice": "Modifies the number of votes required for a proposal to be considered passed.Only callable by an address that currently has the admin role.Emits {RelayerThresholdChanged} event."
      },
      "adminExpiry(uint256)": {
        "notice": "Changes xpiry.Only callable by admin."
      },
      "adminPauseTransfers()": {
        "notice": "Pauses deposits, proposal creation and voting, and deposit executions.Only callable by an address that currently has the admin role."
      },
      "adminRemoveRelayer(address)": {
        "notice": "Removes relayer role for {relayerAddress}.Only callable by an address that currently has the admin role."
      },
      "adminSetBurnable(address,address)": {
        "notice": "Sets a resource as burnable for handler contracts that use the IERCHandler interface.Only callable by an address that currently has the admin role."
      },
      "adminSetDepositNonce(uint8,uint64)": {
        "notice": "Sets a initial deposit nonce for dest chan, this is used to migrate to a new bridge contract."
      },
      "adminSetGenericResource(address,bytes32,address,bytes4,bytes4)": {
        "notice": "Sets a new resource for handler contracts that use the IGenericHandler interface, and maps the {handlerAddress} to {resourceID} in {_resourceIDToHandlerAddress}.Only callable by an address that currently has the admin role."
      },
      "adminSetResource(address,bytes32,address)": {
        "notice": "Sets a new resource for handler contracts that use the IERCHandler interface, and maps the {handlerAddress} to {resourceID} in {_resourceIDToHandlerAddress}.Only callable by an address that currently has the admin role."
      },
      "adminUnpauseTransfers()": {
        "notice": "Unpauses deposits, proposal creation and voting, and deposit executions.Only callable by an address that currently has the admin role."
      },
      "adminWithdraw(address,address,address,uint256)": {
        "notice": "Used to manually withdraw funds from ERC safes."
      },
      "cancelProposal(uint8,uint64,bytes32)": {
        "notice": "Executes a deposit proposal that is considered passed using a specified handler contract.Only callable by relayers when Bridge is not paused.Proposal must be past expiry threshold.Emits {ProposalEvent} event with status {Cancelled}."
      },
      "constructor": {
        "notice": "Initializes Bridge, creates and grants {msg.sender} the admin role, creates and grants {initialRelayers} the relayer role."
      },
      "deposit(uint8,bytes32,bytes)": {
        "notice": "Initiates a transfer using a specified handler contract.Only callable when Bridge is not paused.Emits {Deposit} event."
      },
      "executeProposal(uint8,uint64,bytes,bytes32)": {
        "notice": "Executes a deposit proposal that is considered passed using a specified handler contract.callable by Executor or above when Bridge is not paused.Proposal must have Passed status.Hash of {data} must equal proposal's {dataHash}.Emits {ProposalEvent} event with status {Executed}."
      },
      "getProposal(uint8,uint64,bytes32)": {
        "notice": "Returns a proposal."
      },
      "isRelayer(address)": {
        "notice": "Returns true if {relayer} has the relayer role."
      },
      "relayerAddExecutor(address)": {
        "notice": "Grants {executorAddress} the executor role.Only callable by an address that currently has the relayer role."
      },
      "relayerRemoveExecutor(address)": {
        "notice": "Removes relayer role for {executorAddress}.Only callable by an address that currently has the relayer role."
      },
      "renounceAdmin(address)": {
        "notice": "Removes admin role from {msg.sender} and grants it to {newAdmin}.Only callable by an address that currently has the admin role."
      },
      "transferFunds(address[],uint256[])": {
        "notice": "Transfers eth in the contract to the specified addresses. The parameters addrs and amounts are mapped 1-1. This means that the address at index 0 for addrs will receive the amount (in WEI) from amounts at index 0."
      },
      "voteProposal(uint8,uint64,bytes32,bytes)": {
        "notice": "When called, {msg.sender} will be marked as voting in favor of proposal.Only callable by relayers when Bridge is not paused.Proposal must not have already been passed or executed.{msg.sender} must not have already voted on proposal.Emits {ProposalEvent} event with status indicating the proposal status."
      }
    },
    "version": 1
  }
}